:020000040800F2
:105000000050002009A70008E5960008E796000870
:10501000F1960008FB9600080597000800000000C4
:105020000000000000000000000000000F970008D2
:10503000119700080000000013970008159700085A
:105040005DA700085DA700085DA700087D9900081E
:105050005DA700085DA7000885970008A5970008D0
:10506000C5970008F9970008199800085DA700087F
:105070005DA700085DA700085DA70008E599000886
:105080005DA700085DA70008259700085DA7000838
:10509000E99900085DA700085DA700083998000895
:1050A0005DA700085DA700085DA70008019900083A
:1050B0004D9900085D9900086D9900085597000802
:1050C000659700085DA700085DA7000875970008B0
:1050D0005DA7000835970008459700085DA7000800
:1050E00089980008A59900085DA700080000000045
:1050F00000000000000000000000000000000000B0
:0C51000000000000000000005FF808F153
:1051100081F0004102E000BF83F0004330B54FEA68
:1051200041044FEA430594EA050F08BF90EA020FD5
:105130001FBF54EA000C55EA020C7FEA645C7FEA68
:10514000655C00F0E2804FEA5454D4EB5555B8BF8B
:105150006D420CDD2C4480EA020281EA030382EAFC
:10516000000083EA010180EA020281EA0303362D8E
:1051700088BF30BD11F0004F4FEA01314FF4801C61
:105180004CEA113102D0404261EB410113F0004F73
:105190004FEA03334CEA133302D0524263EB43032A
:1051A00094EA050F00F0A780A4F10104D5F1200EC8
:1051B0000DDB02FA0EFC22FA05F2801841F1000123
:1051C00003FA0EF2801843FA05F359410EE0A5F1F7
:1051D00020050EF1200E012A03FA0EFC28BF4CF028
:1051E000020C43FA05F3C01851EBE37101F00045DE
:1051F00007D54FF0000EDCF1000C7EEB00006EEBEB
:105200000101B1F5801F1BD3B1F5001F0CD3490874
:105210005FEA30004FEA3C0C04F101044FEA4452CB
:1052200012F5800F80F09A80BCF1004F08BF5FEA52
:10523000500C50F1000041EB045141EA050130BD32
:105240005FEA4C0C404141EB010111F4801FA4F1D5
:105250000104E9D191F0000F04BF01460020B1FA2A
:1052600081F308BF2033A3F10B03B3F120020CDA62
:105270000C3208DD02F1140CC2F10C0201FA0CF040
:1052800021FA02F10CE002F11402D8BFC2F1200CA5
:1052900001FA02F120FA0CFCDCBF41EA0C0190405B
:1052A000E41AA2BF01EB0451294330BD6FEA0404A4
:1052B0001F3C1CDA0C340EDC04F11404C4F120028F
:1052C00020FA04F001FA02F340EA030021FA04F3A1
:1052D00045EA030130BDC4F10C04C4F1200220FAF8
:1052E00002F001FA04F340EA0300294630BD21FA36
:1052F00004F0294630BD94F0000F83F4801306BFFC
:1053000081F480110134013D4EE77FEA645C18BFEF
:105310007FEA655C29D094EA050F08BF90EA020F86
:1053200005D054EA000C04BF1946104630BD91EA7E
:10533000030F1EBF0021002030BD5FEA545C05D181
:105340004000494128BF41F0004130BD14F58004C0
:105350003CBF01F5801130BD01F0004545F0FE4134
:1053600041F470014FF0000030BD7FEA645C1ABF69
:10537000194610467FEA655C1CBF0B46024650EAA0
:10538000013406BF52EA033591EA030F41F40021CC
:1053900030BD00BF90F0000F04BF0021704730B552
:1053A0004FF4806404F132044FF000054FF0000127
:1053B00050E700BF90F0000F04BF0021704730B5E8
:1053C0004FF4806404F1320410F0004548BF4042BD
:1053D0004FF000013EE700BF42004FEAE2014FEA12
:1053E00031014FEA02701FBF12F07F4393F07F4FED
:1053F00081F06051704792F0000F14BF93F07F4F1F
:10540000704730B54FF4607401F0004521F0004161
:1054100020E700BF50EA010208BF704730B54FF0E7
:1054200000050AE050EA010208BF704730B511F0EC
:10543000004502D5404261EB41014FF4806404F124
:1054400032045FEA915C3FF4DCAE4FF003025FEAA6
:10545000DC0C18BF03325FEADC0C18BF033202EB2E
:10546000DC02C2F1200300FA03FC20FA02F001FA88
:1054700003FE40EA0E0021FA02F11444C1E600BF27
:1054800070B54FF0FF0C4CF4E06C1CEA11541DBFDA
:105490001CEA135594EA0C0F95EA0C0F00F0DEF8A5
:1054A0002C4481EA030621EA4C5123EA4C5350EA8A
:1054B000013518BF52EA033541F4801143F48013DB
:1054C00038D0A0FB02CE4FF00005E1FB02E506F06C
:1054D0000042E0FB03E54FF00006E1FB03569CF0C1
:1054E000000F18BF4EF0010EA4F1FF04B6F5007FC7
:1054F00064F5407404D25FEA4E0E6D4146EB060639
:1055000042EAC62141EA55514FEAC52040EA5E50C1
:105510004FEACE2EB4F1FD0C88BFBCF5E06F1ED86B
:10552000BEF1004F08BF5FEA500E50F1000041EBA2
:10553000045170BD06F0004646EA010140EA02004F
:1055400081EA0301B4EB5C04C2BFD4EB0C0541EA71
:10555000045170BD41F480114FF0000E013C00F386
:10556000AB8014F1360FDEBF002001F0004170BDAA
:10557000C4F10004203C35DA0C341BDC04F11404C3
:10558000C4F1200500FA05F320FA04F001FA05F24F
:1055900040EA020001F0004221F0004110EBD3701C
:1055A00021FA04F642EB06015EEA430E08BF20EA48
:1055B000D37070BDC4F10C04C4F1200500FA04F3EB
:1055C00020FA05F001FA04F240EA020001F000417D
:1055D00010EBD37041F100015EEA430E08BF20EAF0
:1055E000D37070BDC4F1200500FA05F24EEA020E38
:1055F00020FA04F301FA05F243EA020321FA04F067
:1056000001F0004121FA04F220EA020000EBD3701D
:105610005EEA430E08BF20EAD37070BD94F0000F1D
:105620000FD101F00046400041EB010111F4801F51
:1056300008BF013CF7D041EA060195F0000F18BF02
:10564000704703F00046520043EB030313F4801F3E
:1056500008BF013DF7D043EA0603704794EA0C0FF8
:105660000CEA135518BF95EA0C0F0CD050EA41060E
:1056700018BF52EA4306D1D181EA030101F000418B
:105680004FF0000070BD50EA410606BF10461946B3
:1056900052EA430619D094EA0C0F02D150EA0136BF
:1056A00013D195EA0C0F05D152EA03361CBF104600
:1056B00019460AD181EA030101F0004141F0FE419F
:1056C00041F470014FF0000070BD41F0FE4141F423
:1056D000780170BD70B54FF0FF0C4CF4E06C1CEA23
:1056E00011541DBF1CEA135594EA0C0F95EA0C0FD8
:1056F00000F0A7F8A4EB050481EA030E52EA033593
:105700004FEA013100F088804FEA03334FF08055B3
:1057100045EA131343EA12634FEA022245EA1115E0
:1057200045EA10654FEA00260EF000419D4208BF91
:10573000964244F1FD0404F5407402D25B084FEA3E
:105740003202B61A65EB03055B084FEA32024FF4EA
:1057500080104FF4002CB6EB020E75EB030E22BF47
:10576000B61A754640EA0C005B084FEA3202B6EB07
:10577000020E75EB030E22BFB61A754640EA5C00B6
:105780005B084FEA3202B6EB020E75EB030E22BF46
:10579000B61A754640EA9C005B084FEA3202B6EB47
:1057A000020E75EB030E22BFB61A754640EADC0006
:1057B00055EA060E18D04FEA051545EA16754FEA68
:1057C00006164FEAC30343EA52734FEAC2025FEA86
:1057D0001C1CC0D111F4801F0BD141EA00014FF015
:1057E00000004FF0004CB6E711F4801F04BF0143E6
:1057F0000020B4F1FD0C88BFBCF5E06F3FF6AFAE02
:10580000B5EB030C04BFB6EB020C5FEA500C50F191
:10581000000041EB045170BD0EF0004E4EEA113114
:1058200014EB5C04C2BFD4EB0C0541EA045170BD1B
:1058300041F480114FF0000E013C90E645EA060E5F
:105840008DE60CEA135594EA0C0F08BF95EA0C0F8D
:105850003FF43BAF94EA0C0F0AD150EA01347FF4D5
:1058600034AF95EA0C0F7FF425AF104619462CE7AC
:1058700095EA0C0F06D152EA03353FF4FDAE10460F
:10588000194622E750EA410618BF52EA43067FF460
:10589000C5AE50EA41047FF40DAF52EA43057FF4F0
:1058A000EBAE12E74FF0FF3C06E000BF4FF0010CFB
:1058B00002E000BF4FF0010C4DF804CD4FEA410C5F
:1058C0007FEA6C5C4FEA430C18BF7FEA6C5C1BD02C
:1058D00001B050EA410C0CBF52EA430C91EA030FAD
:1058E00002BF90EA020F0020704710F1000F91EA0A
:1058F000030F58BF994208BF90422CBFD8176FEAD8
:10590000E37040F0010070474FEA410C7FEA6C5CA5
:1059100002D150EA013C07D14FEA430C7FEA6C5CAC
:10592000D6D152EA033CD3D05DF8040B704700BFD8
:105930008446104662468C461946634600E000BF26
:1059400001B5FFF7B7FF002848BF10F1000F01BDF8
:105950004DF808EDFFF7F4FF0CBF012000205DF8C3
:1059600008FB00BF4DF808EDFFF7EAFF34BF012048
:1059700000205DF808FB00BF4DF808EDFFF7E0FFE1
:1059800094BF012000205DF808FB00BF4DF808ED32
:10599000FFF7CEFF94BF012000205DF808FB00BF99
:1059A0004DF808EDFFF7C4FF34BF012000205DF87B
:1059B00008FB00BF4FEA410212F5001215D211D5C3
:1059C0006FF47873B3EB625212D94FEAC12343F0FC
:1059D000004343EA505311F0004F23FA02F018BF7E
:1059E000404270474FF00000704750EA013005D147
:1059F00011F0004008BF6FF0004070474FF000000A
:105A0000704700BF836870B5032B044604D0042B95
:105A10000CBF0A25002500E00C2504F10C0393E8D7
:105A2000070000F039FA236A023005447BB104F123
:105A30002C0393E8070000F02FFA04F13803064620
:105A400093E8070000F028FA3044061D3544E36C63
:105A50000BB9636D3BB104F14C0393E8070000F010
:105A60001BFA02300544A36D0BB9236E33B15834D1
:105A700094E8070000F010FA02300544284670BD93
:105A8000F7B50646019010460D461446FFF7BAFFDB
:105A9000074600F069F9A8426FDC002101226FF38C
:105AA000070162F3071101A8C9B200F087F9019D4F
:105AB0003946284600F01EF92844A5680190042DB7
:105AC00001A805D12F4900F097F901A8294604E063
:105AD0002D4900F091F901A8032100F06FF900258C
:105AE000E3696FF3070563F34105236A003318BFC9
:105AF000012363F382052BB1A36C63F3C405636CCC
:105B000063F34515E36C0BB9636D0BB145F080058C
:105B1000A36D0BB9236E0BB145F0400501A8E9B2A6
:105B200000F04CF901A8A16900F04EF904F10C0352
:105B30000ECB01A800F074F9236A5BB104F12C03C9
:105B40000ECB01A800F06CF904F1380301A80ECBCC
:105B500000F066F92A0605D504F14C0301A80ECB26
:105B600000F05EF96B0605D5583401A894E80E00E4
:105B700000F056F90198801B01E06FF0010003B0BE
:105B8000F0BD00BF805E0108855E010873B5064662
:105B900002AC684644F8081D00F00AF9C0F303108F
:105BA000022812D1009D01A9284600F0EFF8019BC0
:105BB0000544012B009509DD684600F0F9F86846B8
:105BC00000F0F6F83060012000E0002002B070BD67
:105BD00037B501290446019010DD00216FF307015C
:105BE00062F3071101A8C9B200F0E8F8019D002195
:105BF000284600F07FF82844001B01E06FF0010008
:105C000003B030BD0C22FFF7E3BF2DE9F3411F467F
:105C10000B9B054600936846002390460E46019371
:105C200000F0C6F8002460F30704C4F3C0032B603F
:105C3000009DC4F3410304F0010433602846C8F812
:105C4000004001A900F0A2F8019B054400951D4405
:105C50000446694608982A4600F004F988B1009B7A
:105C6000EB1A002B0DDB3368002B03DD684600F0D8
:105C700097F83860009B0A9AED1A1560099A01247A
:105C80001360204602B0BDE8F081F7B5054602ACCE
:105C900068460F46164644F8083D00F089F8002390
:105CA00060F30703C3F3C0021B093A602B60009D39
:105CB00001A9284600F06AF8019B0544012B0095D4
:105CC00004DD684600F06CF83060012003B0F0BDE0
:105CD00030B5074C002322688B4203DAD55C0133D0
:105CE0000570F9E70029A8BF52182260084630BDA8
:105CF0006804002010B500220B4B0B40002B03DA88
:105D0000013B63F07F030133802491FBF4F1DBB2AC
:105D1000002902F10102C8BF23438418002904F8B6
:105D2000013CE9DC104610BD7F000080F7B500247F
:105D300007460E460C6001250134052C11D00DF1EB
:105D400007000121B84701280BD19DF807303268C0
:105D500003F07F0105FB01221B0632604FEAC515E7
:105D6000EAD4204603B0F0BD431C7F2B01DC023097
:105D70007047B3F5804F01DA03307047024A93420F
:105D8000D4BF043005307047FEFF1F00024B18607F
:105D90000248FFF7CBBF00BF68040020D15C0008B9
:105DA000036819785A780233036002EB01207047C8
:105DB0000368024613F8010B1360704703681970FB
:105DC000036801330360704703684FF4807291FBEE
:105DD000F2F21A700268531C0360064B0B40002B52
:105DE00003DA013B63F0FF030133537003680133AF
:105DF00003607047FF00008070B5044608460E46F9
:105E000009F05BFD054629462046FFF7DDFF2A46DF
:105E10002068314609F0FAFB23681D44256070BDF7
:105E200030B585B004AC04E90E00029C0546002C98
:105E300001990CDD2146FFF7C7FF22462868039928
:105E400009F0E4FB2B681C442C6005B030BD21B187
:105E500005B0BDE83040FFF7CFBF05B0BDE830402A
:105E6000FFF7B2BF0B6870B5D31A012B05460C467D
:105E7000164601DC00200CE00846FFF791FF23687E
:105E800068601A189642F5D3AB6023681844206006
:105E9000012000232B6070BD84B004AB03E9070030
:105EA000019810B104B009F008BD029804B0704721
:105EB00070B504680E4624B1204609F0FEFC054684
:105EC00001E084684568304609F0F7FC854209D155
:105ED000204631462A4609F0F8FCD0F1010038BFCF
:105EE000002070BD002070BD30B585B001AC84E8E5
:105EF0000E00054694E80700FFF7CEFF089B02302E
:105F00001844002DC8BF023005B030BD2DE9FF4751
:105F1000129E0EAC00960D4603908046924618469F
:105F20001F4694E80E00FFF7DFFF8146FFF71CFFD6
:105F3000A8422ADC0323002163F307116AF3C3019B
:105F40000C9B67F3420163F3000103A8C9B2FFF79A
:105F500035FF039D49462846FFF7CCFE94E80E0026
:105F60002844039003A8FFF75BFF002F03DD03A87D
:105F70000D99FFF729FF03981199324609F046FB66
:105F800003983044C8EB000001E06FF0010004B05A
:105F9000BDE8F08737B503290446019017DD0021DD
:105FA00062F3071163F3C30101A801F0F901FFF7E0
:105FB00005FF019D02212846FFF79CFE2844019021
:105FC000069901A8FFF700FF0198001B01E06FF0A0
:105FD000010003B030BDF8B506460F460225002487
:105FE000B4420ADA0C2303FB047393E80700FFF7BB
:105FF00053FF033005440134F2E72846F8BD2DE98C
:10600000F34E0A9F0B9D0C460190294606463846E2
:1060100093469946FFF7DFFF8246FFF7A5FEA042B1
:106020002EDC002108236FF3070163F307116BF3E4
:10603000C301012363F3420101A8C9B2FFF7BEFE09
:10604000019C51462046FFF755FE204401904946E9
:1060500001A8FFF7B9FE0024BC420EDA0C2303FBB3
:10606000045301A80ECBFFF7DBFE0C9B01A813F82D
:106070002410FFF7A3FE0134EEE70198801B01E036
:106080006FF0010002B0BDE8F08E2DE9F3479946AC
:106090000A9B824602AC684644F8083D884615468D
:1060A000FFF786FE009E01A93046FFF76FFE019BB9
:1060B0000644012B009606EB030718DD6846FFF740
:1060C0006FFE0023CAF800002B60009BBB420AD27F
:1060D0002E68464509DC731C2B606846FFF768FE96
:1060E00049F82600F1E7012001E04FF0FF3002B04F
:1060F000BDE8F087014B0360704700BF101B01082B
:10610000704770477047000010B5034B04460360AA
:1061100001F046FA204610BD101B010810B50420FE
:1061200001F05EFCD0F1010438BF002401F09CFCBA
:10613000054B1A68821A052A02D91A79D2B25A7105
:106140001C71186010BD00BF6C040020F0B5304A0F
:10615000036885B00092DA682E4C01929B68054670
:106160001B7802200293582100232B4A07F01EFCC3
:10617000AA686868A11D09F0A8FB2B68D0F1010688
:106180009F68DD68254839462A4638BF002609F051
:106190009CFB0346B8B956B1214A02200092622105
:1061A0001D4A07F003FC012384F846302DE01D4B07
:1061B0000220009367213346174A07F0F7FB0123BB
:1061C00084F8473021E0184839462A4609F07DFB1B
:1061D000034690B92EB1154A0220009271210E4A51
:1061E00011E0134B02200093752133460A4A07F051
:1061F000DDFB012384F8483007E00E4B064A00938C
:1062000002207B21002307F0D1FB05B0F0BD00BFC9
:106210008C5E01086C040020BC190108CB5E0108EB
:10622000D45E0108F05E0108085F01080D5F0108F7
:10623000305F0108465F0108F8B505460F4616466F
:106240000024BC420BDA0848317801F0E5FD2855FE
:106250003378013333702B5D2BB10134F1E73D44CA
:10626000002305F8013CF8BD560A00202DE9F3474C
:106270001A4E04460F4698463046022301219146A5
:106280000B9D8DF8073001F0C7FD9DF807102070B9
:106290004B1C30468DF8073001F0BEFD9DF807100D
:1062A00002AC4B1C8246304604F8013D01F0B4FDBF
:1062B0004AEA00203880294648462246FFF7BCFFBC
:1062C000404629462246FFF7B7FF0A98294622464C
:1062D000FFF7B2FF02B0BDE8F08700BF560A00200A
:1062E00008B502F089FD58B902F076FD50B902F008
:1062F000D5FD054B054A00280CBF1046184608BDC1
:10630000034808BD034808BD5F5F0108695F0108D5
:10631000765F01087C5F0108094B10B593F84920AE
:1063200004463AB9012207484FF4165183F8492030
:1063300002F028FD21460348BDE8104001F015BFDA
:106340006C040020880C00202DE9F84305460E4619
:1063500017460024B44203DA384603F060FE70B1F9
:10636000B44208D105F1D000D5F8D81003F037FEBB
:106370000020BDE8F8834FF0FF30BDE8F8833846D1
:10638000D5F8008003F03EFE04F10809A944034655
:1063900049464046324603F045FF0028EBDB044403
:1063A000D8E737B50446D03003F039FED8B194F8B9
:1063B000DC50A5B94FF47A71684603F007FE6421FA
:1063C00004F10800FFF71EFC011E0BDD20466A46A3
:1063D000FFF7BAFF38B9012384F8DC3003E04FF04F
:1063E000FF3000E0284603B030BD2DE9F7430546F5
:1063F0000446084655F86C7B0E4603F003FE29461A
:1064000003460122384603F013FF0128074602D055
:106410004FF0FF3033E0304603F0F4FD4FF0050855
:1064200081460025B8F1010812D020680DF107015E
:1064300001224B4603F0FCFE012809D19DF80720FC
:1064400002F07F0307FB035513064FEAC717E9D491
:10645000294604F16D00FFF74DFC204400F16D0862
:106460003046276803F0CEFD414603462A463846AB
:1064700003F0DEFEA842CBD194F86C00000903B013
:10648000BDE8F0832DE9F04391B004468846FFF75C
:10649000ACFF831E06460B2B5FD8DFE803F05E06D9
:1064A0005E345E5E5E5E5E5E5E510EAB01930FAB70
:1064B000029304F16C0303930CAD64230DF11809EE
:1064C0000493CDF800900DF1320029460DF1310210
:1064D0000DABFFF79AFB012878D1089B09950A9329
:1064E000079B04F1E8050B93002755F8041C21B124
:1064F0004846FFF7DDFC002839D10137052F05F1AB
:106500001005F2D120E06425009506A809A90CAA7F
:1065100004F16C03FFF7B9FB012854D10C9B294609
:10652000009304F1080006220023FFF733FD011E4B
:1065300049DD20464246FFF707FF002843D10CE023
:10654000002584F8DC5009E004F59A75284604F02B
:10655000AFF898BB9DF830307BB90025D4F8D8301F
:1065600013B12046FFF71DFF85B32E462EE02846C7
:1065700004F09EF80028C0D020E0012B07D1BDF820
:10658000343004F1080000936421042208E0022B57
:1065900019D1BDF8343004F10800009364210522BC
:1065A0000023FFF7F7FC002801460CDD2046424699
:1065B000FFF7CAFE431C0546D0D1D6E7284609A9F5
:1065C00004F062F8C6E74FF0FF35CEE7304611B071
:1065D000BDE8F083F8B507460E4615464FF0FF3488
:1065E000284603F01CFD30B938462946FFF74AFF1C
:1065F000B0420446F4D12046F8BDF0B5044691B04F
:106600000F460BA861680DAE154603F0DFFC0C22A7
:106610003046002109F01EF82B780D975A1ED2B291
:10662000012A0AD8D4F8E0204FF6FF718A4214BF3D
:1066300001320122C4F8E020AA806A7802AF0092F9
:10664000AA88019296E8070087E80700AA686421F3
:106650000592EA6804F1080006920022FFF756FC52
:10666000011E02DC4FF0FF3024E020460BAAFFF7AA
:106670006BFEF8B92B78012B06D1204604210BAA1A
:10668000FFF7A8FF042807E0022B13D120460721BB
:106690000BAAFFF79FFF0728E4D16423009308A803
:1066A00009A90AAA04F16C03FFF7EFFA013818BF31
:1066B0006FF0000011B0F0BD10B586B004460021A7
:1066C000102202A808F0C6FF2046049409F0F5F84D
:1066D0000A4C0590A11DE06C02AAFFF78EFF013065
:1066E0000AD1074B022000938C21064A002307F0B1
:1066F0005DF9206D03F07EFD06B010BD6C04002036
:10670000875F0108DF19010830B504469DB00D46CA
:1067100001A8616803F05AFC03AB184664221D49C6
:1067200008F074FF002D08BF0546A96904F1D000E8
:10673000C4F8D81003F053FC642104F108002A4681
:10674000FFF79EF9011E20DD204601AAFFF7FCFDA0
:10675000E8B92046022101AAFFF73CFF022814D124
:106760001CA84FF0FF3540F8705D04F16C016846DD
:106770006422FFF70BFA0128034604D1009830B9D0
:1067800084F8403103E0284601E04FF0FF301DB0AF
:1067900030BD00BFF41901082DE9F04104468EB068
:1067A0000E4609A861680BAD1F468DF8172003F04F
:1067B0000DFC284600210C2208F04CFF94F84031D3
:1067C0000B9613B94FF0FF354EE0D4F8E0304FF69A
:1067D000FF7293424FF0010214BF9B1813468DE8DD
:1067E00024000DF117020292642104F10800C4F89C
:1067F000E0300022FFF703FC011EE3DD204609AA7A
:10680000FFF7A2FD054678BB2046092109AAFFF73C
:10681000E1FE0928D6D14FF0FF33079304F16C0352
:1068200000936423019308A8012106AA07AB0695EB
:10683000FFF72BFC012802D1079D802D14D00022E8
:1068400004EB0213D3F8E480B8F1000F09D10E3243
:1068500004EB021046603946083003F013FF45464A
:1068600002E00132052AEBD128460EB0BDE8F081E6
:1068700073B5FFF735FD374B374C0093019040F26D
:106880008B110220354A002307F090F8206D03F0A9
:10689000A8FC064660B3324B0220009340F28F11F1
:1068A0002E4A002307F082F8E06C0021FFF72CFF4E
:1068B0000546B8B94FF6FF7006F0C0F9294B04F150
:1068C0005406009301962B4602204FF4CA71234AC6
:1068D00007F06CF8E06C31462A462B46FFF75CFF68
:1068E00002B070BD206D02B0BDE8704003F082BC04
:1068F00004F1940003F093FB054690B11A4B40F26B
:10690000A1110093154A3346022007F04FF8C82022
:1069100001F0ACF80120014602B0BDE8704000F083
:1069200081BE04F1940003F06DFB104B4FF4D47161
:1069300000934FF47A73B0FBF3F00190074A022002
:106940002B4607F033F8C82002B0BDE8704001F0D4
:106950008DB800BFB05F01086C040020581A010810
:10696000E35F0108FD5F01080F600108186001087E
:1069700030B51F4C85B004F194003C2103F02FFB8F
:10698000206D03F045FC0546D8B14FF4FA5102A83A
:1069900003F01CFB174B0220009340F27711164ABC
:1069A000002307F003F8E06C02A9FFF76BFD01304C
:1069B0001BD1124B022000934FF4BD710E4A0023ED
:1069C0000EE0E06CD0F8D8307BB1FFF7EAFC013084
:1069D0000BD10B4B084A009302204FF4C1712B4698
:1069E00006F0E4FF206D03F005FC05B030BD00BFEC
:1069F0006C0400203F6001086B1A01086060010808
:106A00009560010830B54C4C85B004F19C0003F052
:106A100006FBE0B1FFF764FC0546206D03F0F0FBD8
:106A2000464B474A4FF4DA7100280CBF104618460F
:106A3000444A02908DE824000220434A002306F0D5
:106A4000B5FF04F19C004FF4FA6103F0D3FA02F0B1
:106A500025FA30B13D48782105B0BDE8304003F05B
:106A6000BEBA206D03F0CCFB10B1FFF781FF01E04F
:106A7000FFF7FEFE6379304D53B1042000F0B0FF04
:106A8000012805D100F0F0FF2B68C01A64283DD81A
:106A900094F84730284D83B12D4B022000934FF4DA
:106AA000EA71294A002306F081FFD5F8A4000368A3
:106AB0005B689847002385F8473094F846301E4DB0
:106AC00083B1244B0220009340F2DB111E4A0023C5
:106AD00006F06CFFD5F8A40003689B689847002374
:106AE00085F8463094F8483023B31B4B164A009380
:106AF000022000234FF4F17106F058FF1748FFF70A
:106B0000DBFD0D4B002283F8482013E0144B4FF4BB
:106B1000E6710D4A00930220002306F047FF11485A
:106B2000FFF7CAFDD5F8A40003681B689847002347
:106B30006B71ADE705B030BD6C0400206C5F0108DF
:106B4000695F0108C46001087E1A01080005002081
:106B5000E5600108FD600108196101082F61010865
:106B600034610108CB5E010873B5294C002504F19E
:106B7000A8062B4629462A460095304601F0A4FA7D
:106B800030462449244A08F0E1FC244AC823D2F8BC
:106B9000CE00D2F8D210D2F8D620C4F8B000C4F893
:106BA000B810C4F8C400C4F8CC1040F6B83604F1EC
:106BB000D8000221A4F8B630C4F8BC20A4F8CA302A
:106BC000C4F8D020A4F8D63084F8B45084F8C0506B
:106BD000A4F8C26084F8C85084F8D45000F006FDD0
:106BE000294604F1940003F0F1F9294604F1DC0090
:106BF00003F0ECF9294604F1E40003F0E7F904F1AD
:106C00009C00294602B0BDE8704003F0DFB900BF28
:106C10006C040020F560000800070020BC19010882
:106C2000F8B505460F460024184802F097F80028EA
:106C3000FADD164802F090F8BC42C1B205D100233B
:106C40002B70124801F09AFA15E00D29F7D00A29A5
:106C5000F5D0082901D07F2904D1002CE4D06E1E84
:106C6000013C02E06E1C297001340848E4B202F0D5
:106C700079F83546D8E7054802F070F8002803DDBA
:106C8000024802F069F8F6E7F8BD00BF880C002062
:106C900030B5034691B00D461548194601F065FA26
:106CA00000238DF8003068464021FFF7B9FF9DF8BA
:106CB0000030002BF7D0002410AB234413F8402CF5
:106CC0000C482978013401F0BBF8E4B22B7810AA03
:106CD0002244013312F8412CDBB22B70002AEBD195
:106CE000642B03D90248044901F054FA11B030BDB5
:106CF000880C0020560A00204A61010870B58EB049
:106D000000F0B2FE0126002105464F488DF81760BD
:106D100001F082F8044640F2DC5000F0A7FEB442D5
:106D200008D94A4B02208DE85800F721484A002331
:106D300006F03CFE4748484901F02CFA00F094FE6A
:106D400040F6AC53401B984208D9012C79D04249F7
:106D5000404801F01FFA00F087FE05463D4801F06B
:106D6000FBFFC0B20D2801D00A28E7D13B4B02201F
:106D700000934FF48571364A002306F017FE642015
:106D800000F074FE0EAC002504F8205D3449314853
:106D900001F0EBF920462021FFF742FF9DF8183063
:106DA000312B07D19DF8171027484B1C8DF8173051
:106DB000012208E0302BE5D19DF8171022484B1C2A
:106DC0008DF817302A4601F03BF826490025214866
:106DD0008DF8185001F0C9F920462021FFF720FF57
:106DE000204608F0E8FB86B20246002EEDD09DF862
:106DF000171015484B1CD2B28DF8173001F020F84F
:106E00009DF817100EAC4B1C04F8213D320A0E48B9
:106E100001F016F814482146FFF73AFF13482146BF
:106E2000FFF736FF12482146FFF732FF11490948A4
:106E300001F0B0F902F02CF803482946012200F0D5
:106E4000FFFF0EB070BD00BF560A00207F61010831
:106E5000961A0108880C0020AC610108D061010875
:106E6000EF6101080A620108166201082262010846
:106E70003F620108466201082DE9F041604BAAB06B
:106E8000022040F235115F4A0093002306F08EFD88
:106E9000FFF734FF5C4B5D4E009302204FF4A1716D
:106EA000584A002306F082FD06F1EC071AAC0AAD41
:106EB000402301930DF11D000DF11E013A462346BA
:106EC0000095FFF7D3F9524B02208DE88800BDF8FA
:106ED0001E304FF4A27102934A4A00230394049592
:106EE00006F064FD4B484C4901F054F99DF81D3003
:106EF000012B09D1082000F051FB484B03601123FE
:106F00000371C6F8A40009E0102000F047FB072138
:106F10000746112203F078FAC6F8A470404B414F9F
:106F200000933A68234640213F4808F087FC0095CB
:106F300023463A6840213D4808F080FC0C2000F0D0
:106F40002DFB3B49BDF81E20044603F03DF94FF4EC
:106F5000A270346500F022FB336D054645F8D03B46
:106F600004460021284603F031F80023C4F8E0303D
:106F700004F1E80704F59C783846103703F07EFBEF
:106F80004745F9D104F59A7808AF404603F076FBFF
:106F90003846002103F01AF897E803004FF4FA533B
:106FA00085E8030000256360404684F8DC50C4F89F
:106FB000E450C4F8F450C4F80451C4F81451C4F8AF
:106FC000245184F840511B49F46403F05BFB042016
:106FD000022100F03BFC2A460420174900F0E4FFA0
:106FE0001648782102F0FBFF154B022000934FF466
:106FF000AF71044A2B4606F0D9FC2AB0BDE8F081F7
:107000007D620108A71A0108996201086C0400203A
:10701000AF620108880C0020D2620108C01C010880
:10702000E962010800000020C00400207204002072
:10703000580500204D6100081D6100080005002072
:10704000EB620108013101EB420291420BD0030FC8
:10705000092B94BF3033373301F8013C0023000182
:1070600001F8023BF1E770471F4B10B51A88032A5D
:1070700004D804200146188006F00AFE4FF0006094
:107080004FF4A04106F0FAFD0124184B18482146A0
:107090001C7007F009F805F067FF05F055FC214664
:1070A000402007F0B9F86FF07F4005F0C7FDE720FA
:1070B00005F038FE0F4B1C7005F090FC7D2007F0AA
:1070C000DBF818B10C4B1C7007F0EAF840F6B8304A
:1070D00005F0E6FC06F03AFA06F044FB074A002306
:1070E0001370074A137010BD540E0020300E00209C
:1070F00000043000B40C002020170020380D0020C0
:107100002E0D002038B52E4C2388042B04D80521E1
:107110000420218006F0BCFD2388062B05D8284BCF
:1071200007210420198006F0B3FDFFF7A5FE254BCB
:1071300001221A701A781D4612B1234802F05EF837
:107140002B7853B12388052B05D81D4B062104202D
:10715000198006F09DFD02F053F92B7863B11B4BAB
:107160001B784BB91A4B1B7833B11A4B1B781BB9E0
:10717000194B1B78002BE3D0184B1B78002BDFD169
:10718000174B1B78002BDBD1134B01221A70154BC8
:10719000002BD5D02388072B05D8094B08210420C4
:1071A000198006F075FDFFF72DFC2388082BC7D842
:1071B000034B09210420198006F06AFDC0E700BFD7
:1071C000540E0020380D002055760008ED0C0020EC
:1071D0002E0D0020B20C002098050020B30C0020DA
:1071E00020170020056A0008F8B5524B1A6812B142
:1071F0001A68013A1A60504B504D1B783BB1504B06
:107200001B78002B28D04F4B002B47D124E04E4C4D
:107210002368264613B12368013B0FE04B4B1B78D4
:10722000D3B94B4B1B78BBB94A4B1B78A3B94A4F18
:107230003B782BB1E72005F0E1FD142323600BE040
:107240002B78002B2DD1E72005F092FD434B1B78C6
:10725000002B34D0322333602B7833B1404C237869
:107260001BB92EE05A6801325A603E4B1A68B2F5DB
:107270007A7F0FD300221A6006F06EFF3A4B4FF66A
:10728000FF711A888A4254D019800420BDE8F84062
:1072900006F0FEBC1A6801321A60F8BD00F0DCF995
:1072A000DAE7324B1B78002BCDD04FF6FF7005F09C
:1072B000C5FCE72005F036FD01233B70CCE76423D5
:1072C000C9E7234B1B788BB1294B47F22F525968E2
:1072D0009142C7D9BFF34F8F264A274BD16801F49B
:1072E000E0610B43D360BFF34F8FFEE7174B1B7872
:1072F00003F0FF0533B9284605F096FE40F6B73394
:1073000098420DD8002005F08FFE41F65733984281
:10731000ABD9002005F090FE184B01221A70A4E7AB
:10732000284605F089FE2378002B9ED101F0B0FDA0
:107330009BE7F8BD28170020100E0020380D002014
:107340005A0900205976000824170020E70C002075
:10735000B30C0020B50C0020B40C0020B10C0020B0
:10736000ED0C00202C170020540E0020B20C002041
:107370009805002000ED00E00400FA05E60C00206E
:1073800008B5094B186006F087F8002006F0D0F821
:10739000064805F0FDFA06F097F806F0B5F8BDE8E6
:1073A000084007F0A3BE00BFBC020020A086010079
:1073B000074B1B68052B08D1064B1A7A012A04D10A
:1073C000987A1B7BC01AC0B270470020704700BF7C
:1073D000580E0020980500200D4B10B51B68052B9A
:1073E00013D10C4C237A012B0FD16289A389D31AB4
:1073F000012B04D100230320237207F0CEFFA389C1
:107400005A1CA2811C44A07B10BD4FF0FF3010BD60
:10741000580E00209805002008B50C4B1B68052B62
:1074200012D10B4B1A6D99180132B2F5807F08BF4B
:10743000002281F854001A6505F012FF20B1642083
:10744000BDE8084005F0A4BA08BD00BF580E0020F2
:1074500098050020F8B5234B93F85421012A3FD01A
:10746000D3F85821196DB2F5807F04BF0022C3F80C
:107470005821D3F858411B4A8C4203D1002382F88B
:107480005431F8BD8CBFC4F58071C4EB0101C2F862
:107490005C11D3F85C61134D402EA2B207D9403481
:1074A000403EC5F85841C5F85C61402706E03444C9
:1074B0000021B7B2C5F85841C5F85C110A4801244B
:1074C0001044C0213A4683F8544107F0E1FE2046BB
:1074D000394607F0E5FF2046BDE8F84007F04ABF0F
:1074E000F8BD00BF98050020EC050020094B10B541
:1074F00093E8140008331B68D0180AD00649082204
:10750000FFF7A0FD204605490422BDE81040FFF723
:1075100099BD10BDE8F7FF1F690200207902002025
:1075200013B5084C002100910A460B46204600F096
:10753000CBFD0549054A204602B0BDE8104008F0E1
:1075400005B800BFF8060020F5600008000700201D
:1075500038B504460D46AC4203D254F8043B984774
:10756000F9E738BD08B507480749FFF7F1FF0748B5
:107570000749FFF7EDFFBDE8084006480649FFF759
:10758000E7BF00BF0868010808680108086801082B
:107590007C6801087C6801087C68010808F026B84E
:1075A00008F02CB808B5072006F04EFAFEE70000F8
:1075B000074A08B5136818441060064A904204D977
:1075C000082006F041FA07F0EFFF184608BD00BF9B
:1075D00004000020004800204FF0FF3070470120D9
:1075E000704708B50C2006F02FFAFEE7012908D0F5
:1075F00002D3022905D07047054B00221A700122E0
:1076000002E0034B00221970024B1A70704700BF52
:10761000040700202E0D0020014B1878704700BF92
:107620000407002038B50D46044606F061FE2844E4
:1076300006F092FE06F0A0FE14B1012C04D038BD75
:10764000BDE8384001F01EBCBDE8384005F020BA66
:10765000002070477047000038B5114CD4F8345200
:107660002DB1D4F83432013BC4F8343238BDD4F8EB
:1076700038320C4A52F8230005F008FBE72005F0E9
:1076800051FB6423084AC4F83432D4F838325268C3
:1076900001339342C4F83832A8BFC4F8385238BD19
:1076A00004070020B41A0108080000207FB502205A
:1076B0000121062204F05EFA041E24DB0223ADF849
:1076C000003000238DF8023035238DF803304FF45D
:1076D000FA5008238DF804308DF805308DF8063007
:1076E0008DF8073001F082FD6946102205462046DC
:1076F00004F0D0FA0646284601F078FD204604F052
:1077000069FA304601E04FF0FF3004B070BD000070
:1077100010B5064C2068002805DB04F05BFA4FF03A
:10772000FF33236010BD002010BD00BF0800002003
:10773000F0B5A7B0FFF7ECFF02200121062204F00C
:1077400019FA304F002838604DDB2F4C0223A4F883
:107750003C32162384F83E3205A8332384F83F32A6
:1077600005F06AFF002300939DF814303BB1012B14
:1077700014D0264B01AD03F1100E2A4602E0069B01
:10778000009310E0186859682E4603C60833734505
:107790003546F7D10FCA06AD85E80F000A25009BD4
:1077A0000BB9013D22D1009B0BB9194B0093009BF3
:1077B0004FF4FA501A0E84F840221A0C84F8412231
:1077C0001A0A84F8433284F8422201F00FFD11496D
:1077D00004461022386804F05DFA0546204601F0A0
:1077E00005FD28460CE04FF0FF3009E006A87E2199
:1077F00008F081F86A4681B206A804F011FACEE7D3
:1078000027B0F0BD08000020040700201363010822
:1078100004E5D0364009002004F03CBA13B5084C0A
:10782000002100910A460B46204600F04DFC054918
:10783000054A204602B0BDE8104007F087BE00BFF1
:1078400050090020F56000080007002014282DE9E9
:10785000F34104460E4677D8FF2975D000F08CFE20
:1078600020B1A4F10D039BB2022B6DD900F070FB87
:1078700008B1012C68D901F02DFA20B1A4F112034E
:107880009BB2012B60D918236343314DEA18EF589E
:10789000304BB2F804809F4201D1042003E02E4B0C
:1078A0009F4203D10820012106F0C2FCADF80480FC
:1078B000062E45D8DFE806F0040F171F27313C00DD
:1078C00010238DF8073003238DF80630182303FBAF
:1078D0000454002333E004238DF80730182303FBFE
:1078E000045401232BE048238DF80730182303FBB1
:1078F0000454022323E028238DF80730182303FBC8
:10790000045403231BE0182303228DF8073003FBE4
:1079100004548DF80620042311E01C238DF8073051
:1079200003238DF80630182303FB0454052306E0D7
:1079300000238DF80730182303FB04540623A37398
:10794000384601A906F052FB02B0BDE8F08100BF45
:107950001000002000080140000C0140142870B500
:1079600004460E4638D81D4D182303FB00539B7B5D
:107970005A1ED2B2022A2FD9062B2DD0FF2B2BD084
:1079800000F0FAFD28B1A4F10D039BB2022B00D840
:1079900070BD00F0DDFA10B1012C00D870BD01F00F
:1079A00099F928B1A4F112039BB2012B00D870BD44
:1079B000182303FB04539B7B042B03D12046002197
:1079C000FFF744FF18235C432A192B5992880EB9FC
:1079D0005A6170BD1A6170BD70BD00BF10000020FB
:1079E000142838B5044617D81E4D182303FB00533E
:1079F0009B7BFF2B10D0043BDBB2012B0CD900F09A
:107A0000BBFD20B1A4F10D039BB2022B04D900F001
:107A10009FFA18B1012C01D8002038BD01F05AF9A5
:107A200020B1A4F112039BB2012BF5D9182303FB5B
:107A300004539B7B062B07D10A4B93F8F811FF29BF
:107A4000EAD02046FFF702FF182254432544054B95
:107A5000AA7BA988185912B906F01CFB38BD06F09C
:107A600013FB38BD1000002005F022BE30B54FF4E6
:107A70007A7385B01C4C0093236805460344236049
:107A800005F016FE019006F067FB05F011FE02906E
:107A9000029A019BD31A0393039B002B03DA019BE9
:107AA000029A13440393039BAB421AD20F4B1B78E9
:107AB000002BE8D00E4B1B78002BE4D1039A009BDF
:107AC0009A4203D22368B3F57A7FDCD3039B03F594
:107AD0007A73009301F094FC064B1B78002BF9D1CC
:107AE000D1E705B030BD00BFE80C0020380D002004
:107AF000ED0C0020B30C002010B5029C401AE41AD3
:107B00004443521A94FBF2F0184410BD13B5084CCC
:107B1000002100910A460B46204600F0D5FA05499F
:107B2000054A204602B0BDE8104007F00FBD00BF77
:107B300084090020F56000080007002038B5184BC4
:107B400005461C8803F580631B88A4B29BB22BB941
:107B50004EF6EE62A21A18BF012205E0F4B94EF605
:107B6000EE629B1A5A425A4192020E4B02F1006495
:107B700004F5804413449C420ED22268013209D19C
:107B8000204606F017FA042809D1A01C294606F061
:107B900011FA38BD0434EEE7802038BDAB2038BD83
:107BA00000400008FE43000808B5084806F0E4F964
:107BB00004280AD10548002106F0FCF9042804D164
:107BC000BDE80840024806F0D7B908BD00400008EB
:107BD00000440008104B10B51C8803F580631B8817
:107BE000A4B29BB21CB10BB1AB2010BD01240B4B56
:107BF000A40223440A4A224493420AD91A8892B220
:107C0000824204D133F8023C00200B8010BD043BBB
:107C1000F0E7012010BD00BF00400008FE4300084F
:107C200002400008F8B5444E06F066F9434D34882A
:107C30004EF6EE61A4B22B888C429BB24FF6FF72D7
:107C400010D0944202D0002C73D142E00BB93046E0
:107C50006CE08B426DD1304606F08EF904286AD173
:107C6000284632E04BBB1C461646354B354A1B882E
:107C700032F814509BB2AB4208BFA6B233B29C425A
:107C800003D10134642CF0D10FE02E4F284607F1C8
:107C9000C801FFF79FFF0128F3D02846B7F8C810A6
:107CA000FFF74CFF0428ECD0F8BD2348002106F074
:107CB00081F904283FD1214838E0934239D1284640
:107CC00006F05AF9042836D13046002106F072F940
:107CD000F8BD73B3934201D1284627E016461A4BEC
:107CE000184A1B8832F814509BB2AB4208BFA6B2A8
:107CF00033B29C4203D10134642CF0D10FE0114F18
:107D0000284607F1C801FFF765FF0128F3D0284690
:107D1000B7F8C810FFF712FF0428ECD0F8BD0748E9
:107D2000002106F047F9042805D1034806F024F99C
:107D3000F8BDFFF739FFF8BD004000080044000817
:107D4000064000088C090020064400082DE9F8438D
:107D500006460C4606F0D0F830462146FFF7EEFE08
:107D6000802840D1214B22481988028889B292B2DA
:107D700021B1002A36D11D46814601E005469946CB
:107D800028464EF6EE6106F015F904282BD1304650
:107D90002146FFF7D3FE042825D10024154F34F8DF
:107DA0000780B04503D10234C82CF7D10FE040461C
:107DB00007F1C801FFF70EFF0128F4D04046B7F8DD
:107DC000C810FFF7BBFE0428EDD0BDE8F883484695
:107DD00006F0D2F8042806D12846002106F0EAF879
:107DE000BDE8F883AB20BDE8F88300BF0040000881
:107DF000004400088C09002010B50446FFF712FF6C
:107E00000023044A22F813300133642BF9D12046B1
:107E100010BD00BF8C090020632907B507DC074BA4
:107E200033F811000DF10601FFF7D4FE08B1FF2071
:107E300001E09DF8060003B05DF804FB8C0900200A
:107E400063290B4605DC034931F813001146FFF79F
:107E50007DBF70478C0900200148FFF7CDBF00BFF0
:107E6000560A0020024B18785B78C01A704700BF92
:107E7000580A0020064B5A781978914204D999186B
:107E8000013288785A7070474FF0FF30704700BF5A
:107E9000580A0020054B5A781978914202D91344A8
:107EA000987870474FF0FF30704700BF580A0020A5
:107EB00070470000014B0360704700BF281B01089A
:107EC00010B5034B04460360FFF76AFB204610BD64
:107ED000281B0108F8B5094B054693F822301646D1
:107EE00053B10C468F18BC4206D02B6828469B68BD
:107EF00014F8011B9847F6E73046F8BD580A0020F1
:107F000010B50C4B012293F822408CB193F823401A
:107F10001F2C02D94260002010BD93F824001C18C9
:107F200084F82510411CC9B283F8241083F823106B
:107F3000104610BD580A0020002242604FF47A72A9
:107F40008260014A02607047D81A01087047704782
:107F5000014B93F859007047580A002073B50E4C36
:107F6000002104F164050D4E0B4600910A46284697
:107F700000F0AAF86C3432460949284607F0E6FAC0
:107F80002046FFF7D9FF07492046324602B0BDE838
:107F9000704007F0DBBA00BF580A0020000700203D
:107FA000F5600008B57E0008F0B51646182250436B
:107FB000214B85B01A181858204B9788C31A58427D
:107FC0005841C7F346050023DCB201330DB16D08FB
:107FD000FAE71B4B43F82410214606F095F8012ED2
:107FE00002978DF80C5006D003D3022E06D10C2335
:107FF00002E0102300E008238DF80D30012302A8D1
:108000008DF80E3005F024FF092C12D80D4B042CEE
:108010001B5D01A88DF804308CBF0E230D238DF855
:10802000053000238DF8063001238DF8073005F068
:10803000F1FD05B0F0BD00BF10000020000C0140B4
:10804000D40A0020F81A010808B5034B53F8203071
:1080500003B1984708BD00BFD40A002013B5084CEF
:10806000002100910A460B46204600F02DF80549F4
:10807000054A204602B0BDE8104007F067BA00BFCD
:10808000140B0020F5600008000700202DE9F041E6
:10809000002407460E4625463B1919790A22304628
:1080A00000F0ACF82E218046304600F062F8013432
:1080B0004044032C0544EFD13046F9790A2200F000
:1080C0009DF82844BDE8F08130B58371034D9DF8DB
:1080D0000C30056001714271C37130BD101B010885
:1080E0000548064B06490360064A002303714371A5
:1080F0008371C37107F02ABA1C0B0020101B010802
:10810000F560000800070020014B0360704700BFC6
:10811000281B0108F8B506460C468F180025BC42FE
:1081200007D0336830469B6814F8011B9847054414
:10813000F5E72846F8BD000010B5034B0446036080
:10814000FFF72EFA204610BD281B010838B505465A
:108150000C46084641B107F0B0FB2B680246DB68CD
:1081600028462146984738BD38BD08B5FFF7EEFFD1
:1081700008BD08B503689B68984708BD38B50D2150
:108180000546FFF7F6FF0A2104462846FFF7F1FFF0
:10819000204438BD38B50446FFF7D8FF05462046D1
:1081A000FFF7ECFF284438BD30B500238BB08DF8C5
:1081B0002430012A98BF0A220DF12304B1FBF2F307
:1081C00003FB1211CDB2092D94BF30353735EDB216
:1081D000214604F801590BB11946EFE7FFF7B6FF46
:1081E0000BB030BD10B522B90268C9B29268904791
:1081F00010BDD2B2BDE81040FFF7D6BFFFF7F2BF07
:1082000013B5084C002100910A460B462046FFF7A3
:108210005BFF0549054A204602B0BDE8104007F063
:1082200095B900BF240B0020F5600008000700206E
:10823000B0F900200B46511C1ED041888B4203D35D
:1082400081888B4238BF19460C4B182000FB023343
:108250009A8912B9986806F0C6BA042A02D19868B9
:1082600006F0C3BA082A02D1986806F0C0BA0C2AF0
:1082700002D1986806F0BDBA704700BF1000002018
:1082800037B5B0F906500446A942B0F9082004DB1E
:108290009142B4BF0846104600E02846A188638892
:1082A00000912946FFF728FC81B2204603B0BDE8C3
:1082B0003040FFF7BDBF0000B0F90020531C17D0BD
:1082C0000C4B182101FB02339A8912B9986806F009
:1082D00093BA042A02D1986806F091BA082A02D10A
:1082E000986806F08FBA0C2A02D1986806F08DBA09
:1082F000002070471000002037B50446FFF7DCFF70
:10830000B4F90850B4F906306188A2880095FFF7E7
:10831000F3FBB4F9063000B2984204D0B4F9083047
:10832000984218BF013003B030BD4FF6FF73038091
:108330000023C380B42303814FF4087343804FF4B8
:1083400016638380704710B50446FFF7EEFF2046A2
:1083500010BD0000B0F9003010B55A1C04460CD016
:10836000074A182101FB03230021986806F0CFF982
:108370002046FFF7DAFF012010BD002010BD00BF2E
:10838000100000202DE9F043142989B004460D4661
:108390001746984601D90020C8E0664E182303FB13
:1083A00001639B68002BF6D000F0E6F820B1A5F140
:1083B0000D039BB2022BEED9FFF7CAFD08B1012DC8
:1083C000E9D900F087FC20B1A5F112039BB2012B83
:1083D000E1D9B4F90030013302D02046FFF7BAFFEB
:1083E000BDF940300120E380BDF9443001462381CE
:1083F00025806780A4F8048005F01AFF2846042130
:10840000FFF724FA182303FB05639B68B3F1804F41
:1084100002D10120014609E0474A934208BF0220E9
:1084200003D0464A934203D10420012105F00CFFFA
:1084300044F61F63ADF808301827414B07FB05656C
:108440001A68404B4FF00009B2FBF3F3013BA868F8
:1084500001A9ADF80430ADF80A90ADF8069005F02A
:10846000FBFF6023ADF810300123ADF81230B4F9F2
:108470000030ADF8189007FB0363ADF816909D89A6
:10848000DFF8B08065B9986804A906F02FF8B4F950
:108490000030082107FB0387B86806F067F92BE076
:1084A000042D0CD1986804A906F064F8B4F90030E2
:1084B000082107FB0387B86806F060F91CE0082D67
:1084C0000CD1986804A906F099F8B4F9003029464F
:1084D00007FB0387B86806F05BF90DE00C2D0BD1A4
:1084E000986804A906F0CCF8B4F90030082107FB1D
:1084F0000387B86806F054F9B4F90030182505FB75
:1085000003630121986806F025F9B4F900300121D0
:1085100005FB0363986806F0FAF8B4F9003001210E
:1085200005FB0366B06806F0FEF8012009B0BDE85F
:10853000F08300BF1000002000040040000800404D
:10854000B003002040420F0013B5084C00210091F9
:108550000A460B462046FFF7B7FD0549054A204667
:1085600002B0BDE8104006F0F1BF00BF2C0B0020A8
:10857000F560000800070020014B587D704700BFE0
:10858000340B00207047000013B5084C0021009107
:108590000A460B462046FFF797FD0549054A204647
:1085A00002B0BDE8104006F0D1BF00BF4C0B002068
:1085B000F56000080007002013B5084C0021009169
:1085C0000A460B462046FFF77FFD0549054A20462F
:1085D00002B0BDE8104006F0B9BF00BF580B002044
:1085E000F560000800070020014B0360704700BFE2
:1085F000281B010813B5026802AB03F8011DD468FB
:1086000019460122A04702B010BD10B5B0F896205F
:10861000B0F8943004469A4207D0B4F894305A1C0B
:10862000A4F894201C44207D10BD03681B69984762
:108630000028F2D14FF0FF3010BD10B5B0F89620F1
:10864000B0F8943004469A4204D0B4F894301C44F4
:10865000207D10BD03681B6998470028F5D14FF0B5
:10866000FF3010BD0023A0F89430A0F8963070477A
:1086700010B5034B04460360FEF792FF204610BD81
:10868000281B010830B5B0F8963087B0044633B1E6
:10869000B0F894209A4202D10368DB69984700F051
:1086A000ABFB18B32069082820D0B4F896307F2B94
:1086B0001CD8430906AA02EB8303012100F01F0224
:1086C00091400025039553F80C2C01300A4343F8E0
:1086D0000C2C41F28833059304AB009303A92A467E
:1086E0002B46049503F004FBA84206DCB4F8960080
:1086F000B4F89430C01A07B030BD206906AB420907
:1087000003EB820252F80C2C00F01F0342FA03F331
:10871000DB07EBD5B4F896202B46A1181431C2F133
:10872000800203F085FB0028E0DDB4F896300BB939
:10873000A4F894300344A4F89630D7E7F8B5174668
:10874000B0F89430B0F8962004469A420E4606D10E
:1087500003681B69984710B94FF0FF3512E0B4F871
:108760009430B4F89650E118ED1ABD4228BF3D464A
:10877000304614312A4606F049FFB4F894302B44B1
:10878000A4F894302846F8BD10B5044600690828BE
:1087900001D003F01FFA0823236110BD7FB5044602
:1087A0000D46164600F028FB002836D00220012195
:1087B000062203F0DFF9002820612BDB2368204626
:1087C000DB6998470223ADF80030330A8DF8023098
:1087D0002B794FF4FA508DF804306B798DF80360E3
:1087E0008DF80530AB798DF80630EB798DF80730D0
:1087F00000F0FCFC6946054610222069FFF70CF8E2
:108800000646284600F0F2FC002E05DA23682046D2
:10881000DB6A9847002000E0012004B070BD000032
:108820002DE9F04188B005460E46904600F0E4FA86
:10883000002718B308AC304644F8147D07F03DF823
:10884000224681B2304603F0EBF9B84215DD039BB6
:1088500004A8DAB20092190EC3F30742C3F3072348
:10886000FFF732FC2B6828461C6A064B06A90693C4
:10887000059B42460793A04700E0384608B0BDE894
:10888000F08100BF101B01084FF47A718160054927
:1088900000220160082142600161A0F89420A0F844
:1088A00096207047401B0108036910B5082B044649
:1088B00001D1002010BD00F09FFA0028F9D02069F6
:1088C00002F07EFBD0F1010038BF002010BD70B572
:1088D00004460E461546FFF7E7FF30B120693146E2
:1088E0002A46002303F022FB70BD4FF0FF3070BD1D
:1088F00070B50446FFF7D8FF012819D0B4F89620C8
:10890000B4F894309A4212D12069082803D002F0BA
:1089100057FB012801D0002070BD236820461B6949
:10892000984720B923682046DB6A9847F3E701207F
:1089300070BD08B5FFF7B8FF003018BF012008BDB3
:1089400013B5084C002100910A460B462046FFF75C
:10895000BBFB0549054A204602B0BDE8104006F0C1
:10896000F5BD00BF600B0020F56000080007002087
:1089700013B5084C002100910A460B462046FFF72C
:10898000A3FB0549054A204602B0BDE8104006F0A9
:10899000DDBD00BF680B0020F56000080007002067
:1089A00038B5184C94F92C305BB394F82D3043B3A0
:1089B00005F09EFC94F82C2094F82D5051B200291B
:1089C00095FBF1F106DD01290BDC013A84F82C203E
:1089D000002307E0013104DB013284F82C2002235C
:1089E00000E0012394F82D20013A84F82D20C418CA
:1089F00005F0C2FC204605F08FFCBDE8384005F0CC
:108A0000BBBC38BD700B002013B5084C0021009191
:108A10000A460B462046FFF757FB0549054A204604
:108A200002B0BDE8104006F091BD00BFA00B0020D1
:108A3000F56000080007002013B5084C00210091E4
:108A40000A460B462046FFF73FFB0549054A2046EC
:108A500002B0BDE8104006F079BD00BFAC0B0020AD
:108A6000F56000080007002013B5084C00210091B4
:108A70000A460B462046FFF727FB0549054A2046D4
:108A800002B0BDE8104006F061BD00BFB40B00208D
:108A9000F560000800070020014B0360704700BF2D
:108AA000281B0108426D836DD01A00F03F0070470B
:108AB000426D836D9A4203D0836D1844007D7047E8
:108AC0004FF0FF307047426D836D9A4209D0836D3D
:108AD000826D03441B7D013202F03F02826518461D
:108AE00070474FF0FF30704710B5034B04460360EA
:108AF000FEF756FD204610BD281B010810B50446A0
:108B0000D4F89C20D4F8A0309A42F9D1237C13B930
:108B10000023237410BDD4F8A4304021186805F058
:108B2000A7FE0028F4D1F1E7D0F8A43070B50446D0
:108B30000E46186840F2277105F0A0FE28B9D4F857
:108B40009C20D4F8A0309A4215D1D4F89C5001351D
:108B500005F03F05D4F8A0309D42D4F8A43013D0DE
:108B6000EFF31082D20742D5D4F89C10D4F8A0209D
:108B7000914209D13BE0D4F8A43040F22771186843
:108B8000012205F055FEE0E7186840F2277105F074
:108B900075FE0028DED0D4F8A4308021186805F0D6
:108BA00067FE0028D6D0D4F8A43040F227711868A8
:108BB000002205F03DFED4F8A4301868D4F8A030A7
:108BC0005A1C2344C4F8A02093F85C1005F048FE1A
:108BD000D4F8A03040F2277103F03F03C4F8A0306E
:108BE000D4F8A4300122186805F022FEB2E7D4F8C8
:108BF0009C2040F22771224482F85C60C4F89C50AB
:108C00000125186825742A4605F012FE284670BD15
:108C100010B540F225510446006805F02FFE70B1F2
:108C2000206805F021FEE369C0B21A6C596C01326C
:108C300002F03F028A4202D0196C58541A6420682C
:108C400040F2277105F01AFEB8B1A3692068196CCB
:108C50005A6C914206D1BDE8104040F227710022C3
:108C600005F0E6BD5A6C511C5964995C05F0F8FD9D
:108C7000A3695A6C02F03F025A6410BDF8B54FF474
:108C80007A7383600C4B0446002503604560C0F88E
:108C9000A41004F15C07482614308F613246C86185
:108CA000294606F0D7FC38462946324606F0D2FC63
:108CB00025742046F8BD00BF801B01080148FFF75E
:108CC000A7BF00BF0C0200200148FFF7A1BF00BFF3
:108CD0002C020020014B187C704700BFBC0B002009
:108CE00073B50E4C002104F114050D4E0B46009196
:108CF0000A462846FFF7E8F91C3432462846094957
:108D000006F024FC20460849FFF7B8FF0749204633
:108D1000324602B0BDE8704006F018BCBC0B002023
:108D200000070020F56000080C020020998A000866
:108D300070474FF0FF307047014B0360704700BF32
:108D4000281B010810B5034B04460360FEF728FCFE
:108D5000204610BD281B0108FEF73EBB08B5FEF7F4
:108D600027FB08BD08B50846FEF756FB012008BDE5
:108D7000002242604FF47A728260014A02607047BA
:108D8000A81B01080846FEF7FBBA000037B50D4CDA
:108D900000210D4D0B4600910A462046FFF794F93D
:108DA0002A460A492046083406F0D0FB2046FFF741
:108DB000DFFF074920462A4603B0BDE8304006F0F1
:108DC000C5BB00BF800C002000070020F560000834
:108DD000398D000870470000054B1B7803F0FF0039
:108DE0002BB1044B1878D0F1010038BF0020704738
:108DF000EE0C0020B00C0020054B1B7803F0FF00A8
:108E000023B1044B1878003018BF0120704700BF11
:108E1000EE0C0020B00C002038B5FFF7EDFF054642
:108E2000A8B90B4B0124187003F0E0F8094BFF20A0
:108E30001C70094B1C7003F001FFE72003F072FF68
:108E4000284629462246BDE8384003F09BB938BD84
:108E5000AB0C0020EE0C0020B40C002008B5FFF78E
:108E6000CBFF58B1064B002001221A700146024682
:108E700003F088F9BDE8084003F06AB908BD00BFF7
:108E8000AB0C0020014B01221A707047ED0C002042
:108E9000014B01221A707047E70C0020084B1B7829
:108EA00003F0FF0053B1074B1B7833B9064B18781A
:108EB000D0F1010038BF002070470020704700BF8C
:108EC000E70C00204D0200204C0200202DE9F04369
:108ED0001446324A89B012781D4681468846109B56
:108EE000002A58D022782AB1032B4AD8DFE803F0B1
:108EF000020E393900200123009301900290039063
:108F00000490059049464246034636E0244B1B78C0
:108F100003F0FF06D3B9204606F0CFFC27464508EC
:108F20008DF81E60AE4207F102070FD017F8023C21
:108F300007A88DF81C3017F8013C002110228DF88D
:108F40001D3006F001FEA0550136EBE7002301209D
:108F50008DE8210002930393049405934946424609
:108F60000BE0012018211E2202238DE80F0004943B
:108F70000595032049464246002303F027F9094B93
:108F80001870084A084B12780E2001321A7001211D
:108F9000002202F09BF909B0BDE8F083EE0C00203E
:108FA0004D020020390D0020D00C0020024B187813
:108FB000003018BF01207047D00C002008B5FF20FA
:108FC00003F0EAF918B900F0F7F8012008BD002015
:108FD00008BD000037B50B4C00210B4D0B4600912E
:108FE0000A462046FFF770F82A462046074906F051
:108FF000ADFA074904F108002A4603B0BDE8304045
:1090000006F0A4BA980C002000070020F5600008C4
:10901000D58D0008002303601846704700230360C5
:109020001846704700230360184670470A4BF7B58F
:10903000164601220C461A70054606F03EFC07460D
:10904000204606F03AFC009603463946284622465A
:10905000FFF73CFF03B0F0BD4C02002038B50346DB
:1090600048F21004A34208464CD00DDC48F201023D
:10907000934225D048F2020293422ED0992B6CD114
:10908000364B01229A7338BD48F28004A3420FD0B8
:10909000B3F5084F49D048F2400083425DD12F4CD0
:1090A00004F1100006F0B2FA636A0133636238BD5E
:1090B0002B4B01225A70294B1A7000225A7038BD6E
:1090C000264C0123A370E378002B46D1FEF7CCFC9D
:1090D00000F5EA403030606038BD204CA3780BB119
:1090E000E3789BB300250123FF20A57025726572EC
:1090F000A572E572237303F0A1FDE72003F012FED1
:10910000657338BD0A7D154B62B95A604FF47F40D4
:1091100001221A721A7303F091FDBDE83840E7206E
:1091200003F000BE00221A7238BD002101F02DFBB1
:109130000121044601F070FB0A4B1B689C420CD1D4
:10914000064B0022DA729A725A7238BDFEF78CFC16
:1091500000F5EA4030306060C4E738BDA80C00205C
:109160004C020020080000201FB54FF461504FF45E
:1091700061610A2200238DE80F00064B44F620624D
:109180001A60684601A902AA03AB02F019F805B0FB
:109190005DF804FB0C0E00201FB500230093019323
:1091A0000293039301A8694602AA03AB01F0CEFF24
:1091B00005B05DF804FB000070B500210A4C0E20DC
:1091C00002F0D0F8102510210E2002F0CBF82A462C
:1091D0002046002106F03EFA294623460E200022B2
:1091E000BDE8704002F072B8D00C0020024B1A6843
:1091F00018601046704700BF0C0E002030B5224C9E
:1092000085B0A06304F08EF803F0AAFF1F4B204A3C
:109210000093204B20490193204B21480293214B7E
:109220000393214B02F0CAFE642003F0A9FBFFF771
:10923000F3FD48F2042003F0CBF81C4B1A881D46BE
:10924000012A17D00E201021002204F1280302F079
:109250000FF810280ED1637813B9FFF7A7FE80B17D
:10926000134802F065F8FFF797FF05B0BDE83040FE
:10927000FFF77ABFFFF7A2FE00232B8004F08EF9E0
:10928000E9E7FFF705FEEBE7A80C002061D2000834
:109290001D90000875D2000815900008E1D2000862
:1092A0005D90000809D30008259000089E03002067
:1092B000E40C0020F0B5194DAFB00D204321002281
:1092C0002B4601F0D5FF432826D12F781449FE1CE8
:1092D0007419204602AA02F0F1FB2B782B445B782C
:1092E000102B05D904F110000D4902AA02F0E6FB8B
:1092F000E37F1BB1AB5D1F2B03D100E0AB5D0134FD
:1093000000E020230748394610F8012C1544AA78BC
:1093100000922246FFF7DAFD2FB0F0BD6C0E002060
:10932000C81B01086D0E002070B5304C304D002375
:109330009EB0FF206B7023702B70A3702372A373F9
:109340006372A372E372237303F078FCE72003F0E7
:10935000E9FCFFF783FD10210C2002F003F82548FB
:1093600002F0B8FBA81C03F081F8012003F062F8BA
:109370006846214900F01AFDFFF790FD0646D8B176
:1093800094F83E3073B11A26013E06D0E72003F070
:10939000EFFC322003F0F4FAF6E7FFF70FFE84F853
:1093A0003E60E9E7E72003F0E3FCFA2003F0E8FA87
:1093B000684600F05FFDDFE7E72003F0B3FC0F4BEA
:1093C0000E200121324601F053FF6B780BB1FFF7FD
:1093D00071FFFFF721FD48F2042002F0F9FFFFF7CB
:1093E000C3FE002384F83F301EB070BDA80C0020DF
:1093F0004C020020C81B01082D900008D00C002052
:109400002DE9F341A44C04F0A7FE0023236494F853
:1094100044304BB994F8453033B963685BB3FEF719
:1094200023FB6368984226D394F846309A4D53B391
:109430000023AB706B602B72AB6485F8443085F809
:1094400046306B72AB72EB726B7302F005FE012358
:109450006FF07F402B7303F0F1FBE72003F062FC19
:10946000642003F08DFA95F83F3063B1FFF7D4FC28
:10947000FFF75AFF07E094F84630874D1BB96B7829
:109480006BB3FFF7C9FC94F83F30834D13B1FFF77E
:109490004BFF05E06B781BB12B7A03F0FF0643B35B
:1094A00022787D4B012A13D11A7A012A10D19B7898
:1094B000012B0DD10325794806F0FFF9013D82B259
:1094C0007649012002F03CFD15F0FF05F3D125702F
:1094D000237A714D6BB395F84530FBB129E0EB78F9
:1094E000002BCED1FEF7C0FA00F5EA4030306860BC
:1094F000C7E76E60FFF7B2FC694806F0DEF9694F16
:109500008046384606F0D9F900970190791F03206C
:109510004246334602F0B6FD6E70C1E795F84F3013
:109520007BB9642003F02CFA05F14C0001F08EFEAB
:1095300007E094F84F3023B15B4800213A2206F04F
:1095400089F894F88620544B32B95A7A002A48D1C7
:109550009B7A002B45D19CE01A7AFAB193F845200A
:10956000E2B95A7A002A4CD018E02B4603F82B2F88
:109570000E200121032201F0A9FE00264FF6FF7004
:10958000267303F05BFBE72003F0CCFBFEF7D0F87B
:10959000B042414D55DB0123AE646B72637A3E4DA0
:1095A000002B76D0AB7ABBB9FEF752F8002811D069
:1095B00002DA4FF47F0007E0012801D13B4803E0C5
:1095C000022803D14FF0FF1003F038FBE72003F02F
:1095D000A9FB01E00123AB7202B0BDE8F041FEF748
:1095E0001BB8FEF795F800234FF47F40E372A37297
:1095F000637203F023FBE72002B0BDE8F04103F003
:1096000091BB5B7B002BB8D04FF47F0003F016FBBF
:10961000637B214D03F0FF02002BA6D0E72003F06F
:1096200081FB4FF4FA7003F0ABF9E72003F088FBFD
:109630004FF4FA7003F0A4F96B7B013BDBB26B7360
:10964000E6E795F8443023BBAB6C0133022BAB64E7
:1096500004BF012385F84430FEF728F800280ADA11
:10966000A36C0133022BA36403D10B4B012283F8BB
:109670004420022300E003236373637B0E2084F8FD
:109680002B3001210A4B032201F020FE00236372DC
:1096900084E702B0BDE8F081A80C00205102002050
:1096A000580200205D020020F40C00200060FF0042
:1096B000D30C002013B5084C002100910A460B463C
:1096C0002046FEF701FD0549054A204602B0BDE8E7
:1096D000104005F03BBF00BF300D0020F5600008D2
:1096E00000070020704708B5012004F0ADF9FEE73F
:1096F00008B5032004F0A8F9FEE708B5042004F03B
:10970000A3F9FEE708B5052004F09EF9FEE77047CF
:109710007047704708B503F0C3FFBDE80840FDF788
:1097200063BD000008B5024B0BB1AFF3008008BD6C
:109730000000000008B5024B0BB1FFF7C5FA08BDE9
:10974000C98C000808B5024B0BB1FFF7B7FA08BD8A
:10975000BD8C000808B5024B0BB1FEF7F7FB08BD46
:109760004D7F000808B5024B0BB1FEF7F0FB08BDBA
:109770004F7F000808B5024B0BB1FEF703FF08BD91
:109780008585000808B5012004F0A2FB38B101204E
:1097900004F0ACFB024B13B10020FEF755FC08BDF2
:1097A0004980000808B5022004F092FB38B102207D
:1097B00004F09CFB024B13B10120FEF745FC08BDF1
:1097C0004980000808B5042004F082FB78B1042029
:1097D00004F08CFB0020064B0146188003F050FB80
:1097E000BDE8084003481021012204F0AABF08BDCB
:1097F0002C0E0020002C014008B5082004F068FB66
:1098000038B1082004F072FB024B13B10320FEF7BD
:109810001BFC08BD4980000808B5102004F058FB67
:1098200038B1102004F062FB024B13B10420FEF7A4
:109830000BFC08BD4980000808B5202004F048FB57
:1098400038B1202004F052FB0E4B13B10520FEF777
:10985000FBFB402004F03CFB38B1402004F046FB09
:10986000084B13B10620FEF7EFFB802004F030FB1D
:1098700038B1802004F03AFB024B13B10720FEF709
:10988000E3FB08BD4980000808B54FF4005004F020
:109890001FFB40B14FF4005004F028FB174B13B1ED
:1098A0000D20FEF7D1FB4FF4804004F011FB40B1D6
:1098B0004FF4804004F01AFB104B13B10E20FEF75A
:1098C000C3FB4FF4004004F003FB40B14FF40040F1
:1098D00004F00CFB094B13B10F20FEF7B5FB4FF45E
:1098E000006004F0F5FA38B14FF4006004F0FEFABD
:1098F000BDE8084002F0C4BF08BD00BF49800008B1
:1099000008B51048102104F084FFC8B10D4810219B
:1099100004F08AFF002003F077FB30B90A4B1A8865
:1099200092B20A3292B21A8008BD06481021002273
:1099300004F007FFBDE808400020012103F0A0BAB1
:1099400008BD00BF002C01402C0E002008B5024BC2
:109950001B6803B1984708BD3C0D002008B5024BB9
:109960005B6803B1984708BD3C0D002008B5024B69
:109970009B6803B1984708BD3C0D002008B5012045
:1099800004F010FD50B1012004F01CFD044B0BB19C
:10999000FFF706F8BDE8084004F0EEBC08BD00BFC4
:1099A000A189000808B5022004F0FCFCB0B10C4B02
:1099B00000224FF400301A7004F098FA012004F0ED
:1099C000F5FB10B1012004F0FBFB04F0D5FC0220F4
:1099D00004F0F8FCBDE8084004F0CEBC08BD00BFB0
:1099E000ED0C002002F0C2BE00F062B838B5144998
:1099F0000B78012B23D1134A13680BB90B7038BDB8
:109A0000114C402B206881B205D94030403B20608A
:109A10001360402504E09DB20344236000231360DB
:109A20000A482A460844C02105F032FC0120294694
:109A300005F036FDBDE83840012005F09BBC38BD7F
:109A4000EC060020F4060020F0060020EC050020C3
:109A500008B5094B01221A70084B002203201A8016
:109A600005F04EFD064B024618804FF488710548FC
:109A7000BDE8084005F024BCA0050020A405002096
:109A8000A2050020A6050020074B1B68052B09D165
:109A9000064B1A68511C052A196003D100221A606E
:109AA000FDF7D8BC704700BF580E0020480D0020BD
:109AB00070B52B4D2B4C2B682B4E9BB223802288EC
:109AC00033881340990508D54FF6FF532B60A378D0
:109AD0000133DBB2A370FFF7D7FF2288338813402E
:109AE0001A0401D505F01EFB2288338813405B055C
:109AF00005D54FF6FF332B601C4B5B6898472288D7
:109B000033881A40900444BF4DF6FF722A602288C1
:109B10001340D90405D54EF6FF732B60002003F0E7
:109B200003FF2288338813401A050BD5104B1B788E
:109B300013B103F0D9FE02E0022003F0F5FE4FF26C
:109B4000FF732B60228833881340DB0507D54FF65F
:109B5000FF632B600720BDE8704003F0E5BE70BDD9
:109B6000445C00404C0D00206C170020C402002013
:109B7000C4030020034B9B7A13B1034B05221A60E8
:109B8000704700BF48170020580E0020014B0422E8
:109B90001A607047580E0020034B1A78202A04BF21
:109BA00000221A70704700BF500D0020704700005F
:109BB000212810B508D1114B1B681B7803F07F03D7
:109BC000212B10D0022010BD2028FBD10B4B0C4ABA
:109BD0001B681B78107003F07F03212B094B18BF03
:109BE00000230BB9EEE7084B044A00241268204614
:109BF000936154829847204610BD00BF681700202B
:109C0000500D0020599C0008419C0008074B1B6820
:109C10001B7803F07F03212B06D100F0DF00022820
:109C200014BF0220002070470220704768170020F0
:109C300009B1022070470128FBD808467047000090
:109C400020B9034B08221B681A82704701487047ED
:109C500068170020BC02002020B9034B08221B68B3
:109C60001A8270470148704768170020BC02002024
:109C700010B5FDF73BFC054B00241B689C7203F0FC
:109C80001BFE05F053FC024B1C6010BD6817002042
:109C9000580E0020334B344A1B68D27910B500248B
:109CA0005A729C72DC72204605F01CFB20464FF471
:109CB000007105F01FFB2046102105F029FB20460E
:109CC000402105F0C1FB8021204605F0ADFB204678
:109CD00005F076FB254B204693F8341005F0EEFB9B
:109CE000204605F05AFB0120214605F003FB012028
:109CF000C02105F099FB0120202105F009FB01207E
:109D0000214605F01EFB02204FF4C06105F0F2FA77
:109D100002204FF4807105F087FB0220214605F0F8
:109D200010FB0220202105F0F3FA0320214605F064
:109D3000E1FA03204FF4887105F086FB03204021EF
:109D400005F0BCFB03204FF4405105F0FAFA032064
:109D5000214605F0DDFA204605F078F9044B012292
:109D60001A6010BD68170020351C0108BC020020D5
:109D7000580E0020014904F065BF00BFF402002026
:109D8000014904F05FBF00BFFC020020054B1B68C7
:109D9000DB78042B04D8044901EBC30104F052BF63
:109DA00000207047681700200403002038B50446DF
:109DB0000D46FEF7DDFF204625614FF41651FEF7F4
:109DC000E1FF20460249FEF7E5F9204638BD00BF15
:109DD0002363010870B506460D460024284605F0A9
:109DE0006CFD844208D2295D3046FEF7BBFF01209E
:109DF00002F0C6FD0134F1E770BD00002DE9F0412D
:109E000004460E46904600252046FEF7A7FF002890
:109E1000FADD2046FEF7A0FF4545C1B206D100237A
:109E2000337020461249FFF7D5FF15E00D29F6D013
:109E30000A29F4D0082901D07F2904D1002DE3D0CC
:109E4000771E013D02E0771C317001352046EDB2EE
:109E5000FEF788FF3E46D7E72046FEF77FFF002843
:109E600003DD2046FEF778FFF6E7BDE8F08100BF8E
:109E7000E9640108F8B50446FEF770FF002871DDBB
:109E80002046FEF769FFC0B277286BD104F11406B3
:109E900000212122304604F1350505F0DBFB41228B
:109EA0000021284605F0D6FB04F17607002384F84C
:109EB000763020462C497B70FFF78CFF20463146D8
:109EC0002022FFF79BFF20462849FFF783FF01224E
:109ED00020463946FFF792FF94F87630A3F130021E
:109EE000D2B2032AEFD8312B0BD120462049FFF7FD
:109EF00071FF20461F49FFF76DFF20461E49FFF7FF
:109F000069FF94F87620B2F1300708D020461B494B
:109F1000FFF760FF204629464022FFF76FFF2046EB
:109F20001749FFF757FF23693A46304629469847B5
:109F300020461449FFF74EFF20461349FFF74AFF1A
:109F400020461249FFF746FF20461149FFF742FF1E
:109F500020461049FFF73EFF20460F49BDE8F84074
:109F6000FFF738BFF8BD00BF4A630108516301081D
:109F70007E630108B4630108DF63010825640108FA
:109F8000306401087364010893640108C664010821
:109F9000EC6401082B6501085C65010813B5084CE9
:109FA000002100910A460B462046FEF78DF8054930
:109FB000054A204602B0BDE8104005F0C7BA00BF10
:109FC000540D0020F56000080007002038B5044655
:109FD0000D46FDF749FD84E82100204638BD38B51F
:109FE00004460D46FDF740FD4FF47A735D43206053
:109FF000656038BD38B504460D46FDF735FD84E88B
:10A00000210038BD10B50446FDF72EFD2368C01AA7
:10A010006368984234BFC0EB0300002010BD08B550
:10A02000FFF7F0FFD0F1010038BF002008BD0000AD
:10A0300013B5084C002100910A460B462046FEF756
:10A0400043F80549054A204602B0BDE8104005F036
:10A050007DBA00BF5C0D0020F560000800070020FD
:10A060007FB501240646A640254B204621461C709C
:10A0700004F0EAF82046214604F0F2F820460021D8
:10A0800004F0EEF81F4B204A04A81A601C22002599
:10A0900000F8102D68468DF801508DF802408DF8BB
:10A0A000034003F0B7FD194B01A91A684FF4FA6396
:10A0B000B2FBF3F3013B4FF08040ADF80430ADF854
:10A0C0000650ADF80860ADF80A508DF80C5004F059
:10A0D000C3F94FF08040082104F07AFB2246214664
:10A0E0004FF0804004F02DFB21464FF0804004F0FB
:10A0F0009BFB4FF08040214604F009FB04B070BD8B
:10A10000640D00203C0D00206DA10008B00300206C
:10A1100070B50B4C054623781646012B0AD0201D3E
:10A1200000F0D3FA23782661012B06D02846FFF7EA
:10A1300097FF02E04FF0FF3070BD002070BD00BF00
:10A14000640D002010B5084C002223782270012BEA
:10A1500009D1201D00F0CFFA28B1201D2169BDE8EA
:10A16000104000F0B4BA10BD640D002008B54FF0E7
:10A170008040012104F04DFB40B14FF080400121AF
:10A1800004F052FBBDE80840FFF7DCBF08BD00004B
:10A1900037B50A4C002104F114050B4600910A461C
:10A1A0002846FDF791FF28460549064A05F0CEF9F5
:10A1B000201D03B0BDE8304000F083BA640D0020DC
:10A1C000F56000080007002038B5044641600281B0
:10A1D0009820FDF7E3F90546FEF756FB256020467B
:10A1E00038BD034610B5006859680268546A1A8978
:10A1F000A04710BD08B500680368DB6A984708BD32
:10A2000008B50068FEF750FB431E5842584108BD90
:10A21000006808B503681B6998470028D4BF002070
:10A22000012008BD08B500680368DB68984708BDD1
:10A23000F7B506460F46684619461546FFF7C6FEAF
:10A2400000246846FFF7EBFE60B9AC420AD23068E2
:10A2500039460268D2F828C02A1BE0470028F0DD02
:10A260000444EEE7204603B0F0BD000013B5084CEF
:10A27000002100910A460B462046FDF725FF0549BF
:10A28000054A204602B0BDE8104005F05FB900BFA6
:10A29000800D0020F56000080007002073B504461B
:10A2A0000D461646FEF74FF8A572B42300254FF46D
:10A2B0000872019331464FF41663E572009520460B
:10A2C000FEF760F8A07A2946FDF7C0FAA07A294681
:10A2D000FDF744FB204602B070BD0021C172807AB8
:10A2E000FDF73CBB38B5C37A0446092B04D9204698
:10A2F000BDE83840FFF7F1BFC27A124BD2B203EB90
:10A30000820113F822304D887BB1012B18D1FDF763
:10A31000F3FF401B294680EAE075A5EBE07505EBED
:10A3200085052046ADB2FDF7ABFFE37A2846013341
:10A33000DBB2E37204492246FFF7EAFE0028D6D1D9
:10A3400038BD00BF880D00206FA3000810B5C37A88
:10A35000044603F0FF0243B9C272FFF7C3FFA07ABD
:10A360000121FDF7FBFA012010BD002010BDFFF711
:10A37000B9BF000073B5154C002504F128062B4623
:10A3800029462A4600953046FDF79EFE3046104984
:10A39000104A05F0DBF8104EC823324652F8040B81
:10A3A00025711168B26840F6B8362060E380A1607C
:10A3B000E26025746682606125766383E1612262D2
:10A3C00084F82450E38402B070BD00BF880D0020E3
:10A3D000F5600008000700208A1C0108C068FFF72C
:10A3E000B5BF38B5041D05462046FFF718FE48B135
:10A3F000E868FFF7ABFF204644F62061BDE838402F
:10A40000FFF7F8BD38BD0000F8B50A4B04460E460C
:10A4100040F8043B00211746FFF7D8FD0C20FDF75C
:10A42000BDF8314605463A46FFF738FFE56020465D
:10A43000F8BD00BFA01C010873B5134C00252B46C6
:10A4400029462A4600952046FDF73EFE20460F4944
:10A450000F4A05F07BF80F4AC82350699169D26909
:10A4600040F6B836A0602573E381216162612576EC
:10A470006683E06184F8205063846162A26284F89C
:10A480002C50E38502B070BDB80D0020F5600008C7
:10A4900000070020981C0108024B007902491A8825
:10A4A00000F054B8805B0108D01C010813B5084CBB
:10A4B000002100910A460B462046FDF705FE05499E
:10A4C000054A204602B0BDE8104005F03FB800BF85
:10A4D000E80D0020F56000080007002038B5194895
:10A4E000102104F096F958B3174C1648102104F0C7
:10A4F0009BF92388628801339BB29A4223801FD83C
:10A50000A388E28801339BB200259A422580A3806C
:10A510000FD22A460B48102104F013F909480C21E8
:10A520002A4604F047F9207A0121BDE83840FDF7BA
:10A530008DB9E2680348D15CBDE8384004F059B9F0
:10A5400038BD00BF00040040F00D0020F0B5394CCC
:10A55000182505FB0044A66804F10805364C89B0AF
:10A56000A64264D1AC880C2C61D1344C2C23E280FF
:10A57000334AA38012688B69120A23829BB200259A
:10A58000B2FBF3F3E1600421638020722580FDF7C4
:10A590005DF90220012103F057FE0220012103F0A2
:10A5A0005FFE2946022003F05BFE264A264B08A8E0
:10A5B0001A601D23012700F8203D68468DF80150E0
:10A5C0008DF802708DF8037003F024FB4FF4807354
:10A5D000304601A9ADF80830ADF80450ADF806508A
:10A5E000ADF80A508DF80C5003F036FF6023E26896
:10A5F000ADF81030A388ADF81270ADF81850D35CE8
:10A60000304604A9ADF8163004F03AF83046082177
:10A6100004F0C6F8304610213A4604F092F830466D
:10A62000102104F001F93046394604F070F809B001
:10A63000F0BD00BF1000002000040040F00D00201D
:10A64000B0030020DDA40008400D002013B5084C25
:10A65000002100910A460B462046FDF735FD0549CD
:10A66000054A204602B0BDE8104004F06FBF00BFAD
:10A67000040E0020F56000080007002000220260A0
:10A68000426070474160704710B543687BB1046811
:10A690005CB1806810F0010F4FEA600018BF2258CB
:10A6A000204418BFD358984710BD0846984710BD9E
:10A6B000036823B94068003018BF012070470120AB
:10A6C000704700220260426070474160704710B5D9
:10A6D00043687BB104685CB1806810F0010F4FEAF9
:10A6E000600018BF2258204418BFD358984710BDA7
:10A6F0000846984710BD036823B94068003018BF6A
:10A700000120704701207047002100F004B80E4B73
:10A710005B58435004310D480D4B42189A42FFF4E8
:10A72000F6AF0C4A00F003B8002342F8043B0A4B92
:10A730009A42FFF4F9AF03F045F8FCF795FCFCF7FB
:10A7400011FFFCF7DFFC70477C6801080000002067
:10A75000680400206804002078170020FFF7FEBF7F
:10A760000B0A017043700B0C090E8370C17004302A
:10A7700070470170090A41700230704743185A78D7
:10A78000435C03EB022080B2704710B543189A78FF
:10A79000DC78415C120402EB046258780A4402EB54
:10A7A000002010BD73B544790023022C01930FD013
:10A7B000032C19D0012C2BD1164D2B692E4623B119
:10A7C0002B6901A898470246B8B9B16801201BE07F
:10A7D000104DEB682E4623B1EB6801A8984702465E
:10A7E00058B9B16802200FE00A4D6B692E464BB193
:10A7F0006B6901A89847024620B1A9682046BDF8B8
:10A80000043003E0B16803200022134600F03AFC54
:10A8100002B070BDB00E0020072870B518D801290D
:10A8200016D80125854001FA00F0ED43094B1A685E
:10A83000BFF35F8F05EA0204044353E8001F91420F
:10A8400003D143E80046002EF7D1BFF35F8FEDD16F
:10A8500070BD00BF4C03002070B5012186B00546D5
:10A86000FFF78CFF430404463AD5B0F5824F37D149
:10A8700028460521FFF782FF05EB8000EE1D00242E
:10A88000C51DAE4206D030460221FFF777FF0436E1
:10A890000444F6E77A4BBFF35F8FD3E85F1F214490
:10A8A000C3E8521F002AF8D1BFF35F8F0C33BFF308
:10A8B0005F8F53E8001F214443E80012002AF8D1BB
:10A8C000BFF35F8F3C3BD96B9A6B914240F0CA80DB
:10A8D00093F84020002A00F0C5809B69992031E060
:10A8E00024F4FF4020F07F0080B2002800F0978021
:10A8F00048F210039C4228D00CD8B4F5004F40F227
:10A90000BC8048F202039C4215D948F204039C42E1
:10A9100011D0B2E048F280039C420CD004D848F237
:10A9200040039C424FD0A8E0B4F5024F03D0B4F5E9
:10A93000084F6BD0A1E0534B9A69002A00F0928037
:10A940009B69204600210A4667E00023EA185279F5
:10A950000DF803200133042BF8D16B7A05F10D00BB
:10A960008DF80430AB7A8DF80530EB7A8DF806302F
:10A970002B7B8DF80730002300AA1A44C15C0133F9
:10A98000042B1172F8D105F11100002300AA1A441A
:10A99000C15C0133042B1173F8D105F115000023BC
:10A9A00000AA1A44C15C0133042B1174F8D12B792D
:10A9B0008DF81430334B9A69002A53D09B69204696
:10A9C0006946152229E0053500212846FFF7DDFEFE
:10A9D000042100902846FFF7D8FE08210190284660
:10A9E000FFF7D3FE0C2102902846FFF7CEFE102180
:10A9F00003902846FFF7C9FE224B04909A69002A6B
:10AA000030D09B6920466946142206E01D4B9A69A6
:10AA100042B39B692046691D0122984722E041F21A
:10AA200003039C4205D0A4F580530E3B9BB2012B3F
:10AA30001AD86C1D20460421FFF7A7FE39301CD11F
:10AA40002A79104B00212046DA62FFF79EFE04218E
:10AA500005462046FFF799FE393003D128460121EB
:10AA6000FFF7DAFE012009E0064B1B889BB29C42EF
:10AA700004D0B4F5805FF5D100E0002006B070BDD1
:10AA8000E00E0020B00E002070B50E4C6688B6B205
:10AA9000B6B1606805782B1F5D425D412DB1FFF7AF
:10AAA000DBFE003018BF012000E02846064618B93A
:10AAB00035B194F841301BB90023638001F084FD67
:10AAC000304670BDB00E00202DE9F04F85B0044631
:10AAD0008A46914602F0ECFD00250190DFF80883DC
