:020000040800F2
:1050000000500020D99A0008799100087B9100088F
:10501000859100088F910008999100080000000018
:10502000000000000000000000000000A391000844
:10503000A591000800000000A7910008A9910008B0
:105040002D9B00082D9B00082D9B0008FD93000858
:105050002D9B00082D9B000809920008299200084A
:10506000499200087D9200089D9200082D9B00083F
:105070002D9B00082D9B00082D9B000865940008BF
:105080002D9B00082D9B0008B99100082D9B00085E
:10509000699400082D9B00082D9B0008BD92000814
:1050A0002D9B00082D9B00082D9B00088593000870
:1050B000CD930008DD930008ED930008D991000816
:1050C000E99100082D9B00082D9B0008F99100082C
:1050D0002D9B00082D9B0008C99100082D9B0008FE
:1050E0000D930008259400082D9B00080000000087
:1050F00000000000000000000000000000000000B0
:0C51000000000000000000005FF808F153
:1051100081F0004102E000BF83F0004330B54FEA68
:1051200041044FEA430594EA050F08BF90EA020FD5
:105130001FBF54EA000C55EA020C7FEA645C7FEA68
:10514000655C00F0E2804FEA5454D4EB5555B8BF8B
:105150006D420CDD2C4480EA020281EA030382EAFC
:10516000000083EA010180EA020281EA0303362D8E
:1051700088BF30BD11F0004F4FEA01314FF4801C61
:105180004CEA113102D0404261EB410113F0004F73
:105190004FEA03334CEA133302D0524263EB43032A
:1051A00094EA050F00F0A780A4F10104D5F1200EC8
:1051B0000DDB02FA0EFC22FA05F2801841F1000123
:1051C00003FA0EF2801843FA05F359410EE0A5F1F7
:1051D00020050EF1200E012A03FA0EFC28BF4CF028
:1051E000020C43FA05F3C01851EBE37101F00045DE
:1051F00007D54FF0000EDCF1000C7EEB00006EEBEB
:105200000101B1F5801F1BD3B1F5001F0CD3490874
:105210005FEA30004FEA3C0C04F101044FEA4452CB
:1052200012F5800F80F09A80BCF1004F08BF5FEA52
:10523000500C50F1000041EB045141EA050130BD32
:105240005FEA4C0C404141EB010111F4801FA4F1D5
:105250000104E9D191F0000F04BF01460020B1FA2A
:1052600081F308BF2033A3F10B03B3F120020CDA62
:105270000C3208DD02F1140CC2F10C0201FA0CF040
:1052800021FA02F10CE002F11402D8BFC2F1200CA5
:1052900001FA02F120FA0CFCDCBF41EA0C0190405B
:1052A000E41AA2BF01EB0451294330BD6FEA0404A4
:1052B0001F3C1CDA0C340EDC04F11404C4F120028F
:1052C00020FA04F001FA02F340EA030021FA04F3A1
:1052D00045EA030130BDC4F10C04C4F1200220FAF8
:1052E00002F001FA04F340EA0300294630BD21FA36
:1052F00004F0294630BD94F0000F83F4801306BFFC
:1053000081F480110134013D4EE77FEA645C18BFEF
:105310007FEA655C29D094EA050F08BF90EA020F86
:1053200005D054EA000C04BF1946104630BD91EA7E
:10533000030F1EBF0021002030BD5FEA545C05D181
:105340004000494128BF41F0004130BD14F58004C0
:105350003CBF01F5801130BD01F0004545F0FE4134
:1053600041F470014FF0000030BD7FEA645C1ABF69
:10537000194610467FEA655C1CBF0B46024650EAA0
:10538000013406BF52EA033591EA030F41F40021CC
:1053900030BD00BF90F0000F04BF0021704730B552
:1053A0004FF4806404F132044FF000054FF0000127
:1053B00050E700BF90F0000F04BF0021704730B5E8
:1053C0004FF4806404F1320410F0004548BF4042BD
:1053D0004FF000013EE700BF42004FEAE2014FEA12
:1053E00031014FEA02701FBF12F07F4393F07F4FED
:1053F00081F06051704792F0000F14BF93F07F4F1F
:10540000704730B54FF4607401F0004521F0004161
:1054100020E700BF50EA010208BF704730B54FF0E7
:1054200000050AE050EA010208BF704730B511F0EC
:10543000004502D5404261EB41014FF4806404F124
:1054400032045FEA915C3FF4DCAE4FF003025FEAA6
:10545000DC0C18BF03325FEADC0C18BF033202EB2E
:10546000DC02C2F1200300FA03FC20FA02F001FA88
:1054700003FE40EA0E0021FA02F11444C1E600BF27
:1054800070B54FF0FF0C4CF4E06C1CEA11541DBFDA
:105490001CEA135594EA0C0F95EA0C0F00F0DEF8A5
:1054A0002C4481EA030621EA4C5123EA4C5350EA8A
:1054B000013518BF52EA033541F4801143F48013DB
:1054C00038D0A0FB02CE4FF00005E1FB02E506F06C
:1054D0000042E0FB03E54FF00006E1FB03569CF0C1
:1054E000000F18BF4EF0010EA4F1FF04B6F5007FC7
:1054F00064F5407404D25FEA4E0E6D4146EB060639
:1055000042EAC62141EA55514FEAC52040EA5E50C1
:105510004FEACE2EB4F1FD0C88BFBCF5E06F1ED86B
:10552000BEF1004F08BF5FEA500E50F1000041EBA2
:10553000045170BD06F0004646EA010140EA02004F
:1055400081EA0301B4EB5C04C2BFD4EB0C0541EA71
:10555000045170BD41F480114FF0000E013C00F386
:10556000AB8014F1360FDEBF002001F0004170BDAA
:10557000C4F10004203C35DA0C341BDC04F11404C3
:10558000C4F1200500FA05F320FA04F001FA05F24F
:1055900040EA020001F0004221F0004110EBD3701C
:1055A00021FA04F642EB06015EEA430E08BF20EA48
:1055B000D37070BDC4F10C04C4F1200500FA04F3EB
:1055C00020FA05F001FA04F240EA020001F000417D
:1055D00010EBD37041F100015EEA430E08BF20EAF0
:1055E000D37070BDC4F1200500FA05F24EEA020E38
:1055F00020FA04F301FA05F243EA020321FA04F067
:1056000001F0004121FA04F220EA020000EBD3701D
:105610005EEA430E08BF20EAD37070BD94F0000F1D
:105620000FD101F00046400041EB010111F4801F51
:1056300008BF013CF7D041EA060195F0000F18BF02
:10564000704703F00046520043EB030313F4801F3E
:1056500008BF013DF7D043EA0603704794EA0C0FF8
:105660000CEA135518BF95EA0C0F0CD050EA41060E
:1056700018BF52EA4306D1D181EA030101F000418B
:105680004FF0000070BD50EA410606BF10461946B3
:1056900052EA430619D094EA0C0F02D150EA0136BF
:1056A00013D195EA0C0F05D152EA03361CBF104600
:1056B00019460AD181EA030101F0004141F0FE419F
:1056C00041F470014FF0000070BD41F0FE4141F423
:1056D000780170BD70B54FF0FF0C4CF4E06C1CEA23
:1056E00011541DBF1CEA135594EA0C0F95EA0C0FD8
:1056F00000F0A7F8A4EB050481EA030E52EA033593
:105700004FEA013100F088804FEA03334FF08055B3
:1057100045EA131343EA12634FEA022245EA1115E0
:1057200045EA10654FEA00260EF000419D4208BF91
:10573000964244F1FD0404F5407402D25B084FEA3E
:105740003202B61A65EB03055B084FEA32024FF4EA
:1057500080104FF4002CB6EB020E75EB030E22BF47
:10576000B61A754640EA0C005B084FEA3202B6EB07
:10577000020E75EB030E22BFB61A754640EA5C00B6
:105780005B084FEA3202B6EB020E75EB030E22BF46
:10579000B61A754640EA9C005B084FEA3202B6EB47
:1057A000020E75EB030E22BFB61A754640EADC0006
:1057B00055EA060E18D04FEA051545EA16754FEA68
:1057C00006164FEAC30343EA52734FEAC2025FEA86
:1057D0001C1CC0D111F4801F0BD141EA00014FF015
:1057E00000004FF0004CB6E711F4801F04BF0143E6
:1057F0000020B4F1FD0C88BFBCF5E06F3FF6AFAE02
:10580000B5EB030C04BFB6EB020C5FEA500C50F191
:10581000000041EB045170BD0EF0004E4EEA113114
:1058200014EB5C04C2BFD4EB0C0541EA045170BD1B
:1058300041F480114FF0000E013C90E645EA060E5F
:105840008DE60CEA135594EA0C0F08BF95EA0C0F8D
:105850003FF43BAF94EA0C0F0AD150EA01347FF4D5
:1058600034AF95EA0C0F7FF425AF104619462CE7AC
:1058700095EA0C0F06D152EA03353FF4FDAE10460F
:10588000194622E750EA410618BF52EA43067FF460
:10589000C5AE50EA41047FF40DAF52EA43057FF4F0
:1058A000EBAE12E74FF0FF3C06E000BF4FF0010CFB
:1058B00002E000BF4FF0010C4DF804CD4FEA410C5F
:1058C0007FEA6C5C4FEA430C18BF7FEA6C5C1BD02C
:1058D00001B050EA410C0CBF52EA430C91EA030FAD
:1058E00002BF90EA020F0020704710F1000F91EA0A
:1058F000030F58BF994208BF90422CBFD8176FEAD8
:10590000E37040F0010070474FEA410C7FEA6C5CA5
:1059100002D150EA013C07D14FEA430C7FEA6C5CAC
:10592000D6D152EA033CD3D05DF8040B704700BFD8
:105930008446104662468C461946634600E000BF26
:1059400001B5FFF7B7FF002848BF10F1000F01BDF8
:105950004DF808EDFFF7F4FF0CBF012000205DF8C3
:1059600008FB00BF4DF808EDFFF7EAFF34BF012048
:1059700000205DF808FB00BF4DF808EDFFF7E0FFE1
:1059800094BF012000205DF808FB00BF4DF808ED32
:10599000FFF7CEFF94BF012000205DF808FB00BF99
:1059A0004DF808EDFFF7C4FF34BF012000205DF87B
:1059B00008FB00BF4FEA410212F5001215D211D5C3
:1059C0006FF47873B3EB625212D94FEAC12343F0FC
:1059D000004343EA505311F0004F23FA02F018BF7E
:1059E000404270474FF00000704750EA013005D147
:1059F00011F0004008BF6FF0004070474FF000000A
:105A0000704700BF4BB942B9002908BF002802D037
:105A10004FF0FF31084600F03BB882B0EC462DE96C
:105A2000005000F01DF8DDF804E002B00CBC704737
:105A30002DE9F0411646984604460D4600F02AF836
:105A400006FB01FCA6FB002300FB08C7FB18A21AFB
:105A500065EB0303069CC4E90023BDE8F08100BFA9
:105A60002DE9F041904606460F461D4600F070F9BC
:105A700000FB05F3A0FB084508FB0138069B4544E5
:105A8000341B67EB0505C3E90045BDE8F08100BFA5
:105A9000704700BF00292DE9F00F1D46C0F29D8020
:105AA0000024002DC0F2948080460F4694461E4686
:105AB000E3BB8A4255D9B2FA82F747B1C7F1200554
:105AC00020FA05F601FA07F1BA40B8403143170C45
:105AD000B1FBF7F61FFA82FC07FB16110CFB06F56B
:105AE000030C43EA01439D4208D9711E9B1880F0C4
:105AF00013819D4240F21081023E9B18591BB1FB5D
:105B0000F7F507FB15130CFB05FC80B240EA0341D7
:105B10008C4507D96B1E8A1880F00081944540F2AD
:105B2000FD80023D45EA0641002503E08B420CD989
:105B3000002529460A462B4614B1524263EB430323
:105B400010461946BDE8F00F7047B3FA83F5002DF3
:105B500040F087808B4201D38242EAD800250121A0
:105B6000E8E712B90126B6FBF2F2B2FA82F6002E8D
:105B700039D18E1A130C1FFA82FC0125B6FBF3F7FC
:105B800003FB17610CFB07F84FEA104949EA01468D
:105B9000B04506D9791EB61802D2B04500F2D380BE
:105BA0000F46C8EB0606B6FBF3F103FB11630CFBD3
:105BB00001FC80B240EA03439C4506D94E1E9A1868
:105BC00002D2944500F2C280314641EA0741B1E772
:105BD000E443524263EB430366E7404261EB410119
:105BE0004FF0FF345DE7B240C6F1200921FA09F712
:105BF00020FA09F901FA06F1130CB7FBF3F81FFAC2
:105C000082FC03FB18770CFB08F549EA01094FEA0F
:105C1000194141EA0747B040BD420AD9BF1808F10F
:105C2000FF3680F08E80BD4240F28B80A8F10208E2
:105C3000BF18791BB1FBF3F503FB15170CFB05F639
:105C40001FFA89F949EA07418E4206D96F1E891861
:105C500071D28E426FD9023D89188E1B45EA0845E4
:105C60008CE7C5F1200122FA01F306FA05F627FABE
:105C700001F207FA05F720FA01F11E434FEA16492F
:105C8000B2FBF9F81FFA86FA09FB18220AFB08FB97
:105C90000F433B0C43EA024293450CFA05FC08D93A
:105CA000921908F1FF314AD2934548D9A8F1020868
:105CB0009219CBEB0203B3FBF9F109FB11320AFB9A
:105CC00001FABFB247EA02439A4506D94A1E9B1918
:105CD00033D29A4531D902399B1941EA08410F0C58
:105CE0001FFA8CF808FB07F68AB24FEA1C4C08FB37
:105CF00002F80CFB02620CFB07FC02EB1842964216
:105D000088BF0CF5803CCAEB03030CEB124C6345D7
:105D10000ED305D000250DE70E46EFE61D4601E740
:105D200000FA05F01FFA88F808EB0245A842F1D204
:105D300001390025FEE63D468FE71146CDE788464E
:105D4000B7E7B04675E7023FB6182AE702393CE7E5
:105D50002DE9F007144605460E46002B3DD18A4238
:105D600049D9B2FA82F747B1C7F1200120FA01F20E
:105D700006FA07F6BC40BD401643220CB6FBF2F013
:105D8000A1B202FB106601FB00F32F0C47EA0646A6
:105D9000B34208D9471E361980F0FA80B34240F268
:105DA000F78002383619F61AB6FBF2F302FB1362DB
:105DB00001FB03F1ADB245EA0242914207D95E1EF2
:105DC000121980F0E780914240F2E480023B43EAFE
:105DD00000400021BDE8F00770478B4243D8B3FA7A
:105DE00083F4002C42D18B4202D3824200F2E18044
:105DF00000210120EEE712B90127B7FBF2F4B4FA53
:105E000084F2002A40F089800A1B230CA7B20121EA
:105E1000B2FBF3F603FB162207FB06F04FEA154C24
:105E20004CEA0242904207D9121906F1FF3C02D215
:105E3000904200F2D0806646121AB2FBF3F003FBE8
:105E4000102307FB00F7ADB245EA03439F4207D991
:105E5000421E1B1980F0A0809F4240F29D800238B4
:105E600040EA0640B6E700210846B3E7C4F1200641
:105E700022FA06F703FA04F321FA06F501FA04F10F
:105E800020FA06F63B434FEA134CB5FBFCF71FFA2A
:105E900083F80CFB175508FB07F946EA010A4FEA9D
:105EA0001A4141EA0545A94502FA04F204D97E1EC9
:105EB000ED18C0F081803746C9EB0501B1FBFCF657
:105EC0000CFB161508FB06F81FFA8AFA4AEA054188
:105ED000884503D9751EC91874D32E4646EA07466D
:105EE000370C1FFA82FC0CFB07F5120CB3B20CFB4B
:105EF00003FC02FB035302FB07F203EB1C439D422E
:105F000088BF02F58032C8EB010102EB13429142D7
:105F10004CD343D0304600215CE79440C2F12005C9
:105F200021FA05F620FA05F501FA02F1230CB6FB79
:105F3000F3FCA7B203FB1C6607FB0CF829430D0C0E
:105F400045EA0646B04500FA02F508D936190CF1C3
:105F5000FF303ED2B0453CD9ACF1020C3619C8EB4B
:105F60000602B2FBF3F003FB102607FB00F889B230
:105F700041EA0642904506D9461E121927D290459D
:105F800025D902381219C8EB020240EA0C413FE75A
:105F9000384608E733461AE7104661E700FA04F08E
:105FA0001FFA8CFC0CEB03439842B3D2701E002105
:105FB00010E7214620460DE7A9457FF67CAF023F5A
:105FC000ED1879E7884588D9023EC91886E730463A
:105FD000D9E78446C3E7023E12192DE7014B03605F
:105FE000704700BF1091010870B5012188B00446C8
:105FF00001F0C6FEA0F13005072D37D80322684610
:10600000214601F0E5FE1C4904A801F03FFE2046B0
:1060100004A901F0A3FE064604A801F0F5FD1EB197
:10602000ADB22846002110E0144904A801F02EFE6C
:10603000204604A901F092FE044604A801F0E4FD04
:1060400074B10A35ADB22846314600F0C3FF684648
:1060500001F0C5FEC1B2284601F0F2F9012401E0C9
:106060006FF00104684601F0CFFD01E04FF0FF340E
:10607000204608B070BD00BF50F1010852F1010880
:106080007FB50121054601F07BFEA0F13004072C0D
:1060900023D81549684601F0F9FD2846694601F004
:1060A0005DFE0646684601F0AFFD6EB90F496846D1
:1060B00001F0ECFD2846694601F050FE05466846B1
:1060C00001F0A2FD65B10A34A4B22046012100F01E
:1060D00081FF204601F01AF904E04FF0FF3001E0A3
:1060E0006FF0010004B070BD50F1010852F10108D9
:1060F000F0B5012185B0044601F042FEA0F1300662
:10610000072E49D8684621460322072301F03AFEAC
:106110006846264901F0F8FD0546684601F074FD21
:106120007DB9684621460322062301F02BFE68460E
:106130001F4901F0E9FD0746684601F065FD0FB90A
:106140002DE001251B49684601F0A0FD2046694667
:1061500001F004FE0746684601F056FD1FB1B6B2D5
:106160003046002110E01449684601F08FFD2046BA
:10617000694601F0F3FD0446684601F045FD8CB127
:106180000A36B6B23046394600F024FF304629467A
:1061900000F0ACFF012007E04FF0FF3004E06FF0AB
:1061A000010001E06FF0020005B0F0BD54F10108FC
:1061B00059F1010850F1010852F101087FB50121A0
:1061C000054601F0DDFDA0F13004072C23D8154968
:1061D000684601F05BFD2846694601F0BFFD0646B2
:1061E000684601F011FD6EB90F49684601F04EFD99
:1061F0002846694601F0B2FD0546684601F004FDF7
:1062000065B10A34A4B22046032100F0E3FE204623
:1062100000F0B8FF04E04FF0FF3001E06FF0010044
:1062200004B070BD50F1010852F10108034B10B5E4
:106230000446036000F0F8FA204610BD10910108F2
:1062400008B50948094900F0DDFB0948094900F093
:10625000D9FB0948094900F0D5FB09480949BDE8BF
:10626000084000F0CFBB00BF5DF10108BD61000830
:1062700069F10108F160000876F101088160000809
:1062800081F10108E95F00087047000013B5084C70
:10629000002100910A460B46204601F0ADFB05495E
:1062A000054A204602B0BDE810400DF09FBB00BF7C
:1062B000180C0020DD5F0008880D002010B50131AA
:1062C000002393420ED0040F092C01D8303400E093
:1062D000373401F8014C01330024000101F8024B6E
:1062E000DBB2EEE710BD00001F4B10B51A88032A81
:1062F00004D804200146188007F070FA4FF00060BF
:106300004FF4A04107F0B8F9184801242146047061
:10631000174807F0A9FC06F055FA05F03DFF2146A5
:10632000402007F069FD6FF07F4006F0A1F8E720FC
:1063300006F01AF90F490C7005F076FF7D2007F082
:106340007FFD18B10C4B1C7007F08EFD40F6B83085
:1063500005F0C2FF06F014FD06F08EFF074A08495B
:1063600001201070087010BDF41D0020D01D002009
:1063700000043000741C00209C270020881D002091
:106380007E1D0020304B10B51A88042A04D8052140
:106390000420198007F022FA2C48017811B12C480A
:1063A00002F0D6FB294C237853B127480288052AEE
:1063B00004D806210180042007F010FA02F04AFDFB
:1063C000217861B1234C23784BB92348027832B14C
:1063D00022490C781CB9224B18780028E2D0214AB7
:1063E00011780029DED1204C2378002BDAD11C480B
:1063F0000278012A0FD01D4969B1134C2388062B5E
:1064000004D807210420218007F0E8F9FFF718FFDE
:10641000134A0120107016490029C3D00A4C238862
:10642000072B04D808210420218007F0D7F9FFF7B3
:106430002BFF20880828B5D8034A092104201180A1
:1064400007F0CCF9AEE700BFF41D0020881D002046
:10645000A96C00083D1D00207E1D0020721C00203C
:10646000200C0020731C00209C27002041620008A3
:1064700089620008524B70B51A6812B11868411E43
:106480001960504B1A783AB14F4A1078002829D039
:106490004E49002949D125E04D4C206810B12368B0
:1064A000591E0FE04B490B78E3B94B4A1078C8B935
:1064B0004A490B78B3B94A4D2A782AB1E72006F049
:1064C000CDF8142121600DE04648017800292FD134
:1064D000E72006F077F844483D4B0178002935D095
:1064E00032221A603F4B1A7832B1404D287818B9E1
:1064F0002EE041684B1C43603D490B68B3F57A7F41
:106500000FD300230B6007F00DFC3A484FF6FF71E4
:1065100002888A4253D001800420BDE8704007F011
:106520005DB90868421C0A6070BD00F021FCD9E723
:10653000314B1A78002ACBD04FF6FF7005F098FF48
:10654000E72006F011F801202870CBE76422C8E7A5
:1065500021490B7893B1294847F22F52436893425F
:10656000C7D9BFF34F8F264C2648E56805F4E0668F
:1065700046EA0002E260BFF34F8FFEE7154E347823
:1065800034B9204606F07EF940F6B73290420DD875
:10659000002006F077F941F657318842ACD9002047
:1065A00006F078F9184B01201870A5E7204606F090
:1065B00071F92A78002A9FD1012131709CE770BDC2
:1065C000A4270020B01D0020BC0F0020716D000822
:1065D000A0270020341D0020731C0020751C002003
:1065E000741C0020881D0020711C00203D1D00200F
:1065F000A8270020F41D0020721C0020200C002081
:1066000000ED00E00400FA05351D002008B5094B37
:10661000186006F05FFB002006F0A4FB064805F0BA
:10662000DFFD06F06DFB06F08BFBBDE8084008F0CF
:1066300023BB00BF7C020020A0860100074B186826
:10664000052808D106490A7A012A04D1887A0B7BE9
:10665000C11AC8B270470020704700BFF81D002063
:10666000200C00200D4B10B51868052813D10C4CD8
:10667000217A01290FD16289A389D01A012804D176
:1066800000210320217208F062FCA389E218591C42
:10669000907BA18110BD4FF0FF3010BDF81D002090
:1066A000200C002008B50C4B1968052912D10B4BA2
:1066B0001A6D991881F85400501CB0F5807F08BFFE
:1066C0000020186506F0D6F920B16420BDE8084026
:1066D00005F086BD08BD00BFF81D0020200C00207D
:1066E00070B5234A92F85431012B3FD0D2F85801AB
:1066F000B0F5807F02D10021C2F85811D2F858318C
:10670000126D1B48934203D1002180F8541170BDD3
:106710008CBFC3F58072C3EB0202154CC0F85C213C
:10672000D4F85C5199B2402D07D94033403DC4F8AC
:106730005831C4F85C51402606E0E8180023AEB298
:10674000C4F85801C4F85C310A4A01255018C02128
:10675000324684F8545108F071FB2846314608F05F
:1067600077FC2846BDE8704008F0E0BB70BD00BF74
:10677000200C0020740C0020094B10B593E8140085
:106780000833186810180AD008220649FFF796FD4A
:10679000054920460422BDE81040FFF78FBD10BD1B
:1067A000E8F7FF1F2A0200203A02002013B5084C28
:1067B000002100910A460B46204601F01DF90549CB
:1067C000054A204602B0BDE810400DF00FB900BFE9
:1067D000800D0020DD5F0008880D002038B50D46D3
:1067E0000446AC4203D254F8043B9847F9E738BD5D
:1067F00008B507480749FFF7F1FF07480749FFF7C2
:10680000EDFF07480749BDE80840FFF7E7BF00BFB5
:10681000C0F60108C0F60108C0F601081CF701081F
:106820001CF701081CF701080DF054BA08B5072041
:1068300006F04CFEFEE70000074A08B5136807495A
:1068400018188842106004D9082006F03FFE0DF0A9
:1068500007F9184608BD00BF0000002000480020CE
:106860004FF0FF3070470120704708B50C2006F04C
:106870002DFEFEE7014B1868704700BF8C0D00200D
:10688000064B0246582000FB013101F1080303CBFF
:106890001060516018689060704700BF8C0D002038
:1068A000014BD3F8640170478C0D0020064B024663
:1068B000142000FB013101F5B67303CB1060516069
:1068C00018689060704700BF8C0D00200E4B2DE9BA
:1068D000F041D3F8647180460024BC4211DA1425DB
:1068E0006543094E4146701900F5B6700C220EF052
:1068F000DFFB20B97519D5F86801BDE8F0810134D6
:10690000EBE70020BDE8F0818C0D00202DE9F04779
:1069100088B0814668460D4601F0B8F91E4B002448
:10692000D3F800A054452DDA55B3582666431A4FC4
:10693000494607F1040808EB060004300C220EF06B
:10694000B7FBE8B928460EF083FB06F1100140289A
:1069500034BF0246402208EB010029460DF056FDE7
:10696000BE19012286F85820694604A8746801F00F
:10697000AFF904A8A047044604A801F045F903E0D4
:106980000134CFE74FF0FF34684601F03DF920466F
:1069900008B0BDE8F08700BF8C0D002038B5054673
:1069A000064C28B105F006FE012384F8303238BDCC
:1069B00005F0AEFD84F8305238BD00BF8C0D0020CC
:1069C000024B00221A6006F077BA00BF240C0020A8
:1069D000034A044800231370036006F0A5BA00BF01
:1069E000731C0020240C0020044B054900200122C8
:1069F0001A7008604FF4C02006F038BA731C0020EB
:106A0000240C00202DE9F84F04468946002941D086
:106A100000283FD0204B1D68042D3BD00027AF42FB
:106A20001E4E4FF058080FDA08FB07F856F808100A
:106A3000494507D106EB0802101D21460C220EF035
:106A400037FB38B30137EAE708FB05F8A6F1040A7B
:106A50000AEB080708F11000C7F804900021402253
:106A600030180DF059FE06EB0801081D0C2200211C
:106A70000DF052FE2068616807F1080203C2A368A6
:106A80000020013507F1040B87F8580013605437D4
:106A900046F8045CBDE8F88F8C0D0020900D0020B6
:106AA00073B5002B0CBF6523452306460D461446DF
:106AB000009331462A462346014808F0F5FC7CBD88
:106AC000C00F002010B5064C206803F04BFC236873
:106AD000013303D0411E4842484110BD012010BD82
:106AE00004000020F0B5274B0646187887B00F4603
:106AF000002843D124490A78002A3FD1FFF7E2FF5A
:106B0000044600283AD1214D8DF80C002B688DF8F1
:106B10000D008DF80E008DF80F0006A9580901EB45
:106B2000800203F01F01012000FA01F052F80C1C52
:106B30000494014342F80C1C04A841F288320592E7
:106B4000009003A9581C2246234604F045FD002866
:106B500016DD2B6806A95D0901EB850050F80C5C79
:106B600003F01F0245FA02F515F0010008D018469F
:106B700031463A46234604F0CFFD01E04FF0FF30A6
:106B800007B0F0BD3C1D00203D1D0020040000208A
:106B900038B50B4B054618780C4668B909490A7890
:106BA00052B9FFF78FFF034630B9074829462246FE
:106BB000006804F02FFE38BD4FF0FF3038BD00BF35
:106BC0003C1D00203D1D00200400002030B51F4862
:106BD000ADF57B7D08F0ACFA002834D11C481D4B84
:106BE00006901D4D1D4805931D491E4A1E4B0A95D2
:106BF0000C901E4D1E48079108920B931D491E4A8A
:106C00001E4B0F9511901E4D1E481F4C0D910E925C
:106C10001E491F4A10931F4B1495169061AD17A87B
:106C2000129113921593099404900EAC039506F0FB
:106C3000C1F9284606F0C4F900940448164903AA8D
:106C400005AB08F07CFA0DF57B7D30BDC00F002050
:106C5000E56A0008916B0008C1690008C575000865
:106C6000E9690008D16900089D6900088168000889
:106C7000A1680008B97E0008756800080D69000861
:106C8000CD680008E1CF0008F1CF0008AD6800082A
:106C90007D6F0008CDCF0008E8F7FF1F014809F01D
:106CA000CEB900BFC00F002030B5022011228DB038
:106CB000014604F0DBFB051E28DB154907A808F098
:106CC00084FB022316200024ADF80C308DF80E0052
:106CD0003321E0220123BB208DF811408DF80F10E5
:106CE0008DF810208DF812308DF813000324102237
:106CF00003A90091019200231322284607A904F05A
:106D000093FD013CF3D1284604F0DEFB0DB030BD0D
:106D1000E8F7FF1F30B5134C87B0FFF757FF204649
:106D200008F009FA204608F01BFE0546FFF7BCFFF5
:106D3000204608F09EFB03A803F0FCFC9DF80D2004
:106D40009DF80C300092082104A8074A0EF000F8C4
:106D5000064804A93C220123FFF7A2FE284607B0FB
:106D600030BD00BFC00F00208DF1010893F1010874
:106D700038B5114CD4F8585B2DB1D4F8581B4B1EC4
:106D8000C4F8583B38BDD4F85C3B0C4A52F8230099
:106D900005F096FBE72005F0E7FB094A6420D4F8EC
:106DA0005C1BC4F8580B50684B1C8342C4F85C3B16
:106DB000A8BFC4F85C5B38BD8C0D0020B8900108FA
:106DC000040000207FB502200121062204F04EFBC2
:106DD000041E23DB00200822022335218DF8020047
:106DE0004FF4FA50ADF800308DF803108DF8042000
:106DF0008DF805208DF806208DF8072001F074FB32
:106E0000694606461022204604F0BAFB0546304685
:106E100001F06AFB204604F057FB01E04FF0FF351C
:106E2000284604B070BD000010B5064C206800284C
:106E300005DB04F049FB4FF0FF33236010BD002059
:106E400010BD00BF0400002030B5A7B0FFF7ECFF75
:106E500002200121062204F009FB334B00281860B0
:106E600052DB3248022216213324A0F8602B80F82E
:106E7000621B80F8634B05A806F068F89DF8143093
:106E80000025009533B1012B17D0294B01A803F140
:106E9000100502E0069A009214E00246596818684C
:106EA000083303C2AB421046F7D101A906AC0FC9A3
:106EB00007C424F8023B1B0C23700A24009D0DB963
:106EC000013C24D1009808B91A490091009B174C45
:106ED000180A1D0E1A0C84F8660B4FF4FA5084F849
:106EE000673B84F8645B84F8652B01F0FDFA0E497A
:106EF00005461022086804F5366104F041FB04469B
:106F0000284601F0F1FA0CE04FF0FF3409E07E2151
:106F100006A80EF05DF96A4681B206A804F0FAFAF6
:106F2000CCE7204627B030BD040000208C0D0020A7
:106F3000AEF1010804E5D0360F4B2DE9F041D3F84E
:106F4000647180460024BC4211DA142565430A4E60
:106F50004146701900F5B6700C220EF0A9F820B960
:106F6000751995F87801BDE8F0810134EBE74FF031
:106F7000FF30BDE8F08100BF8C0D002008B5FFF7A1
:106F8000DBFF0138082803D8024B1918087F08BD19
:106F9000022008BDB890010837B50B4C002104F55C
:106FA00037650B4600910A46284600F025FD284625
:106FB0000649074A0CF01AFD04F50D7003B0BDE850
:106FC000304008F0A5B800BF8C0D0020DD5F000840
:106FD000880D002014282DE9F34104460E467CD884
:106FE000FF297AD000F0D8FD28B10D2C75D00F2CD8
:106FF00073D00E2C71D000F093FC08B1012C6CD929
:1070000001F0AAF818B1A4F11203012B65D91820D8
:107010006043334D33492F582A188F42B2F8048009
:1070200001D1042003E0304B9F4203D1082001210D
:1070300006F0EEFEADF80480062E4AD8DFE806F032
:1070400004121A222A354100254B182101FB043471
:1070500010208DF8070003220020A0738DF8062071
:10706000083436E0042118238DF8071003FB04547C
:1070700001212DE0482018228DF8070002FB04545E
:10708000022125E0282118238DF8071003FB045462
:1070900003211DE0124A182303208DF807308DF8D4
:1070A000060003FB0424042112E00D491C230320E5
:1070B000182202FB04148DF807308DF80600052114
:1070C00006E0182202FB045400208DF80700062178
:1070D000A173384601A906F067FDBDE8FC8100BF39
:1070E0000C00002000080140000C0140142870B57D
:1070F00004460E4642D8224B182202FB0030817B08
:1071000001293BD0022939D0032937D0062935D0AF
:10711000FF2933D000F040FD30B10D2C2ED00F2CC4
:107120002CD00E2C00D170BD00F0FAFB10B1012C58
:1071300000D870BD01F010F820B1A4F11202012AAC
:1071400000D870BD0E4D182303FB0450817B042929
:1071500003D120460021FFF73DFF012E06D1182262
:10716000544328192B598188196170BD36B91822EA
:10717000544328192B598188596170BD70BD00BFD7
:107180000C000020142838B5044618D81E4B1822CD
:1071900002FB0030817BFF2911D004290FD0052983
:1071A0000DD000F0F9FC28B10D2C08D00F2C06D022
:1071B0000E2C04D000F0B4FB18B1012C01D8002033
:1071C00038BD00F0C9FF18B1A4F11202012AF6D9A6
:1071D0000D4D182303FB0450817B062906D195F839
:1071E000F811FF29EBD02046FFF7F4FE1822544394
:1071F0002D19054BAA7BA988185912B906F02AFD4A
:1072000038BD06F021FD38BD0C000020F0B54FF46C
:10721000004091B006F0C8FD0120014606F0ECFDEB
:1072200001214FF4C06006F0F3FD334806F0FAFA8E
:107230003248334B0A2100248022069008914FF4F3
:1072400000754FF400664FF400572B4805A90593CD
:107250000A920B950C9601250E974FF460264FF479
:107260000027079409940D940F9406F053FB2548CA
:10727000694600978DF804408DF805400296039406
:107280008DF8105006F002FA1F48694600978DF8F5
:1072900004408DF80540029603948DF8105006F0D6
:1072A000F5F91848294606F015FA164806F024FAAA
:1072B000144806F026FA0028FAD1124806F025FAFA
:1072C000104806F027FA0028FAD10F48012106F0ED
:1072D00001FA0D4806F010FA0B4806F012FA0028E1
:1072E000FAD1094806F011FA074806F013FA002807
:1072F000FAD111B0F0BD00BF08000240081900200B
:107300004C2401400024014000280140092838B5E0
:10731000044601D80A34A4B200F03EFC38B10D2C6A
:1073200001D1002038BD0F2CFBD00E2CF9D000F07D
:10733000F7FA00F011FF18B1A4F11203012BF0D9F4
:10734000142CEED8394D182000FB04539A79FF2AEB
:10735000E7D095F8FA11914206D0987B062185F87E
:10736000F8012046FFF736FE95F8FB51012D05D1B7
:10737000FFF74CFF2D4B002283F8FB212B4D1821EA
:1073800001FB045495F8FA01A17988420FD02848EE
:10739000012295F8F93106F0CAF901222548A179B0
:1073A00095F8F93106F0C3F9A27985F8FA210021A0
:1073B000214B002043F8210001310A29F8D11F4850
:1073C00006F0DBFA1B48012106F0FEF91B480121FB
:1073D00006F0C0FA1648012106F085F9144801218B
:1073E00006F09CF9022006F0CBFA0028FAD0022021
:1073F00006F0D4FA0E48002106F075F90F48002176
:1074000006F0A8FA00231A460B4951F8230051F858
:107410002310013389B201EB10400A2B0244F3D14F
:107420001421B2FBF1F080B238BD00BF0C00002087
:1074300000240140002801400819002008000240F3
:107440002DE9F041142888B004460D4600F2AD80C5
:10745000574B182202FB00308168002900F0A580FC
:1074600000F09AFB40B10D2C00F09F800F2C00F033
:107470009C800E2C00F0998000F052FA10B1012C83
:1074800040F2938000F068FE20B1A4F11202012ABC
:1074900040F28B80464B182000FB04318A7B12B1EE
:1074A000042A40F08280434E434837684BF68032CE
:1074B0006A43B7FBF0F3591E0120FF258EB2014647
:1074C00092FBF5F706F0A4FC04212046FFF782FDAD
:1074D000374B182000FB04318D68BFB2B5F1804FE7
:1074E00002D10120014608E0344A0220954203D02F
:1074F0003348854203D10420012106F095FC2C4D30
:10750000182101FB04554BF67F33ADF80460A868E1
:10751000002601A9ADF80A60ADF80660ADF80830A4
:1075200006F076FDADF81860AE896022012005F105
:107530000808ADF81020ADF81200ADF8167046B985
:10754000A86804A906F0AEFDA868082106F0EAFEC6
:107550001FE0042E08D1A86804A906F0E7FDA8687A
:10756000082106F0E7FE14E0082E08D1A86804A957
:1075700006F020FEA868314606F0E6FE09E00C2E73
:1075800007D1A86804A906F057FEA868082106F0EC
:10759000E3FE074B182101FB04340121A06806F02B
:1075A000B5FEA068012106F08EFE08B0BDE8F081AE
:1075B0000C0000207003002000366E010004004023
:1075C0000008004005F04EBD13B5084C00210091A5
:1075D0000A460B46204600F00FFA0549054A2046A8
:1075E00002B0BDE810400CF001BA00BF3019002015
:1075F000DD5F0008880D002038B5194B05461C8852
:10760000B3F80024A4B290B228B94EF6EE63E01AA3
:1076100018BF012006E00CBB4EF6EE63C41A6242AE
:1076200052EB0400840204F1006201300D4B02F5BC
:1076300080448202D01884420ED22268013209D1DD
:10764000204606F04DFA042809D1A01C294606F070
:1076500047FA38BD0434EEE7802038BDAB2038BD92
:1076600000400008FE3F000808B5084806F07EFA12
:1076700004280AD10021054806F032FA042804D172
:107680000348BDE8084006F071BA08BD0040000894
:10769000004400080F4B10B51A8893B20E4A1288A6
:1076A00092B21BB10AB1AB2010BD01239C020B4B5F
:1076B000E3180B4AA21893420AD91A8892B282425E
:1076C00004D133F8020C0880002010BD043BF0E721
:1076D000012010BD0040000800440008FE430008DF
:1076E00002400008F8B5434E06F0BAF9424D34881E
:1076F0004EF6EE61A4B22B888C4298B24FF6FF7220
:107700000FD0944202D0002C42D070E000286AD002
:1077100088426CD1304606F029FA042869D12846FF
:1077200032E048BB04461646344D35492B8831F8C3
:10773000145098B2A84208BFA6B232B2944203D104
:107740000134642CF0D10FE02D4F284607F1C80119
:10775000FFF7A0FF0128F3D02846B7F8C810FFF7BD
:107760004BFF0428ECD0F8BD0021224806F0B8F900
:1077700004283ED1204837E0904238D1284606F010
:10778000F5F9042835D13046002106F0A9F9F8BDF5
:1077900000282CD09042EDD016461A4D18492B885F
:1077A00031F8145098B2A84208BFA6B232B294423F
:1077B00003D10134642CF0D10FE0114F284607F1BA
:1077C000C801FFF767FF0128F3D02846B7F8C810B3
:1077D000FFF712FF0428ECD0F8BD0021064806F0A0
:1077E0007FF9042805D1034806F0C0F9F8BDFFF77A
:1077F0003BFFF8BD004000080044000806400008B8
:10780000381900200644000810B50446FFF76AFF47
:107810000023044A22F813300133642BF9D12046A7
:1078200010BD00BF381900200148FFF7EDBF00BFB1
:10783000021A0020024B18785978401A704700BF8E
:10784000041A0020064B5A781978914204D99818E6
:10785000013280785A7070474FF0FF30704700BF98
:10786000041A0020054B5A781978914202D99818C9
:10787000807870474FF0FF30704700BF041A002037
:1078800070470000014B0360704700BF289101085A
:10789000034B10B504460360FEF7C6FF204610BD3B
:1078A00028910108F8B5094B054693F822001646C1
:1078B00050B10C468F18BC4206D0296828468A6809
:1078C00014F8011B9047F6E73046F8BD041A002073
:1078D00010B50C4B012293F822408CB193F8234051
:1078E0001F2C02D94260002010BD93F824001C1800
:1078F00084F82510411CC8B283F8240083F82300C3
:10790000104610BD041A002000224260024A4FF4C3
:107910007A71816002607047E89001087047704793
:10792000014B93F859007047041A002073B50E4CB0
:10793000002104F164050D4E0B4600910A462846CD
:1079400000F05AF86C343246094928460CF04EF8DB
:107950002046FFF7D9FF07492046324602B0BDE86E
:1079600070400CF043B800BF041A0020880D0020BE
:10797000DD5F00088578000808B5034B53F8200048
:1079800000B1804708BD00BF801A002013B5084C25
:10799000002100910A460B46204600F02DF80549CB
:1079A000054A204602B0BDE810400CF01FB800BFE9
:1079B000C01A0020DD5F0008880D00202DE9F0418D
:1079C000002407460E4625463B1919790A223046FF
:1079D00000F0AFF82E218046304600F078F80134F0
:1079E0004044032C0544EFD13046F9790A2200F0D7
:1079F000A0F82818BDE8F08130B58371044D9DF8DA
:107A00000C300446056001714271C37130BD00BF86
:107A10001091010805480021054B017141718171E8
:107A2000C171044A044903600BF0E0BFC81A00208A
:107A300010910108880D0020DD5F000813B5084C87
:107A4000002100910A460B462046FFF7D5FF054965
:107A5000054A204602B0BDE810400BF0C7BF00BF8A
:107A6000D01A0020DD5F0008880D0020014B036064
:107A7000704700BF28910108F8B506460C468F18DC
:107A80000025BC4207D0336830469A6814F8011BC1
:107A900090472D18F5E72846F8BD0000034B10B5B8
:107AA00004460360FEF7C0FE204610BD2891010881
:107AB00038B505460C46084641B10DF0C9FA2B68A9
:107AC0000246DB6828462146984738BD38BD08B5D0
:107AD00003689A68904708BD70B500238AB08DF896
:107AE0002430012A98BF0A220DF12303B1FBF2F5DD
:107AF00005FB1211CCB2092C1E4601D8303400E02F
:107B00003734E4B203F801492946002DEED131465D
:107B1000FFF7CEFF0AB070BD10B5044622B9026867
:107B2000C9B29268904710BDD2B2BDE81040FFF7CD
:107B3000D3BFFFF7F1BF000013B5084C002100913F
:107B40000A460B462046FFF757FF0549054A2046DF
:107B500002B0BDE810400BF049BF00BFE01A0020A2
:107B6000DD5F0008880D002013B5084C002100914E
:107B70000A460B462046FFF73FFF0549054A2046C7
:107B800002B0BDE810400BF031BF00BFE81A002082
:107B9000DD5F0008880D0020014B587D704700BF55
:107BA000F01A00207047000013B5084C0021009126
:107BB0000A460B462046FFF71FFF0549054A2046A7
:107BC00002B0BDE810400BF011BF00BF081B002041
:107BD000DD5F0008880D002013B5084C00210091DE
:107BE0000A460B462046FFF707FF0549054A20468F
:107BF00002B0BDE810400BF0F9BE00BF141B00201E
:107C0000DD5F0008880D002010B5044600680CF008
:107C100061F8204610BD10B50446006808B10CF0AC
:107C200059F800232360A360636010BD38B5044693
:107C30000D46006801310CF02DFE10B184E82100E2
:107C4000012038BD036810B5044613B1406888426E
:107C500007D22046FFF7EAFF20B1A16809B92268E0
:107C60001170012010BD70B50E4611460446154630
:107C7000FFF7E8FF18B92046FFF7CDFF04E0A56045
:107C8000206831460DF086F9204670BD38B50023D6
:107C9000044603604360836003730D4639B10846B0
:107CA0000DF0D6F9294602462046FFF7DCFF2046B4
:107CB00038BD884210B50B46044607D0096819B193
:107CC0009A68FFF7D0FF01E0FFF7A5FF204610BD3F
:107CD000002310B504460360436083600373FFF71D
:107CE000E8FF204610BD38B505460C4641B10846B0
:107CF0000DF0AEF9214602462846FFF7B4FF01E039
:107D0000FFF789FF284638BD826808B50B4612B9CF
:107D100019B9012008BD11B90368187802E000689C
:107D20000DF04AF8D0F1010038BF002008BD10B5B1
:107D30008B688468E41AA2420CD8006868B10968AC
:107D400051B180181A460DF0B3F9D0F1010038BFD7
:107D5000002010BD002010BD084610BD82688B6851
:107D60009A4202D30022FFF7E2BF002070478368E7
:107D7000994203D2006810B1405C70470020704700
:107D8000FFF7F5BF9A422DE9F04107460D4614462C
:107D90001E4601D93446164638460C49FFF776FF91
:107DA000A86884420FD82968864228BF0646002268
:107DB00011F806808A552B6838461919FFF793FF8A
:107DC000286800F806803846BDE8F08178F301089D
:107DD00010B58B680446FFF7D5FF204610BD00683C
:107DE00008B10BF045BE704713B5084C0021009157
:107DF0000A460B462046FFF7FFFD0549054A204687
:107E000002B0BDE810400BF0F1BD00BF1C1B00200C
:107E1000DD5F0008880D002013B5084C002100919B
:107E20000A460B462046FFF7E7FD0549054A20466E
:107E300002B0BDE810400BF0D9BD00BF241B0020EC
:107E4000DD5F0008880D002038B51A4C94F92C30FD
:107E5000002B2DD094F82D00002829D006F02CF806
:107E600094F82C2094F82D5051B2002995FBF1F391
:107E700006DD012B0BDC511E84F82C10002407E0DA
:107E8000591C04DB013284F82C20022400E0012478
:107E9000084B041993F82D20511E83F82D1006F07D
:107EA0003FF8204606F01CF8BDE8384006F038B828
:107EB00038BD00BF2C1B002010B5044605F0FCFFA8
:107EC000001B00F17F02FE2A08D906F029F820469F
:107ED00006F006F8BDE8104006F022B8054980EA31
:107EE000E073A3EBE07381F82C00580081F82D00BB
:107EF00010BD00BF2C1B002013B5084C00210091C1
:107F00000A460B462046FFF777FD0549054A2046FD
:107F100002B0BDE810400BF069BD00BF5C1B002043
:107F2000DD5F0008880D002013B5084C002100918A
:107F30000A460B462046FFF75FFD0549054A2046E5
:107F400002B0BDE810400BF051BD00BF681B00201F
:107F5000DD5F0008880D002013B5084C002100915A
:107F60000A460B462046FFF747FD0549054A2046CD
:107F700002B0BDE810400BF039BD00BF701B0020FF
:107F8000DD5F0008880D0020014B0360704700BFD3
:107F9000289101080369186C596C421A02F03F00DD
:107FA00070470369196C5A6C914202D0586C185C86
:107FB00070474FF0FF3070470369196C5A6C91425B
:107FC00007D0586C596C185C4A1C02F03F01596488
:107FD00070474FF0FF30704770B504460E462C488E
:107FE00040F2277106F0F9F920B963691A6C586CF0
:107FF000824211D161690D6C6B1C03F03F05606911
:10800000426C95420FD0EFF31081CA0732D5036C52
:10801000426C934207D12DE01D4840F227710122A6
:1080200006F0B3F9E6E71A4840F2277106F0D5F9F1
:108030000028E4D01648802106F0C9F90028DED0D7
:108040000022134840F2277106F09FF963695A6CC9
:10805000501C995C58640E4806F0B1F961690C48EF
:108060004B6C03F03F024A6440F22771012206F094
:108070008CF9C4E7016C4654606940F227710564CD
:108080000125257602482A4606F07FF9284670BD6C
:1080900000440040436910B50446196C5A6C914283
:1080A000FBD1207E10B90023237610BD0348402168
:1080B00006F08DF90028F4D0F5E700BF0044004039
:1080C000034B10B504460360FEF7AEFB204610BD1F
:1080D0002891010810B51E4840F2255106F07DF99F
:1080E00078B11B4806F06FF91A4BC0B25A6D511C9B
:1080F00001F03F02996D8A4203D0596D5A655918B3
:108100000875134840F2277106F067F9F8B1114C71
:10811000D4F89C00D4F8A030984207D10C4840F223
:1081200027710022BDE8104006F02FB9D4F8A00056
:108130002218431C92F85C100548C4F8A03006F0E1
:108140003EF9D4F8A01001F03F00C4F8A00010BD23
:1081500000440040781B0020014B187C704700BF92
:10816000781B0020F7B5164C002504F1A406154F26
:108170002B4629462A4600953046FFF73DFC3A46F5
:10818000304611490BF032FC04F114010F4804F1A0
:108190005C02C4F8BC100E494FF47A73C4F8AC000A
:1081A000C4F8C02004F1AC003A46C4F8B050C4F89A
:1081B000B43084F8C45003B0BDE8F0400BF016BCF6
:1081C000781B0020880D0020DD5F00084091010829
:1081D000897F000870474FF0FF307047014B036004
:1081E000704700BF28910108034B10B50446036097
:1081F000FEF71AFB204610BD28910108084608B575
:10820000FEF750FA012008BD08B5FEF717FA08BDC1
:10821000FEF728BA00224260024A4FF47A71816068
:1082200002607047689101080846FEF7EFB9000048
:1082300037B50D4C00210D4D0B4600910A462046E6
:10824000FFF7DAFB2A460A49204608340BF0CEFB3A
:108250002046FFF7DFFF074920462A4603B0BDE866
:1082600030400BF0C3BB00BF401C0020880D002035
:10827000DD5F0008DD8100087047000037B50B4C5A
:1082800000210B4D0B4600910A462046FFF7B4FB38
:108290002A46204607490BF0A9FB074904F10800CC
:1082A0002A4603B0BDE830400BF0A0BB581C0020AC
:1082B000880D0020DD5F000879820008002303603C
:1082C0001846704700230360184670470023036078
:1082D00018467047F8B5394C0346257808462E46AF
:1082E000002D69D148F21007BB4246D00BDC48F2A2
:1082F000010293421FD0501C834225D0992B5BD1A1
:108300000121A174F8BD48F28007BB420ED0B3F53D
:10831000084F43D048F2400083424DD104F114008D
:108320000CF074F8A16A4B1CA362F8BD01216170C6
:10833000A170E570F8BD01232371FFF743F900F543
:10834000EA423032A260F8BD237963B1FFF73AF90F
:1083500000F5EA4230324FF47F40A26004F088F822
:10836000E72004F001F91548002101710173417300
:108370008173C17301744174F8BD0B7D63B901222F
:108380004FF47F402273A360227404F071F8E72059
:10839000BDE8F84004F0E8B82573F8BD294601F0BF
:1083A000DCFB0121064601F01FFC054A10688642ED
:1083B00002D1E573A5736573F8BD00BF641C00208E
:1083C0000400002070B51B4B8CB006460D461020F3
:1083D0000221002202F04CF9002401AB325B42F092
:1083E0000101100A2A5B03F8041C0234110A03F885
:1083F000030C03F8022C03F8011C0433182CEDD1F4
:10840000214604226B46102002F032F906AB2146C9
:108410001C22102002F02CF90021302268460CF0BA
:108420007BF91020014634226B4602F021F9C0B2DC
:108430000CB070BDC7F1010810B50A4C04F12C0056
:1084400002F078F958B994F82C30012B08D194F83F
:108450002D00B0F11C014A4252EB010010BD00207A
:1084600010BD00BF641C00201FB50A2200234FF47A
:1084700061504FF461618DE80F00064B44F62062B5
:108480001A60684601A902AA03AB02F06FF805B0B2
:1084900000BD00BFAC1D00201FB500230093019359
:1084A0000293039301A8694602AA03AB02F026F8DF
:1084B00005B000BD70B500210A4C0E2002F054F941
:1084C000102510210E2002F04FF900212A462046E7
:1084D0000CF022F90E20294600222346BDE8704008
:1084E00002F0C6B8921C0020024B1A6818601046B1
:1084F000704700BFAC1D00201FB5044604F01CFBF4
:1085000004F05CFA0E4B0F480F49104A009301909B
:108510000F4B029103920F490F4A104803F0CAF91A
:10852000642003F055FE204603F0DCF90C4803F00C
:10853000FDFB48F2042004B0BDE8104003F0A8BBE6
:1085400075CA000889CA0008F5CA00081DCB0008D2
:10855000CD820008BD820008C5820008D5820008CF
:108560000802002038B5584D01244FF0FF102C7040
:1085700003F07EFFE72003F0F7FF0220FFF7BCFFC8
:1085800000200146024603F05DFAFF2003F066FB7F
:1085900005F1BE0002F0A7F84C4B062814BFFF20DF
:1085A0000020D8701C71494D474A297919B192F8B9
:1085B000C440022C6CD992F8C400454B454D434A47
:1085C0000121032808BF1D461171404C207930B1AC
:1085D000414800F11801FFF7F5FE2071F5E701238E
:1085E00023713A490A7982B100240C7120212B1998
:1085F0000B20224602F03CF8344B20341979802CB1
:1086000040EA01001871F1D1EBE791F9034001252F
:108610000D7124B12C48012480F8C5400FE02A4890
:1086200090F8BE3023F0010180F8BE10274D2A7962
:10863000002AEFD0294802F04DF82871F6E7224DC4
:1086400095F8C53043B1214C0420E188244A02F05A
:1086500053F885F8C500F2E7012185F8C6101A4DD8
:1086600095F8C64044B1194A052011891D4A02F007
:1086700043F885F8C600F2E72046FFF73DFFFFF715
:10868000DBFE10B12C70204638BD4FF0FF3038BDF6
:1086900000242C710F4D22462B190B20082101F0CC
:1086A000BBFF0A4B08341A7908280CBF10464FF05C
:1086B000FF30802C1871EDD1034991F8C440651C3E
:1086C00081F8C4506FE700BF641C0020080200203E
:1086D00088910108A21C002008920108221D002098
:1086E0003892010890B1010830B51F4BADF2044D2E
:1086F00000ADEA181C6802F17842A2F590421460BD
:108700001A4C0433A342F3D1421C62F01F034322EC
:1087100002FB005001308DF800300BF077FE05F0C1
:108720009FF9342005F0B0F90F4805F01FFA04282E
:1087300018D10D4C0DF580610A1902F17843A3F5AB
:1087400098412046096805F0E7F9084A0434944244
:1087500001D00428EED001B00DF5806DBDE83040A9
:1087600005F08AB9FEE700BF00480008004C000889
:10877000F0B5354D00220D20432199B02B4601F074
:108780004BFF4328024602D04FF0FF305AE0294603
:1087900007A80BF03BFE2E782C49F71C7C192046CD
:1087A00002F012FE2B78ED186878102804D904F135
:1087B0001000264902F008FEE17F234A19B1D35D7B
:1087C0001F2B03D100E0D35D013400E0202310789B
:1087D00011188A78032A2DD8DFE802F0020E191941
:1087E00000200124009401900290039004900590D1
:1087F00017493246034618E001208DE8090000239E
:108800000293039304940593114932460DE001212C
:1088100018224FF01E0C4FF0020E8DE806500C4946
:108820000593049403203246002303F02FF9094BEB
:1088300083F8C700074C07A994F8C700FFF754FF57
:1088400094F8C70019B0F0BDE81E0020D4C7010895
:10885000E91E0020641C00202DE9F041A0B00D4667
:10886000174604460CF0F4FB20AE06F8440D804693
:1088700020460CF0EDFB21460246701C0BF0C6FDB5
:108880005FFA88F020A90B1803F8427C9DF83C2081
:10889000284602F103080CF0DBFB1F284644024681
:1088A00004D9304629460BF0B1FD0AE020A800EBC0
:1088B000080101F8442C701C29460BF0A7FD002389
:1088C000F3773046384902F071FD2A783749FF20A6
:1088D000002A14BF3E46002681F8C700032E57D851
:1088E000DFE806F002113C3C20460CF0B1FB0246EA
:1088F00001200090002001900290039004900590C8
:10890000214603463FE028460CF0A2FB002647081C
:108910008DF81A600235BE4210D015F8012C15F8FA
:10892000023C8DF81920002106A810228DF818307D
:108930000CF0C2FD07A988550136EBE720460CF084
:1089400087FB01210023024607A88DE8420004901E
:108950000293084603930593214614E020460CF049
:1089600077FB074628460CF073FB012218234FF0D3
:108970001E0C4FF0020E8DE80C5005900495304609
:1089800021463A46002303F081F8084C84F8C700DA
:10899000064C0FA994F8C700FFF7A6FE012384F840
:1089A000C83020B0BDE8F081D4C70108641C0020A5
:1089B0002DE9F047594BADF58C6D18A8C218196810
:1089C00002F17840A0F590421160554904338B4282
:1089D000F3D19DF86090B9F1FF0F00F09A804FEA53
:1089E00029100E2840F0958009F00F094FF001087A
:1089F00000274F455CDA07AC18AE432206EB0801AE
:108A000020460BF003FD2678464906F1030A04EBE5
:108A10000A05284602F0D8FC217860184278102A0E
:108A200004D905F110003F4902F0CEFCEB7F23B1E1
:108A300014F80A301F2B04D101E014F80A30013574
:108A400000E02023217860188278032A2CD8DFE800
:108A500002F0020E191900200125009501900290E4
:108A600003900490059061193246034617E00120F7
:108A70008DE80900002302930393049505932118C0
:108A800032460CE0012018211E224FF0020E8DE824
:108A90000740059304950320611C3246002302F031
:108AA000F5FF214C84F8C700013708F14308A0E71F
:108AB0001D4C012194F8C75023466A1C03F82E2F41
:108AC0000E20002201F0D4FD00200146012202F018
:108AD000B9FF0125234629462A4603F82F5F0E20B9
:108AE00001F0C6FD02F034FF642003F071FB0020AA
:108AF00002F0F8FE00234FF47F4084F8C95023743D
:108B000003F0B6FCE72003F02FFD48F2042003F049
:108B1000BFF80DF58C6DBDE8F08700BF0048000878
:108B2000004C0008D4C70108641C002008B504F0FC
:108B300097FF342004F0A8FF044805F017F8042834
:108B400003D1BDE8084004F097BFFEE700480008E5
:108B500070B55C4CC4F8CC000020FFF7CDFC0123BD
:108B6000002084F8C9302074FFF766FC064618BB65
:108B7000554D29882C4605291ED0FFF7F3FC28B94E
:108B80004AF6CD362E8004F023F9EDE72588052D31
:108B900088BF26802688721C228004F019F9BFF352
:108BA0004F8F4A4C4A49E36803F4E06040EA01050C
:108BB000E560BFF34F8FFEE7424B93F8BE20082AD3
:108BC00013D193F8BF00C8B993F8C010282915D164
:108BD0003D4C4AF6CD30238883422FD1FFF76AFC03
:108BE000FFF7E6FE0023238061E03AB993F8BF4027
:108BF000192C03D193F8C030942BE8E7354A314B58
:108C0000117A90780824527A83F8BE4083F8C21013
:108C10000024314983F8BF4083F8C1002824012093
:108C200083F8C04083F8C32008712B4C2279002AB6
:108C3000CED02A4801F04EFD2071F6E7012B2CD052
:108C40000E2010210022264B01F0E6FC102824D132
:108C50001C4CE078A8B994F82E1019B9012284F8B8
:108C6000D0200EE094F82F0058B90146012202F0FE
:108C7000E9FE0121234603F82F1F0E200A4601F0CA
:108C8000F7FC104BD878A8B993F8D01091B1FFF742
:108C900003FCBDE87040FFF7E7BBFF2002F0DEFFFA
:108CA000FFF708FCFFF742FF074A0021118004F09C
:108CB0008FF8CDE74FF47F4003F0DAFBE72003F0B5
:108CC00053FCE4E7641C00205E03002000ED00E09C
:108CD0000400FA05E8F7FF1F08020020221D00200B
:108CE000921C002030B5574D00249FB0FF206C70BF
:108CF000AC7085F8C8402C712C73AC746C73AC7379
:108D0000EC732C7403F0B4FBE72003F02DFC214638
:108D10002246204602F096FE2B46012103F82F4FF3
:108D20000E200A4601F0A4FC464B1879012805D113
:108D3000642003F04DFA01F07DF8F5E710210C20D6
:108D400001F012FD404802F04DFB404802F0EEFFFA
:108D5000012002F0CFFF68463D4900F085FD394D06
:108D6000697895F8C8200A431AD195F8D1100029DE
:108D70005DD0FF2002F072FF002858D11A24013C78
:108D800006D0E72003F01EFC322003F021FAF6E7BC
:108D9000FFF790FBFFF7CAFE2A4A82F8D140DEE7D0
:108DA000E72003F0E1FB0E200121002205F12E0354
:108DB00001F032FC6C781CB1FFF7DAFC85F8C700D3
:108DC000204C012194F8C7300022581C234603F898
:108DD0002E0F0E2001F04CFC00200146012202F073
:108DE00031FE0125234603F82F5F29462A460E202F
:108DF00001F03EFC02F0ACFD642003F0E9F9002034
:108E000002F070FD84F8C9504FF47F4000252574AE
:108E100003F02EFBE72003F0A7FB48F2042002F04A
:108E200037FFFFF721FB84F8D0501FB030BDE7209B
:108E300003F0C8FBFA2003F0CBF9684600F06CFDA4
:108E40008DE700BF641C0020D4C701080802002081
:108E5000598800082DE9F3419C4C04F063FF00237E
:108E6000C4F8D43094F8D80048B994F8D91031B97E
:108E7000A26882B3FEF7A6FBA468A0422BD3934C52
:108E800094F8C900002841D000252571A5602573FC
:108E9000C4F8DC5084F8D850012684F8C9506573B2
:108EA000A573E573657402F053FD6FF07F4026747F
:108EB00003F0DEFAE72003F057FB642003F088F9A3
:108EC00094F8D01011B3284602F00CFD84F8C96064
:108ED000FFF708FF1AE07D4C94F8C930B3B9E07889
:108EE00028B9FEF76FFB00F5EA413031A1600020A0
:108EF00002F0F8FC012200234FF47F4084F8C920DF
:108F0000237403F0B5FAE72003F02EFB6F4C94F8BE
:108F1000D02012B1FFF7E6FE04E0E37813B1267B20
:108F200035460EB369488178012914D1047B012CA0
:108F300011D10279012A0ED1032465480CF088F87A
:108F4000634982B2012002F07BFC631E13F0FF0430
:108F5000F3D15E4884705D4C217B2346E1B194F8E7
:108F6000D920002A76D017E0314632463046A66036
:108F700002F068FD57480CF06BF8574F80463846B2
:108F80000CF066F800970190791F032042463346A3
:108F900002F0F4FCE670C5E793F8E30020B14F4817
:108FA00000213A220BF0B8FB484B93F81A2132B952
:108FB000587B00285AD19B7B002B57D1BEE01C7BED
:108FC00004B393F8D900E8B9597B00295FD019E0C0
:108FD000234603F8312F0E200121032201F048FB24
:108FE0003A4C00254FF6FF70257403F041FAE72054
:108FF00003F0BAFAFDF728FFA84273DBC4F8DC508F
:1090000001236373314C617B002900F09780A27BC0
:10901000BAB9FDF77FFE002811D002DA4FF47F00C5
:1090200007E0012801D12E4803E0022803D14FF0C8
:10903000FF1003F01DFAE72003F096FA01E001208B
:10904000A073FDF72BFE002878D1204BD8739873BE
:10905000587373E094F8E3100029A5D1642003F05D
:10906000B7F804F1E00001F0C5FA9DE7FDF7DCFE7A
:10907000164900224FF47F40CA738A734A7303F083
:10908000F7F9E72002B0BDE8F04103F06DBA5D7C6E
:10909000002DA5D04FF47F0003F0EAF90B4C627C61
:1090A000002A95D0E72003F05FFA4FF4FA7003F03E
:1090B0008FF8E72003F066FA4FF4FA7003F088F8AF
:1090C000657C691ECAB26274E8E700BF641C0020B8
:1090D00012020020190200201E020020441D002060
:1090E0000060FF0094F8D83043BBD4F8DC00411C8A
:1090F0000229C4F8DC1002D1012284F8D820FDF73F
:1091000061FE00280F4C0BDAD4F8DC00411C022968
:10911000C4F8DC1002D1012284F8D820022300E038
:1091200003236374074C0121607C234603F8310F4D
:1091300003220E2001F09CFA002362E702B0BDE892
:10914000F08100BF641C002013B5084C0021009181
:109150000A460B462046FEF74FFC0549054A2046C5
:1091600002B0BDE810400AF041BC00BF801D0020E5
:10917000DD5F0008880D0020704708B5012004F06D
:10918000A5F9FEE708B5032004F0A0F9FEE708B54D
:10919000042004F09BF9FEE708B5052004F096F9D9
:1091A000FEE770477047704708B503F053FFBDE80E
:1091B0000840FDF75FB9000008B5024B0BB1AFF3F3
:1091C000008008BD0000000008B5024B0BB1FEF79F
:1091D00081FF08BDD580000808B5024B0BB1FEF732
:1091E0009DFB08BD1D79000808B5024B0BB1FEF7C9
:1091F00096FB08BD1F79000808B5024B0BB1FEF7BE
:10920000D1FC08BDA57B000808B5012004F012FCC4
:1092100038B1012004F01EFC024B13B10020FEF710
:10922000ABFB08BD7979000808B5022004F002FC08
:1092300038B1022004F00EFC024B13B10120FEF7FE
:109240009BFB08BD7979000808B5042004F0F2FB07
:1092500078B1042004F0FEFB0020064B0146188084
:1092600003F03EFA044810210122BDE8084005F051
:1092700044B808BDCC1D0020002C014008B50820D2
:1092800004F0D8FB38B1082004F0E4FB024B13B122
:109290000320FEF771FB08BD7979000808B510209E
:1092A00004F0C8FB38B1102004F0D4FB024B13B11A
:1092B0000420FEF761FB08BD7979000808B520207D
:1092C00004F0B8FB38B1202004F0C4FB0E4B13B1FE
:1092D0000520FEF751FB402004F0ACFB38B14020E4
:1092E00004F0B8FB084810B10620FEF745FB8020CB
:1092F00004F0A0FB38B1802004F0ACFB024911B1AE
:109300000720FEF739FB08BD7979000808B54FF44E
:10931000005004F08FFB40B14FF4005004F09AFB72
:10932000174B13B10D20FEF727FB4FF4804004F0DC
:1093300081FB40B14FF4804004F08CFB104810B129
:109340000E20FEF719FB4FF4004004F073FB40B110
:109350004FF4004004F07EFB094911B10F20FEF7E5
:109360000BFB4FF4006004F065FB38B14FF4006074
:1093700004F070FBBDE8084002F0B4BE08BD00BFB9
:109380007979000808B50F48102104F0EFFFC0B14B
:109390000C48102104F0F5FF002003F063FA28B90F
:1093A000094B1A880A3290B2188008BD102105486E
:1093B000002204F0A2FF00200121BDE8084003F0D4
:1093C0008FB908BD002C0140CC1D002008B5024B10
:1093D000186800B1804708BD8C1D002008B5024BFD
:1093E000586800B1804708BD8C1D002008B5024BAD
:1093F000986800B1804708BD8C1D002008B5012089
:1094000004F0AAFD50B1012004F0B8FD044B0BB1EB
:10941000FEF71AFDBDE8084004F082BD08BD00BF9C
:10942000497E000808B5022004F096FDB0B10C4B4F
:1094300000224FF400301A7004F00CFB012004F0FD
:109440009BFC10B1012004F0A1FC04F069FD022096
:1094500004F094FDBDE8084004F062BD08BD00BF03
:109460003D1D002002F0CEBD00F062B838B51449B1
:109470000B78012B23D1134A13680BB90B7038BD3D
:10948000114C402B206881B205D94030403B206010
:109490001360402504E09DB2C318002023601060D3
:1094A0000A4A5018C0212A4605F0C8FC0120294666
:1094B00005F0CEFD0120BDE8384005F037BD38BDD0
:1094C000740D00207C0D0020780D0020740C00200D
:1094D000094908B50020094B0122088003201A70B1
:1094E00005F0E2FD064B0246188006484FF48871ED
:1094F000BDE8084005F0B9BC2C0C0020280C002069
:109500002A0C00202E0C0020074B1868052809D1D2
:10951000064B1A68511C052A196003D100201860F7
:10952000FDF7DEB8704700BFF81D0020981D002031
:109530003A4A38B511683A4B88B23A4D18801C88BF
:109540002988214001F4007084B244B14FF6FF55E0
:1095500015609A78511CC8B29870FFF7D5FF304C4F
:10956000304B25881A882A4002F4004188B22546EB
:109570001C4608B105F09CFB2A882388134003F49D
:10958000806188B230B1254B27494FF6FF321A600F
:1095900048688047224A234B11881B88194001F4F0
:1095A000005081B219B11D494DF6FF700860128854
:1095B000134003F4805398B230B1184A4EF6FF714D
:1095C0001160002003F03EFF154B164918880A88E9
:1095D000024002F4006398B260B114490A7812B1F3
:1095E00003F010FF02E0022003F02CFF0B4B4FF2C0
:1095F000FF7018600A490B480A880388134003F477
:1096000080718AB242B1054B4FF6FF6018600720A7
:10961000BDE8384003F016BF38BD00BF445C0040D1
:109620009C1D0020E8270020B402002084030020B5
:10963000034B987A10B1034905220A60704700BFB6
:10964000C4270020F81D0020014B04221A60704737
:10965000F81D0020034B1A78202A01D10020187031
:10966000704700BFA01D002070470000212810B5E2
:1096700008D111480368197801F07F02212A11D01E
:10968000022010BD2028FBD10B4B19680A780B492A
:1096900002F07F030A4A212B0CBF0B4600231070F7
:1096A0000BB9EDE7074B044C20680024836144822A
:1096B00020469847204610BDE42700201597000853
:1096C000A01D0020FD960008074B19680A7802F0DB
:1096D0007F03212B05D1022801D1002070472228C9
:1096E000FBD00220704700BFE427002009B1022010
:1096F00070470128FBD808467047000020B9034B8B
:10970000082219680A82704701487047E427002040
:109710007C02002020B9034B082219680A82704796
:1097200001487047E42700207C020020054B19689F
:10973000CA78042A04D8044B03EBC20105F038B8F8
:1097400000207047E427002084020020014905F032
:109750002FB800BFA4020020014905F029B800BFBE
:10976000AC020020334A344BD179186810B500247C
:1097700041728472C472204605F08AFB20464FF481
:10978000007105F08DFB1021204605F095FB40216E
:10979000204605F031FC8021204605F01DFC2046C6
:1097A00005F0E6FB254B204693F8641005F05EFCBF
:1097B000204605F0CCFB0120214605F071FB01207D
:1097C000C02105F009FC0120202105F075FB0120D6
:1097D000214605F08EFB02204FF4C06105F060FBCE
:1097E00002204FF4807105F0F7FB0220214605F0BE
:1097F00080FB0220202105F05FFB0320214605F0BD
:109800004FFB03204FF4887105F0F6FB0320402145
:1098100005F02CFC03204FF4405105F06AFB0320B7
:10982000214605F049FB204605F0D4F9044A012001
:10983000106010BD42C80108E42700207C0200200F
:10984000F81D002010B5FCF797FF054B00241868A1
:10985000847203F0BFFD05F03DFC02490C6010BDB1
:10986000E4270020F81D002038B504460D46FEF719
:10987000D1FC204625614FF41651FEF7D5FC204659
:1098800038BD70B506460D46002428460BF0E0FBB7
:10989000844208D2295D3046FEF7B0FC012002F078
:1098A00097FC0134F1E770BDF8B504460E46174643
:1098B00000252046FEF7A8FC0028FADD2046FEF72A
:1098C000A7FCBD42C1B206D1002333702046114926
:1098D000FFF7D7FF14E00D29F6D00A29F4D00829A4
:1098E00001D07F2904D1002DE3D0013E013D02E0EB
:1098F00006F8011B01352046EDB2FEF77FFCD8E7E4
:109900002046FEF781FC002803DD2046FEF780FCA0
:10991000F6E7F8BD76F30108F0B585B00446FEF72A
:1099200073FC002840F39D802046FEF771FCC0B216
:10993000772867D104F1140600212122304604F172
:1099400035050AF0E9FE0021412228460AF0E4FE2E
:1099500004F17607002284F8762020467A70424986
:10996000FFF78FFF204631462022FFF79DFF20465C
:109970003E49FFF786FF394601222046FFF794FF54
:1099800094F87630A3F130010329F0D8312B0BD1B4
:1099900020463749FFF775FF20463649FFF771FF2C
:1099A00020463549FFF76DFF94F87600B0F1300797
:1099B00008D020463149FFF764FF2046294640225F
:1099C000FFF772FF20462E49FFF75BFF23693A46F7
:1099D00030462946984720462A49FFF752FF20463D
:1099E0002949FFF74EFF20462849FFF74AFF204646
:1099F0002749FFF746FF20462649FFF742FF20464A
:109A0000254929E069282CD1244A01AB1068516806
:109A1000002503C39168204619602149FFF731FFF3
:109A200001AEAE5D300900F13001392988BF00F187
:109A3000570106F00F062046FEF7E0FB06F1300165
:109A4000392988BF06F1570120460135FEF7D6FBBC
:109A50000C2DE5D11349204605B0BDE8F040FFF7D5
:109A600010BF05B0F0BD00BFCAF10108D1F1010877
:109A7000FEF1010834F201085FF20108A5F20108C5
:109A8000B0F20108F3F2010813F3010846F30108EC
:109A900079F30108B8F30108E9F30108E8F7FF1FBB
:109AA000FFF3010876F3010813B5084C002100917B
:109AB0000A460B462046FDF79FFF0549054A20460A
:109AC00002B0BDE8104009F091BF00BFA41D002006
:109AD000DD5F0008880D0020002100F004B80E4B67
:109AE0005B58435004310D480D4B42189A42FFF425
:109AF000F6AF0C4A00F003B8002342F8043B0A4BCF
:109B00009A42FFF4F9AF03F0E7FBFCF7EDFBFCF73B
:109B10006FFEFCF737FC70471CF7010800000020BF
:109B2000180C0020180C0020F4270020FFF7FEBFBF
:109B300001700B0A0A0C090E43708270C170043068
:109B400070470170090A41700230704743185A7813
:109B5000405C00EB022188B2704710B543189A7838
:109B6000DC78415C120402EB04625878521802EB74
:109B7000002010BD73B544790023022C01930FD04F
:109B8000032C19D0012C2BD1164D28692E4620B15B
:109B9000296901A888470246B8B9B16801201BE0CD
:109BA000104DE8682E4620B1E96801A888470246B2
:109BB00058B9B16802200FE00A4D6A692E464AB1D1
:109BC0006B6901A89847024620B1A9682046BDF8F4
:109BD000043003E0B16803200022134600F02AFCA1
:109BE0007CBD00BF2C1F0020072830B512D80129EA
:109BF00010D8EFF3108472B6012505FA00F501FACA
:109C000000F0054B1A6822EA050202431A60E307D6
:109C100000D462B630BD00BF0C030020F0B50121B6
:109C200087B00546FFF792FF00F48043044698B2E0
:109C300050B3B4F5824F27D128460521FFF786FFA0
:109C40000026074607353446BE4208D02846022182
:109C5000FFF77CFF013624180435B6B2F4E7744BE5
:109C6000188E21188AB21A86D86B2418DC63D96B37
:109C70009A6B914240F0CE8093F84000002800F0AB
:109C8000C9809B69992033E024F4FF4121F07F02D1
:109C900090B2002800F09B8048F2100294422AD033
:109CA0000CD8B4F5004F40F2C08048F202039C4249
:109CB00017D9991C8C4240F0B88012E048F280001D
:109CC00084420ED005D848F24002944240F0AD8064
:109CD00051E0B4F5024F04D0B4F5084F40F0A58030
:109CE0006CE053498869002800F094808B69204615
:109CF00000210A4669E00023EA1851790DF80310A3
:109D00000133042BF8D1687A2B7BAA7AE97A8DF893
:109D100004008DF807308DF805208DF8061005F148
:109D20000D00002306AAD218C15C0133042B02F8EF
:109D3000101CF7D105F11100002306AAD218C15C4E
:109D40000133042B02F80C1CF7D105F11500002398
:109D500000AAD218C15C0133042B1174F8D1344924
:109D600028798A698DF81400002A53D08B6920461F
:109D70006946152229E0053500212846FFF7EDFE4A
:109D8000042100902846FFF7E8FE082101902846AC
:109D9000FFF7E3FE0C2102902846FFF7DEFE1021BC
:109DA00003902846FFF7D9FE214B049099690029BA
:109DB00030D09B6920466946142206E01C4882691F
:109DC00042B38369691D20460122984722E041F28F
:109DD00003039C4205D00C339C4202D0591E8C4296
:109DE0001AD16C1D04212046FFF7B7FE39301CD173
:109DF0002D790F480021C5622046FFF7AEFE0421F1
:109E000005462046FFF7A9FE393003D12846012137
:109E1000FFF7EAFE012009E0054A138899B28C4257
:109E200004D0B4F5805FF5D100E0002007B0F0BDAC
:109E30002C1F002038B5104B5D88ADB2CDB15868ED
:109E40000478221F514251EB02042CB1FFF7E6FEC9
:109E5000003018BF012000E02046054620B944B17B
:109E6000054B93F8412022B903480021418001F0BD
:109E7000E1FF284638BD00BF2C1F00202DE9FF4719
:109E800004468946904603F0EDF800250190BC4B4E
:109E90005A8890B2002840F0928003F043FF03F00C
:109EA000E1F80290029901980A1A0392039B002B91
:109EB00003DA0199029842180392B24B19680029FB
:109EC000E5D003988842E2D3AD4A41F207001388F7
:109ED00099B2814224D8421E91425FD240F20223BD
:109EE00099425BD00DD80C2906D8082956D20029F2
:109EF0004DD0062952D959E00D294CD040F201220B
:109F00000BE041F2020081424BD8B1F5805F45D8A9
:109F1000B1F5017F3FD940F20722914237D13AE0B3
:109F200041F21103994236D014D841F20B0081421C
:109F300034D005D841F2090291422FD031D82AE01D
:109F400041F20F0399422CD028D841F20D008142F2
:109F50001DD126E042F2060291421CD007D8B1F58D
:109F6000005F14D942F20403994214D921E0B1F5FB
:109F7000804F00F0F18105D8A1F500500838012884
:109F800005D808E044F20B02914200F0E5810B2075
:109F900003F09CFAE0E1FF212170DDE14FF0FF3199
:109FA00005E04FF0FF3121606160D5E100212160C3
:109FB000D2E1204600213A220AF0AEFBCCE15E68F5
:109FC0003178042940F07D8101213046FFF7BEFD44
:109FD00005463046FFF722FE0146002840F0678123
:109FE00041F20700771D854250D8411E8D4280F016
:109FF000AF8040F20222954200F0AA8011D80C2DC9
:10A0000009D8082D80F0A480002D00F05081062D85
:10A0100040F29E80E9E00D2D00F0978040F2012390
:10A020007EE041F202039D4218D8B5F5805F00F250
:10A030008F80B5F5017F40F2888040F207218D4284
:10A0400040F035813079002104F8010B3846FFF7E4
:10A0500084FD01462046FFF76BFD28E141F2040232
:10A06000954200F0988040F2AF8038460021FFF71B
:10A0700074FD042120603846FFF76FFD60600834EE
:10A0800006F10D07234606F11D017DE041F21102A4
:10A0900095425AD02CD841F20B039D4258D01CD87F
:10A0A00041F209018D4253D000F29A8000213846D6
:10A0B000FFF753FD042120603846FFF74EFD0821CD
:10A0C00060603846FFF749FD0C21A0603846FFF775
:10A0D00044FD04F10C0AE060E8E041F20F02954211
:10A0E00072D03BD841F20D039D4240F0E08052E037
:10A0F00042F20500854200F09C8008D841F212022D
:10A10000954238D0B5F5005F40F2D1801DE042F2B3
:10A1100009018D4208D84F1EBD4216D242F20603F5
:10A120009D4240F0C48010E044F20B00854240F0B4
:10A13000BE807279DFF848A038460121AAF83020A5
:10A14000FFF704FDAAF83200B1E031792170AEE0EA
:10A1500038460021FFF701FD2060A8E000213846C5
:10A16000FFF7FBFCA2464AF8040B04213846FFF730
:10A17000F4FC60609AE03846FFF7E8FC208096E047
:10A180002C1F0020AC1D002057F8040B8F4243F811
:10A19000040BF9D18BE000213846FFF7DEFC0421E7
:10A1A00020603846FFF7D9FC082160603846FFF789
:10A1B000D4FC04F1080AA060E46814F1390375D1F5
:10A1C0000121FFF711FD71E000213846FFF7C5FCC2
:10A1D000042120603846FFF7C0FC6060083466E068
:10A1E000307920713F68276061E038460021FFF731
:10A1F000B4FC042120603846FFF7AFFC0821606002
:10A200003846FFF7A3FC0A21A0603846FFF79EFC02
:10A21000C4F80A000C3406F11103274606F1350193
:10A2200053F8040B8B4247F8040BF9D11A883A8093
:10A230003DE077187B79635401310429F9D106F1A7
:10A2400009000027C15DE2190137042F1171F9D10E
:10A2500006F10D000023C15CE2180133042B1172DA
:10A26000F9D106F111070022B85CA1180132042AC5
:10A270000873F9D106F115070023F85CE1180133E2
:10A28000042B0874F9D106F119070021785C6218D3
:10A29000013106291075F9D106F11F070023F85C7A
:10A2A000E2180133202B9076F9D100E054462C4F70
:10A2B000388882B2954236D100233B8087F84130FE
:10A2C00031E0DF8EBBB273B33046032196F802A0B3
:10A2D000FFF73CFC0746B9F1000F0CD00421701DBC
:10A2E000FFF73BFC0246C8F8000006F1150148469E
:10A2F000D2B20AF08BF8CAEB0707781EB0F5806F70
:10A3000007D20AF10501204671183A460AF07EF894
:10A3100001E04FF0FF37B8F1000F01D088F800706E
:10A320000F4B0022DA860E4F0020788001F082FD6C
:10A330003278042A05D1B5F5805F02D13046FFF7A7
:10A3400019FC3B8899B200297FF4A1AD0448C28E64
:10A3500093B2002B7FF49BAD002004B0BDE8F087E2
:10A360002C1F002007284FF001030ED8EFF31082B6
:10A3700072B603FA00F006490B6818420CBF0020C1
:10A380000120D10702D462B670471846704700BF5B
:10A390000C030020034B1880084600210A46FFF7F3
:10A3A0006DBD00BF2C1F002010B5034B0124DC86BF
:10A3B000BDE81040FFF762BD2C1F002038B50346F2
:10A3C000154601224A710C46881D1946FFF7B9FB54
:10A3D000291D0570204601F09BFD002038BD38B5D1
:10A3E000BDF814500C469B18A071E81885B20221E4
:10A3F0006171E271294604F10800FFF7A2FB6A1DB2
:10A40000204691B201F084FD002038BD38B59B187C
:10A410000C469DB202216171A071E271294604F1DE
:10A420000800FFF78EFB6A1D204691B2BDE8384058
:10A4300001F06EBD2DE9F0471D4605F1020A032328
:10A4400001F107091FFA8AFA88714B710C464846D8
:10A4500051461746FFF775FBB5F57A7F804613D84E
:10A460002946FFF76EFB29464046FFF76AFB39464F
:10A4700004F10B002A4609F0C9FFA91D204689B244
:10A48000BDE8F04701F044BD4FF47A76B5FBF6F134
:10A490000AEB410291B2FFF754FB31464046FFF709
:10A4A00050FB394604F10B00324609F0AFFFA5F529
:10A4B0007A75204640F2EE31ADB2BF1901F028FDA9
:10A4C000B5F57A7F05D9A5F57A7085B24FF47A761D
:10A4D00001E02E460025A046394628F8056F48467B
:10A4E000324609F093FFB31C404699B2BF1901F000
:10A4F0000FFD002DE4D1BDE8F0870000F7B51A4C40
:10A500001E46A468FF238DF807300025475D6319B8
:10A510000135042D5F72F9D100200D5C2318013044
:10A5200004285D73F9D10021505C631801310429BE
:10A530005874F9D104F115000021FFF7F9FA00224F
:10A54000B35C83540132042AFAD12146142242F228
:10A550000100FFF733FF42F201000DF10701FFF7A1
:10A5600019FF9DF90700FEBD2C1F00202DE9F341C6
:10A5700006460C461E4831681546D0F808804A1E2B
:10A580001F46FF23082A8DF8073008F1090001D87B
:10A590000A23336021684A1E082A01D80A2323604F
:10A5A00029684A1E082A01D80A232B6039684A1EE6
:10A5B000082A01D80A233B603168FFF7B9FA2168FD
:10A5C000FFF7B6FA2968FFF7B3FA3968FFF7B0FA70
:10A5D0004146142242F20900FFF7F0FE42F2090060
:10A5E0000DF10701FFF7D6FE9DF90700BDE8FC81DC
:10A5F0002C1F002038B5074B42F205040546996828
:10A6000020460022FFF7DAFE20462946BDE8384002
:10A61000FFF7C0BE2C1F00202DE9F34186461348EA
:10A620000D46866871461F4602ACFF2306F10900FD
:10A6300004F8053D9046FFF77BFA2946FFF778FAC4
:10A6400040F201254146FFF773FA0C2231462846B5
:10A65000FFF7B4FE28462146FFF79CFE384600214E
:10A6600001AAFFF7A1FE0198BDE8FC812C1F002084
:10A670002DE9F341864616480C4686687146984691
:10A6800002AD4FF0FF3306F10A0045F8043D1746CE
:10A69000FFF74EFA0C21FFF74BFA2146FFF748FA75
:10A6A0003946FFF745FA4146224606F11A0009F0FD
:10A6B000ADFE902031461022A3B2FFF7A7FE40F274
:10A6C00002202946FFF766FE0198BDE8FC8100BF25
:10A6D0002C1F002008B50346062001460022FFF784
:10A6E000C7FFC0B208BD08B50346062001460022D8
:10A6F000FFF792FFC0B208BDF8B506460D461746F3
:10A700000C467B192A1B1F2CC4EB030392B208D9F9
:10A7100030462021FFF7ACFFC0B2203C0028F0D02B
:10A7200007E02CB130462146FFF7A2FFC0B2F8BDCA
:10A730002046F8BD37B50B4B40F207250446996813
:10A7400000222846FFF73AFE28466946FFF722FE18
:10A750009DF803009DF80410207061709DF80000C2
:10A760003EBD00BF2C1F002037B50D4A034695683B
:10A770000C4605F109001946FFF7DAF9214640F2C7
:10A780000324FFF7D5F9294608222046FFF716FED5
:10A7900020460DF10701FFF7FDFD9DF807003EBDC6
:10A7A0002C1F00202DE9F0430023CA5CC254013362
:10A7B000102BFAD10022334B467B991891F8018077
:10A7C00004789F19F97A88EA0405847B85EA0108F0
:10A7D0001D194178EF7A90F80CC04F40C17B80F88A
:10A7E00010805D1895F80B908578634489EA05051B
:10A7F00093F80B90C378477489EA030390F80490A8
:10A80000FFB288EA090890F80590857487EA09077D
:10A8100090F80690EDB285EA090590F80790C374A8
:10A82000DBB283EA090390F8089080F814805FFA9D
:10A8300088F888EA090890F809904775FFB287EA16
:10A84000090790F80A908575EDB285EA090590F838
:10A850000B90C375DBB283EA090388EA0C0C7E40D7
:10A860006C405940013280F8188047768576C3766F
:10A8700080F81CC046778477C17710300A2A9AD1B5
:10A88000BDE8F08397C8010810F0800F4FEA400040
:10A8900018BF80F01B00C0B2704700002DE9F04FD8
:10A8A0000D4697B00F4601F19001044615913A7894
:10A8B0002378BD4E82EA0300311891F80BA023796A
:10A8C00084F800A03A7982EA0300311891F80BB0BD
:10A8D000237A84F804B03A7A82EA03003118CA7AFB
:10A8E000237B2272387B079280EA03017218D07AA8
:10A8F0006378207379786279089078794B4080EAA0
:10A9000002017018C27A617A6270787AF31848404E
:10A910003118C87A617B60710690787B48403118A5
:10A92000C87A09906072D97AA3786173B8780A916D
:10A930005840B979A37997F80AE05940A37A94F876
:10A940000E808EEA0303F318DB7A3018A37097F8B1
:10A950000EC0C07A8CEA080906EB090E71189EF841
:10A960000B80A0720B90C87A84F80680A073E17BFC
:10A970000C90F87B97F80BC04140E07A71188CEA94
:10A9800000003018C07AE07397F807900D90E079D6
:10A9900089EA00003018C07AE07297F803E00F905F
:10A9A000E07810378EEA00003018C07A0E90C97A2D
:10A9B00082EA0A0081EA030C8CEA0009CDF808C09B
:10A9C000059104920393FFF75FFF8AEA000289EA88
:10A9D00002030499039AD8B21090207082EA010011
:10A9E000FFF752FF049BDDF808C0584089EA0001D8
:10A9F000CAB2604662701192FFF746FF039B58404F
:10AA000089EA0001059BCAB2A27083EA0A00129289
:10AA1000FFF73AFF0599069B4840DDF838C089EA00
:10AA2000000A5FFA8AF983EA0B008CEA080A84F8C4
:10AA30000390CDF84C908AEA0009FFF725FF8BEAD6
:10AA4000000189EA0100069A5FFA80FC84F804C0DC
:10AA500088EA0200CDF808C0FFF716FF069B83EADC
:10AA6000000189EA0100C2B2627150460692FFF706
:10AA70000BFF88EA000389EA03085FFA88FADDF829
:10AA8000388084F806A088EA0B00CDF850A0FFF7C4
:10AA9000FBFE88EA0000DDF82CC00F99079B89EACD
:10AAA000000B09985FFA8BF981EA0C0A584084F888
:10AAB00007908AEA0008CDF83890FFF7E5FE079A7C
:10AAC000099B504088EA000B0B985FFA8BFB5840BB
:10AAD00084F808B0FFF7D8FE099981EA000288EAF5
