:020000040800F2
:1050000000500020899A0008299100082B9100087F
:10501000359100083F910008499100080000000008
:105020000000000000000000000000005391000894
:1050300055910008000000005791000859910008A0
:10504000DD9A0008DD9A0008DD9A0008AD9300089B
:10505000DD9A0008DD9A0008B9910008D99100088E
:10506000F99100082D9200084D920008DD9A000881
:10507000DD9A0008DD9A0008DD9A00081594000802
:10508000DD9A0008DD9A000869910008DD9A0008A1
:1050900019940008DD9A0008DD9A00086D92000856
:1050A000DD9A0008DD9A0008DD9A000835930008B3
:1050B0007D9300088D9300089D9300088991000856
:1050C00099910008DD9A0008DD9A0008A99100086E
:1050D000DD9A0008DD9A000879910008DD9A000841
:1050E000BD920008D5930008DD9A0008000000007A
:1050F00000000000000000000000000000000000B0
:0C51000000000000000000005FF808F153
:1051100081F0004102E000BF83F0004330B54FEA68
:1051200041044FEA430594EA050F08BF90EA020FD5
:105130001FBF54EA000C55EA020C7FEA645C7FEA68
:10514000655C00F0E2804FEA5454D4EB5555B8BF8B
:105150006D420CDD2C4480EA020281EA030382EAFC
:10516000000083EA010180EA020281EA0303362D8E
:1051700088BF30BD11F0004F4FEA01314FF4801C61
:105180004CEA113102D0404261EB410113F0004F73
:105190004FEA03334CEA133302D0524263EB43032A
:1051A00094EA050F00F0A780A4F10104D5F1200EC8
:1051B0000DDB02FA0EFC22FA05F2801841F1000123
:1051C00003FA0EF2801843FA05F359410EE0A5F1F7
:1051D00020050EF1200E012A03FA0EFC28BF4CF028
:1051E000020C43FA05F3C01851EBE37101F00045DE
:1051F00007D54FF0000EDCF1000C7EEB00006EEBEB
:105200000101B1F5801F1BD3B1F5001F0CD3490874
:105210005FEA30004FEA3C0C04F101044FEA4452CB
:1052200012F5800F80F09A80BCF1004F08BF5FEA52
:10523000500C50F1000041EB045141EA050130BD32
:105240005FEA4C0C404141EB010111F4801FA4F1D5
:105250000104E9D191F0000F04BF01460020B1FA2A
:1052600081F308BF2033A3F10B03B3F120020CDA62
:105270000C3208DD02F1140CC2F10C0201FA0CF040
:1052800021FA02F10CE002F11402D8BFC2F1200CA5
:1052900001FA02F120FA0CFCDCBF41EA0C0190405B
:1052A000E41AA2BF01EB0451294330BD6FEA0404A4
:1052B0001F3C1CDA0C340EDC04F11404C4F120028F
:1052C00020FA04F001FA02F340EA030021FA04F3A1
:1052D00045EA030130BDC4F10C04C4F1200220FAF8
:1052E00002F001FA04F340EA0300294630BD21FA36
:1052F00004F0294630BD94F0000F83F4801306BFFC
:1053000081F480110134013D4EE77FEA645C18BFEF
:105310007FEA655C29D094EA050F08BF90EA020F86
:1053200005D054EA000C04BF1946104630BD91EA7E
:10533000030F1EBF0021002030BD5FEA545C05D181
:105340004000494128BF41F0004130BD14F58004C0
:105350003CBF01F5801130BD01F0004545F0FE4134
:1053600041F470014FF0000030BD7FEA645C1ABF69
:10537000194610467FEA655C1CBF0B46024650EAA0
:10538000013406BF52EA033591EA030F41F40021CC
:1053900030BD00BF90F0000F04BF0021704730B552
:1053A0004FF4806404F132044FF000054FF0000127
:1053B00050E700BF90F0000F04BF0021704730B5E8
:1053C0004FF4806404F1320410F0004548BF4042BD
:1053D0004FF000013EE700BF42004FEAE2014FEA12
:1053E00031014FEA02701FBF12F07F4393F07F4FED
:1053F00081F06051704792F0000F14BF93F07F4F1F
:10540000704730B54FF4607401F0004521F0004161
:1054100020E700BF50EA010208BF704730B54FF0E7
:1054200000050AE050EA010208BF704730B511F0EC
:10543000004502D5404261EB41014FF4806404F124
:1054400032045FEA915C3FF4DCAE4FF003025FEAA6
:10545000DC0C18BF03325FEADC0C18BF033202EB2E
:10546000DC02C2F1200300FA03FC20FA02F001FA88
:1054700003FE40EA0E0021FA02F11444C1E600BF27
:1054800070B54FF0FF0C4CF4E06C1CEA11541DBFDA
:105490001CEA135594EA0C0F95EA0C0F00F0DEF8A5
:1054A0002C4481EA030621EA4C5123EA4C5350EA8A
:1054B000013518BF52EA033541F4801143F48013DB
:1054C00038D0A0FB02CE4FF00005E1FB02E506F06C
:1054D0000042E0FB03E54FF00006E1FB03569CF0C1
:1054E000000F18BF4EF0010EA4F1FF04B6F5007FC7
:1054F00064F5407404D25FEA4E0E6D4146EB060639
:1055000042EAC62141EA55514FEAC52040EA5E50C1
:105510004FEACE2EB4F1FD0C88BFBCF5E06F1ED86B
:10552000BEF1004F08BF5FEA500E50F1000041EBA2
:10553000045170BD06F0004646EA010140EA02004F
:1055400081EA0301B4EB5C04C2BFD4EB0C0541EA71
:10555000045170BD41F480114FF0000E013C00F386
:10556000AB8014F1360FDEBF002001F0004170BDAA
:10557000C4F10004203C35DA0C341BDC04F11404C3
:10558000C4F1200500FA05F320FA04F001FA05F24F
:1055900040EA020001F0004221F0004110EBD3701C
:1055A00021FA04F642EB06015EEA430E08BF20EA48
:1055B000D37070BDC4F10C04C4F1200500FA04F3EB
:1055C00020FA05F001FA04F240EA020001F000417D
:1055D00010EBD37041F100015EEA430E08BF20EAF0
:1055E000D37070BDC4F1200500FA05F24EEA020E38
:1055F00020FA04F301FA05F243EA020321FA04F067
:1056000001F0004121FA04F220EA020000EBD3701D
:105610005EEA430E08BF20EAD37070BD94F0000F1D
:105620000FD101F00046400041EB010111F4801F51
:1056300008BF013CF7D041EA060195F0000F18BF02
:10564000704703F00046520043EB030313F4801F3E
:1056500008BF013DF7D043EA0603704794EA0C0FF8
:105660000CEA135518BF95EA0C0F0CD050EA41060E
:1056700018BF52EA4306D1D181EA030101F000418B
:105680004FF0000070BD50EA410606BF10461946B3
:1056900052EA430619D094EA0C0F02D150EA0136BF
:1056A00013D195EA0C0F05D152EA03361CBF104600
:1056B00019460AD181EA030101F0004141F0FE419F
:1056C00041F470014FF0000070BD41F0FE4141F423
:1056D000780170BD70B54FF0FF0C4CF4E06C1CEA23
:1056E00011541DBF1CEA135594EA0C0F95EA0C0FD8
:1056F00000F0A7F8A4EB050481EA030E52EA033593
:105700004FEA013100F088804FEA03334FF08055B3
:1057100045EA131343EA12634FEA022245EA1115E0
:1057200045EA10654FEA00260EF000419D4208BF91
:10573000964244F1FD0404F5407402D25B084FEA3E
:105740003202B61A65EB03055B084FEA32024FF4EA
:1057500080104FF4002CB6EB020E75EB030E22BF47
:10576000B61A754640EA0C005B084FEA3202B6EB07
:10577000020E75EB030E22BFB61A754640EA5C00B6
:105780005B084FEA3202B6EB020E75EB030E22BF46
:10579000B61A754640EA9C005B084FEA3202B6EB47
:1057A000020E75EB030E22BFB61A754640EADC0006
:1057B00055EA060E18D04FEA051545EA16754FEA68
:1057C00006164FEAC30343EA52734FEAC2025FEA86
:1057D0001C1CC0D111F4801F0BD141EA00014FF015
:1057E00000004FF0004CB6E711F4801F04BF0143E6
:1057F0000020B4F1FD0C88BFBCF5E06F3FF6AFAE02
:10580000B5EB030C04BFB6EB020C5FEA500C50F191
:10581000000041EB045170BD0EF0004E4EEA113114
:1058200014EB5C04C2BFD4EB0C0541EA045170BD1B
:1058300041F480114FF0000E013C90E645EA060E5F
:105840008DE60CEA135594EA0C0F08BF95EA0C0F8D
:105850003FF43BAF94EA0C0F0AD150EA01347FF4D5
:1058600034AF95EA0C0F7FF425AF104619462CE7AC
:1058700095EA0C0F06D152EA03353FF4FDAE10460F
:10588000194622E750EA410618BF52EA43067FF460
:10589000C5AE50EA41047FF40DAF52EA43057FF4F0
:1058A000EBAE12E74FF0FF3C06E000BF4FF0010CFB
:1058B00002E000BF4FF0010C4DF804CD4FEA410C5F
:1058C0007FEA6C5C4FEA430C18BF7FEA6C5C1BD02C
:1058D00001B050EA410C0CBF52EA430C91EA030FAD
:1058E00002BF90EA020F0020704710F1000F91EA0A
:1058F000030F58BF994208BF90422CBFD8176FEAD8
:10590000E37040F0010070474FEA410C7FEA6C5CA5
:1059100002D150EA013C07D14FEA430C7FEA6C5CAC
:10592000D6D152EA033CD3D05DF8040B704700BFD8
:105930008446104662468C461946634600E000BF26
:1059400001B5FFF7B7FF002848BF10F1000F01BDF8
:105950004DF808EDFFF7F4FF0CBF012000205DF8C3
:1059600008FB00BF4DF808EDFFF7EAFF34BF012048
:1059700000205DF808FB00BF4DF808EDFFF7E0FFE1
:1059800094BF012000205DF808FB00BF4DF808ED32
:10599000FFF7CEFF94BF012000205DF808FB00BF99
:1059A0004DF808EDFFF7C4FF34BF012000205DF87B
:1059B00008FB00BF4FEA410212F5001215D211D5C3
:1059C0006FF47873B3EB625212D94FEAC12343F0FC
:1059D000004343EA505311F0004F23FA02F018BF7E
:1059E000404270474FF00000704750EA013005D147
:1059F00011F0004008BF6FF0004070474FF000000A
:105A0000704700BF4BB942B9002908BF002802D037
:105A10004FF0FF31084600F03BB882B0EC462DE96C
:105A2000005000F01DF8DDF804E002B00CBC704737
:105A30002DE9F0411646984604460D4600F02AF836
:105A400006FB01FCA6FB002300FB08C7FB18A21AFB
:105A500065EB0303069CC4E90023BDE8F08100BFA9
:105A60002DE9F041904606460F461D4600F070F9BC
:105A700000FB05F3A0FB084508FB0138069B4544E5
:105A8000341B67EB0505C3E90045BDE8F08100BFA5
:105A9000704700BF00292DE9F00F1D46C0F29D8020
:105AA0000024002DC0F2948080460F4694461E4686
:105AB000E3BB8A4255D9B2FA82F747B1C7F1200554
:105AC00020FA05F601FA07F1BA40B8403143170C45
:105AD000B1FBF7F61FFA82FC07FB16110CFB06F56B
:105AE000030C43EA01439D4208D9711E9B1880F0C4
:105AF00013819D4240F21081023E9B18591BB1FB5D
:105B0000F7F507FB15130CFB05FC80B240EA0341D7
:105B10008C4507D96B1E8A1880F00081944540F2AD
:105B2000FD80023D45EA0641002503E08B420CD989
:105B3000002529460A462B4614B1524263EB430323
:105B400010461946BDE8F00F7047B3FA83F5002DF3
:105B500040F087808B4201D38242EAD800250121A0
:105B6000E8E712B90126B6FBF2F2B2FA82F6002E8D
:105B700039D18E1A130C1FFA82FC0125B6FBF3F7FC
:105B800003FB17610CFB07F84FEA104949EA01468D
:105B9000B04506D9791EB61802D2B04500F2D380BE
:105BA0000F46C8EB0606B6FBF3F103FB11630CFBD3
:105BB00001FC80B240EA03439C4506D94E1E9A1868
:105BC00002D2944500F2C280314641EA0741B1E772
:105BD000E443524263EB430366E7404261EB410119
:105BE0004FF0FF345DE7B240C6F1200921FA09F712
:105BF00020FA09F901FA06F1130CB7FBF3F81FFAC2
:105C000082FC03FB18770CFB08F549EA01094FEA0F
:105C1000194141EA0747B040BD420AD9BF1808F10F
:105C2000FF3680F08E80BD4240F28B80A8F10208E2
:105C3000BF18791BB1FBF3F503FB15170CFB05F639
:105C40001FFA89F949EA07418E4206D96F1E891861
:105C500071D28E426FD9023D89188E1B45EA0845E4
:105C60008CE7C5F1200122FA01F306FA05F627FABE
:105C700001F207FA05F720FA01F11E434FEA16492F
:105C8000B2FBF9F81FFA86FA09FB18220AFB08FB97
:105C90000F433B0C43EA024293450CFA05FC08D93A
:105CA000921908F1FF314AD2934548D9A8F1020868
:105CB0009219CBEB0203B3FBF9F109FB11320AFB9A
:105CC00001FABFB247EA02439A4506D94A1E9B1918
:105CD00033D29A4531D902399B1941EA08410F0C58
:105CE0001FFA8CF808FB07F68AB24FEA1C4C08FB37
:105CF00002F80CFB02620CFB07FC02EB1842964216
:105D000088BF0CF5803CCAEB03030CEB124C6345D7
:105D10000ED305D000250DE70E46EFE61D4601E740
:105D200000FA05F01FFA88F808EB0245A842F1D204
:105D300001390025FEE63D468FE71146CDE788464E
:105D4000B7E7B04675E7023FB6182AE702393CE7E5
:105D50002DE9F007144605460E46002B3DD18A4238
:105D600049D9B2FA82F747B1C7F1200120FA01F20E
:105D700006FA07F6BC40BD401643220CB6FBF2F013
:105D8000A1B202FB106601FB00F32F0C47EA0646A6
:105D9000B34208D9471E361980F0FA80B34240F268
:105DA000F78002383619F61AB6FBF2F302FB1362DB
:105DB00001FB03F1ADB245EA0242914207D95E1EF2
:105DC000121980F0E780914240F2E480023B43EAFE
:105DD00000400021BDE8F00770478B4243D8B3FA7A
:105DE00083F4002C42D18B4202D3824200F2E18044
:105DF00000210120EEE712B90127B7FBF2F4B4FA53
:105E000084F2002A40F089800A1B230CA7B20121EA
:105E1000B2FBF3F603FB162207FB06F04FEA154C24
:105E20004CEA0242904207D9121906F1FF3C02D215
:105E3000904200F2D0806646121AB2FBF3F003FBE8
:105E4000102307FB00F7ADB245EA03439F4207D991
:105E5000421E1B1980F0A0809F4240F29D800238B4
:105E600040EA0640B6E700210846B3E7C4F1200641
:105E700022FA06F703FA04F321FA06F501FA04F10F
:105E800020FA06F63B434FEA134CB5FBFCF71FFA2A
:105E900083F80CFB175508FB07F946EA010A4FEA9D
:105EA0001A4141EA0545A94502FA04F204D97E1EC9
:105EB000ED18C0F081803746C9EB0501B1FBFCF657
:105EC0000CFB161508FB06F81FFA8AFA4AEA054188
:105ED000884503D9751EC91874D32E4646EA07466D
:105EE000370C1FFA82FC0CFB07F5120CB3B20CFB4B
:105EF00003FC02FB035302FB07F203EB1C439D422E
:105F000088BF02F58032C8EB010102EB13429142D7
:105F10004CD343D0304600215CE79440C2F12005C9
:105F200021FA05F620FA05F501FA02F1230CB6FB79
:105F3000F3FCA7B203FB1C6607FB0CF829430D0C0E
:105F400045EA0646B04500FA02F508D936190CF1C3
:105F5000FF303ED2B0453CD9ACF1020C3619C8EB4B
:105F60000602B2FBF3F003FB102607FB00F889B230
:105F700041EA0642904506D9461E121927D290459D
:105F800025D902381219C8EB020240EA0C413FE75A
:105F9000384608E733461AE7104661E700FA04F08E
:105FA0001FFA8CFC0CEB03439842B3D2701E002105
:105FB00010E7214620460DE7A9457FF67CAF023F5A
:105FC000ED1879E7884588D9023EC91886E730463A
:105FD000D9E78446C3E7023E12192DE7014B03605F
:105FE000704700BFE88B010870B5012188B00446F6
:105FF00001F0C6FEA0F13005072D37D80322684610
:10600000214601F0E5FE1C4904A801F03FFE2046B0
:1060100004A901F0A3FE064604A801F0F5FD1EB197
:10602000ADB22846002110E0144904A801F02EFE6C
:10603000204604A901F092FE044604A801F0E4FD04
:1060400074B10A35ADB22846314600F0C3FF684648
:1060500001F0C5FEC1B2284601F0F2F9012401E0C9
:106060006FF00104684601F0CFFD01E04FF0FF340E
:10607000204608B070BD00BF28EC01082AEC0108DA
:106080007FB50121054601F07BFEA0F13004072C0D
:1060900023D81549684601F0F9FD2846694601F004
:1060A0005DFE0646684601F0AFFD6EB90F496846D1
:1060B00001F0ECFD2846694601F050FE05466846B1
:1060C00001F0A2FD65B10A34A4B22046012100F01E
:1060D00081FF204601F01AF904E04FF0FF3001E0A3
:1060E0006FF0010004B070BD28EC01082AEC010833
:1060F000F0B5012185B0044601F042FEA0F1300662
:10610000072E49D8684621460322072301F03AFEAC
:106110006846264901F0F8FD0546684601F074FD21
:106120007DB9684621460322062301F02BFE68460E
:106130001F4901F0E9FD0746684601F065FD0FB90A
:106140002DE001251B49684601F0A0FD2046694667
:1061500001F004FE0746684601F056FD1FB1B6B2D5
:106160003046002110E01449684601F08FFD2046BA
:10617000694601F0F3FD0446684601F045FD8CB127
:106180000A36B6B23046394600F024FF304629467A
:1061900000F0ACFF012007E04FF0FF3004E06FF0AB
:1061A000010001E06FF0020005B0F0BD2CEC010829
:1061B00031EC010828EC01082AEC01087FB5012127
:1061C000054601F0DDFDA0F13004072C23D8154968
:1061D000684601F05BFD2846694601F0BFFD0646B2
:1061E000684601F011FD6EB90F49684601F04EFD99
:1061F0002846694601F0B2FD0546684601F004FDF7
:1062000065B10A34A4B22046032100F0E3FE204623
:1062100000F0B8FF04E04FF0FF3001E06FF0010044
:1062200004B070BD28EC01082AEC0108034B10B53E
:106230000446036000F0F8FA204610BDE88B010820
:1062400008B50948094900F0DDFB0948094900F093
:10625000D9FB0948094900F0D5FB09480949BDE8BF
:10626000084000F0CFBB00BF35EC0108BD6100085D
:1062700041EC0108F16000084EEC01088160000863
:1062800059EC0108E95F00087047000013B5084C9D
:10629000002100910A460B46204601F0ADFB05495E
:1062A000054A204602B0BDE810400DF00BB900BF12
:1062B000180C0020DD5F0008880D002010B50131AA
:1062C000002393420ED0040F092C01D8303400E093
:1062D000373401F8014C01330024000101F8024B6E
:1062E000DBB2EEE710BD00001F4B10B51A88032A81
:1062F00004D804200146188006F0DCFF4FF000604F
:106300004FF4A04106F024FF1848012421460470F0
:10631000174807F015FA05F0C1FF05F0A9FC214662
:10632000402007F0D5FA6FF07F4005F00DFEE72022
:1063300005F086FE0F490C7005F0E2FC7D2007F0A9
:10634000EBFA18B10C4B1C7007F0FAFA40F6B830B3
:1063500005F02EFD06F080FA06F0FAFC074A08491F
:1063600001201070087010BDF41D0020D01D002009
:1063700000043000741C00209C270020881D002091
:106380007E1D0020304B10B51A88042A04D8052140
:106390000420198006F08EFF2C48017811B12C489A
:1063A00002F0AEFB294C237853B127480288052A16
:1063B00004D806210180042006F07CFF02F022FDB3
:1063C000217861B1234C23784BB92348027832B14C
:1063D00022490C781CB9224B18780028E2D0214AB7
:1063E00011780029DED1204C2378002BDAD11C480B
:1063F0000278012A0FD01D4969B1134C2388062B5E
:1064000004D807210420218006F054FFFFF718FF6D
:10641000134A0120107016490029C3D00A4C238862
:10642000072B04D808210420218006F043FFFFF742
:106430002BFF20880828B5D8034A092104201180A1
:1064400006F038FFAEE700BFF41D0020881D0020D5
:10645000A96C00083D1D00207E1D0020721C00203C
:10646000200C0020731C00209C27002041620008A3
:1064700089620008524B70B51A6812B11868411E43
:106480001960504B1A783AB14F4A1078002829D039
:106490004E49002949D125E04D4C206810B12368B0
:1064A000591E0FE04B490B78E3B94B4A1078C8B935
:1064B0004A490B78B3B94A4D2A782AB1E72005F04A
:1064C00039FE142121600DE04648017800292FD1C2
:1064D000E72005F0E3FD44483D4B0178002935D025
:1064E00032221A603F4B1A7832B1404D287818B9E1
:1064F0002EE041684B1C43603D490B68B3F57A7F41
:106500000FD300230B6007F079F93A484FF6FF717B
:1065100002888A4253D001800420BDE8704006F012
:10652000C9BE0868421C0A6070BD00F021FCD9E7B2
:10653000314B1A78002ACBD04FF6FF7005F004FDDE
:10654000E72005F07DFD01202870CBE76422C8E735
:1065500021490B7893B1294847F22F52436893425F
:10656000C7D9BFF34F8F264C2648E56805F4E0668F
:1065700046EA0002E260BFF34F8FFEE7154E347823
:1065800034B9204605F0EAFE40F6B73290420DD805
:10659000002005F0E3FE41F657318842ACD90020D7
:1065A00005F0E4FE184B01201870A5E7204605F021
:1065B000DDFE2A78002A9FD1012131709CE770BD51
:1065C000A4270020B01D0020BC0F0020716D000822
:1065D000A0270020341D0020731C0020751C002003
:1065E000741C0020881D0020711C00203D1D00200F
:1065F000A8270020F41D0020721C0020200C002081
:1066000000ED00E00400FA05351D002008B5094B37
:10661000186006F0CBF8002006F010F9064805F0E7
:106620004BFB06F0D9F806F0F7F8BDE8084008F093
:106630008FB800BF7C020020A0860100074B1868BD
:10664000052808D106490A7A012A04D1887A0B7BE9
:10665000C11AC8B270470020704700BFF81D002063
:10666000200C00200D4B10B51868052813D10C4CD8
:10667000217A01290FD16289A389D01A012804D176
:1066800000210320217208F0CEF9A389E218591CD9
:10669000907BA18110BD4FF0FF3010BDF81D002090
:1066A000200C002008B50C4B1968052912D10B4BA2
:1066B0001A6D991881F85400501CB0F5807F08BFFE
:1066C0000020186505F042FF20B16420BDE80840B5
:1066D00005F0F2BA08BD00BFF81D0020200C002014
:1066E00070B5234A92F85431012B3FD0D2F85801AB
:1066F000B0F5807F02D10021C2F85811D2F858318C
:10670000126D1B48934203D1002180F8541170BDD3
:106710008CBFC3F58072C3EB0202154CC0F85C213C
:10672000D4F85C5199B2402D07D94033403DC4F8AC
:106730005831C4F85C51402606E0E8180023AEB298
:10674000C4F85801C4F85C310A4A01255018C02128
:10675000324684F8545108F0DDF82846314608F0F6
:10676000E3F92846BDE8704008F04CB970BD00BFA1
:10677000200C0020740C0020094B10B593E8140085
:106780000833186810180AD008220649FFF796FD4A
:10679000054920460422BDE81040FFF78FBD10BD1B
:1067A000E8F7FF1F2A0200203A02002013B5084C28
:1067B000002100910A460B46204601F01DF90549CB
:1067C000054A204602B0BDE810400CF07BBE00BF79
:1067D000800D0020DD5F0008880D002038B50D46D3
:1067E0000446AC4203D254F8043B9847F9E738BD5D
:1067F00008B507480749FFF7F1FF07480749FFF7C2
:10680000EDFF07480749BDE80840FFF7E7BF00BFB5
:1068100098F1010898F1010898F10108F4F10108D4
:10682000F4F10108F4F101080CF0C0BF08B507202D
:1068300006F0B8FBFEE70000074A08B513680749F1
:1068400018188842106004D9082006F0ABFB0CF041
:1068500073FE184608BD00BF00000020004800205D
:106860004FF0FF3070470120704708B50C2006F04C
:1068700099FBFEE7014B1868704700BF8C0D0020A4
:10688000064B0246582000FB013101F1080303CBFF
:106890001060516018689060704700BF8C0D002038
:1068A000014BD3F8640170478C0D0020064B024663
:1068B000142000FB013101F5B67303CB1060516069
:1068C00018689060704700BF8C0D00200E4B2DE9BA
:1068D000F041D3F8647180460024BC4211DA1425DB
:1068E0006543094E4146701900F5B6700C220EF052
:1068F0004BF920B97519D5F86801BDE8F08101346C
:10690000EBE70020BDE8F0818C0D00202DE9F04779
:1069100088B0814668460D4601F0B8F91E4B002448
:10692000D3F800A054452DDA55B3582666431A4FC4
:10693000494607F1040808EB060004300C220EF06B
:1069400023F9E8B928460EF0EFF806F110014028C7
:1069500034BF0246402208EB010029460DF0C2FA7E
:10696000BE19012286F85820694604A8746801F00F
:10697000AFF904A8A047044604A801F045F903E0D4
:106980000134CFE74FF0FF34684601F03DF920466F
:1069900008B0BDE8F08700BF8C0D002038B5054673
:1069A000064C28B105F072FB012384F8303238BD63
:1069B00005F01AFB84F8305238BD00BF8C0D002062
:1069C000024B00221A6005F0E3BF00BF240C002038
:1069D000034A044800231370036006F011B800BF97
:1069E000731C0020240C0020044B054900200122C8
:1069F0001A7008604FF4C02005F0A4BF731C00207B
:106A0000240C00202DE9F84F04468946002941D086
:106A100000283FD0204B1D68042D3BD00027AF42FB
:106A20001E4E4FF058080FDA08FB07F856F808100A
:106A3000494507D106EB0802101D21460C220EF035
:106A4000A3F838B30137EAE708FB05F8A6F1040A12
:106A50000AEB080708F11000C7F804900021402253
:106A600030180DF0C5FB06EB0801081D0C220021B3
:106A70000DF0BEFB2068616807F1080203C2A3683D
:106A80000020013507F1040B87F8580013605437D4
:106A900046F8045CBDE8F88F8C0D0020900D0020B6
:106AA00073B5002B0CBF6523452306460D461446DF
:106AB000009331462A462346014808F061FA7CBD1E
:106AC000C00F002010B5064C206803F023FC23689B
:106AD000013303D0411E4842484110BD012010BD82
:106AE00004000020F0B5274B0646187887B00F4603
:106AF000002843D124490A78002A3FD1FFF7E2FF5A
:106B0000044600283AD1214D8DF80C002B688DF8F1
:106B10000D008DF80E008DF80F0006A9580901EB45
:106B2000800203F01F01012000FA01F052F80C1C52
:106B30000494014342F80C1C04A841F288320592E7
:106B4000009003A9581C2246234604F0B1FA0028FD
:106B500016DD2B6806A95D0901EB850050F80C5C79
:106B600003F01F0245FA02F515F0010008D018469F
:106B700031463A46234604F03BFB01E04FF0FF303C
:106B800007B0F0BD3C1D00203D1D0020040000208A
:106B900038B50B4B054618780C4668B909490A7890
:106BA00052B9FFF78FFF034630B9074829462246FE
:106BB000006804F09BFB38BD4FF0FF3038BD00BFCC
:106BC0003C1D00203D1D00200400002030B51F4862
:106BD000ADF57B7D08F018F8002834D11C481D4B1A
:106BE00006901D4D1D4805931D491E4A1E4B0A95D2
:106BF0000C901E4D1E48079108920B931D491E4A8A
:106C00001E4B0F9511901E4D1E481F4C0D910E925C
:106C10001E491F4A10931F4B1495169061AD17A87B
:106C2000129113921593099404900EAC039505F0FC
:106C30002DFF284605F030FF00940448164903AAAA
:106C400005AB07F0E8FF0DF57B7D30BDC00F0020E0
:106C5000E56A0008916B0008C1690008C575000865
:106C6000E9690008D16900089D6900088168000889
:106C7000A1680008B97E0008756800080D69000861
:106C8000CD680008B9CA0008C9CA0008AD68000884
:106C90007D6F0008A5CA0008E8F7FF1F014808F04B
:106CA0003ABF00BFC00F002030B5022011228DB0C6
:106CB000014604F047F9051E28DB154907A808F02E
:106CC000F0F8022316200024ADF80C308DF80E00E9
:106CD0003321E0220123BB208DF811408DF80F10E5
:106CE0008DF810208DF812308DF813000324102237
:106CF00003A90091019200231322284607A904F05A
:106D0000FFFA013CF3D1284604F04AF90DB030BD3A
:106D1000E8F7FF1F30B5134C87B0FFF757FF204649
:106D200007F075FF204608F087FB0546FFF7BCFF1C
:106D3000204608F00AF903A803F0D4FC9DF80D20C2
:106D40009DF80C300092082104A8074A0DF06CFD54
:106D5000064804A93C220123FFF7A2FE284607B0FB
:106D600030BD00BFC00F002065EC01086BEC0108CE
:106D700038B5114CD4F8585B2DB1D4F8581B4B1EC4
:106D8000C4F8583B38BDD4F85C3B0C4A52F8230099
:106D900005F002F9E72005F053F9094A6420D4F818
:106DA0005C1BC4F8580B50684B1C8342C4F85C3B16
:106DB000A8BFC4F85C5B38BD8C0D0020908B010827
:106DC000040000207FB502200121062204F0BAF859
:106DD000041E23DB00200822022335218DF8020047
:106DE0004FF4FA50ADF800308DF803108DF8042000
:106DF0008DF805208DF806208DF8072001F074FB32
:106E0000694606461022204604F026F9054630461B
:106E100001F06AFB204604F0C3F801E04FF0FF35B3
:106E2000284604B070BD000010B5064C206800284C
:106E300005DB04F0B5F84FF0FF33236010BD0020F0
:106E400010BD00BF0400002030B5A7B0FFF7ECFF75
:106E500002200121062204F075F8334B0028186047
:106E600052DB3248022216213324A0F8602B80F82E
:106E7000621B80F8634B05A805F0D4FD9DF8143023
:106E80000025009533B1012B17D0294B01A803F140
:106E9000100502E0069A009214E00246596818684C
:106EA000083303C2AB421046F7D101A906AC0FC9A3
:106EB00007C424F8023B1B0C23700A24009D0DB963
:106EC000013C24D1009808B91A490091009B174C45
:106ED000180A1D0E1A0C84F8660B4FF4FA5084F849
:106EE000673B84F8645B84F8652B01F0FDFA0E497A
:106EF00005461022086804F5366104F0ADF8044632
:106F0000284601F0F1FA0CE04FF0FF3409E07E2151
:106F100006A80DF0C9FE6A4681B206A804F066F81C
:106F2000CCE7204627B030BD040000208C0D0020A7
:106F300086EC010804E5D0360F4B2DE9F041D3F87B
:106F4000647180460024BC4211DA142565430A4E60
:106F50004146701900F5B6700C220DF015FE20B9EF
:106F6000751995F87801BDE8F0810134EBE74FF031
:106F7000FF30BDE8F08100BF8C0D002008B5FFF7A1
:106F8000DBFF0138082803D8024B1918087F08BD19
:106F9000022008BD908B010837B50B4C002104F589
:106FA00037650B4600910A46284600F025FD284625
:106FB0000649074A0CF086FA04F50D7003B0BDE8E7
:106FC000304007F011BE00BF8C0D0020DD5F0008CF
:106FD000880D002014282DE9F34104460E467CD884
:106FE000FF297AD000F0D8FD28B10D2C75D00F2CD8
:106FF00073D00E2C71D000F093FC08B1012C6CD929
:1070000001F0AAF818B1A4F11203012B65D91820D8
:107010006043334D33492F582A188F42B2F8048009
:1070200001D1042003E0304B9F4203D1082001210D
:1070300006F05AFCADF80480062E4AD8DFE806F0C8
:1070400004121A222A354100254B182101FB043471
:1070500010208DF8070003220020A0738DF8062071
:10706000083436E0042118238DF8071003FB04547C
:1070700001212DE0482018228DF8070002FB04545E
:10708000022125E0282118238DF8071003FB045462
:1070900003211DE0124A182303208DF807308DF8D4
:1070A000060003FB0424042112E00D491C230320E5
:1070B000182202FB04148DF807308DF80600052114
:1070C00006E0182202FB045400208DF80700062178
:1070D000A173384601A906F0D3FABDE8FC8100BFD0
:1070E0000C00002000080140000C0140142870B57D
:1070F00004460E4642D8224B182202FB0030817B08
:1071000001293BD0022939D0032937D0062935D0AF
:10711000FF2933D000F040FD30B10D2C2ED00F2CC4
:107120002CD00E2C00D170BD00F0FAFB10B1012C58
:1071300000D870BD01F010F820B1A4F11202012AAC
:1071400000D870BD0E4D182303FB0450817B042929
:1071500003D120460021FFF73DFF012E06D1182262
:10716000544328192B598188196170BD36B91822EA
:10717000544328192B598188596170BD70BD00BFD7
:107180000C000020142838B5044618D81E4B1822CD
:1071900002FB0030817BFF2911D004290FD0052983
:1071A0000DD000F0F9FC28B10D2C08D00F2C06D022
:1071B0000E2C04D000F0B4FB18B1012C01D8002033
:1071C00038BD00F0C9FF18B1A4F11202012AF6D9A6
:1071D0000D4D182303FB0450817B062906D195F839
:1071E000F811FF29EBD02046FFF7F4FE1822544394
:1071F0002D19054BAA7BA988185912B906F096FAE1
:1072000038BD06F08DFA38BD0C000020F0B54FF403
:10721000004091B006F034FB0120014606F058FB17
:1072200001214FF4C06006F05FFB334806F066F8BA
:107230003248334B0A2100248022069008914FF4F3
:1072400000754FF400664FF400572B4805A90593CD
:107250000A920B950C9601250E974FF460264FF479
:107260000027079409940D940F9406F0BFF8254861
:10727000694600978DF804408DF805400296039406
:107280008DF8105005F06EFF1F48694600978DF885
:1072900004408DF80540029603948DF8105005F0D7
:1072A00061FF1848294605F081FF164805F090FF58
:1072B000144805F092FF0028FAD1124805F091FF1A
:1072C000104805F093FF0028FAD10F48012105F07E
:1072D0006DFF0D4805F07CFF0B4805F07EFF002890
:1072E000FAD1094805F07DFF074805F07FFF002827
:1072F000FAD111B0F0BD00BF08000240081900200B
:107300004C2401400024014000280140092838B5E0
:10731000044601D80A34A4B200F03EFC38B10D2C6A
:1073200001D1002038BD0F2CFBD00E2CF9D000F07D
:10733000F7FA00F011FF18B1A4F11203012BF0D9F4
:10734000142CEED8394D182000FB04539A79FF2AEB
:10735000E7D095F8FA11914206D0987B062185F87E
:10736000F8012046FFF736FE95F8FB51012D05D1B7
:10737000FFF74CFF2D4B002283F8FB212B4D1821EA
:1073800001FB045495F8FA01A17988420FD02848EE
:10739000012295F8F93105F036FF01222548A1793F
:1073A00095F8F93105F02FFFA27985F8FA2100212F
:1073B000214B002043F8210001310A29F8D11F4850
:1073C00006F047F81B48012105F06AFF1B48012120
:1073D00006F02CF81648012105F0F1FE14480121B1
:1073E00005F008FF022006F037F80028FAD0022046
:1073F00006F040F80E48002105F0E1FE0F4800219C
:1074000006F014F800231A460B4951F8230051F8EE
:107410002310013389B201EB10400A2B0244F3D14F
:107420001421B2FBF1F080B238BD00BF0C00002087
:1074300000240140002801400819002008000240F3
:107440002DE9F041142888B004460D4600F2AD80C5
:10745000574B182202FB00308168002900F0A580FC
:1074600000F09AFB40B10D2C00F09F800F2C00F033
:107470009C800E2C00F0998000F052FA10B1012C83
:1074800040F2938000F068FE20B1A4F11202012ABC
:1074900040F28B80464B182000FB04318A7B12B1EE
:1074A000042A40F08280434E434837684BF68032CE
:1074B0006A43B7FBF0F3591E0120FF258EB2014647
:1074C00092FBF5F706F010FA04212046FFF782FD43
:1074D000374B182000FB04318D68BFB2B5F1804FE7
:1074E00002D10120014608E0344A0220954203D02F
:1074F0003348854203D10420012106F001FA2C4DC6
:10750000182101FB04554BF67F33ADF80460A868E1
:10751000002601A9ADF80A60ADF80660ADF80830A4
:1075200006F0E2FAADF81860AE896022012005F19C
:107530000808ADF81020ADF81200ADF8167046B985
:10754000A86804A906F01AFBA868082106F056FCF2
:107550001FE0042E08D1A86804A906F053FBA86810
:10756000082106F053FC14E0082E08D1A86804A9ED
:1075700006F08CFBA868314606F052FC09E00C2EA0
:1075800007D1A86804A906F0C3FBA868082106F083
:107590004FFC074B182101FB04340121A06806F0C1
:1075A00021FCA068012106F0FAFB08B0BDE8F081DB
:1075B0000C0000207003002000366E010004004023
:1075C0000008004005F0BABA13B5084C002100913C
:1075D0000A460B46204600F00FFA0549054A2046A8
:1075E00002B0BDE810400BF06DBF00BF30190020A5
:1075F000DD5F0008880D002038B5194B05461C8852
:10760000B3F80024A4B290B228B94EF6EE63E01AA3
:1076100018BF012006E00CBB4EF6EE63C41A6242AE
:1076200052EB0400840204F1006201300D4B02F5BC
:1076300080448202D01884420ED22268013209D1DD
:10764000204605F0B9FF042809D1A01C294605F001
:10765000B3FF38BD0434EEE7802038BDAB2038BD21
:1076600000400008FE3F000808B5084805F0EAFFA2
:1076700004280AD10021054805F09EFF042804D102
:107680000348BDE8084005F0DDBF08BD0040000824
:10769000004400080F4B10B51A8893B20E4A1288A6
:1076A00092B21BB10AB1AB2010BD01239C020B4B5F
:1076B000E3180B4AA21893420AD91A8892B282425E
:1076C00004D133F8020C0880002010BD043BF0E721
:1076D000012010BD0040000800440008FE430008DF
:1076E00002400008F8B5434E05F026FF424D3488AD
:1076F0004EF6EE61A4B22B888C4298B24FF6FF7220
:107700000FD0944202D0002C42D070E000286AD002
:1077100088426CD1304605F095FF042869D128468F
:1077200032E048BB04461646344D35492B8831F8C3
:10773000145098B2A84208BFA6B232B2944203D104
:107740000134642CF0D10FE02D4F284607F1C80119
:10775000FFF7A0FF0128F3D02846B7F8C810FFF7BD
:107760004BFF0428ECD0F8BD0021224805F024FF8F
:1077700004283ED1204837E0904238D1284605F011
:1077800061FF042835D13046002105F015FFF8BD12
:1077900000282CD09042EDD016461A4D18492B885F
:1077A00031F8145098B2A84208BFA6B232B294423F
:1077B00003D10134642CF0D10FE0114F284607F1BA
:1077C000C801FFF767FF0128F3D02846B7F8C810B3
:1077D000FFF712FF0428ECD0F8BD0021064805F0A1
:1077E000EBFE042805D1034805F02CFFF8BDFFF798
:1077F0003BFFF8BD004000080044000806400008B8
:10780000381900200644000810B50446FFF76AFF47
:107810000023044A22F813300133642BF9D12046A7
:1078200010BD00BF381900200148FFF7EDBF00BFB1
:10783000021A0020024B18785978401A704700BF8E
:10784000041A0020064B5A781978914204D99818E6
:10785000013280785A7070474FF0FF30704700BF98
:10786000041A0020054B5A781978914202D99818C9
:10787000807870474FF0FF30704700BF041A002037
:1078800070470000014B0360704700BF008C010887
:10789000034B10B504460360FEF7C6FF204610BD3B
:1078A000008C0108F8B5094B054693F822001646EE
:1078B00050B10C468F18BC4206D0296828468A6809
:1078C00014F8011B9047F6E73046F8BD041A002073
:1078D00010B50C4B012293F822408CB193F8234051
:1078E0001F2C02D94260002010BD93F824001C1800
:1078F00084F82510411CC8B283F8240083F82300C3
:10790000104610BD041A002000224260024A4FF4C3
:107910007A71816002607047C08B010870477047C0
:10792000014B93F859007047041A002073B50E4CB0
:10793000002104F164050D4E0B4600910A462846CD
:1079400000F05AF86C343246094928460BF0BAFD6B
:107950002046FFF7D9FF07492046324602B0BDE86E
:1079600070400BF0AFBD00BF041A0020880D00204E
:10797000DD5F00088578000808B5034B53F8200048
:1079800000B1804708BD00BF801A002013B5084C25
:10799000002100910A460B46204600F02DF80549CB
:1079A000054A204602B0BDE810400BF08BBD00BF79
:1079B000C01A0020DD5F0008880D00202DE9F0418D
:1079C000002407460E4625463B1919790A223046FF
:1079D00000F0AFF82E218046304600F078F80134F0
:1079E0004044032C0544EFD13046F9790A2200F0D7
:1079F000A0F82818BDE8F08130B58371044D9DF8DA
:107A00000C300446056001714271C37130BD00BF86
:107A1000E88B010805480021054B01714171817116
:107A2000C171044A044903600BF04CBDC81A002020
:107A3000E88B0108880D0020DD5F000813B5084CB5
:107A4000002100910A460B462046FFF7D5FF054965
:107A5000054A204602B0BDE810400BF033BD00BF20
:107A6000D01A0020DD5F0008880D0020014B036064
:107A7000704700BF008C0108F8B506460C468F1809
:107A80000025BC4207D0336830469A6814F8011BC1
:107A900090472D18F5E72846F8BD0000034B10B5B8
:107AA00004460360FEF7C0FE204610BD008C0108AE
:107AB00038B505460C46084641B10DF035F82B683F
:107AC0000246DB6828462146984738BD38BD08B5D0
:107AD00003689A68904708BD70B500238AB08DF896
:107AE0002430012A98BF0A220DF12303B1FBF2F5DD
:107AF00005FB1211CCB2092C1E4601D8303400E02F
:107B00003734E4B203F801492946002DEED131465D
:107B1000FFF7CEFF0AB070BD10B5044622B9026867
:107B2000C9B29268904710BDD2B2BDE81040FFF7CD
:107B3000D3BFFFF7F1BF000013B5084C002100913F
:107B40000A460B462046FFF757FF0549054A2046DF
:107B500002B0BDE810400BF0B5BC00BFE01A002039
:107B6000DD5F0008880D002013B5084C002100914E
:107B70000A460B462046FFF73FFF0549054A2046C7
:107B800002B0BDE810400BF09DBC00BFE81A002019
:107B9000DD5F0008880D0020014B587D704700BF55
:107BA000F01A00207047000013B5084C0021009126
:107BB0000A460B462046FFF71FFF0549054A2046A7
:107BC00002B0BDE810400BF07DBC00BF081B0020D8
:107BD000DD5F0008880D002013B5084C00210091DE
:107BE0000A460B462046FFF707FF0549054A20468F
:107BF00002B0BDE810400BF065BC00BF141B0020B4
:107C0000DD5F0008880D002010B5044600680BF009
:107C1000CDFD204610BD10B50446006808B10BF03C
:107C2000C5FD00232360A360636010BD38B5044622
:107C30000D46006801310CF099FB10B184E8210079
:107C4000012038BD036810B5044613B1406888426E
:107C500007D22046FFF7EAFF20B1A16809B92268E0
:107C60001170012010BD70B50E4611460446154630
:107C7000FFF7E8FF18B92046FFF7CDFF04E0A56045
:107C8000206831460CF0F2FE204670BD38B5002366
:107C9000044603604360836003730D4639B10846B0
:107CA0000CF042FF294602462046FFF7DCFF204643
:107CB00038BD884210B50B46044607D0096819B193
:107CC0009A68FFF7D0FF01E0FFF7A5FF204610BD3F
:107CD000002310B504460360436083600373FFF71D
:107CE000E8FF204610BD38B505460C4641B10846B0
:107CF0000CF01AFF214602462846FFF7B4FF01E0C8
:107D0000FFF789FF284638BD826808B50B4612B9CF
:107D100019B9012008BD11B90368187802E000689C
:107D20000CF0B6FDD0F1010038BF002008BD10B541
:107D30008B688468E41AA2420CD8006868B10968AC
:107D400051B180181A460CF01FFFD0F1010038BF66
:107D5000002010BD002010BD084610BD82688B6851
:107D60009A4202D30022FFF7E2BF002070478368E7
:107D7000994203D2006810B1405C70470020704700
:107D8000FFF7F5BF9A422DE9F04107460D4614462C
:107D90001E4601D93446164638460C49FFF776FF91
:107DA000A86884420FD82968864228BF0646002268
:107DB00011F806808A552B6838461919FFF793FF8A
:107DC000286800F806803846BDE8F08150EE0108CA
:107DD00010B58B680446FFF7D5FF204610BD00683C
:107DE00008B10BF0B1BB704713B5084C00210091EE
:107DF0000A460B462046FFF7FFFD0549054A204687
:107E000002B0BDE810400BF05DBB00BF1C1B0020A2
:107E1000DD5F0008880D002013B5084C002100919B
:107E20000A460B462046FFF7E7FD0549054A20466E
:107E300002B0BDE810400BF045BB00BF241B002082
:107E4000DD5F0008880D002038B51A4C94F92C30FD
:107E5000002B2DD094F82D00002829D005F098FD96
:107E600094F82C2094F82D5051B2002995FBF1F391
:107E700006DD012B0BDC511E84F82C10002407E0DA
:107E8000591C04DB013284F82C20022400E0012478
:107E9000084B041993F82D20511E83F82D1005F07E
:107EA000ABFD204605F088FDBDE8384005F0A4BDD7
:107EB00038BD00BF2C1B002010B5044605F068FD3E
:107EC000001B00F17F02FE2A08D905F095FD20462F
:107ED00005F072FDBDE8104005F08EBD054980EA51
:107EE000E073A3EBE07381F82C00580081F82D00BB
:107EF00010BD00BF2C1B002013B5084C00210091C1
:107F00000A460B462046FFF777FD0549054A2046FD
:107F100002B0BDE810400BF0D5BA00BF5C1B0020DA
:107F2000DD5F0008880D002013B5084C002100918A
:107F30000A460B462046FFF75FFD0549054A2046E5
:107F400002B0BDE810400BF0BDBA00BF681B0020B6
:107F5000DD5F0008880D002013B5084C002100915A
:107F60000A460B462046FFF747FD0549054A2046CD
:107F700002B0BDE810400BF0A5BA00BF701B002096
:107F8000DD5F0008880D0020014B0360704700BFD3
:107F9000008C01080369186C596C421A02F03F000A
:107FA00070470369196C5A6C914202D0586C185C86
:107FB00070474FF0FF3070470369196C5A6C91425B
:107FC00007D0586C596C185C4A1C02F03F01596488
:107FD00070474FF0FF30704770B504460E462C488E
:107FE00040F2277105F065FF20B963691A6C586C7F
:107FF000824211D161690D6C6B1C03F03F05606911
:10800000426C95420FD0EFF31081CA0732D5036C52
:10801000426C934207D12DE01D4840F227710122A6
:1080200005F01FFFE6E71A4840F2277105F041FF0F
:108030000028E4D01648802105F035FF0028DED066
:108040000022134840F2277105F00BFF63695A6C58
:10805000501C995C58640E4805F01DFF61690C487E
:108060004B6C03F03F024A6440F22771012205F095
:10807000F8FEC4E7016C4654606940F2277105645C
:108080000125257602482A4605F0EBFE284670BDFC
:1080900000440040436910B50446196C5A6C914283
:1080A000FBD1207E10B90023237610BD0348402168
:1080B00005F0F9FE0028F4D0F5E700BF00440040C9
:1080C000034B10B504460360FEF7AEFB204610BD1F
:1080D000008C010810B51E4840F2255105F0E9FE5C
:1080E00078B11B4805F0DBFE1A4BC0B25A6D511C2B
:1080F00001F03F02996D8A4203D0596D5A655918B3
:108100000875134840F2277105F0D3FEF8B1114C01
:10811000D4F89C00D4F8A030984207D10C4840F223
:1081200027710022BDE8104005F09BBED4F8A000E6
:108130002218431C92F85C100548C4F8A03005F0E2
:10814000AAFED4F8A01001F03F00C4F8A00010BDB2
:1081500000440040781B0020014B187C704700BF92
:10816000781B0020F7B5164C002504F1A406154F26
:108170002B4629462A4600953046FFF73DFC3A46F5
:10818000304611490BF09EF904F114010F4804F137
:108190005C02C4F8BC100E494FF47A73C4F8AC000A
:1081A000C4F8C02004F1AC003A46C4F8B050C4F89A
:1081B000B43084F8C45003B0BDE8F0400BF082B98D
:1081C000781B0020880D0020DD5F0008188C010856
:1081D000897F000870474FF0FF307047014B036004
:1081E000704700BF008C0108034B10B504460360C4
:1081F000FEF71AFB204610BD008C0108084608B5A2
:10820000FEF750FA012008BD08B5FEF717FA08BDC1
:10821000FEF728BA00224260024A4FF47A71816068
:1082200002607047408C01080846FEF7EFB9000075
:1082300037B50D4C00210D4D0B4600910A462046E6
:10824000FFF7DAFB2A460A49204608340BF03AF9D0
:108250002046FFF7DFFF074920462A4603B0BDE866
:1082600030400BF02FB900BF401C0020880D0020CB
:10827000DD5F0008DD8100087047000037B50B4C5A
:1082800000210B4D0B4600910A462046FFF7B4FB38
:108290002A46204607490BF015F9074904F1080062
:1082A0002A4603B0BDE830400BF00CB9581C002042
:1082B000880D0020DD5F000879820008002303603C
:1082C0001846704700230360184670470023036078
:1082D00018467047F8B5394C0346257808462E46AF
:1082E000002D69D148F21007BB4246D00BDC48F2A2
:1082F000010293421FD0501C834225D0992B5BD1A1
:108300000121A174F8BD48F28007BB420ED0B3F53D
:10831000084F43D048F2400083424DD104F114008D
:108320000BF0E0FDA16A4B1CA362F8BD0121617056
:10833000A170E570F8BD01232371FFF743F900F543
:10834000EA423032A260F8BD237963B1FFF73AF90F
:1083500000F5EA4230324FF47F40A26003F0F4FDB2
:10836000E72003F06DFE1548002101710173417390
:108370008173C17301744174F8BD0B7D63B901222F
:108380004FF47F402273A360227403F0DDFDE720E9
:10839000BDE8F84003F054BE2573F8BD294601F04E
:1083A000B4FB0121064601F0F7FB054A106886423E
:1083B00002D1E573A5736573F8BD00BF641C00208E
:1083C0000400002070B51B4B8CB006460D461020F3
:1083D0000221002202F024F9002401AB325B42F0BA
:1083E0000101100A2A5B03F8041C0234110A03F885
:1083F000030C03F8022C03F8011C0433182CEDD1F4
:10840000214604226B46102002F00AF906AB2146F1
:108410001C22102002F004F90021302268460BF0E3
:10842000E7FE1020014634226B4602F0F9F8C0B294
:108430000CB070BD9FEC010810B50A4C04F12C0083
:1084400002F050F958B994F82C30012B08D194F867
:108450002D00B0F11C014A4252EB010010BD00207A
:1084600010BD00BF641C00201FB50A2200234FF47A
:1084700061504FF461618DE80F00064B44F62062B5
:108480001A60684601A902AA03AB02F047F805B0DA
:1084900000BD00BFAC1D00201FB500230093019359
:1084A0000293039301A8694602AA03AB01F0FEFF01
:1084B00005B000BD70B500210A4C0E2002F02CF969
:1084C000102510210E2002F027F900212A4620460F
:1084D0000BF08EFE0E20294600222346BDE8704098
:1084E00002F09EB8921C0020024B1A6818601046D9
:1084F000704700BFAC1D00201FB5044604F088F88B
:1085000003F0C8FF0E4B0F480F49104A009301902B
:108510000F4B029103920F490F4A104802F036FFA9
:10852000642003F0C1FB204602F048FF0C4803F032
:1085300069F948F2042004B0BDE8104003F014B912
:108540004DC5000861C50008CDC50008F5C5000887
:10855000CD820008BD820008C5820008D5820008CF
:108560000802002038B5584D01244FF0FF102C7040
:1085700003F0EAFCE72003F063FD0220FFF7BCFFF5
:1085800000200146024602F0C9FFFF2003F0D2F8A6
:1085900005F1BE0002F07FF84C4B062814BFFF2007
:1085A0000020D8701C71494D474A297919B192F8B9
:1085B000C440022C6CD992F8C400454B454D434A47
:1085C0000121032808BF1D461171404C207930B1AC
:1085D000414800F11801FFF7F5FE2071F5E701238E
:1085E00023713A490A7982B100240C7120212B1998
:1085F0000B20224602F014F8344B20341979802CD9
:1086000040EA01001871F1D1EBE791F9034001252F
:108610000D7124B12C48012480F8C5400FE02A4890
:1086200090F8BE3023F0010180F8BE10274D2A7962
:10863000002AEFD0294802F025F82871F6E7224DEC
:1086400095F8C53043B1214C0420E188244A02F05A
:108650002BF885F8C500F2E7012185F8C6101A4D00
:1086600095F8C64044B1194A052011891D4A02F007
:108670001BF885F8C600F2E72046FFF73DFFFFF73D
:10868000DBFE10B12C70204638BD4FF0FF3038BDF6
:1086900000242C710F4D22462B190B20082101F0CC
:1086A00093FF0A4B08341A7908280CBF10464FF084
:1086B000FF30802C1871EDD1034991F8C440651C3E
:1086C00081F8C4506FE700BF641C0020080200203E
:1086D000608C0108A21C0020E08C0108221D0020F3
:1086E000108D010868AC01082DE9F041ADF5806DF1
:1086F000DDF81884DDF81C54274C1E460DF1000EE1
:108700000EEB0403276803F17843A3F590431F6041
:10871000224F0434BC42F1D143274743431C7C1C05
:10872000B81C70448DF800300DF804101146324624
:108730000BF0D8FB07F1220100AA501841462A4647
:108740000BF0D0FB00AB1C1984F8416084F8425058
:1087500004F0F2FE342004F003FF0F4804F072FF2F
:10876000042818D10C4C0DF5806C0CEB040000F1C2
:108770007841A1F598422046116804F039FF074B73
:1087800004349C4201D00428EDD00DF5806DBDE885
:10879000F04104F0DDBEFEE700480008004C000890
:1087A0002DE9F041374886B002F07AFB02460028F6
:1087B00063D1354F0D2043213B4601F005FF43288F
:1087C00002D04FF0FF3258E03E782E4906F1030800
:1087D00008EB0704204602F055FB3B78FF18787839
:1087E000102804D904F11000264902F04BFB264959
:1087F000E27F11F808700AB11F2F01D1013400E0A7
:1088000020270B78C81890F80280B8F1030F29D8F8
:10881000DFE808F0020E19190020012500950190EB
:10882000029003900490059018493246034616E0E2
:10883000002301208DE881000293039304940593A3
:10884000124932460BE0012018211E2202238DE836
:108850000F000E490494059703203246002302F0CE
:1088600081FE05466B1CACD0084A8DE89000284676
:1088700041463346FFF738FF2A46104606B0BDE8AA
:10888000F08100BF701F0020E81E0020E91E0020BC
:108890002DE9F0410B7890B004460D46164633B1F1
:1088A000032A00F28780DFE802F002205B5B2046AB
:1088B0000CF03AF900250123024621468DE82800F4
:1088C00002952B46039504950595284602F04AFE2D
:1088D00006463C4880F8C76020460CF025F9009514
:1088E00003460195F0B2294638E008460CF01CF921
:1088F000002647088DF81E600235BE4210D015F8DC
:10890000022C15F8013C8DF81C20002107A810222C
:108910008DF81D300CF03CFB08A988550136EBE7BB
:1089200020460CF001F90127002308AD024602930E
:10893000039305932146009701960495384602F06B
:1089400011FE2049804681F8C70020460CF0ECF863
:108950008DE86000034639465FFA88F0224627E03A
:108960000CF0E2F8074628460CF0DEF84FF0180845
:108970004FF01E0C4FF0020E01238DE808513A46CD
:108980002146002305900495304602F0EBFD074692
:108990000C4880F8C77020460CF0C6F88046284680
:1089A0000CF0C2F8009501903146F8B222464346D9
:1089B000FFF79AFE034B012283F8C82010B0BDE8F0
:1089C000F08100BF641C0020F0B5414BADF21C4D9E
:1089D00006A8C218196802F17846A6F59040016011
:1089E0003C4904338B42F3D19DF81860FF2E6AD0C6
:1089F00002240025B54235DA06AB191911F8010C2D
:108A000004F12007DF1991F8402091F84130032844
:108A100025D8DFE800F0020C151500200123009393
:108A200001900290039004900590034615E0012008
:108A30008DE80900002302930393049705930CE04B
:108A400001204FF0180C4FF01E0E8DE8015002204F
:108A50000390059304970320002302F083FD013562
:108A60004334C7E71C4C012194F8C75023466A1CC5
:108A700003F82E2F0E20002201F0D2FD0020014627
:108A8000012202F04BFD0125234603F82F5F294602
:108A90002A460E2001F0C4FD02F0C6FC642003F05B
:108AA00003F9002002F08AFC002084F8C9502074E9
:108AB0004FF47F4003F048FAE72003F0C1FA48F290
:108AC000042002F051FE07B00DF5806DF0BD00BF2F
:108AD00000480008004C0008641C002008B504F0A1
:108AE0002BFD342004F03CFD044804F0ABFD0428C9
:108AF00003D1BDE8084004F02BBDFEE700480008A4
:108B000070B55C4CC4F8CC000020FFF7F5FC0123E5
:108B1000002084F8C9302074FFF78EFC064618BB8D
:108B2000554D29882C4605291ED0FFF71BFD28B975
:108B30004AF6CD362E8003F0B7FEEDE72588052DE9
:108B400088BF26802688721C228003F0ADFEBFF30A
:108B50004F8F4A4C4A49E36803F4E06040EA01055C
:108B6000E560BFF34F8FFEE7424B93F8BE20082A23
:108B700013D193F8BF00C8B993F8C010282915D1B4
:108B80003D4C4AF6CD30238883422FD1FFF792FC2B
:108B9000FFF71AFF0023238061E03AB993F8BF4042
:108BA000192C03D193F8C030942BE8E7354A314BA8
:108BB000117A90780824527A83F8BE4083F8C21064
:108BC0000024314983F8BF4083F8C10028240120E4
:108BD00083F8C04083F8C32008712B4C2279002A07
:108BE000CED02A4801F04EFD2071F6E7012B2CD0A3
:108BF0000E2010210022264B01F0E6FC102824D183
:108C00001C4CE078A8B994F82E1019B9012284F808
:108C1000D0200EE094F82F0058B90146012202F04E
:108C20007DFC0121234603F82F1F0E200A4601F088
:108C3000F7FC104BD878A8B993F8D01091B1FFF792
:108C40002BFCBDE87040FFF70FBCFF2002F072FD67
:108C5000FFF730FCFFF742FF074A0021118003F0C5
:108C600023FECDE74FF47F4003F06EF9E72003F0D9
:108C7000E7F9E4E7641C00205E03002000ED00E05B
:108C80000400FA05E8F7FF1F08020020221D00205B
:108C9000921C002030B5574D00249FB0FF206C700F
:108CA000AC7085F8C8402C712C73AC746C73AC73C9
:108CB000EC732C7403F048F9E72003F0C1F9214666
:108CC0002246204602F02AFC2B46012103F82F4FB2
:108CD0000E200A4601F0A4FC464B1879012805D164
:108CE000642002F0E1FF01F07DF8F5E710210C208F
:108CF00001F012FD404802F0E0F8404802F082FD29
:108D0000012002F063FD68463D4900F085FD394DC4
:108D1000697895F8C8200A431AD195F8D11000292E
:108D20005DD0FF2002F006FD002858D11A24013C36
:108D300006D0E72003F0B2F9322002F0B5FFF6E7E3
:108D4000FFF7B8FBFFF7CAFE2A4A82F8D140DEE7F8
:108D5000E72003F075F90E200121002205F12E0312
:108D600001F032FC6C781CB1FFF71AFD85F8C700E2
:108D7000204C012194F8C7300022581C234603F8E8
:108D80002E0F0E2001F04CFC00200146012202F0C3
:108D9000C5FB0125234603F82F5F29462A460E20EE
:108DA00001F03EFC02F040FB642002F07DFF002059
:108DB00002F004FB84F8C9504FF47F40002525746D
:108DC00003F0C2F8E72003F03BF948F2042002F078
:108DD000CBFCFFF749FB84F8D0501FB030BDE72033
:108DE00003F05CF9FA2002F05FFF684600F06CFDCA
:108DF0008DE700BF641C0020ACC2010808020020FF
:108E0000918800082DE9F3419C4C04F0F7FC002305
:108E1000C4F8D43094F8D80048B994F8D91031B9CE
:108E2000A26882B3FEF7CEFBA468A0422BD3934C7A
:108E300094F8C900002841D000252571A56025734C
:108E4000C4F8DC5084F8D850012684F8C950657302
:108E5000A573E573657402F0E7FA6FF07F4026743E
:108E600003F072F8E72003F0EBF8642002F01CFF37
:108E700094F8D01011B3284602F0A0FA84F8C96023
:108E8000FFF708FF1AE07D4C94F8C930B3B9E078D9
:108E900028B9FEF797FB00F5EA413031A1600020C8
:108EA00002F08CFA012200234FF47F4084F8C9209D
:108EB000237403F049F8E72003F0C2F86F4C94F8EC
:108EC000D02012B1FFF7E6FE04E0E37813B1267B71
:108ED00035460EB369488178012914D1047B012CF1
:108EE00011D10279012A0ED1032465480BF01CFE32
:108EF000634982B2012002F00FFA631E13F0FF04EF
:108F0000F3D15E4884705D4C217B2346E1B194F837
:108F1000D920002A76D017E0314632463046A66086
:108F200002F0FCFA57480BF0FFFD574F80463846D9
:108F30000BF0FAFD00970190791F0320424633465B
:108F400002F088FAE670C5E793F8E30020B14F48D5
:108F500000213A220BF04CF9484B93F81A2132B910
:108F6000587B00285AD19B7B002B57D1BEE01C7B3D
:108F700004B393F8D900E8B9597B00295FD019E010
:108F8000234603F8312F0E200121032201F048FB74
:108F90003A4C00254FF6FF70257402F0D5FFE7200C
:108FA00003F04EF8FDF750FFA84273DBC4F8DC5025
:108FB00001236373314C617B002900F09780A27B11
:108FC000BAB9FDF7A7FE002811D002DA4FF47F00EE
:108FD00007E0012801D12E4803E0022803D14FF019
:108FE000FF1002F0B1FFE72003F02AF801E00120B2
:108FF000A073FDF753FE002878D1204BD8739873E7
:10900000587373E094F8E3100029A5D1642002F0AE
:109010004BFE04F1E00001F0C5FA9DE7FDF704FF07
:10902000164900224FF47F40CA738A734A7302F0D4
:109030008BFFE72002B0BDE8F04103F001B85D7C92
:10904000002DA5D04FF47F0002F07EFF0B4C627C18
:10905000002A95D0E72002F0F3FF4FF4FA7002F0F7
:1090600023FEE72002F0FAFF4FF4FA7002F01CFE34
:10907000657C691ECAB26274E8E700BF641C002008
:1090800012020020190200201E020020441D0020B0
:109090000060FF0094F8D83043BBD4F8DC00411CDA
:1090A0000229C4F8DC1002D1012284F8D820FDF78F
:1090B00089FE00280F4C0BDAD4F8DC00411C022991
:1090C000C4F8DC1002D1012284F8D820022300E089
:1090D00003236374074C0121607C234603F8310F9E
:1090E00003220E2001F09CFA002362E702B0BDE8E3
:1090F000F08100BF641C002013B5084C00210091D2
:109100000A460B462046FEF777FC0549054A2046ED
:1091100002B0BDE810400AF0D5B900BF801D0020A4
:10912000DD5F0008880D0020704708B5012003F0BE
:1091300039FFFEE708B5032003F034FFFEE708B56A
:10914000042003F02FFFFEE708B5052003F02AFFF7
:10915000FEE770477047704708B503F0E7FCBDE8CD
:109160000840FDF787B9000008B5024B0BB1AFF31B
:10917000008008BD0000000008B5024B0BB1FEF7EF
:10918000A9FF08BDD580000808B5024B0BB1FEF75A
:10919000C5FB08BD1D79000808B5024B0BB1FEF7F1
:1091A000BEFB08BD1F79000808B5024B0BB1FEF7E6
:1091B000F9FC08BDA57B000808B5012004F0A6F95C
:1091C00038B1012004F0B2F9024B13B10020FEF7D0
:1091D000D3FB08BD7979000808B5022004F096F9A0
:1091E00038B1022004F0A2F9024B13B10120FEF7BE
:1091F000C3FB08BD7979000808B5042004F086F99E
:1092000078B1042004F092F90020064B0146188042
:1092100002F0D2FF044810210122BDE8084004F00A
:10922000D8BD08BDCC1D0020002C014008B5082089
:1092300004F06CF938B1082004F078F9024B13B14E
:109240000320FEF799FB08BD7979000808B51020C6
:1092500004F05CF938B1102004F068F9024B13B146
:109260000420FEF789FB08BD7979000808B52020A5
:1092700004F04CF938B1202004F058F90E4B13B12A
:109280000520FEF779FB402004F040F938B140207A
:1092900004F04CF9084810B10620FEF76DFB802061
:1092A00004F034F938B1802004F040F9024911B1DA
:1092B0000720FEF761FB08BD7979000808B54FF477
:1092C000005004F023F940B14FF4005004F02EF99F
:1092D000174B13B10D20FEF74FFB4FF4804004F005
:1092E00015F940B14FF4804004F020F9104810B156
:1092F0000E20FEF741FB4FF4004004F007F940B1A7
:109300004FF4004004F012F9094911B10F20FEF7A3
:1093100033FB4FF4006004F0F9F838B14FF400600B
:1093200004F004F9BDE8084002F048BC08BD00BFE5
:109330007979000808B50F48102104F083FDC0B109
:109340000C48102104F089FD002002F0F7FF28B935
:10935000094B1A880A3290B2188008BD10210548BE
:10936000002204F036FD00200121BDE8084002F093
:1093700023BF08BD002C0140CC1D002008B5024BC6
:10938000186800B1804708BD8C1D002008B5024B4D
:10939000586800B1804708BD8C1D002008B5024BFD
:1093A000986800B1804708BD8C1D002008B50120D9
:1093B00004F03EFB50B1012004F04CFB044B0BB118
:1093C000FEF742FDBDE8084004F016BB08BD00BF33
:1093D000497E000808B5022004F02AFBB0B10C4B0E
:1093E00000224FF400301A7004F0A0F8012004F0BD
:1093F0002FFA10B1012004F035FA04F0FDFA022032
:1094000004F028FBBDE8084004F0F6BA08BD00BF30
:109410003D1D002002F062BB00F062B838B514496F
:109420000B78012B23D1134A13680BB90B7038BD8D
:10943000114C402B206881B205D94030403B206060
:109440001360402504E09DB2C31800202360106023
:109450000A4A5018C0212A4605F05CFA0120294624
:1094600005F062FB0120BDE8384005F0CBBA38BDFD
:10947000740D00207C0D0020780D0020740C00205D
:10948000094908B50020094B0122088003201A7001
:1094900005F076FB064B0246188006484FF48871AB
:1094A000BDE8084005F04DBA2C0C0020280C002027
:1094B0002A0C00202E0C0020074B1868052809D123
:1094C000064B1A68511C052A196003D10020186048
:1094D000FDF706B9704700BFF81D0020981D002059
:1094E0003A4A38B511683A4B88B23A4D18801C8810
:1094F0002988214001F4007084B244B14FF6FF5531
:1095000015609A78511CC8B29870FFF7D5FF304C9F
:10951000304B25881A882A4002F4004188B225463B
:109520001C4608B105F030F92A882388134003F45B
:10953000806188B230B1254B27494FF6FF321A605F
:1095400048688047224A234B11881B88194001F440
:10955000005081B219B11D494DF6FF7008601288A4
:10956000134003F4805398B230B1184A4EF6FF719D
:109570001160002003F0D2FC154B164918880A88A8
:10958000024002F4006398B260B114490A7812B143
:1095900003F0A4FC02E0022003F0C0FC0B4B4FF2EE
:1095A000FF7018600A490B480A880388134003F4C7
:1095B00080718AB242B1054B4FF6FF6018600720F8
:1095C000BDE8384003F0AABC38BD00BF445C004091
:1095D0009C1D0020E8270020B40200208403002006
:1095E000034B987A10B1034905220A60704700BF07
:1095F000C4270020F81D0020014B04221A60704788
:10960000F81D0020034B1A78202A01D10020187081
:10961000704700BFA01D002070470000212810B532
:1096200008D111480368197801F07F02212A11D06E
:10963000022010BD2028FBD10B4B19680A780B497A
:1096400002F07F030A4A212B0CBF0B460023107047
:109650000BB9EDE7074B044C20680024836144827A
:1096600020469847204610BDE4270020C5960008F4
:10967000A01D0020AD960008074B19680A7802F07B
:109680007F03212B05D1022801D100207047222819
:10969000FBD00220704700BFE427002009B1022060
:1096A00070470128FBD808467047000020B9034BDB
:1096B000082219680A82704701487047E427002091
:1096C0007C02002020B9034B082219680A827047E7
:1096D00001487047E42700207C020020054B1968F0
:1096E000CA78042A04D8044B03EBC20104F0CCBDB1
:1096F00000207047E427002084020020014904F084
:10970000C3BD00BFA4020020014904F0BDBD00BFDD
:10971000AC020020334A344BD179186810B50024CC
:1097200041728472C472204605F01EF920464FF43F
:10973000007105F021F91021204605F029F940219A
:10974000204605F0C5F98021204605F0B1F92046F4
:1097500005F07AF9254B204693F8641005F0F2F9EC
:10976000204605F060F90120214605F005F90120A9
:10977000C02105F09DF90120202105F009F9012003
:10978000214605F022F902204FF4C06105F0F4F8FB
:1097900002204FF4807105F08BF90220214605F07C
:1097A00014F90220202105F0F3F80320214605F0EA
:1097B000E3F803204FF4887105F08AF90320402173
:1097C00005F0C0F903204FF4405105F0FEF80320E6
:1097D000214605F0DDF8204604F068FF044A012028
:1097E000106010BD1AC30108E42700207C0200208D
:1097F000F81D002010B5FCF7BFFF054B00241868CA
:10980000847203F053FB05F0D1F902490C6010BDDE
:10981000E4270020F81D002038B504460D46FEF769
:10982000F9FC204625614FF41651FEF7FDFC204659
:1098300038BD70B506460D46002428460BF074F975
:10984000844208D2295D3046FEF7D8FC012002F0A0
:109850002BFA0134F1E770BDF8B504460E46174601
:1098600000252046FEF7D0FC0028FADD2046FEF752
:10987000CFFCBD42C1B206D100233370204611494E
:10988000FFF7D7FF14E00D29F6D00A29F4D00829F4
:1098900001D07F2904D1002DE3D0013E013D02E03B
:1098A00006F8011B01352046EDB2FEF7A7FCD8E70C
:1098B0002046FEF7A9FC002803DD2046FEF7A8FCA1
:1098C000F6E7F8BD4EEE0108F0B585B00446FEF7A8
:1098D0009BFC002840F39D802046FEF799FCC0B217
:1098E000772867D104F1140600212122304604F1C3
:1098F00035050AF07DFC0021412228460AF078FC5B
:1099000004F17607002284F8762020467A704249D6
:10991000FFF78FFF204631462022FFF79DFF2046AC
:109920003E49FFF786FF394601222046FFF794FFA4
:1099300094F87630A3F130010329F0D8312B0BD104
:1099400020463749FFF775FF20463649FFF771FF7C
:1099500020463549FFF76DFF94F87600B0F13007E7
:1099600008D020463149FFF764FF204629464022AF
:10997000FFF772FF20462E49FFF75BFF23693A4647
:1099800030462946984720462A49FFF752FF20468D
:109990002949FFF74EFF20462849FFF74AFF204696
:1099A0002749FFF746FF20462649FFF742FF20469A
:1099B000254929E069282CD1244A01AB1068516857
:1099C000002503C39168204619602149FFF731FF44
:1099D00001AEAE5D300900F13001392988BF00F1D8
:1099E000570106F00F062046FEF708FC06F130018D
:1099F000392988BF06F1570120460135FEF7FEFBE5
:109A00000C2DE5D11349204605B0BDE8F040FFF725
:109A100010BF05B0F0BD00BFA2EC0108A9EC010821
:109A2000D6EC01080CED010837ED01087DED0108C9
:109A300088ED0108CBED0108EBED01081EEE0108F1
:109A400051EE010890EE0108C1EE0108E8F7FF1F92
:109A5000D7EE01084EEE010813B5084C0021009125
:109A60000A460B462046FDF7C7FF0549054A204632
:109A700002B0BDE8104009F025BD00BFA41D0020C4
:109A8000DD5F0008880D0020002100F004B80E4BB7
:109A90005B58435004310D480D4B42189A42FFF475
:109AA000F6AF0C4A00F003B8002342F8043B0A4B1F
:109AB0009A42FFF4F9AF03F07BF9FCF715FCFCF7D1
:109AC00097FEFCF75FFC7047F4F1010800000020EE
:109AD000180C0020180C0020F4270020FFF7FEBF10
:109AE00001700B0A0A0C090E43708270C1700430B9
:109AF00070470170090A41700230704743185A7864
:109B0000405C00EB022188B2704710B543189A7888
:109B1000DC78415C120402EB04625878521802EBC4
:109B2000002010BD73B544790023022C01930FD09F
:109B3000032C19D0012C2BD1164D28692E4620B1AB
:109B4000296901A888470246B8B9B16801201BE01D
:109B5000104DE8682E4620B1E96801A88847024602
:109B600058B9B16802200FE00A4D6A692E464AB121
:109B70006B6901A89847024620B1A9682046BDF844
:109B8000043003E0B16803200022134600F02AFCF1
:109B90007CBD00BF2C1F0020072830B512D801293A
:109BA00010D8EFF3108472B6012505FA00F501FA1A
:109BB00000F0054B1A6822EA050202431A60E30727
:109BC00000D462B630BD00BF0C030020F0B5012107
:109BD00087B00546FFF792FF00F48043044698B231
:109BE00050B3B4F5824F27D128460521FFF786FFF1
:109BF0000026074607353446BE4208D028460221D3
:109C0000FFF77CFF013624180435B6B2F4E7744B35
:109C1000188E21188AB21A86D86B2418DC63D96B87
:109C20009A6B914240F0CE8093F84000002800F0FB
:109C3000C9809B69992033E024F4FF4121F07F0221
:109C400090B2002800F09B8048F2100294422AD083
:109C50000CD8B4F5004F40F2C08048F202039C4299
:109C600017D9991C8C4240F0B88012E048F280006D
:109C700084420ED005D848F24002944240F0AD80B4
:109C800051E0B4F5024F04D0B4F5084F40F0A58080
:109C90006CE053498869002800F094808B69204665
:109CA00000210A4669E00023EA1851790DF80310F3
:109CB0000133042BF8D1687A2B7BAA7AE97A8DF8E4
:109CC00004008DF807308DF805208DF8061005F199
:109CD0000D00002306AAD218C15C0133042B02F840
:109CE000101CF7D105F11100002306AAD218C15C9F
:109CF0000133042B02F80C1CF7D105F115000023E9
:109D000000AAD218C15C0133042B1174F8D1344974
:109D100028798A698DF81400002A53D08B6920466F
:109D20006946152229E0053500212846FFF7EDFE9A
:109D3000042100902846FFF7E8FE082101902846FC
:109D4000FFF7E3FE0C2102902846FFF7DEFE10210C
:109D500003902846FFF7D9FE214B0490996900290A
:109D600030D09B6920466946142206E01C4882696F
:109D700042B38369691D20460122984722E041F2DF
:109D800003039C4205D00C339C4202D0591E8C42E6
:109D90001AD16C1D04212046FFF7B7FE39301CD1C3
:109DA0002D790F480021C5622046FFF7AEFE042141
:109DB00005462046FFF7A9FE393003D12846012188
:109DC000FFF7EAFE012009E0054A138899B28C42A8
:109DD00004D0B4F5805FF5D100E0002007B0F0BDFD
:109DE0002C1F002038B5104B5D88ADB2CDB158683E
:109DF0000478221F514251EB02042CB1FFF7E6FE1A
:109E0000003018BF012000E02046054620B944B1CB
:109E1000054B93F8412022B903480021418001F00D
:109E200075FD284638BD00BF2C1F00202DE9FF47D7
:109E300004468946904602F081FE00250190BC4B05
:109E40005A8890B2002840F0928003F0D7FC02F0CC
:109E500075FE0290029901980A1A0392039B002B47
:109E600003DA0199029842180392B24B196800294B
:109E7000E5D003988842E2D3AD4A41F20700138847
:109E800099B2814224D8421E91425FD240F202230D
:109E900099425BD00DD80C2906D8082956D2002942
:109EA0004DD0062952D959E00D294CD040F201225B
:109EB0000BE041F2020081424BD8B1F5805F45D8FA
:109EC000B1F5017F3FD940F20722914237D13AE004
:109ED00041F21103994236D014D841F20B0081426D
:109EE00034D005D841F2090291422FD031D82AE06E
:109EF00041F20F0399422CD028D841F20D00814243
:109F00001DD126E042F2060291421CD007D8B1F5DD
:109F1000005F14D942F20403994214D921E0B1F54B
:109F2000804F00F0F18105D8A1F5005008380128D4
:109F300005D808E044F20B02914200F0E5810B20C5
:109F400003F030F8E0E1FF212170DDE14FF0FF3157
:109F500005E04FF0FF3121606160D5E10021216013
:109F6000D2E1204600213A220AF042F9CCE15E68B3
:109F70003178042940F07D8101213046FFF7BEFD94
:109F800005463046FFF722FE0146002840F0678173
:109F900041F20700771D854250D8411E8D4280F066
:109FA000AF8040F20222954200F0AA8011D80C2D19
:109FB00009D8082D80F0A480002D00F05081062DD6
:109FC00040F29E80E9E00D2D00F0978040F20123E1
:109FD0007EE041F202039D4218D8B5F5805F00F2A1
:109FE0008F80B5F5017F40F2888040F207218D42D5
:109FF00040F035813079002104F8010B3846FFF735
:10A0000084FD01462046FFF76BFD28E141F2040282
:10A01000954200F0988040F2AF8038460021FFF76B
:10A0200074FD042120603846FFF76FFD606008343E
:10A0300006F10D07234606F11D017DE041F21102F4
:10A0400095425AD02CD841F20B039D4258D01CD8CF
:10A0500041F209018D4253D000F29A800021384626
:10A06000FFF753FD042120603846FFF74EFD08211D
:10A0700060603846FFF749FD0C21A0603846FFF7C5
:10A0800044FD04F10C0AE060E8E041F20F02954261
:10A0900072D03BD841F20D039D4240F0E08052E087
:10A0A00042F20500854200F09C8008D841F212027D
:10A0B000954238D0B5F5005F40F2D1801DE042F204
:10A0C00009018D4208D84F1EBD4216D242F2060346
:10A0D0009D4240F0C48010E044F20B00854240F005
:10A0E000BE807279DFF848A038460121AAF83020F6
:10A0F000FFF704FDAAF83200B1E031792170AEE03B
:10A1000038460021FFF701FD2060A8E00021384615
:10A11000FFF7FBFCA2464AF8040B04213846FFF780
:10A12000F4FC60609AE03846FFF7E8FC208096E097
:10A130002C1F0020AC1D002057F8040B8F4243F861
:10A14000040BF9D18BE000213846FFF7DEFC042137
:10A1500020603846FFF7D9FC082160603846FFF7D9
:10A16000D4FC04F1080AA060E46814F1390375D145
:10A170000121FFF711FD71E000213846FFF7C5FC12
:10A18000042120603846FFF7C0FC6060083466E0B8
:10A19000307920713F68276061E038460021FFF781
:10A1A000B4FC042120603846FFF7AFFC0821606052
:10A1B0003846FFF7A3FC0A21A0603846FFF79EFC53
:10A1C000C4F80A000C3406F11103274606F13501E4
:10A1D00053F8040B8B4247F8040BF9D11A883A80E4
:10A1E0003DE077187B79635401310429F9D106F1F8
:10A1F00009000027C15DE2190137042F1171F9D15F
:10A2000006F10D000023C15CE2180133042B11722A
:10A21000F9D106F111070022B85CA1180132042A15
:10A220000873F9D106F115070023F85CE118013332
:10A23000042B0874F9D106F119070021785C621823
:10A24000013106291075F9D106F11F070023F85CCA
:10A25000E2180133202B9076F9D100E054462C4FC0
:10A26000388882B2954236D100233B8087F841304E
:10A2700031E0DF8EBBB273B33046032196F802A003
:10A28000FFF73CFC0746B9F1000F0CD00421701D0C
:10A29000FFF73BFC0246C8F8000006F115014846EE
:10A2A000D2B209F01FFECAEB0707781EB0F5806F27
:10A2B00007D20AF10501204671183A4609F012FE4C
:10A2C00001E04FF0FF37B8F1000F01D088F80070BF
:10A2D0000F4B0022DA860E4F0020788001F016FB2B
:10A2E0003278042A05D1B5F5805F02D13046FFF7F8
:10A2F00019FC3B8899B200297FF4A1AD0448C28EB5
:10A3000093B2002B7FF49BAD002004B0BDE8F08732
:10A310002C1F002007284FF001030ED8EFF3108206
:10A3200072B603FA00F006490B6818420CBF002011
:10A330000120D10702D462B670471846704700BFAB
:10A340000C030020034B1880084600210A46FFF743
:10A350006DBD00BF2C1F002010B5034B0124DC860F
:10A36000BDE81040FFF762BD2C1F002038B5034642
:10A37000154601224A710C46881D1946FFF7B9FBA4
:10A38000291D0570204601F02FFB002038BD38B58F
:10A39000BDF814500C469B18A071E81885B2022134
:10A3A0006171E271294604F10800FFF7A2FB6A1D02
:10A3B000204691B201F018FB002038BD38B59B183B
:10A3C0000C469DB202216171A071E271294604F12F
:10A3D0000800FFF78EFB6A1D204691B2BDE83840A9
:10A3E00001F002BB2DE9F0471D4605F1020A0323E7
:10A3F00001F107091FFA8AFA88714B710C46484629
:10A4000051461746FFF775FBB5F57A7F804613D89E
:10A410002946FFF76EFB29464046FFF76AFB39469F
:10A4200004F10B002A4609F05DFDA91D204689B202
:10A43000BDE8F04701F0D8BA4FF47A76B5FBF6F1F3
:10A440000AEB410291B2FFF754FB31464046FFF759
:10A4500050FB394604F10B00324609F043FDA5F5E7
:10A460007A75204640F2EE31ADB2BF1901F0BCFA68
:10A47000B5F57A7F05D9A5F57A7085B24FF47A766D
:10A4800001E02E460025A046394628F8056F4846CB
:10A49000324609F027FDB31C404699B2BF1901F0BE
:10A4A000A3FA002DE4D1BDE8F0870000F7B51A4CFF
:10A4B0001E46A468FF238DF807300025475D631909
:10A4C0000135042D5F72F9D100200D5C2318013095
:10A4D00004285D73F9D10021505C6318013104290F
:10A4E0005874F9D104F115000021FFF7F9FA0022A0
:10A4F000B35C83540132042AFAD12146142242F279
:10A500000100FFF733FF42F201000DF10701FFF7F1
:10A5100019FF9DF90700FEBD2C1F00202DE9F34116
:10A5200006460C461E4831681546D0F808804A1E7B
:10A530001F46FF23082A8DF8073008F1090001D8CB
:10A540000A23336021684A1E082A01D80A2323609F
:10A5500029684A1E082A01D80A232B6039684A1E36
:10A56000082A01D80A233B603168FFF7B9FA21684D
:10A57000FFF7B6FA2968FFF7B3FA3968FFF7B0FAC0
:10A580004146142242F20900FFF7F0FE42F20900B0
:10A590000DF10701FFF7D6FE9DF90700BDE8FC812C
:10A5A0002C1F002038B5074B42F205040546996878
:10A5B00020460022FFF7DAFE20462946BDE8384053
:10A5C000FFF7C0BE2C1F00202DE9F341864613483B
:10A5D0000D46866871461F4602ACFF2306F109004E
:10A5E00004F8053D9046FFF77BFA2946FFF778FA15
:10A5F00040F201254146FFF773FA0C223146284606
:10A60000FFF7B4FE28462146FFF79CFE384600219E
:10A6100001AAFFF7A1FE0198BDE8FC812C1F0020D4
:10A620002DE9F341864616480C46866871469846E1
:10A6300002AD4FF0FF3306F10A0045F8043D17461E
:10A64000FFF74EFA0C21FFF74BFA2146FFF748FAC5
:10A650003946FFF745FA4146224606F11A0009F04D
:10A6600041FC902031461022A3B2FFF7A7FE40F232
:10A6700002202946FFF766FE0198BDE8FC8100BF75
:10A680002C1F002008B50346062001460022FFF7D4
:10A69000C7FFC0B208BD08B5034606200146002228
:10A6A000FFF792FFC0B208BDF8B506460D46174643
:10A6B0000C467B192A1B1F2CC4EB030392B208D94A
:10A6C00030462021FFF7ACFFC0B2203C0028F0D07C
:10A6D00007E02CB130462146FFF7A2FFC0B2F8BD1B
:10A6E0002046F8BD37B50B4B40F207250446996864
:10A6F00000222846FFF73AFE28466946FFF722FE69
:10A700009DF803009DF80410207061709DF8000012
:10A710003EBD00BF2C1F002037B50D4A034695688B
:10A720000C4605F109001946FFF7DAF9214640F217
:10A730000324FFF7D5F9294608222046FFF716FE25
:10A7400020460DF10701FFF7FDFD9DF807003EBD16
:10A750002C1F00202DE9F0430023CA5CC2540133B2
:10A76000102BFAD10022334B467B991891F80180C7
:10A7700004789F19F97A88EA0405847B85EA010840
:10A780001D194178EF7A90F80CC04F40C17B80F8DA
:10A7900010805D1895F80B908578634489EA05056B
:10A7A00093F80B90C378477489EA030390F80490F8
:10A7B000FFB288EA090890F80590857487EA0907CE
:10A7C00090F80690EDB285EA090590F80790C374F9
:10A7D000DBB283EA090390F8089080F814805FFAEE
:10A7E00088F888EA090890F809904775FFB287EA67
:10A7F000090790F80A908575EDB285EA090590F889
:10A800000B90C375DBB283EA090388EA0C0C7E4027
:10A810006C405940013280F8188047768576C376BF
:10A8200080F81CC046778477C17710300A2A9AD105
:10A83000BDE8F0836FC3010810F0800F4FEA4000BD
:10A8400018BF80F01B00C0B2704700002DE9F04F28
:10A85000037891F8A0A004468AEA030A80F800A0D1
:10A8600091F8A1204078A77882EA0005657091F8F8
:10A87000A260E07886EA0703A37091F8A32097B05E
:10A88000059582EA0005E57091F8A4902679069373
:10A8900089EA060984F8049091F8A5706379079510
:10A8A00087EA0302627191F8A600A579E37980EA4C
:10A8B0000506A67191F8A7700C9287EA030B84F83D
:10A8C00007B0227A91F8A880607A88EA020884F8B2
:10A8D000088091F8A97008964740677291F8AA50CD
:10A8E000A67AE07A85EA0603A37291F8AB20267B6C
:10A8F00082EA0005E57291F8ACC009938CEA060C77
:10A9000084F80CC091F8ADE0637BA27B8EEA030E65
:10A9100084F80DE00D9591F8AE50E07B5540A5739D
:10A9200091F8AF204B4B4240E2739A4491F890006B
:10A930009AF80B6199444640267091F8940099F872
:10A940000BA198448AEA0006267191F8980098F8BD
:10A950000B919C4489EA000626729CF80BA191F8A1
:10A960009C009E448AEA00062673DF199EF80B813C
:10A9700097F80BC191F8910091F89D6088EA000961
:10A980008CEA060060730C9FDDF814A0DE1996F8BF
:10A990000B0191F89970DDF8208080EA0706667255
:10A9A00003EB0A0091F8956090F80B7184F8019020
:10A9B00087EA0600607103EB0800DDF818E090F804
:10A9C0000B91099803EB0E0703EB000E9EF80BC1E9
:10A9D00091F8920091F89A6097F80B718CEA000A4E
:10A9E00077405D1991F89E6084F802A091F8960076
:10A9F00095F80B81A772079F88EA000589EA060689
:10AA0000A673A571DE1996F80B0191F89F5003EB20
:10AA10000B0791F89360454097F80B019A1880EA6C
:10AA200006070D98E7701E1896F80B7191F89700BD
:10AA30004FF0090B87EA0006E67191F89B3092F817
:10AA40000B71E57387EA0300E0720D46CDF840B064
:10AA500002E000BF6FC3010894F80090A77887EA6E
:10AA60000900FFF7E9FEFFF7E7FE94F80180E678BA
:10AA7000824686EA0800FFF7DFFEFFF7DDFE8AEA7E
:10AA8000070380EA080227797040A6798AEA09015B
:10AA90005FFA80F886EA07005FFA82FB5FFA83FAC2
:10AAA0005FFA81F903970296FFF7C6FEFFF7C4FE2F
:10AAB000E6796779014686EA07000491FFF7BCFE54
:10AAC000FFF7BAFE039B049A94F808C082EA0301D8
:10AAD000CBB2029947404A40A17A7040C6B2059372
