:020000040800F2
:1050000000500020ED8A00088D8100088F81000883
:1050100099810008A3810008AD810008000000000C
:10502000000000000000000000000000B781000840
:10503000B981000800000000BB810008BD810008A4
:10504000418B0008418B0008418B00081184000847
:10505000418B0008418B00081D8200083D8200083A
:105060005D82000891820008B1820008418B00082F
:10507000418B0008418B0008418B000879840008AF
:10508000418B0008418B0008CD810008418B00084E
:105090007D840008418B0008418B0008D182000804
:1050A000418B0008418B0008418B00089983000860
:1050B000E1830008F183000801840008ED81000805
:1050C000FD810008418B0008418B00080D8200081B
:1050D000418B0008418B0008DD810008418B0008EE
:1050E0002183000839840008418B0008000000007B
:1050F00000000000000000000000000000000000B0
:0C51000000000000000000005FF808F153
:10511000014B0360704700BFC03D010870B501211D
:1051200088B0044601F09AFEA0F13005072D37D86B
:1051300003226846214601F0B9FE1C4904A801F08B
:1051400013FE204604A901F077FE064604A801F0EC
:10515000C9FD1EB1ADB22846002110E0144904A8D3
:1051600001F002FE204604A901F066FE044604A8F0
:1051700001F0B8FD74B10A35ADB22846314600F0F1
:1051800097FF684601F099FEC1B2284601F0C6F9C2
:10519000012401E06FF00104684601F0A3FD01E085
:1051A0004FF0FF34204608B070BD00BF009E0108DC
:1051B000029E01087FB50121054601F04FFEA0F1D6
:1051C0003004072C23D81549684601F0CDFD284648
:1051D000694601F031FE0646684601F083FD6EB96E
:1051E0000F49684601F0C0FD2846694601F024FEDB
:1051F0000546684601F076FD65B10A34A4B2204642
:10520000012100F055FF204601F0EEF804E04FF0D8
:10521000FF3001E06FF0010004B070BD009E010896
:10522000029E0108F0B5012185B0044601F016FE8A
:10523000A0F13006072E49D86846214603220723ED
:1052400001F00EFE6846264901F0CCFD0546684691
:1052500001F048FD7DB9684621460322062301F08E
:10526000FFFD68461F4901F0BDFD0746684601F095
:1052700039FD0FB92DE001251B49684601F074FD89
:105280002046694601F0D8FD0746684601F02AFD30
:105290001FB1B6B23046002110E01449684601F053
:1052A00063FD2046694601F0C7FD0446684601F0EB
:1052B00019FD8CB10A36B6B23046394600F0F8FE18
:1052C0003046294600F080FF012007E04FF0FF3014
:1052D00004E06FF0010001E06FF0020005B0F0BDE6
:1052E000049E0108099E0108009E0108029E010813
:1052F0007FB50121054601F0B1FDA0F13004072C76
:1053000023D81549684601F02FFD2846694601F06B
:1053100093FD0646684601F0E5FC6EB90F49684604
:1053200001F022FD2846694601F086FD05466846E3
:1053300001F0D8FC65B10A34A4B22046032100F084
:10534000B7FE204600F08CFF04E04FF0FF3001E094
:105350006FF0010004B070BD009E0108029E0108BC
:10536000034B10B50446036000F0F8FA204610BD68
:10537000C03D010808B50948094900F0DDFB0948AE
:10538000094900F0D9FB0948094900F0D5FB094853
:105390000949BDE8084000F0CFBB00BF0D9E0108E1
:1053A000F1520008199E010825520008269E0108A6
:1053B000B5510008319E01081D51000870470000DA
:1053C00013B5084C002100910A460B46204601F017
:1053D00081FB0549054A204602B0BDE810400CF0AB
:1053E000FFBF00BFC80B002011510008380D00207E
:1053F00010B50131002393420ED0040F092C01D8BF
:10540000303400E0373401F8014C0133002400014E
:1054100001F8024BDBB2EEE710BD00001F4B10B5E8
:105420001A88032A04D804200146188006F06CFF6D
:105430004FF000604FF4A04106F0B4FE184801247C
:1054400021460470174807F0A5F905F051FF05F053
:1054500039FC2146402007F065FA6FF07F4005F0E7
:105460009DFDE72005F016FE0F490C7005F072FC5B
:105470007D2007F07BFA18B10C4B1C7007F08AFAFC
:1054800040F6B83005F0BEFC06F010FA06F08AFCD3
:10549000074A084901201070087010BDA41D0020A3
:1054A000801D002000043000241C0020482700201C
:1054B000381D00202E1D0020304B10B51A88042AFC
:1054C00004D805210420198006F01EFF2C4801781D
:1054D00011B12C4802F082FB294C237853B12748A4
:1054E0000288052A04D806210180042006F00CFF5A
:1054F00002F0BAFC217861B1234C23784BB92348E0
:10550000027832B122490C781CB9224B1878002855
:10551000E2D0214A11780029DED1204C2378002BDB
:10552000DAD11C480278012A0FD01D4969B1134C09
:105530002388062B04D807210420218006F0E4FEEE
:10554000FFF718FF134A0120107016490029C3D035
:105550000A4C2388072B04D808210420218006F058
:10556000D3FEFFF72BFF20880828B5D8034A09216E
:105570000420118006F0C8FEAEE700BFA41D002085
:10558000381D0020B95D0008ED1C00202E1D0020F4
:10559000221C0020D00B0020231C002048270020C4
:1055A00075530008BD530008524B70B51A6812B10C
:1055B0001868411E1960504B1A783AB14F4A10785A
:1055C000002829D04E49002949D125E04D4C2068BA
:1055D00010B12368591E0FE04B490B78E3B94B4AD1
:1055E0001078C8B94A490B78B3B94A4D2A782AB11C
:1055F000E72005F0C9FD142121600DE0464801783F
:1056000000292FD1E72005F073FD44483D4B017878
:10561000002935D032221A603F4B1A7832B1404D02
:10562000287818B92EE041684B1C43603D490B684F
:10563000B3F57A7F0FD300230B6007F009F93A48DE
:105640004FF6FF7102888A4253D001800420BDE8E2
:10565000704006F059BE0868421C0A6070BD00F038
:10566000F5FBD9E7314B1A78002ACBD04FF6FF7003
:1056700005F094FCE72005F00DFD01202870CBE734
:105680006422C8E721490B7893B1294847F22F5289
:1056900043689342C7D9BFF34F8F264C2648E5682D
:1056A00005F4E06646EA0002E260BFF34F8FFEE7D2
:1056B000154E347834B9204605F07AFE40F6B732FC
:1056C00090420DD8002005F073FE41F65731884214
:1056D000ACD9002005F074FE184B01201870A5E726
:1056E000204605F06DFE2A78002A9FD101213170F5
:1056F0009CE770BD50270020601D00206C0F00202B
:105700004D5E00084C270020E41C0020231C0020D4
:10571000251C0020241C0020381D0020211C0020F6
:10572000ED1C002054270020A41D0020221C002076
:10573000D00B002000ED00E00400FA05E51C00207D
:1057400008B5094B186006F05BF8002006F0A0F8D9
:10575000064805F0DBFA06F069F806F087F8BDE8C0
:10576000084008F01FB800BF7C020020A08601009E
:10577000074B1868052808D106490A7A012A04D17E
:10578000887A0B7BC11AC8B270470020704700BFEF
:10579000A81D0020D00B00200D4B10B5186805285F
:1057A00013D10C4C217A01290FD16289A389D01A17
:1057B000012804D100210320217208F05EF9A38999
:1057C000E218591C907BA18110BD4FF0FF3010BD35
:1057D000A81D0020D00B002008B50C4B1968052926
:1057E00012D10B4B1A6D991881F85400501CB0F56A
:1057F000807F08BF0020186505F0D2FE20B164202C
:10580000BDE8084005F082BA08BD00BFA81D002011
:10581000D00B002070B5234A92F85431012B3FD0B1
:10582000D2F85801B0F5807F02D10021C2F858119A
:10583000D2F85831126D1B48934203D1002180F8F1
:10584000541170BD8CBFC3F58072C3EB0202154CBE
:10585000C0F85C21D4F85C5199B2402D07D940338F
:10586000403DC4F85831C4F85C51402606E0E818C1
:105870000023AEB2C4F85801C4F85C310A4A0125CD
:105880005018C021324684F8545108F06DF828466B
:10589000314608F073F92846BDE8704008F0DCB8DE
:1058A00070BD00BFD00B0020240C0020094B10B5A8
:1058B00093E814000833186810180AD00822064923
:1058C000FFF796FD054920460422BDE81040FFF78A
:1058D0008FBD10BDE8F7FF1F2A0200203A0200200A
:1058E00013B5084C002100910A460B46204601F0F2
:1058F000F1F80549054A204602B0BDE810400CF019
:105900006FBD00BF300D002011510008380D002080
:1059100038B50D460446AC4203D254F8043B9847D0
:10592000F9E738BD08B507480749FFF7F1FF074811
:105930000749FFF7EDFF07480749BDE80840FFF7B3
:10594000E7BF00BFD0A10108D0A10108D0A1010884
:105950002CA201082CA201082CA201080CF080BE88
:1059600008B5072006F048FBFEE70000074A08B527
:105970001368074918188842106004D9082006F0F7
:105980003BFB0CF033FD184608BD00BF00000020B3
:10599000004800204FF0FF3070470120704708B5E5
:1059A0000C2006F029FBFEE7014B1868704700BF8A
:1059B0003C0D0020064B0246582000FB013101F14E
:1059C000080303CB1060516018689060704700BFF7
:1059D0003C0D0020014BD3F8640170473C0D0020C2
:1059E000064B0246142000FB013101F5B67303CBD0
:1059F0001060516018689060704700BF3C0D002037
:105A00000E4B2DE9F041D3F8647180460024BC426E
:105A100011DA14256543094E4146701900F5B67038
:105A20000C220DF037FF20B97519D5F86801BDE8D3
:105A3000F0810134EBE70020BDE8F0813C0D00204F
:105A40002DE9F04788B0814668460D4601F08CF993
:105A50001E4B0024D3F800A054452DDA55B3582628
:105A600066431A4F494607F1040808EB0600043064
:105A70000C220DF00FFFE8B928460DF0DBFE06F111
:105A80001001402834BF0246402208EB010029469D
:105A90000DF0E2F8BE19012286F85820694604A8E4
:105AA000746801F083F904A8A047044604A801F033
:105AB00019F903E00134CFE74FF0FF34684601F0F5
:105AC00011F9204608B0BDE8F08700BF3C0D00206A
:105AD00038B50546064C28B105F002FB012384F8D1
:105AE000303238BD05F0AAFA84F8305238BD00BF14
:105AF0003C0D0020024B00221A6005F073BF00BF6E
:105B0000D40B0020034A044800231370036005F0FF
:105B1000A1BF00BF231C0020D40B0020044B05496B
:105B2000002001221A7008604FF4C02005F034BF35
:105B3000231C0020D40B00202DE9F84F0446894691
:105B4000002941D000283FD0204B1D68042D3BD0B8
:105B50000027AF421E4E4FF058080FDA08FB07F837
:105B600056F80810494507D106EB0802101D2146DA
:105B70000C220DF08FFE38B30137EAE708FB05F879
:105B8000A6F1040A0AEB080708F11000C7F8049010
:105B90000021402230180DF0E5F906EB0801081D40
:105BA0000C2200210DF0DEF92068616807F108027F
:105BB00003C2A3680020013507F1040B87F85800E1
:105BC0001360543746F8045CBDE8F88F3C0D0020A4
:105BD000400D002010B5064C206803F0CDFB236873
:105BE000013303D0411E4842484110BD012010BD81
:105BF00004000020F0B5274B0646187887B00F4602
:105C0000002843D124490A78002A3FD1FFF7E2FF58
:105C1000044600283AD1214D8DF80C002B688DF8F0
:105C20000D008DF80E008DF80F0006A9580901EB44
:105C3000800203F01F01012000FA01F052F80C1C51
:105C40000494014342F80C1C04A841F288320592E6
:105C5000009003A9581C2246234604F053FA00285A
:105C600016DD2B6806A95D0901EB850050F80C5C78
:105C700003F01F0245FA02F515F0010008D018469E
:105C800031463A46234604F0DDFA01E04FF0FF309A
:105C900007B0F0BDEC1C0020ED1C0020040000202B
:105CA00038B50B4B054618780C4668B909490A788F
:105CB00052B9FFF78FFF034630B9074829462246FD
:105CC000006804F03DFB38BD4FF0FF3038BD00BF29
:105CD000EC1C0020ED1C00200400002030B51F4803
:105CE000ADF57B7D07F0BAFF002834D11C481D4B71
:105CF00006901D4D1D4805931D491E4A1E4B0A95D1
:105D00000C901E4D1E48079108920B931D491E4A88
:105D10001E4B0F9511901E4D1E481F4C0D910E925B
:105D20001E491F4A10931F4B1495169061AD17A87A
:105D3000129113921593099404900EAC039505F0FB
:105D4000CFFE284605F0D2FE00940448164903AA67
:105D500005AB07F08AFF0DF57B7D30BD700F00208D
:105D6000F55B0008A15C0008F55A0008A166000870
:105D70001D5B0008055B0008D15A0008B5590008F2
:105D8000D5590008956F0008A9590008415A000824
:105D9000015A00080DBB00081DBB0008E1590008AE
:105DA00059600008F9BA0008E8F7FF1F014808F039
:105DB00094BE00BF700F002030B5022011228DB0BC
:105DC000014604F0E9F8051E28DB154907A808F08C
:105DD00092F8022316200024ADF80C308DF80E0046
:105DE0003321E0220123BB208DF811408DF80F10E4
:105DF0008DF810208DF812308DF813000324102236
:105E000003A90091019200231322284607A904F058
:105E1000A1FA013CF3D1284604F0ECF80DB030BDF6
:105E2000E8F7FF1F38B5084CFFF758FF204607F08A
:105E300018FF204608F0E2FA0546FFF7BDFF2046AE
:105E400008F0ADF8284638BD700F002038B5114C69
:105E5000D4F8585B2DB1D4F8581B4B1EC4F8583BEE
:105E600038BDD4F85C3B0C4A52F8230005F0BEF86C
:105E7000E72005F00FF9094A6420D4F85C1BC4F848
:105E8000580B50684B1C8342C4F85C3BA8BFC4F855
:105E90005C5B38BD3C0D0020643D0108040000201F
:105EA0007FB502200121062204F076F8041E23DBD0
:105EB00000200822022335218DF802004FF4FA5009
:105EC000ADF800308DF803108DF804208DF8052012
:105ED0008DF806208DF8072001F074FB6946064610
:105EE0001022204604F0E2F80546304601F06AFB35
:105EF000204604F07FF801E04FF0FF35284604B05B
:105F000070BD000010B5064C2068002805DB04F0C9
:105F100071F84FF0FF33236010BD002010BD00BFAB
:105F20000400002030B5A7B0FFF7ECFF02200121EC
:105F3000062204F031F8334B0028186052DB324857
:105F4000022216213324A0F8602B80F8621B80F80F
:105F5000634B05A805F090FD9DF8143000250095D1
:105F600033B1012B17D0294B01A803F1100502E032
:105F7000069A009214E0024659681868083303C272
:105F8000AB421046F7D101A906AC0FC907C424F8EB
:105F9000023B1B0C23700A24009D0DB9013C24D147
:105FA000009808B91A490091009B174C180A1D0E59
:105FB0001A0C84F8660B4FF4FA5084F8673B84F8A7
:105FC000645B84F8652B01F0FDFA0E49054610224A
:105FD000086804F5366104F069F80446284601F0C3
:105FE000F1FA0CE04FF0FF3409E07E2106A80DF035
:105FF000E1FC6A4681B206A804F022F8CCE720460C
:1060000027B030BD040000203C0D00203D9E01085B
:1060100004E5D0360F4B2DE9F041D3F8647180468A
:106020000024BC4211DA142565430A4E414670191A
:1060300000F5B6700C220DF02DFC20B9751995F8FD
:106040007801BDE8F0810134EBE74FF0FF30BDE8A7
:10605000F08100BF3C0D002008B5FFF7DBFF0138E1
:10606000082803D8024B1918087F08BD022008BD74
:10607000643D010837B50B4C002104F537650B462C
:1060800000910A46284600F025FD28460649074AA1
:106090000CF0A6F904F50D7003B0BDE8304007F030
:1060A000CDBD00BF3C0D002011510008380D00206F
:1060B00014282DE9F34104460E467CD8FF297AD0F6
:1060C00000F0D8FD28B10D2C75D00F2C73D00E2CFC
:1060D00071D000F093FC08B1012C6CD901F0AAF842
:1060E00018B1A4F11203012B65D918206043334D78
:1060F00033492F582A188F42B2F8048001D1042066
:1061000003E0304B9F4203D10820012106F016FC2A
:10611000ADF80480062E4AD8DFE806F004121A22F1
:106120002A354100254B182101FB043410208DF83D
:10613000070003220020A0738DF80620083436E003
:10614000042118238DF8071003FB045401212DE0CE
:10615000482018228DF8070002FB0454022125E094
:10616000282118238DF8071003FB045403211DE098
:10617000124A182303208DF807308DF8060003FB20
:106180000424042112E00D491C230320182202FBE1
:1061900004148DF807308DF80600052106E018225A
:1061A00002FB045400208DF807000621A173384635
:1061B00001A906F08FFABDE8FC8100BF0C000020A9
:1061C00000080140000C0140142870B504460E463A
:1061D00042D8224B182202FB0030817B01293BD0A0
:1061E000022939D0032937D0062935D0FF2933D0E9
:1061F00000F040FD30B10D2C2ED00F2C2CD00E2CE9
:1062000000D170BD00F0FAFB10B1012C00D870BDB8
:1062100001F010F820B1A4F11202012A00D870BDDB
:106220000E4D182303FB0450817B042903D1204623
:106230000021FFF73DFF012E06D1182254432819F3
:106240002B598188196170BD36B918225443281919
:106250002B598188596170BD70BD00BF0C000020B2
:10626000142838B5044618D81E4B182202FB0030FB
:10627000817BFF2911D004290FD005290DD000F012
:10628000F9FC28B10D2C08D00F2C06D00E2C04D010
:1062900000F0B4FB18B1012C01D8002038BD00F08B
:1062A000C9FF18B1A4F11202012AF6D90D4D182325
:1062B00003FB0450817B062906D195F8F811FF29CC
:1062C000EBD02046FFF7F4FE182254432D19054B5E
:1062D000AA7BA988185912B906F052FA38BD06F0FF
:1062E00049FA38BD0C000020F0B54FF4004091B0E1
:1062F00006F0F0FA0120014606F014FB01214FF4EC
:10630000C06006F01BFB334806F022F83248334BDE
:106310000A2100248022069008914FF400754FF462
:1063200000664FF400572B4805A905930A920B9578
:106330000C9601250E974FF460264FF40027079422
:1063400009940D940F9406F07BF825486946009750
:106350008DF804408DF80540029603948DF8105096
:1063600005F02AFF1F48694600978DF804408DF814
:106370000540029603948DF8105005F01DFF184853
:10638000294605F03DFF164805F04CFF144805F07E
:106390004EFF0028FAD1124805F04DFF104805F0D5
:1063A0004FFF0028FAD10F48012105F029FF0D48C1
:1063B00005F038FF0B4805F03AFF0028FAD10948EC
:1063C00005F039FF074805F03BFF0028FAD111B06E
:1063D000F0BD00BF08000240B81800204C24014066
:1063E0000024014000280140092838B5044601D89E
:1063F0000A34A4B200F03EFC38B10D2C01D10020CB
:1064000038BD0F2CFBD00E2CF9D000F0F7FA00F0BD
:1064100011FF18B1A4F11203012BF0D9142CEED8FE
:10642000394D182000FB04539A79FF2AE7D095F8DC
:10643000FA11914206D0987B062185F8F801204692
:10644000FFF736FE95F8FB51012D05D1FFF74CFF04
:106450002D4B002283F8FB212B4D182101FB045406
:1064600095F8FA01A17988420FD02848012295F8C1
:10647000F93105F0F2FE01222548A17995F8F931AC
:1064800005F0EBFEA27985F8FA210021214B0020CE
:1064900043F8210001310A29F8D11F4806F003F81A
:1064A0001B48012105F026FF1B48012105F0E8FFEC
:1064B0001648012105F0ADFE1448012105F0C4FE87
:1064C000022005F0F3FF0028FAD0022005F0FCFFBF
:1064D0000E48002105F09DFE0F48002105F0D0FF79
:1064E00000231A460B4951F8230051F823100133B9
:1064F00089B201EB10400A2B0244F3D11421B2FB04
:10650000F1F080B238BD00BF0C0000200024014033
:1065100000280140B8180020080002402DE9F04191
:10652000142888B004460D4600F2AD80574B18225F
:1065300002FB00308168002900F0A58000F09AFB82
:1065400040B10D2C00F09F800F2C00F09C800E2C91
:1065500000F0998000F052FA10B1012C40F29380C3
:1065600000F068FE20B1A4F11202012A40F28B80F3
:10657000464B182000FB04318A7B12B1042A40F0FC
:106580008280434E434837684BF680326A43B7FBFC
:10659000F0F3591E0120FF258EB2014692FBF5F75C
:1065A00006F0CCF904212046FFF782FD374B182076
:1065B00000FB04318D68BFB2B5F1804F02D10120DC
:1065C000014608E0344A0220954203D03348854210
:1065D00003D10420012106F0BDF92C4D182101FB47
:1065E00004554BF67F33ADF80460A868002601A976
:1065F000ADF80A60ADF80660ADF8083006F09EFA16
:10660000ADF81860AE896022012005F10808ADF8E8
:106610001020ADF81200ADF8167046B9A86804A9AC
:1066200006F0D6FAA868082106F012FC1FE0042E36
:1066300008D1A86804A906F00FFBA868082106F095
:106640000FFC14E0082E08D1A86804A906F048FB46
:10665000A868314606F00EFC09E00C2E07D1A868A8
:1066600004A906F07FFBA868082106F00BFC074B85
:10667000182101FB04340121A06806F0DDFBA068AD
:10668000012106F0B6FB08B0BDE8F0810C00002047
:106690007003002000366E01000400400008004036
:1066A00005F076BA13B5084C002100910A460B4656
:1066B000204600F00FFA0549054A204602B0BDE821
:1066C00010400BF08DBE00BFE018002011510008F3
:1066D000380D002038B5194B05461C88B3F8002446
:1066E000A4B290B228B94EF6EE63E01A18BF0120AA
:1066F00006E00CBB4EF6EE63C41A624252EB040095
:10670000840204F1006201300D4B02F580448202E4
:10671000D01884420ED22268013209D1204605F0F9
:1067200075FF042809D1A01C294605F06FFF38BD6C
:106730000434EEE7802038BDAB2038BD00400008AF
:10674000FE3F000808B5084805F0A6FF04280AD156
:106750000021054805F05AFF042804D10348BDE88C
:10676000084005F099BF08BD00400008004400083B
:106770000F4B10B51A8893B20E4A128892B21BB111
:106780000AB1AB2010BD01239C020B4BE3180B4A4E
:10679000A21893420AD91A8892B2824204D133F8DD
:1067A000020C0880002010BD043BF0E7012010BD62
:1067B0000040000800440008FE43000802400008B2
:1067C000F8B5434E05F0E2FE424D34884EF6EE61D8
:1067D000A4B22B888C4298B24FF6FF720FD094422D
:1067E00002D0002C42D070E000286AD088426CD1E0
:1067F000304605F051FF042869D1284632E048BBF5
:1068000004461646344D35492B8831F8145098B259
:10681000A84208BFA6B232B2944203D10134642C1C
:10682000F0D10FE02D4F284607F1C801FFF7A0FF78
:106830000128F3D02846B7F8C810FFF74BFF04280B
:10684000ECD0F8BD0021224805F0E0FE04283ED13E
:10685000204837E0904238D1284605F01DFF042833
:1068600035D13046002105F0D1FEF8BD00282CD0EE
:106870009042EDD016461A4D18492B8831F8145025
:1068800098B2A84208BFA6B232B2944203D10134F2
:10689000642CF0D10FE0114F284607F1C801FFF733
:1068A00067FF0128F3D02846B7F8C810FFF712FF9A
:1068B0000428ECD0F8BD0021064805F0A7FE042806
:1068C00005D1034805F0E8FEF8BDFFF73BFFF8BD32
:1068D000004000080044000806400008E8180020B6
:1068E0000644000810B50446FFF76AFF0023044A77
:1068F00022F813300133642BF9D1204610BD00BFBC
:10690000E81800200148FFF7EDBF00BFB2190020D2
:10691000024B18785978401A704700BFB41900200C
:10692000064B5A781978914204D998180132807828
:106930005A7070474FF0FF30704700BFB419002005
:10694000054B5A781978914202D998188078704787
:106950004FF0FF30704700BFB419002070470000AF
:10696000014B0360704700BFD83D0108034B10B5D1
:1069700004460360FEF7F2FF204610BDD83D010833
:10698000F8B5094B054693F82200164650B10C465F
:106990008F18BC4206D0296828468A6814F8011B63
:1069A0009047F6E73046F8BDB419002010B50C4BFF
:1069B000012293F822408CB193F823401F2C02D976
:1069C0004260002010BD93F824001C1884F82510A4
:1069D000411CC8B283F8240083F82300104610BD80
:1069E000B419002000224260024A4FF47A7181609B
:1069F00002607047983D010870477047014B93F85B
:106A000059007047B419002073B50E4C002104F1F1
:106A100064050D4E0B4600910A46284600F05AF8D0
:106A20006C343246094928460BF0DAFC2046FFF761
:106A3000D9FF07492046324602B0BDE870400BF04E
:106A4000CFBC00BFB4190020380D00201151000840
:106A50006169000808B5034B53F8200000B1804776
:106A600008BD00BF301A002013B5084C002100916A
:106A70000A460B46204600F02DF80549054A2046F7
:106A800002B0BDE810400BF0ABBC00BF701A002094
:106A900011510008380D00202DE9F041002407466F
:106AA0000E4625463B1919790A22304600F0AFF808
:106AB0002E218046304600F078F801344044032C03
:106AC0000544EFD13046F9790A2200F0A0F82818E1
:106AD000BDE8F08130B58371044D9DF80C3004465B
:106AE000056001714271C37130BD00BFC03D010836
:106AF00005480021054B017141718171C171044A42
:106B0000044903600BF06CBC781A0020C03D0108FA
:106B1000380D00201151000813B5084C00210091D8
:106B20000A460B462046FFF7D5FF0549054A204691
:106B300002B0BDE810400BF053BC00BF801A00202B
:106B400011510008380D0020014B0360704700BF51
:106B5000D83D0108F8B506460C468F180025BC4202
:106B600007D0336830469A6814F8011B90472D18F7
:106B7000F5E72846F8BD0000034B10B50446036056
:106B8000FEF7ECFE204610BDD83D010838B505469D
:106B90000C46084641B10CF04DFE2B680246DB68FE
:106BA00028462146984738BD38BD08B503689A681D
:106BB000904708BD70B500238AB08DF82430012AB3
:106BC00098BF0A220DF12303B1FBF2F505FB121168
:106BD000CCB2092C1E4601D8303400E03734E4B280
:106BE00003F801492946002DEED13146FFF7CEFFCB
:106BF0000AB070BD10B5044622B90268C9B29268E5
:106C0000904710BDD2B2BDE81040FFF7D3BFFFF7E9
:106C1000F1BF000013B5084C002100910A460B4655
:106C20002046FFF757FF0549054A204602B0BDE858
:106C300010400BF0D5BB00BF901A00201151000886
:106C4000380D002013B5084C002100910A460B4670
:106C50002046FFF73FFF0549054A204602B0BDE840
:106C600010400BF0BDBB00BF981A00201151000866
:106C7000380D0020014B587D704700BFA01A00203E
:106C80007047000013B5084C002100910A460B46DE
:106C90002046FFF71FFF0549054A204602B0BDE820
:106CA00010400BF09DBB00BFB81A00201151000826
:106CB000380D002013B5084C002100910A460B4600
:106CC0002046FFF707FF0549054A204602B0BDE808
:106CD00010400BF085BB00BFC41A00201151000802
:106CE000380D002010B5044600680BF0B9FC2046B2
:106CF00010BD10B50446006808B10BF0B1FC0023CC
:106D00002360A360636010BD38B504460D4600687B
:106D100001310CF0E5F910B184E82100012038BD03
:106D2000036810B5044613B14068884207D2204674
:106D3000FFF7EAFF20B1A16809B9226811700120AC
:106D400010BD70B50E46114604461546FFF7E8FF24
:106D500018B92046FFF7CDFF04E0A5602068314652
:106D60000CF00AFD204670BD38B5002304460360D0
:106D70004360836003730D4639B108460CF05AFD39
:106D8000294602462046FFF7DCFF204638BD8842F0
:106D900010B50B46044607D0096819B19A68FFF789
:106DA000D0FF01E0FFF7A5FF204610BD002310B57E
:106DB00004460360436083600373FFF7E8FF2046E7
:106DC00010BD38B505460C4641B108460CF032FD01
:106DD000214602462846FFF7B4FF01E0FFF789FF8E
:106DE000284638BD826808B50B4612B919B901208A
:106DF00008BD11B90368187802E000680CF0CEFBFA
:106E0000D0F1010038BF002008BD10B58B68846840
:106E1000E41AA2420CD8006868B1096851B1801820
:106E20001A460CF037FDD0F1010038BF002010BD2C
:106E3000002010BD084610BD82688B689A4202D3BC
:106E40000022FFF7E2BF002070478368994203D217
:106E5000006810B1405C704700207047FFF7F5BF35
:106E60009A422DE9F04107460D4614461E4601D9C7
:106E70003446164638460C49FFF776FFA868844228
:106E80000FD82968864228BF0646002211F80680DE
:106E90008A552B6838461919FFF793FF286800F8C0
:106EA00006803846BDE8F08107A0010810B58B6860
:106EB0000446FFF7D5FF204610BD006808B10BF06F
:106EC0009DBA704713B5084C002100910A460B4645
:106ED0002046FFF7FFFD0549054A204602B0BDE800
:106EE00010400BF07DBA00BFCC1A002011510008F1
:106EF000380D002013B5084C002100910A460B46BE
:106F00002046FFF7E7FD0549054A204602B0BDE8E7
:106F100010400BF065BA00BFD41A002011510008D0
:106F2000380D002038B51A4C94F92C30002B2DD098
:106F300094F82D00002829D005F054FD94F82C2059
:106F400094F82D5051B2002995FBF1F306DD012B89
:106F50000BDC511E84F82C10002407E0591C04DBC4
:106F6000013284F82C20022400E00124084B04198B
:106F700093F82D20511E83F82D1005F067FD204653
:106F800005F044FDBDE8384005F060BD38BD00BFE8
:106F9000DC1A002010B5044605F024FD001B00F1AA
:106FA0007F02FE2A08D905F051FD204605F02EFD8E
:106FB000BDE8104005F04ABD054980EAE073A3EB47
:106FC000E07381F82C00580081F82D0010BD00BF3F
:106FD000DC1A002013B5084C002100910A460B462C
:106FE0002046FFF777FD0549054A204602B0BDE877
:106FF00010400BF0F5B900BF0C1B00201151000828
:10700000380D002013B5084C002100910A460B46AC
:107010002046FFF75FFD0549054A204602B0BDE85E
:1070200010400BF0DDB900BF181B00201151000803
:10703000380D002013B5084C002100910A460B467C
:107040002046FFF747FD0549054A204602B0BDE846
:1070500010400BF0C5B900BF201B002011510008E3
:10706000380D0020014B0360704700BFD83D010878
:107070000369186C596C421A02F03F0070470369AB
:10708000196C5A6C914202D0586C185C70474FF0E2
:10709000FF3070470369196C5A6C914207D0586CE5
:1070A000596C185C4A1C02F03F01596470474FF05C
:1070B000FF30704770B504460E462C4840F22771E9
:1070C00005F021FF20B963691A6C586C824211D116
:1070D00061690D6C6B1C03F03F056069426C954261
:1070E0000FD0EFF31081CA0732D5036C426C934284
:1070F00007D12DE01D4840F22771012205F0DBFE8B
:10710000E6E71A4840F2277105F0FDFE0028E4D0BA
:107110001648802105F0F1FE0028DED00022134839
:1071200040F2277105F0C7FE63695A6C501C995CE8
:1071300058640E4805F0D9FE61690C484B6C03F0A9
:107140003F024A6440F22771012205F0B4FEC4E711
:10715000016C4654606940F227710564012525766B
:1071600002482A4605F0A7FE284670BD00440040AC
:10717000436910B50446196C5A6C9142FBD1207ECC
:1071800010B90023237610BD0348402105F0B5FE59
:107190000028F4D0F5E700BF00440040034B10B5D1
:1071A00004460360FEF7DAFB204610BDD83D010817
:1071B00010B51E4840F2255105F0A5FE78B11B48D8
:1071C00005F097FE1A4BC0B25A6D511C01F03F02F8
:1071D000996D8A4203D0596D5A655918087513483C
:1071E00040F2277105F08FFEF8B1114CD4F89C00E5
:1071F000D4F8A030984207D10C4840F22771002201
:10720000BDE8104005F057BED4F8A0002218431C7A
:1072100092F85C100548C4F8A03005F066FED4F87A
:10722000A01001F03F00C4F8A00010BD00440040D1
:10723000281B0020014B187C704700BF281B002032
:10724000F7B5164C002504F1A406154F2B46294628
:107250002A4600953046FFF73DFC3A463046114934
:107260000BF0BEF804F114010F4804F15C02C4F8FD
:10727000BC100E494FF47A73C4F8AC00C4F8C020B7
:1072800004F1AC003A46C4F8B050C4F8B43084F805
:10729000C45003B0BDE8F0400BF0A2B8281B00209A
:1072A000380D002011510008F03D010865700008FC
:1072B00070474FF0FF307047014B0360704700BFCD
:1072C000D83D0108034B10B504460360FEF746FBAA
:1072D000204610BDD83D0108084608B5FEF77CFAE7
:1072E000012008BD08B5FEF743FA08BDFEF754BA01
:1072F00000224260024A4FF47A7181600260704756
:10730000183E01080846FEF71BBA000037B50D4CC1
:1073100000210D4D0B4600910A462046FFF7DAFB8F
:107320002A460A49204608340BF05AF82046FFF74F
:10733000DFFF074920462A4603B0BDE830400BF086
:107340004FB800BFF01B0020380D0020115100087D
:10735000B97200087047000037B50B4C00210B4D87
:107360000B4600910A462046FFF7B4FB2A4620460A
:1073700007490BF035F8074904F108002A4603B025
:10738000BDE830400BF02CB8081C0020380D002060
:107390001151000855730008002303601846704718
:1073A00000230360184670470023036018467047A7
:1073B000F8B5394C0346257808462E46002D69D18C
:1073C00048F21007BB4246D00BDC48F20102934260
:1073D0001FD0501C834225D0992B5BD10121A17471
:1073E000F8BD48F28007BB420ED0B3F5084F43D03A
:1073F00048F2400083424DD104F114000BF02CFC04
:10740000A16A4B1CA362F8BD01216170A170E570F7
:10741000F8BD01232371FFF743F900F5EA4230324A
:10742000A260F8BD237963B1FFF73AF900F5EA42AB
:1074300030324FF47F40A26003F0B0FDE72003F04C
:1074400029FE154800210171017341738173C173D5
:1074500001744174F8BD0B7D63B901224FF47F4084
:107460002273A360227403F099FDE720BDE8F84081
:1074700003F010BE2573F8BD294601F078FB012109
:10748000064601F0BBFB054A1068864202D1E5734F
:10749000A5736573F8BD00BF141C00200400002014
:1074A00070B51B4B8CB006460D4610200221002201
:1074B00002F0E8F8002401AB325B42F00101100A4F
:1074C0002A5B03F8041C0234110A03F8030C03F8C6
:1074D000022C03F8011C0433182CEDD121460422A0
:1074E0006B46102002F0CEF806AB21461C2210207D
:1074F00002F0C8F80021302268460BF033FD10205E
:10750000014634226B4602F0BDF8C0B20CB070BD2B
:10751000569E010810B50A4C04F12C0002F014F933
:1075200058B994F82C30012B08D194F82D00B0F103
:107530001C014A4252EB010010BD002010BD00BFEB
:10754000141C00201FB50A2200234FF461504FF491
:1075500061618DE80F00064B44F620621A606846B0
:1075600001A902AA03AB02F00BF805B000BD00BFF1
:107570005C1D00201FB50023009301930293039329
:1075800001A8694602AA03AB01F0C2FF05B000BD25
:1075900070B500210A4C0E2002F0F0F810251021E1
:1075A0000E2002F0EBF800212A4620460BF0DAFC10
:1075B0000E20294600222346BDE8704002F062B842
:1075C000421C0020024B1A6818601046704700BF2A
:1075D0005C1D00201FB5044604F044F803F084FF4E
:1075E0000E4B0F480F49104A009301900F4B029128
:1075F00003920F490F4A104802F0F2FE642003F094
:107600007DFB204602F004FF0C4803F025F948F208
:10761000042004B0BDE8104003F0D0B8A1B50008C4
:10762000B5B5000821B6000849B60008A9730008DE
:1076300099730008A1730008B173000808020020C4
:1076400038B5584D01244FF0FF102C7003F0A6FC04
:10765000E72003F01FFD0220FFF7BCFF00200146DA
:10766000024602F085FFFF2003F08EF805F1BE0010
:1076700002F043F84C4B062814BFFF200020D870BE
:107680001C71494D474A297919B192F8C440022C1E
:107690006CD992F8C400454B454D434A012103285B
:1076A00008BF1D461171404C207930B1414800F1AE
:1076B0001801FFF7F5FE2071F5E7012323713A4920
:1076C0000A7982B100240C7120212B190B2022464B
:1076D00001F0D8FF344B20341979802C40EA0100A6
:1076E0001871F1D1EBE791F9034001250D7124B137
:1076F0002C48012480F8C5400FE02A4890F8BE309D
:1077000023F0010180F8BE10274D2A79002AEFD01E
:10771000294801F0E9FF2871F6E7224D95F8C530B8
:1077200043B1214C0420E188244A01F0EFFF85F8A1
:10773000C500F2E7012185F8C6101A4D95F8C6403C
:1077400044B1194A052011891D4A01F0DFFF85F86F
:10775000C600F2E72046FFF73DFFFFF7DBFE10B162
:107760002C70204638BD4FF0FF3038BD00242C71FE
:107770000F4D22462B190B20082101F057FF0A4B11
:1077800008341A7908280CBF10464FF0FF30802CBF
:107790001871EDD1034991F8C440651C81F8C450BB
:1077A0006FE700BF141C002008020020383E0108CB
:1077B000521C0020B83E0108D21C0020E83E0108FF
:1077C000405E01082DE9F041ADF5806DDDF81884CB
:1077D000DDF81C54274C1E460DF1000E0EEB040381
:1077E000276803F17843A3F590431F60224F0434C8
:1077F000BC42F1D143274743431C7C1CB81C704456
:107800008DF800300DF80410114632460BF024FAC2
:1078100007F1220100AA501841462A460BF01CFA33
:1078200000AB1C1984F8416084F8425004F0AEFEAD
:10783000342004F0BFFE0F4804F02EFF042818D1B6
:107840000C4C0DF5806C0CEB040000F17841A1F5B7
:1078500098422046116804F0F5FE074B04349C4220
:1078600001D00428EDD00DF5806DBDE8F04104F0A5
:1078700099BEFEE700480008004C00082DE9F041E1
:10788000374886B002F03EFB0246002863D1354FF0
:107890000D2043213B4601F0C9FE432802D04FF0A2
:1078A000FF3258E03E782E4906F1030808EB070442
:1078B000204602F019FB3B78FF187878102804D98D
:1078C00004F11000264902F00FFB2649E27F11F86F
:1078D00008700AB11F2F01D1013400E020270B7876
:1078E000C81890F80280B8F1030F29D8DFE808F033
:1078F000020E1919002001250095019002900390B5
:107900000490059018493246034616E000230120F2
:107910008DE8810002930393049405931249324643
:107920000BE0012018211E2202238DE80F000E49D2
:107930000494059703203246002302F03DFE0546DD
:107940006B1CACD0084A8DE890002846414633466F
:10795000FFF738FF2A46104606B0BDE8F08100BFA9
:107960001C1F0020941E0020951E00202DE9F041D0
:107970000B7890B004460D46164633B1032A00F248
:107980008780DFE802F002205B5B20460BF052FFAD
:1079900000250123024621468DE8280002952B464A
:1079A000039504950595284602F006FE06463C48D8
:1079B00080F8C76020460BF03DFF00950346019517
:1079C000F0B2294638E008460BF034FF002647089D
:1079D0008DF81E600235BE4210D015F8022C15F845
:1079E000013C8DF81C20002107A810228DF81D30C5
:1079F0000CF054F908A988550136EBE720460BF046
:107A000019FF0127002308AD024602930393059353
:107A10002146009701960495384602F0CDFD204995
:107A2000804681F8C70020460BF004FF8DE8600017
:107A3000034639465FFA88F0224627E00BF0FAFE4B
:107A4000074628460BF0F6FE4FF018084FF01E0CC4
:107A50004FF0020E01238DE808513A4621460023DB
:107A600005900495304602F0A7FD07460C4880F8C3
:107A7000C77020460BF0DEFE804628460BF0DAFE8B
:107A8000009501903146F8B222464346FFF79AFE30
:107A9000034B012283F8C82010B0BDE8F08100BF7D
:107AA000141C0020F0B5414BADF21C4D06A8C218C5
:107AB000196802F17846A6F5904001603C4904330C
:107AC0008B42F3D19DF81860FF2E6AD00224002566
:107AD000B54235DA06AB191911F8010C04F120078B
:107AE000DF1991F8402091F84130032825D8DFE8CC
:107AF00000F0020C15150020012300930190029064
:107B0000039004900590034615E001208DE80900DC
:107B1000002302930393049705930CE001204FF098
:107B2000180C4FF01E0E8DE80150022003900593B3
:107B300004970320002302F03FFD01354334C7E7DB
:107B40001C4C012194F8C75023466A1C03F82E2FC1
:107B50000E20002201F096FD00200146012202F0D5
:107B600007FD0125234603F82F5F29462A460E20EC
:107B700001F088FD02F082FC642003F0BFF80020D1
:107B800002F046FC002084F8C95020744FF47F4076
:107B900003F004FAE72003F07DFA48F2042002F033
:107BA0000DFE07B00DF5806DF0BD00BF0048000868
:107BB000004C0008141C002008B504F0E7FC342039
:107BC00004F0F8FC044804F067FD042803D1BDE884
:107BD000084004F0E7BCFEE70048000838B5414C17
:107BE000C4F8CC000020FFF7F5FC0123002084F846
:107BF000C9302074FFF78EFC3B4C054610BB218832
:107C000005291FD0FFF71CFD28B94AF6CD3020808A
:107C100003F074FEEEE72288052A88BF2580324DE6
:107C20002C88601C288003F069FEBFF34F8F2F4A19
:107C30002F4BD16801F4E06545EA0304D460BFF33B
:107C40004F8FFEE723884AF6CD32934206D1FFF7E5
:107C50009FFC254CFFF726FF002037E0012B2CD09E
:107C60000E2010210022234B01F0E0FC102824D12B
:107C70001C4CE178A9B994F82E301BB9012284F884
:107C8000D0200EE094F82F0058B90146012202F0EE
:107C90006FFC0121234603F82F1F0E200A4601F036
:107CA000F1FC1048C178A9B990F8D03093B1FFF732
:107CB00061FCBDE83840FFF745BCFF200A4C02F0EC
:107CC00063FDFFF765FCFFF777FF0020208003F0DE
:107CD00015FECDE74FF47F4003F060F9E72003F095
:107CE000D9F9E4E7141C00205E03002000ED00E059
:107CF0000400FA05421C002030B5574D00249FB007
:107D0000FF206C70AC7085F8C8402C712C73AC747B
:107D10006C73AC73EC732C7403F040F9E72003F040
:107D2000B9F921462246204602F022FC2B460121C9
:107D300003F82F4F0E200A4601F0A4FC464B187999
:107D4000012805D1642002F0D9FF01F07DF8F5E7A4
:107D500010210C2001F012FD404802F0D9F84048F3
:107D600002F07AFD012002F05BFD68463D4900F01B
:107D700085FD394D697895F8C8200A431AD195F8E0
:107D8000D11000295DD0FF2002F0FEFC002858D160
:107D90001A24013C06D0E72003F0AAF9322002F0B1
:107DA000ADFFF6E7FFF7F4FBFFF706FF2A4A82F87C
:107DB000D140DEE7E72003F06DF90E20012100221B
:107DC00005F12E0301F032FC6C781CB1FFF756FD73
:107DD00085F8C700204C012194F8C7300022581CB8
:107DE000234603F82E0F0E2001F04CFC0020014624
:107DF000012202F0BDFB0125234603F82F5F29462F
:107E00002A460E2001F03EFC02F038FB642002F00E
:107E100075FF002002F0FCFA84F8C9504FF47F404F
:107E20000025257403F0BAF8E72003F033F948F28F
:107E3000042002F0C3FCFFF785FB84F8D0501FB08C
:107E400030BDE72003F054F9FA2002F057FF6846EE
:107E500000F06CFD8DE700BF141C00208474010845
:107E6000080200206D7900082DE9F3419C4C04F0D4
:107E7000EFFC0023C4F8D43094F8D80048B994F843
:107E8000D91031B9A26882B3FEF70AFCA468A042F7
:107E90002BD3934C94F8C900002841D000252571BC
:107EA000A5602573C4F8DC5084F8D850012684F806
:107EB000C9506573A573E573657402F0DFFA6FF05E
:107EC0007F40267403F06AF8E72003F0E3F86420AB
:107ED00002F014FF94F8D01011B3284602F098FA7B
:107EE00084F8C960FFF708FF1AE07D4C94F8C930A8
:107EF000B3B9E07828B9FEF7D3FB00F5EA41303199
:107F0000A160002002F084FA012200234FF47F4098
:107F100084F8C920237403F041F8E72003F0BAF88D
:107F20006F4C94F8D02012B1FFF7E6FE04E0E3783E
:107F300013B1267B35460EB369488178012914D1E7
:107F4000047B012C11D10279012A0ED1032465484A
:107F50000BF070FC634982B2012002F007FA631E45
:107F600013F0FF04F3D15E4884705D4C217B2346FF
:107F7000E1B194F8D920002A76D017E03146324694
:107F80003046A66002F0F4FA57480BF053FC574F06
:107F9000804638460BF04EFC00970190791F032075
:107FA0004246334602F080FAE670C5E793F8E300F4
:107FB00020B14F4800213A220AF0D4FF484B93F8F1
:107FC0001A2132B9587B00285AD19B7B002B57D1FC
:107FD000BEE01C7B04B393F8D900E8B9597B0029B3
:107FE0005FD019E0234603F8312F0E200121032230
:107FF00001F048FB3A4C00254FF6FF70257402F063
:10800000CDFFE72003F046F8FDF78CFFA84273DBB5
:10801000C4F8DC5001236373314C617B002900F00C
:108020009780A27BBAB9FDF7FDFE002811D002DAD5
:108030004FF47F0007E0012801D12E4803E0022819
:1080400003D14FF0FF1002F0A9FFE72003F022F860
:1080500001E00120A073FDF7A9FE002878D1204B94
:10806000D8739873587373E094F8E3100029A5D17E
:10807000642002F043FE04F1E00001F0C5FA9DE740
:10808000FDF740FF164900224FF47F40CA738A7300
:108090004A7302F083FFE72002B0BDE8F04102F02E
:1080A000F9BF5D7C002DA5D04FF47F0002F076FF74
:1080B0000B4C627C002A95D0E72002F0EBFF4FF4D6
:1080C000FA7002F01BFEE72002F0F2FF4FF4FA70A4
:1080D00002F014FE657C691ECAB26274E8E700BF54
:1080E000141C002012020020190200201E02002091
:1080F000F41C00200060FF0094F8D83043BBD4F893
:10810000DC00411C0229C4F8DC1002D1012284F8F1
:10811000D820FDF7C5FE00280F4C0BDAD4F8DC00A0
:10812000411C0229C4F8DC1002D1012284F8D820B5
:10813000022300E003236374074C0121607C234683
:1081400003F8310F03220E2001F09CFA002362E7AE
:1081500002B0BDE8F08100BF141C002013B5084C2C
:10816000002100910A460B462046FEF7B3FC054964
:10817000054A204602B0BDE810400AF031B900BF00
:10818000301D002011510008380D0020704708B53F
:10819000012003F031FFFEE708B5032003F02CFFB8
:1081A000FEE708B5042003F027FFFEE708B5052029
:1081B00003F022FFFEE770477047704708B503F0F1
:1081C000DFFCBDE80840FDF7EFB9000008B5024B41
:1081D0000BB1AFF3008008BD0000000008B5024BF2
:1081E0000BB1FEF7E5FF08BDB171000808B5024B01
:1081F0000BB1FEF701FC08BDF969000808B5024B98
:108200000BB1FEF7FAFB08BDFB69000808B5024B8D
:108210000BB1FEF735FD08BD816C000808B50120E3
:1082200004F09EF938B1012004F0AAF9024B13B111
:108230000020FEF70FFC08BD556A000808B50220B3
:1082400004F08EF938B1022004F09AF9024B13B110
:108250000120FEF7FFFB08BD556A000808B50420A1
:1082600004F07EF978B1042004F08AF90020064B6E
:108270000146188002F0CAFF044810210122BDE81F
:10828000084004F0D0BD08BD7C1D0020002C01403A
:1082900008B5082004F064F938B1082004F070F93A
:1082A000024B13B10320FEF7D5FB08BD556A000849
:1082B00008B5102004F054F938B1102004F060F92A
:1082C000024B13B10420FEF7C5FB08BD556A000838
:1082D00008B5202004F044F938B1202004F050F90A
:1082E0000E4B13B10520FEF7B5FB402004F038F922
:1082F00038B1402004F044F9084810B10620FEF7D8
:10830000A9FB802004F02CF938B1802004F038F962
:10831000024911B10720FEF79DFB08BD556A000810
:1083200008B54FF4005004F01BF940B14FF4005071
:1083300004F026F9174B13B10D20FEF78BFB4FF419
:10834000804004F00DF940B14FF4804004F018F97A
:10835000104810B10E20FEF77DFB4FF4004004F0F2
:10836000FFF840B14FF4004004F00AF9094911B197
:108370000F20FEF76FFB4FF4006004F0F1F838B106
:108380004FF4006004F0FCF8BDE8084002F040BC87
:1083900008BD00BF556A000808B50F48102104F059
:1083A0007BFDC0B10C48102104F081FD002002F0DB
:1083B000EFFF28B9094B1A880A3290B2188008BD1D
:1083C00010210548002204F02EFD00200121BDE807
:1083D000084002F01BBF08BD002C01407C1D00209E
:1083E00008B5024B186800B1804708BD3C1D00204D
:1083F00008B5024B586800B1804708BD3C1D0020FD
:1084000008B5024B986800B1804708BD3C1D0020AC
:1084100008B5012004F036FB50B1012004F044FB04
:10842000044B0BB1FEF77EFDBDE8084004F00EBB27
:1084300008BD00BF256F000808B5022004F022FB2C
:10844000B0B10C4B00224FF400301A7004F098F8D1
:10845000012004F027FA10B1012004F02DFA04F0F5
:10846000F5FA022004F020FBBDE8084004F0EEBA63
:1084700008BD00BFED1C002002F05ABB00F062B83E
:1084800038B514490B78012B23D1134A13680BB963
:108490000B7038BD114C402B206881B205D940309B
:1084A000403B20601360402504E09DB2C3180020CB
:1084B000236010600A4A5018C0212A4605F054FA79
:1084C0000120294605F05AFB0120BDE8384005F09F
:1084D000C3BA38BD240D00202C0D0020280D00202B
:1084E000240C0020094908B50020094B012208800E
:1084F00003201A7005F06EFB064B024618800648F2
:108500004FF48871BDE8084005F045BADC0B002047
:10851000D80B0020DA0B0020DE0B0020074B186878
:10852000052809D1064B1A68511C052A196003D188
:1085300000201860FDF76EB9704700BFA81D00202D
:10854000481D00203A4A38B511683A4B88B23A4D76
:1085500018801C882988214001F4007084B244B13D
:108560004FF6FF5515609A78511CC8B29870FFF706
:10857000D5FF304C304B25881A882A4002F4004140
:1085800088B225461C4608B105F028F92A882388B8
:10859000134003F4806188B230B1254B27494FF670
:1085A000FF321A6048688047224A234B11881B8893
:1085B000194001F4005081B219B11D494DF6FF7008
:1085C00008601288134003F4805398B230B1184AFF
:1085D0004EF6FF711160002003F0CAFC154B1649DE
:1085E00018880A88024002F4006398B260B1144906
:1085F0000A7812B103F09CFC02E0022003F0B8FC00
:108600000B4B4FF2FF7018600A490B480A88038829
:10861000134003F480718AB242B1054B4FF6FF60FC
:1086200018600720BDE8384003F0A2BC38BD00BF89
:10863000445C00404C1D002094270020B402002020
:1086400084030020034B987A10B1034905220A6085
:10865000704700BF70270020A81D0020014B042296
:108660001A607047A81D0020034B1A78202A01D1F8
:1086700000201870704700BF501D00207047000098
:10868000212810B508D111480368197801F07F023C
:10869000212A11D0022010BD2028FBD10B4B1968D4
:1086A0000A780B4902F07F030A4A212B0CBF0B46C4
:1086B000002310700BB9EDE7074B044C2068002431
:1086C0008361448220469847204610BD90270020B1
:1086D00029870008501D002011870008074B1968E2
:1086E0000A7802F07F03212B05D1022801D1002056
:1086F00070472228FBD00220704700BF902700203F
:1087000009B1022070470128FBD8084670470000D5
:1087100020B9034B082219680A8270470148704744
:10872000902700207C02002020B9034B0822196802
:108730000A82704701487047902700207C02002081
:10874000054B1968CA78042A04D8044B03EBC2010C
:1087500004F0C4BD00207047902700208402002050
:10876000014904F0BBBD00BFA4020020014904F090
:10877000B5BD00BFAC020020334A344BD179186834
:1087800010B5002441728472C472204605F016F9B7
:1087900020464FF4007105F019F91021204605F02C
:1087A00021F94021204605F0BDF98021204605F041
:1087B000A9F9204605F072F9254B204693F864107C
:1087C00005F0EAF9204605F058F90120214605F0A8
:1087D000FDF80120C02105F095F90120202105F0C8
:1087E00001F90120214605F01AF902204FF4C06179
:1087F00005F0ECF802204FF4807105F083F90220B7
:10880000214605F00CF90220202105F0EBF80320A9
:10881000214605F0DBF803204FF4887105F082F95A
:108820000320402105F0B8F903204FF4405105F032
:10883000F6F80320214605F0D5F8204604F060FF45
:10884000044A0120106010BDF27401089027002036
:108850007C020020A81D002010B5FDF727F8054B6D
:1088600000241868847203F04BFB05F0C9F9024933
:108870000C6010BD90270020A81D002038B50446CC
:108880000D46FEF735FD204625614FF41651FEF7E3
:1088900039FD204638BD70B506460D4600242846F1
:1088A0000AF0C8FF844208D2295D3046FEF714FD65
:1088B000012002F023FA0134F1E770BDF8B5044657
:1088C0000E46174600252046FEF70CFD0028FADD6F
:1088D0002046FEF70BFDBD42C1B206D10023337026
:1088E00020461149FFF7D7FF14E00D29F6D00A29D9
:1088F000F4D0082901D07F2904D1002DE3D0013E16
:10890000013D02E006F8011B01352046EDB2FEF7FD
:10891000E3FCD8E72046FEF7E5FC002803DD20460F
:10892000FEF7E4FCF6E7F8BD05A00108F0B585B058
:108930000446FEF7D7FC002840F39D802046FEF752
:10894000D5FCC0B2772867D104F11406002121229A
:10895000304604F135050AF005FB00214122284686
:108960000AF000FB04F17607002284F87620204606
:108970007A704249FFF78FFF204631462022FFF7E9
:108980009DFF20463E49FFF786FF394601222046DB
:10899000FFF794FF94F87630A3F130010329F0D863
:1089A000312B0BD120463749FFF775FF204636495A
:1089B000FFF771FF20463549FFF76DFF94F8760009
:1089C000B0F1300708D020463149FFF764FF204658
:1089D00029464022FFF772FF20462E49FFF75BFF32
:1089E00023693A4630462946984720462A49FFF7E8
:1089F00052FF20462949FFF74EFF20462849FFF73E
:108A00004AFF20462749FFF746FF20462649FFF741
:108A100042FF2046254929E069282CD1244A01AB90
:108A200010685168002503C39168204619602149E8
:108A3000FFF731FF01AEAE5D300900F13001392999
:108A400088BF00F1570106F00F062046FEF744FCF0
:108A500006F13001392988BF06F15701204601355A
:108A6000FEF73AFC0C2DE5D11349204605B0BDE8D0
:108A7000F040FFF710BF05B0F0BD00BF599E0108E0
:108A8000609E01088D9E0108C39E0108EE9E0108AC
:108A9000349F01083F9F0108829F0108A29F01089F
:108AA000D59F010808A0010847A0010878A0010887
:108AB000E8F7FF1F8EA0010805A0010813B5084CB8
:108AC000002100910A460B462046FEF703F80549AF
:108AD000054A204602B0BDE8104009F081BC00BF45
:108AE000541D002011510008380D0020002100F015
:108AF00004B80E4B5B58435004310D480D4B4218DF
:108B00009A42FFF4F6AF0C4A00F003B8002342F893
:108B1000043B0A4B9A42FFF4F9AF03F073F9FCF7F8
:108B20007DFCFCF7FFFEFCF7C7FC70472CA2010898
:108B300000000020C80B0020C80B0020A027002048
:108B4000FFF7FEBF01700B0A0A0C090E437082701A
:108B5000C170043070470170090A417002307047DB
:108B600043185A78405C00EB022188B2704710B578
:108B700043189A78DC78415C120402EB046258785E
:108B8000521802EB002010BD73B544790023022C6B
:108B900001930FD0032C19D0012C2BD1164D28692D
:108BA0002E4620B1296901A888470246B8B9B168A4
:108BB00001201BE0104DE8682E4620B1E96801A8AD
:108BC0008847024658B9B16802200FE00A4D6A6929
:108BD0002E464AB16B6901A89847024620B1A968A0
:108BE0002046BDF8043003E0B1680320002213469C
:108BF00000F02AFC7CBD00BFD81E0020072830B53D
:108C000012D8012910D8EFF3108472B6012505FAA5
:108C100000F501FA00F0054B1A6822EA050202434A
:108C20001A60E30700D462B630BD00BF0C03002019
:108C3000F0B5012187B00546FFF792FF00F48043AD
:108C4000044698B250B3B4F5824F27D12846052187
:108C5000FFF786FF0026074607353446BE4208D098
:108C600028460221FFF77CFF013624180435B6B2EE
:108C7000F4E7744B188E21188AB21A86D86B241820
:108C8000DC63D96B9A6B914240F0CE8093F8400040
:108C9000002800F0C9809B69992033E024F4FF414B
:108CA00021F07F0290B2002800F09B8048F2100271
:108CB00094422AD00CD8B4F5004F40F2C08048F25C
:108CC00002039C4217D9991C8C4240F0B88012E0F4
:108CD00048F2800084420ED005D848F24002944207
:108CE00040F0AD8051E0B4F5024F04D0B4F5084F28
:108CF00040F0A5806CE053498869002800F094801A
:108D00008B69204600210A4669E00023EA18517960
:108D10000DF803100133042BF8D1687A2B7BAA7A63
:108D2000E97A8DF804008DF807308DF805208DF86C
:108D3000061005F10D00002306AAD218C15C01330C
:108D4000042B02F8101CF7D105F11100002306AA2C
:108D5000D218C15C0133042B02F80C1CF7D105F1C9
:108D60001500002300AAD218C15C0133042B117432
:108D7000F8D1344928798A698DF81400002A53D033
:108D80008B6920466946152229E0053500212846D1
:108D9000FFF7EDFE042100902846FFF7E8FE0821CA
:108DA00001902846FFF7E3FE0C2102902846FFF7CA
:108DB000DEFE102103902846FFF7D9FE214B0490D8
:108DC0009969002930D09B6920466946142206E043
:108DD0001C48826942B38369691D20460122984775
:108DE00022E041F203039C4205D00C339C4202D0A6
:108DF000591E8C421AD16C1D04212046FFF7B7FE84
:108E000039301CD12D790F480021C5622046FFF76B
:108E1000AEFE042105462046FFF7A9FE393003D1F6
:108E200028460121FFF7EAFE012009E0054A1388E0
:108E300099B28C4204D0B4F5805FF5D100E00020F7
:108E400007B0F0BDD81E002038B5104B5D88ADB21C
:108E5000CDB158680478221F514251EB02042CB165
:108E6000FFF7E6FE003018BF012000E0204605466F
:108E700020B944B1054B93F8412022B903480021A1
:108E8000418001F06DFD284638BD00BFD81E00208E
:108E90002DE9FF4704468946904602F079FE0025F9
:108EA0000190BC4B5A8890B2002840F0928003F0A9
:108EB000CFFC02F06DFE0290029901980A1A03920B
:108EC000039B002B03DA0199029842180392B24BDC
:108ED00019680029E5D003988842E2D3AD4A41F2EF
:108EE0000700138899B2814224D8421E91425FD272
:108EF00040F2022399425BD00DD80C2906D80829EC
:108F000056D200294DD0062952D959E00D294CD00E
:108F100040F201220BE041F2020081424BD8B1F550
:108F2000805F45D8B1F5017F3FD940F207229142D9
:108F300037D13AE041F21103994236D014D841F2C8
:108F40000B00814234D005D841F2090291422FD062
:108F500031D82AE041F20F0399422CD028D841F2AF
:108F60000D0081421DD126E042F2060291421CD042
:108F700007D8B1F5005F14D942F20403994214D91D
:108F800021E0B1F5804F00F0F18105D8A1F5005046
:108F90000838012805D808E044F20B02914200F09D
:108FA000E5810B2003F028F8E0E1FF212170DDE1ED
:108FB0004FF0FF3105E04FF0FF3121606160D5E1F6
:108FC00000212160D2E1204600213A2209F0CAFFA7
:108FD000CCE15E683178042940F07D810121304682
:108FE000FFF7BEFD05463046FFF722FE014600288A
:108FF00040F0678141F20700771D854250D8411E3D
:109000008D4280F0AF8040F20222954200F0AA80AB
:1090100011D80C2D09D8082D80F0A480002D00F067
:109020005081062D40F29E80E9E00D2D00F09780E2
:1090300040F201237EE041F202039D4218D8B5F5CB
:10904000805F00F28F80B5F5017F40F2888040F2AA
:1090500007218D4240F035813079002104F8010B61
:109060003846FFF784FD01462046FFF76BFD28E1F7
:1090700041F20402954200F0988040F2AF803846F9
:109080000021FFF774FD042120603846FFF76FFDD3
:109090006060083406F10D07234606F11D017DE0EE
:1090A00041F2110295425AD02CD841F20B039D4255
:1090B00058D01CD841F209018D4253D000F29A8059
:1090C00000213846FFF753FD042120603846FFF7A2
:1090D0004EFD082160603846FFF749FD0C21A06075
:1090E0003846FFF744FD04F10C0AE060E8E041F285
:1090F0000F02954272D03BD841F20D039D4240F0E1
:10910000E08052E042F20500854200F09C8008D8E1
:1091100041F21202954238D0B5F5005F40F2D1809D
:109120001DE042F209018D4208D84F1EBD4216D201
:1091300042F206039D4240F0C48010E044F20B006E
:10914000854240F0BE807279DFF848A038460121A0
:10915000AAF83020FFF704FDAAF83200B1E0317917
:109160002170AEE038460021FFF701FD2060A8E045
:1091700000213846FFF7FBFCA2464AF8040B042105
:109180003846FFF7F4FC60609AE03846FFF7E8FCE9
:10919000208096E0D81E00205C1D002057F8040BAC
:1091A0008F4243F8040BF9D18BE000213846FFF7DA
:1091B000DEFC042120603846FFF7D9FC08216060FE
:1091C0003846FFF7D4FC04F1080AA060E46814F103
:1091D000390375D10121FFF711FD71E000213846F7
:1091E000FFF7C5FC042120603846FFF7C0FC606033
:1091F000083466E0307920713F68276061E03846C6
:109200000021FFF7B4FC042120603846FFF7AFFCD3
:10921000082160603846FFF7A3FC0A21A0603846A9
:10922000FFF79EFCC4F80A000C3406F11103274630
:1092300006F1350153F8040B8B4247F8040BF9D1C2
:109240001A883A803DE077187B796354013104290C
:10925000F9D106F109000027C15DE2190137042F99
:109260001171F9D106F10D000023C15CE218013340
:10927000042B1172F9D106F111070022B85CA11874
:109280000132042A0873F9D106F115070023F85CAE
:10929000E1180133042B0874F9D106F119070021F4
:1092A000785C6218013106291075F9D106F11F07A3
:1092B0000023F85CE2180133202B9076F9D100E00E
:1092C00054462C4F388882B2954236D100233B80D9
:1092D00087F8413031E0DF8EBBB273B330460321F3
:1092E00096F802A0FFF73CFC0746B9F1000F0CD03E
:1092F0000421701DFFF73BFC0246C8F8000006F190
:1093000015014846D2B209F0A7FCCAEB0707781E40
:10931000B0F5806F07D20AF10501204671183A4670
:1093200009F09AFC01E04FF0FF37B8F1000F01D0CF
:1093300088F800700F4B0022DA860E4F00207880EC
:1093400001F00EFB3278042A05D1B5F5805F02D119
:109350003046FFF719FC3B8899B200297FF4A1AD94
:109360000448C28E93B2002B7FF49BAD002004B062
:10937000BDE8F087D81E002007284FF001030ED863
:10938000EFF3108272B603FA00F006490B68184238
:109390000CBF00200120D10702D462B670471846E6
:1093A000704700BF0C030020034B188008460021C3
:1093B0000A46FFF76DBD00BFD81E002010B5034B55
:1093C0000124DC86BDE81040FFF762BDD81E0020F6
:1093D00038B50346154601224A710C46881D1946C8
:1093E000FFF7B9FB291D0570204601F027FB00207F
:1093F00038BD38B5BDF814500C469B18A071E8185C
:1094000085B202216171E271294604F10800FFF77B
:10941000A2FB6A1D204691B201F010FB002038BD6E
:1094200038B59B180C469DB202216171A071E271A2
:10943000294604F10800FFF78EFB6A1D204691B211
:10944000BDE8384001F0FABA2DE9F0471D4605F1B4
:10945000020A032301F107091FFA8AFA88714B7186
:109460000C46484651461746FFF775FBB5F57A7F1F
:10947000804613D82946FFF76EFB29464046FFF782
:109480006AFB394604F10B002A4609F0E5FBA91DE9
:10949000204689B2BDE8F04701F0D0BA4FF47A76A1
:1094A000B5FBF6F10AEB410291B2FFF754FB3146EE
:1094B0004046FFF750FB394604F10B00324609F0F5
:1094C000CBFBA5F57A75204640F2EE31ADB2BF195F
:1094D00001F0B4FAB5F57A7F05D9A5F57A7085B2B1
:1094E0004FF47A7601E02E460025A046394628F84A
:1094F000056F4846324609F0AFFBB31C404699B2AF
:10950000BF1901F09BFA002DE4D1BDE8F0870000FF
:10951000F7B51A4C1E46A468FF238DF807300025C6
:10952000475D63190135042D5F72F9D100200D5C90
:109530002318013004285D73F9D10021505C6318B1
:10954000013104295874F9D104F115000021FFF705
:10955000F9FA0022B35C83540132042AFAD121467D
:10956000142242F20100FFF733FF42F201000DF135
:109570000701FFF719FF9DF90700FEBDD81E002067
:109580002DE9F34106460C461E4831681546D0F8D1
:1095900008804A1E1F46FF23082A8DF8073008F16D
:1095A000090001D80A23336021684A1E082A01D81D
:1095B0000A23236029684A1E082A01D80A232B603F
:1095C00039684A1E082A01D80A233B603168FFF730
:1095D000B9FA2168FFF7B6FA2968FFF7B3FA3968D4
:1095E000FFF7B0FA4146142242F20900FFF7F0FEFD
:1095F00042F209000DF10701FFF7D6FE9DF90700C1
:10960000BDE8FC81D81E002038B5074B42F20504A6
:109610000546996820460022FFF7DAFE20462946D3
:10962000BDE83840FFF7C0BED81E00202DE9F34149
:10963000864613480D46866871461F4602ACFF23D6
:1096400006F1090004F8053D9046FFF77BFA29462C
:10965000FFF778FA40F201254146FFF773FA0C2232
:1096600031462846FFF7B4FE28462146FFF79CFE08
:109670003846002101AAFFF7A1FE0198BDE8FC8150
:10968000D81E00202DE9F341864616480C46866810
:109690007146984602AD4FF0FF3306F10A0045F8D7
:1096A000043D1746FFF74EFA0C21FFF74BFA21460F
:1096B000FFF748FA3946FFF745FA4146224606F1D8
:1096C0001A0009F0C9FA902031461022A3B2FFF720
:1096D000A7FE40F202202946FFF766FE0198BDE88A
:1096E000FC8100BFD81E002008B5034606200146B5
:1096F0000022FFF7C7FFC0B208BD08B50346062029
:1097000001460022FFF792FFC0B208BDF8B5064639
:109710000D4617460C467B192A1B1F2CC4EB03036E
:1097200092B208D930462021FFF7ACFFC0B2203CEE
:109730000028F0D007E02CB130462146FFF7A2FF09
:10974000C0B2F8BD2046F8BD37B50B4B40F2072537
:109750000446996800222846FFF73AFE28466946E3
:10976000FFF722FE9DF803009DF804102070617041
:109770009DF800003EBD00BFD81E002037B50D4A41
:10978000034695680C4605F109001946FFF7DAF91A
:10979000214640F20324FFF7D5F929460822204646
:1097A000FFF716FE20460DF10701FFF7FDFD9DF8BE
:1097B00007003EBDD81E00202DE9F0430023CA5CFF
:1097C000C2540133102BFAD10022334B467B991837
:1097D00091F8018004789F19F97A88EA0405847B5E
:1097E00085EA01081D194178EF7A90F80CC04F40C6
:1097F000C17B80F810805D1895F80B9085786344E4
:1098000089EA050593F80B90C378477489EA030346
:1098100090F80490FFB288EA090890F805908574E2
:1098200087EA090790F80690EDB285EA090590F8F5
:109830000790C374DBB283EA090390F8089080F8BC
:1098400014805FFA88F888EA090890F8099047754B
:10985000FFB287EA090790F80A908575EDB285EAAC
:10986000090590F80B90C375DBB283EA090388EA17
:109870000C0C7E406C405940013280F818804776CD
:109880008576C37680F81CC046778477C177103020
:109890000A2A9AD1BDE8F0834775010810F0800FBD
:1098A0004FEA400018BF80F01B00C0B270470000B4
:1098B0002DE9F04F037891F8A0A004468AEA030A44
:1098C00080F800A091F8A1204078A77882EA0005EE
:1098D000657091F8A260E07886EA0703A37091F8BA
:1098E000A32097B0059582EA0005E57091F8A49051
:1098F0002679069389EA060984F8049091F8A57000
:109900006379079587EA0302627191F8A600A57949
:10991000E37980EA0506A67191F8A7700C9287EAB0
:10992000030B84F807B0227A91F8A880607A88EA5D
:10993000020884F8088091F8A97008964740677279
:1099400091F8AA50A67AE07A85EA0603A37291F804
:10995000AB20267B82EA0005E57291F8ACC0099342
:109960008CEA060C84F80CC091F8ADE0637BA27B16
:109970008EEA030E84F80DE00D9591F8AE50E07B71
:109980005540A57391F8AF204B4B4240E2739A4487
:1099900091F890009AF80B6199444640267091F82E
:1099A000940099F80BA198448AEA0006267191F870
:1099B000980098F80B919C4489EA000626729CF85E
:1099C0000BA191F89C009E448AEA00062673DF19D9
:1099D0009EF80B8197F80BC191F8910091F89D606A
:1099E00088EA00098CEA060060730C9FDDF814A079
:1099F000DE1996F80B0191F89970DDF8208080EA65
:109A00000706667203EB0A0091F8956090F80B71F7
:109A100084F8019087EA0600607103EB0800DDF826
:109A200018E090F80B91099803EB0E0703EB000E7A
:109A30009EF80BC191F8920091F89A6097F80B711B
:109A40008CEA000A77405D1991F89E6084F802A0C4
:109A500091F8960095F80B81A772079F88EA000598
:109A600089EA0606A673A571DE1996F80B0191F82E
:109A70009F5003EB0B0791F89360454097F80B015B
:109A80009A1880EA06070D98E7701E1896F80B7171
:109A900091F897004FF0090B87EA0006E67191F8FC
:109AA0009B3092F80B71E57387EA0300E0720D4674
:109AB000CDF840B002E000BF4775010894F800906F
:109AC000A77887EA0900FFF7E9FEFFF7E7FE94F8B9
:109AD0000180E678824686EA0800FFF7DFFEFFF79E
:109AE000DDFE8AEA070380EA080227797040A6793A
:109AF0008AEA09015FFA80F886EA07005FFA82FBCA
:109B00005FFA83FA5FFA81F903970296FFF7C6FEC0
:109B1000FFF7C4FEE6796779014686EA07000491FB
:109B2000FFF7BCFEFFF7BAFE039B049A94F808C047
:109B300082EA0301CBB2029947404A40A17A7040C1
:109B4000C6B2059381EA0C00D3B20291CDF804C0ED
:109B500006930796FFF7A2FEFFF7A0FE637AE67A68
:109B6000024686EA030003930492FFF797FEFFF78D
:109B700095FE049ADDF804C0039B82EA0C015FFAAB
:109B800081FC80EA0301CBB2029909934A40D3B227
:109B9000CDF820C00A9394F80CC0A17B7040C6B2E7
:109BA00081EA0C000291CDF804C00B96FFF776FE17
:109BB000FFF774FE637BE67B024686EA03000393AD
:109BC0000492FFF76BFEFFF769FEDDF804C0049A0C
:109BD000039B82EA0C015FFA81FC80EA0301CBB2AD
:109BE000029970404A40C6B288EA0A018BEA09002D
:109BF0000D93D3B20E930291CDF830C00F9681EA47
:109C00000006FFF74BFE89EA000286EA020C5FFAC3
:109C10008CFC8AEA0B0084F800C0CDF804C0FFF782
:109C20003DFE8BEA000386EA030B02995FFA8BFC88
:109C300084F801C00846CDF844C0FFF72FFE8AEA39
:109C4000000286EA020A5FFA8AFB88EA090084F8C1
:109C500002B0CDF848B0FFF721FE88EA0000DDF839
:109C600018900599079A4640FFB2F6B282EA0908B1
:109C700087EA0100E670139688EA0006FFF70EFEF9
:109C8000059B584086EA0001CAB2484622717840D6
:109C90001492FFF703FE474086EA0703D8B21590F7
:109CA00060714046FFF7FAFD89EA0001059B86EAEC
:109CB00001020798D7B25840A7710697FFF7EEFD4B
:109CC0000799089A48404640F6B20A9F0596E67101
:109CD00009980B9E50407E4086EA0007FFF7DEFDA4
:109CE000DDF820A08AEA000387EA030C5FFA8CF80B
:109CF00084F8088009990A984840FFF7CFFD099A2F
:109D0000504087EA000B5FFA8BF9304684F80990DF
:109D1000FFF7C4FD0A9E524686EA000387EA030164
:109D20000B985FFA81FB504084F80AB0FFF7B6FD4C
:109D3000DDF82CA00E998AEA00000C9E47400F9B8C
:109D40000D98FFB24B407040E77283EA000A02931D
:109D5000FFF7A4FD0C9A0D9B50408AEA00060E986E
:109D6000F6B226735840FFF799FD0D99029B81EAE0
:109D700000028AEA0200C1B2617318460391FFF73C
:109D80008DFD0E9A0C9B50408AEA00010F98CAB2D2
:109D9000A27358400492FFF781FD0F99514B484040
:109DA0008AEA000C5FFA8CFADDF804C084F80FA090
:109DB00003EB0C0295F8800092F80B11DDF850C00F
:109DC00081EA0002227003EB0C0195F8840091F8FF
:109DD0000B219E1982EA000103EB0802217195F81C
:109DE000880092F80BC196F80B218CEA00012172D1
:109DF00095F88C00039E82EA000121739A1995F868
:109E0000811092F80B0103EB090680EA010295F834
:109E10008D0096F80B11DDF844C081EA0006159913
:109E20006673581890F80B6195F88910DF1986EA67
:109E30000100607203EB0C0695F8850096F80B1193
:109E40006270129A81EA000666719918DDF818C0EE
:109E500095F88A6091F80B0103EB0C0295F88E10CF
:109E6000704092F80B6103EB0B02714092F80BC14A
:109E700095F882608CEA0602049EA2709A1992F804
:109E80000B6195F886205640A671A0721398A173B5
:109E9000191895F88F2091F80B61DDF814C0724005
:109EA00003EB0C0695F8831096F80B0153444840D9
:109EB000E07095F8871097F80B014840E07195F82D
:109EC0008B0093F80B11E273109A81EA0003511E84
:109ED000103D11F0FF00E37210907FF4EFAD17B06A
:109EE000BDE8F08F4775010838B5054C054620469A
:109EF000FFF762FC28462146BDE83840FFF7D8BC92
:109F0000E41D0020034610210C200022FFF78EBB29
:109F1000034610210C200022FFF7B4BB30B585B0FA
:109F2000054601F035FE0190194CE36A4BB108F08B
:109F300073FAE26A02600020E06208F06DFA0188BC
:109F400023E02846FFF718FA10B14FF6FF711CE026
:109F500001F01EFE0290029A0198111A0391039BD0
:109F6000002B03DA0198029A11180391094B039808
:109F70001A689042E9D20649088E83B2002BD3D0EA
:109F80000A8E501E83B20B86002108B205B030BD88
:109F9000D81E00205C1D0020F7B5034614480D466E
:109FA00086681946174602AC4FF0FF3206F10900E9
:109FB00044F8042DFEF7C6FD2946FEF7C3FD41F225
:109FC00001053946FEF7BEFD0C2231462846FFF753
:109FD000FFF921462846FFF7E7F908F01DFA019935
:109FE000016008460021FEF709FEBDF90400FEBD30
:109FF000D81E0020F7B5054610484FF0FF3387689C
:10A0000002AC294641F20B0607F1090044F8043D71
:10A01000FEF798FD042239463046FFF7D9F921466C
:10A020003046FFF7C1F908F0F7F9019901602846B9
:10A030000121FEF7E3FD0198FEBD00BFD81E002000
:10A04000F7B50C460746164608F0E6F94FF0FF3321
:10A05000E62C036023D814480821856805F109001F
:10A06000FEF770FD2146FEF76DFD0021A14203DAE7
:10A070007A5C42540131F9E704F10802D2B2294670
:10A0800041F21000FFF7A4F9694641F21000FFF712
:10A090008BF908F0C1F90099019B0160336008F069
:10A0A000BBF9008800B2FEBDD81E002037B50346BC
:10A0B00013484FF0FF3284680D4604F10900194639
:10A0C0000192FEF73FFD0821FEF73CFD0821FEF757
:10A0D00039FD0023E95CC1540133082BFAD1142265
:10A0E000214641F20700FFF773F901A941F2070089
:10A0F000FFF75AF908F090F9019A026010463EBD48
:10A10000D81E00202DE9FF411D46314B8646D3F86D
:10A1100008800F4608F10900714616460A9CFEF7B2
:10A1200011FD1421FEF70EFD1421FEF70BFD142185
:10A13000FEF708FD1421FEF705FDD4F1010138BF3B
:10A140000021FEF7FFFC0FB1396800E03946FEF749
:10A15000F9FC0EB1316800E03146FEF7F3FC0DB1B9
:10A16000296800E02946FEF7EDFC74B1216839B991
:10A17000636841F287329342DCBF41F28833636007
:10A18000FEF7E0FC6168FEF7DDFC2C22414641F25F
:10A190000800FFF71DF9694641F20800FFF704F9CE
:10A1A000009900290ADB0FB1019A3A600EB1029BB7
:10A1B00033600DB10398286088B205E008F02CF9EF
:10A1C000009B03604FF6FF7000B204B0BDE8F08161
:10A1D000D81E00202DE9FF419846194B86469E68FF
:10A1E00015460F4606F1090071460B9CFEF7AAFCC6
:10A1F0002946FEF7A7FC4146FEF7A4FCBDF8305007
:10A200000C2231462846FFF7E3F8284601A9FFF75C
:10A21000CBF8029800280ADD0A9938466A46FFF70B
:10A22000CDF8009904B121600029D8BF029108F04F
:10A23000F3F8029A026010B204B0BDE8F08100BFEA
:10A24000D81E00201FB500240094019441F204049C
:10A250000294FFF7BFFF04B010BD00002DE9F04FDE
:10A26000844689B000B2CDF808C0039115469B46DC
:10A27000139E149CFFF752FEDDF808C0002858D149
:10A280002E4B9A6B511C9963D3F80890812C09F1DD
:10A290000A0307D0832C0AD105F1080A09F1220824
:10A2A000182704E009F11A081027064612906146A3
:10A2B0001846FEF747FC391FFEF744FC2946FEF717
:10A2C00041FC5946FEF73EFC832C05D15146FEF772
:10A2D00039FC0821FEF736FC0021A94205DA039873
:10A2E000425C08F801200131F7E7002DA8BFA8441F
:10A2F000832C0ED0129AB6B200920196E0B2494673
:10A300003A46ABB2FFF775F8832C0BD141F20F0040
:10A310000AE00020B042EDDA12990B5C08F8003038
:10A320000130F7E741F2030005A9FFF73DF8BDF85A
:10A33000180000B209B0BDE8F08F00BFD81E0020A1
:10A340001FB500240094019481240294FFF786FF36
:10A3500004B010BD1FB5069C0094079C0194832493
:10A360000294FFF77BFF04B010BD0000202A73B5F4
:10A3700003460E46144625D8144A1946956805F139
:10A380000900FEF7DFFB0821FEF7DCFB2146FEF7A4
:10A39000D9FB0022A24203DAB15C81540132F9E711
:10A3A00004F10C03DAB2294641F21100FFF710F86C
:10A3B00041F211000DF10701FEF7F6FF9DF90700CC
:10A3C00083B201E04FF6FF7318B27CBDD81E0020A7
:10A3D000024B01225A805860FEF736BDD81E00207D
:10A3E00010B50A4CE16022616361029B0399E3614D
:10A3F000049A059B216262620021A362A061012090
:10A4000084F8400084F8411010BD00BFD81E002021
:10A4100070B5174B174D002406461748AC63EC6324
:10A420002C802C866C86AC86EC86EC626C806C6032
:10A43000AB6000F05DFAA968A64214BF022626466A
:10A4400001224E724FF48040FEF7C2FF21464FF4C6
:10A450008040FEF7A9FFA968224644F20B00FEF7F0
:10A46000B7FF44F20B002146BDE87040FEF79CBFE9
:10A47000441F0020D81E0020D1A3000838B5094C85
:10A480000020A36A98472546E869064C80470028C3
:10A49000FAD0A16809B10022A260BDE8384000F0FE
:10A4A0004FBA00BFD81E00202DE9F04F83462F4839
:10A4B00085B0D0F80890144600259A4688464FF09B
:10A4C000FF331C2109F1090001930F9E0E9F029595
:10A4D000ADF80C50FEF736FB2146FEF733FB59462C
:10A4E000FEF730FB04F11001FEF72CFB3146FEF7BE
:10A4F00029FB2946FEF72FFBBAF1000F08D01AF806
:10A50000052042550135062DF9D10630002207E01D
:10A51000534602AA995CC1540133062BF9D1F4E7E2
:10A52000A24204DA18F8021081540132F8E7002C34
:10A53000A8BF00193EB100232FB1B34203DAFA5C81
:10A54000C2540133F9E71C34A319DAB24946012099
:10A55000FEF73EFF01A90120FEF726FF07F05CFF92
:10A5600001990160084605B0BDE8F08FD81E0020B3
:10A57000F7B503460F480E4685681946174602ACE4
:10A580004FF0FF3205F1090044F8042DFEF7DAFA26
:10A590003146FEF7D7FA3946FEF7D4FA29460C229F
:10A5A0000420FEF715FF04202146FEF7FDFE01986A
:10A5B000FEBD00BFD81E00202DE9F04F8346714834
:10A5C00085B0D0F808900D4614465946002209F18E
:10A5D00009009A460E9F0F9E0292ADF80C20FEF7DE
:10A5E000B1FABBF1030F00F2BE80DFE80BF0022FDF
:10A5F00076761421FEF7A6FA2146FEF7A3FA00218B
:10A60000FEF7A9FABAF1000F07D000221AF80210DB
:10A6100081540132062AF9D106E0534602A95A5C58
:10A62000C2540133062BF9D106303946FEF78AFAB7
:10A630004FF00008A04506D015F8083000F80830A3
:10A6400008F10108F6E708F118008AE02021FEF77A
:10A6500079FA2146FEF776FA0021FEF77CFABAF184
:10A66000000F07D000221AF8021081540132062A86
:10A67000F9D106E0534602AA995CC1540133062B76
:10A68000F9D139460630FEF75DFA04F10C01FEF708
:10A6900059FA3146FEF756FA1099FEF753FA00229E
:10A6A000A24203D0AF5C87540132F9E700190022BF
:10A6B0000421129D8718AD180023B34205D015F868
:10A6C00003E007F803E00133F7E701391A44F0D15A
:10A6D00004F1240C0CEB830043E02821FEF732FA4E
:10A6E0002146FEF72FFA0021FEF735FABAF1000FE6
:10A6F00007D000221AF8021081540132062AF9D13B
:10A7000006E0534602A95A5CC2540133062BF9D124
:10A7100039460630FEF716FA3146FEF713FA10995D
:10A72000FEF710FA1199FEF70DFA04F10801FEF791
:10A7300009FA1399FEF706FA0021A14203D06A5CD8
:10A7400042540131F9E70019002313998B4204D0D8
:10A75000129AD15CC1540133F7E704F12C0808EBDD
:10A7600003001FFA80F849465FFA88F20520FEF7D9
:10A770002FFE052001A9FEF717FE019805B0BDE8E0
:10A78000F08F00BFD81E002037B50B4B01469D68E7
:10A7900002AC05F10900FEF7D5F94FF0FF3044F89F
:10A7A000040D294604220620FEF712FE062021464B
:10A7B000FEF7FAFD01983EBDD81E002037B548F2DD
:10A7C000080248F2080102408A42034613490BD1AD
:10A7D0000020934281F840001FD023F4004424F06D
:10A7E000080545F4004302E0012081F840000B49D0
:10A7F0004FF0FF328D6802AC194605F1090044F8AC
:10A80000042DFEF79FF9294604220820FEF7E0FDFB
:10A8100008202146FEF7C8FD01983EBDD81E002045
:10A8200073B50C4B01469D684FF0FF3602AC05F145
:10A8300009000196FEF786F944F8046D29460422C2
:10A840000A20FEF7C5FD0A202146FEF7ADFD01985E
:10A850007CBD00BFD81E002007B50D4A4FF0FF3366
:10A860000193916890B154234370037083704B72CD
:10A8700042788A7280780322C8720C20FEF7A8FD05
:10A880000C2001A9FEF790FD019800E018460EBDCE
:10A89000D81E002000F0010383F0010003B962B666
:10A8A00070470000F8B50446EFF3108772B60E4EFD
:10A8B000337A9C4209D0052C01D0012506E00B48D3
:10A8C000C16988470028F8D1347200253846FFF75F
:10A8D000E1FF054B15B15A69002AE5D05869D0F15E
:10A8E000010038BF0020F8BD2C1F0020D81E00201A
:10A8F0000F4B10B500220F490F4C1A721961DA8004
:10A90000DA609A801860A36A104698470B4800F0F6
:10A91000FDF9206A80474FF47A7000F0F7F90120C2
:10A92000A26A90470120BDE81040FFF7BBBF00BFFF
:10A930002C1F002044230020D81E0020E093040098
:10A9400010B5054C636A98470020A16A8847034800
:10A950000022026110BD00BFD81E00202C1F002065
:10A96000024B4FF480725A60704700BF00E100E074
:10A970002DE9F84307460E4614461D46EFF31080B6
:10A9800072B6DFF88080A4B298F80890FFF782FFD3
:10A99000002000F0EDFD012037B93146224600F0DD
:10A9A0006FFD3846154906E0D8F81010224600F031
:10A9B00067FD00203146224600F062FD104802216A
:10A9C000012201F068FD012000F0D2FD9DB1EFF3FE
:10A9D000108072B60B4C257AFFF75CFFA945234621
:10A9E00002D16269002AF2D05869D0F1010038BF63
:10A9F0000020BDE8F8832846BDE8F8831003002056
:10AA0000580002402C1F0020CB074CBF0B464B1CAC
:10AA100010B5C3F3072444700024C4700471054CBE
:10AA200001220270837084F84120034AD060918033
:10AA3000581D10BDD81E00202C1F00202DE9F0410C
:10AA400004460D46EFF3108072B6384E377AFFF7A2
:10AA500021FF17B1012F2AD104E00120FFF722FFC7
:10AA600000285FD0EFF3108872B60321377A317275
:10AA700000F0A8FE4046FFF70DFF20462946FFF7ED
:10AA8000C3FF0646002F4DD0322000F03FF90120D1
:10AA9000214604220346FFF76BFF002842D03220F4
:10AAA000B5B200F033F90120211D2A1F30E0022049
:10AAB000FFF7F8FE002835D0EFF3108772B61B4B76
:10AAC0001E7AB21E504250EB020656B1EFF31088C8
:10AAD00072B604211A7A197200F074FE4046FFF72C
