:020000040800F2
:1050000000500020B9A2000895920008979200086D
:10501000A1920008AB920008B592000800000000C1
:10502000000000000000000000000000BF92000827
:10503000C192000800000000C3920008C592000859
:105040000DA300080DA300080DA300082D9500086E
:105050000DA300080DA30008359300085593000820
:1050600075930008A9930008C99300080DA30008D0
:105070000DA300080DA300080DA3000895950008D6
:105080000DA300080DA30008D59200080DA3000889
:10509000999500080DA300080DA30008E9930008E6
:1050A0000DA300080DA300080DA30008B19400088B
:1050B000FD9400080D9500081D9500080593000853
:1050C000159300080DA300080DA300082593000800
:1050D0000DA30008E5920008F59200080DA3000852
:1050E00039940008559500080DA300080000000041
:1050F00000000000000000000000000000000000B0
:0C51000000000000000000005FF808F153
:1051100081F0004102E000BF83F0004330B54FEA68
:1051200041044FEA430594EA050F08BF90EA020FD5
:105130001FBF54EA000C55EA020C7FEA645C7FEA68
:10514000655C00F0E2804FEA5454D4EB5555B8BF8B
:105150006D420CDD2C4480EA020281EA030382EAFC
:10516000000083EA010180EA020281EA0303362D8E
:1051700088BF30BD11F0004F4FEA01314FF4801C61
:105180004CEA113102D0404261EB410113F0004F73
:105190004FEA03334CEA133302D0524263EB43032A
:1051A00094EA050F00F0A780A4F10104D5F1200EC8
:1051B0000DDB02FA0EFC22FA05F2801841F1000123
:1051C00003FA0EF2801843FA05F359410EE0A5F1F7
:1051D00020050EF1200E012A03FA0EFC28BF4CF028
:1051E000020C43FA05F3C01851EBE37101F00045DE
:1051F00007D54FF0000EDCF1000C7EEB00006EEBEB
:105200000101B1F5801F1BD3B1F5001F0CD3490874
:105210005FEA30004FEA3C0C04F101044FEA4452CB
:1052200012F5800F80F09A80BCF1004F08BF5FEA52
:10523000500C50F1000041EB045141EA050130BD32
:105240005FEA4C0C404141EB010111F4801FA4F1D5
:105250000104E9D191F0000F04BF01460020B1FA2A
:1052600081F308BF2033A3F10B03B3F120020CDA62
:105270000C3208DD02F1140CC2F10C0201FA0CF040
:1052800021FA02F10CE002F11402D8BFC2F1200CA5
:1052900001FA02F120FA0CFCDCBF41EA0C0190405B
:1052A000E41AA2BF01EB0451294330BD6FEA0404A4
:1052B0001F3C1CDA0C340EDC04F11404C4F120028F
:1052C00020FA04F001FA02F340EA030021FA04F3A1
:1052D00045EA030130BDC4F10C04C4F1200220FAF8
:1052E00002F001FA04F340EA0300294630BD21FA36
:1052F00004F0294630BD94F0000F83F4801306BFFC
:1053000081F480110134013D4EE77FEA645C18BFEF
:105310007FEA655C29D094EA050F08BF90EA020F86
:1053200005D054EA000C04BF1946104630BD91EA7E
:10533000030F1EBF0021002030BD5FEA545C05D181
:105340004000494128BF41F0004130BD14F58004C0
:105350003CBF01F5801130BD01F0004545F0FE4134
:1053600041F470014FF0000030BD7FEA645C1ABF69
:10537000194610467FEA655C1CBF0B46024650EAA0
:10538000013406BF52EA033591EA030F41F40021CC
:1053900030BD00BF90F0000F04BF0021704730B552
:1053A0004FF4806404F132044FF000054FF0000127
:1053B00050E700BF90F0000F04BF0021704730B5E8
:1053C0004FF4806404F1320410F0004548BF4042BD
:1053D0004FF000013EE700BF42004FEAE2014FEA12
:1053E00031014FEA02701FBF12F07F4393F07F4FED
:1053F00081F06051704792F0000F14BF93F07F4F1F
:10540000704730B54FF4607401F0004521F0004161
:1054100020E700BF50EA010208BF704730B54FF0E7
:1054200000050AE050EA010208BF704730B511F0EC
:10543000004502D5404261EB41014FF4806404F124
:1054400032045FEA915C3FF4DCAE4FF003025FEAA6
:10545000DC0C18BF03325FEADC0C18BF033202EB2E
:10546000DC02C2F1200300FA03FC20FA02F001FA88
:1054700003FE40EA0E0021FA02F11444C1E600BF27
:1054800070B54FF0FF0C4CF4E06C1CEA11541DBFDA
:105490001CEA135594EA0C0F95EA0C0F00F0DEF8A5
:1054A0002C4481EA030621EA4C5123EA4C5350EA8A
:1054B000013518BF52EA033541F4801143F48013DB
:1054C00038D0A0FB02CE4FF00005E1FB02E506F06C
:1054D0000042E0FB03E54FF00006E1FB03569CF0C1
:1054E000000F18BF4EF0010EA4F1FF04B6F5007FC7
:1054F00064F5407404D25FEA4E0E6D4146EB060639
:1055000042EAC62141EA55514FEAC52040EA5E50C1
:105510004FEACE2EB4F1FD0C88BFBCF5E06F1ED86B
:10552000BEF1004F08BF5FEA500E50F1000041EBA2
:10553000045170BD06F0004646EA010140EA02004F
:1055400081EA0301B4EB5C04C2BFD4EB0C0541EA71
:10555000045170BD41F480114FF0000E013C00F386
:10556000AB8014F1360FDEBF002001F0004170BDAA
:10557000C4F10004203C35DA0C341BDC04F11404C3
:10558000C4F1200500FA05F320FA04F001FA05F24F
:1055900040EA020001F0004221F0004110EBD3701C
:1055A00021FA04F642EB06015EEA430E08BF20EA48
:1055B000D37070BDC4F10C04C4F1200500FA04F3EB
:1055C00020FA05F001FA04F240EA020001F000417D
:1055D00010EBD37041F100015EEA430E08BF20EAF0
:1055E000D37070BDC4F1200500FA05F24EEA020E38
:1055F00020FA04F301FA05F243EA020321FA04F067
:1056000001F0004121FA04F220EA020000EBD3701D
:105610005EEA430E08BF20EAD37070BD94F0000F1D
:105620000FD101F00046400041EB010111F4801F51
:1056300008BF013CF7D041EA060195F0000F18BF02
:10564000704703F00046520043EB030313F4801F3E
:1056500008BF013DF7D043EA0603704794EA0C0FF8
:105660000CEA135518BF95EA0C0F0CD050EA41060E
:1056700018BF52EA4306D1D181EA030101F000418B
:105680004FF0000070BD50EA410606BF10461946B3
:1056900052EA430619D094EA0C0F02D150EA0136BF
:1056A00013D195EA0C0F05D152EA03361CBF104600
:1056B00019460AD181EA030101F0004141F0FE419F
:1056C00041F470014FF0000070BD41F0FE4141F423
:1056D000780170BD70B54FF0FF0C4CF4E06C1CEA23
:1056E00011541DBF1CEA135594EA0C0F95EA0C0FD8
:1056F00000F0A7F8A4EB050481EA030E52EA033593
:105700004FEA013100F088804FEA03334FF08055B3
:1057100045EA131343EA12634FEA022245EA1115E0
:1057200045EA10654FEA00260EF000419D4208BF91
:10573000964244F1FD0404F5407402D25B084FEA3E
:105740003202B61A65EB03055B084FEA32024FF4EA
:1057500080104FF4002CB6EB020E75EB030E22BF47
:10576000B61A754640EA0C005B084FEA3202B6EB07
:10577000020E75EB030E22BFB61A754640EA5C00B6
:105780005B084FEA3202B6EB020E75EB030E22BF46
:10579000B61A754640EA9C005B084FEA3202B6EB47
:1057A000020E75EB030E22BFB61A754640EADC0006
:1057B00055EA060E18D04FEA051545EA16754FEA68
:1057C00006164FEAC30343EA52734FEAC2025FEA86
:1057D0001C1CC0D111F4801F0BD141EA00014FF015
:1057E00000004FF0004CB6E711F4801F04BF0143E6
:1057F0000020B4F1FD0C88BFBCF5E06F3FF6AFAE02
:10580000B5EB030C04BFB6EB020C5FEA500C50F191
:10581000000041EB045170BD0EF0004E4EEA113114
:1058200014EB5C04C2BFD4EB0C0541EA045170BD1B
:1058300041F480114FF0000E013C90E645EA060E5F
:105840008DE60CEA135594EA0C0F08BF95EA0C0F8D
:105850003FF43BAF94EA0C0F0AD150EA01347FF4D5
:1058600034AF95EA0C0F7FF425AF104619462CE7AC
:1058700095EA0C0F06D152EA03353FF4FDAE10460F
:10588000194622E750EA410618BF52EA43067FF460
:10589000C5AE50EA41047FF40DAF52EA43057FF4F0
:1058A000EBAE12E74FF0FF3C06E000BF4FF0010CFB
:1058B00002E000BF4FF0010C4DF804CD4FEA410C5F
:1058C0007FEA6C5C4FEA430C18BF7FEA6C5C1BD02C
:1058D00001B050EA410C0CBF52EA430C91EA030FAD
:1058E00002BF90EA020F0020704710F1000F91EA0A
:1058F000030F58BF994208BF90422CBFD8176FEAD8
:10590000E37040F0010070474FEA410C7FEA6C5CA5
:1059100002D150EA013C07D14FEA430C7FEA6C5CAC
:10592000D6D152EA033CD3D05DF8040B704700BFD8
:105930008446104662468C461946634600E000BF26
:1059400001B5FFF7B7FF002848BF10F1000F01BDF8
:105950004DF808EDFFF7F4FF0CBF012000205DF8C3
:1059600008FB00BF4DF808EDFFF7EAFF34BF012048
:1059700000205DF808FB00BF4DF808EDFFF7E0FFE1
:1059800094BF012000205DF808FB00BF4DF808ED32
:10599000FFF7CEFF94BF012000205DF808FB00BF99
:1059A0004DF808EDFFF7C4FF34BF012000205DF87B
:1059B00008FB00BF4FEA410212F5001215D211D5C3
:1059C0006FF47873B3EB625212D94FEAC12343F0FC
:1059D000004343EA505311F0004F23FA02F018BF7E
:1059E000404270474FF00000704750EA013005D147
:1059F00011F0004008BF6FF0004070474FF000000A
:105A0000704700BF836870B5032B044604D0042B95
:105A10000CBF0A25002500E00C2504F10C0393E8D7
:105A2000070000F039FA236A023005447BB104F123
:105A30002C0393E8070000F02FFA04F13803064620
:105A400093E8070000F028FA3044061D3544E36C63
:105A50000BB9636D3BB104F14C0393E8070000F010
:105A60001BFA02300544A36D0BB9236E33B15834D1
:105A700094E8070000F010FA02300544284670BD93
:105A8000F7B50646019010460D461446FFF7BAFFDB
:105A9000074600F069F9A8426FDC002101226FF38C
:105AA000070162F3071101A8C9B200F087F9019D4F
:105AB0003946284600F01EF92844A5680190042DB7
:105AC00001A805D12F4900F097F901A8294604E063
:105AD0002D4900F091F901A8032100F06FF900258C
:105AE000E3696FF3070563F34105236A003318BFC9
:105AF000012363F382052BB1A36C63F3C405636CCC
:105B000063F34515E36C0BB9636D0BB145F080058C
:105B1000A36D0BB9236E0BB145F0400501A8E9B2A6
:105B200000F04CF901A8A16900F04EF904F10C0352
:105B30000ECB01A800F074F9236A5BB104F12C03C9
:105B40000ECB01A800F06CF904F1380301A80ECBCC
:105B500000F066F92A0605D504F14C0301A80ECB26
:105B600000F05EF96B0605D5583401A894E80E00E4
:105B700000F056F90198801B01E06FF0010003B0BE
:105B8000F0BD00BF185701081D57010873B5064640
:105B900002AC684644F8081D00F00AF9C0F303108F
:105BA000022812D1009D01A9284600F0EFF8019BC0
:105BB0000544012B009509DD684600F0F9F86846B8
:105BC00000F0F6F83060012000E0002002B070BD67
:105BD00037B501290446019010DD00216FF307015C
:105BE00062F3071101A8C9B200F0E8F8019D002195
:105BF000284600F07FF82844001B01E06FF0010008
:105C000003B030BD0C22FFF7E3BF2DE9F3411F467F
:105C10000B9B054600936846002390460E46019371
:105C200000F0C6F8002460F30704C4F3C0032B603F
:105C3000009DC4F3410304F0010433602846C8F812
:105C4000004001A900F0A2F8019B054400951D4405
:105C50000446694608982A4600F004F988B1009B7A
:105C6000EB1A002B0DDB3368002B03DD684600F0D8
:105C700097F83860009B0A9AED1A1560099A01247A
:105C80001360204602B0BDE8F081F7B5054602ACCE
:105C900068460F46164644F8083D00F089F8002390
:105CA00060F30703C3F3C0021B093A602B60009D39
:105CB00001A9284600F06AF8019B0544012B0095D4
:105CC00004DD684600F06CF83060012003B0F0BDE0
:105CD00030B5074C002322688B4203DAD55C0133D0
:105CE0000570F9E70029A8BF52182260084630BDA8
:105CF0006804002010B500220B4B0B40002B03DA88
:105D0000013B63F07F030133802491FBF4F1DBB2AC
:105D1000002902F10102C8BF23438418002904F8B6
:105D2000013CE9DC104610BD7F000080F7B500247F
:105D300007460E460C6001250134052C11D00DF1EB
:105D400007000121B84701280BD19DF807303268C0
:105D500003F07F0105FB01221B0632604FEAC515E7
:105D6000EAD4204603B0F0BD431C7F2B01DC023097
:105D70007047B3F5804F01DA03307047024A93420F
:105D8000D4BF043005307047FEFF1F00024B18607F
:105D90000248FFF7CBBF00BF68040020D15C0008B9
:105DA000036819785A780233036002EB01207047C8
:105DB0000368024613F8010B1360704703681970FB
:105DC000036801330360704703684FF4807291FBEE
:105DD000F2F21A700268531C0360064B0B40002B52
:105DE00003DA013B63F0FF030133537003680133AF
:105DF00003607047FF00008070B5044608460E46F9
:105E000009F0D4FA054629462046FFF7DDFF2A4669
:105E10002068314609F080F923681D44256070BD73
:105E200030B585B004AC04E90E00029C0546002C98
:105E300001990CDD2146FFF7C7FF22462868039928
:105E400009F06AF92B681C442C6005B030BD21B103
:105E500005B0BDE83040FFF7CFBF05B0BDE830402A
:105E6000FFF7B2BF0B6870B5D31A012B05460C467D
:105E7000164601DC00200CE00846FFF791FF23687E
:105E800068601A189642F5D3AB6023681844206006
:105E9000012000232B6070BD84B004AB03E9070030
:105EA000019810B104B009F081BA029804B07047AB
:105EB00070B504680E4624B1204609F077FA05460D
:105EC00001E084684568304609F070FA854209D1DE
:105ED000204631462A4609F071FAD0F1010038BF58
:105EE000002070BD002070BD30B585B001AC84E8E5
:105EF0000E00054694E80700FFF7CEFF089B02302E
:105F00001844002DC8BF023005B030BD2DE9FF4751
:105F1000129E0EAC00960D4603908046924618469F
:105F20001F4694E80E00FFF7DFFF8146FFF71CFFD6
:105F3000A8422ADC0323002163F307116AF3C3019B
:105F40000C9B67F3420163F3000103A8C9B2FFF79A
:105F500035FF039D49462846FFF7CCFE94E80E0026
:105F60002844039003A8FFF75BFF002F03DD03A87D
:105F70000D99FFF729FF03981199324609F0CCF8E3
:105F800003983044C8EB000001E06FF0010004B05A
:105F9000BDE8F08737B503290446019017DD0021DD
:105FA00062F3071163F3C30101A801F0F901FFF7E0
:105FB00005FF019D02212846FFF79CFE2844019021
:105FC000069901A8FFF700FF0198001B01E06FF0A0
:105FD000010003B030BDF8B506460F460225002487
:105FE000B4420ADA0C2303FB047393E80700FFF7BB
:105FF00053FF033005440134F2E72846F8BD2DE98C
:10600000F34E0A9F0B9D0C460190294606463846E2
:1060100093469946FFF7DFFF8246FFF7A5FEA042B1
:106020002EDC002108236FF3070163F307116BF3E4
:10603000C301012363F3420101A8C9B2FFF7BEFE09
:10604000019C51462046FFF755FE204401904946E9
:1060500001A8FFF7B9FE0024BC420EDA0C2303FBB3
:10606000045301A80ECBFFF7DBFE0C9B01A813F82D
:106070002410FFF7A3FE0134EEE70198801B01E036
:106080006FF0010002B0BDE8F08E2DE9F3479946AC
:106090000A9B824602AC684644F8083D884615468D
:1060A000FFF786FE009E01A93046FFF76FFE019BB9
:1060B0000644012B009606EB030718DD6846FFF740
:1060C0006FFE0023CAF800002B60009BBB420AD27F
:1060D0002E68464509DC731C2B606846FFF768FE96
:1060E00049F82600F1E7012001E04FF0FF3002B04F
:1060F000BDE8F087014B0360704700BFC013010883
:10610000704770477047000010B5034B04460360AA
:1061100001F02EF8204610BDC013010810B5064C42
:10612000204603F054FD08B10123237202483221B6
:10613000BDE8104003F036BD6C040020F8B5144CE7
:106140000546AA6804F10901406809F037F92B688F
:10615000D0F101069F68DD680E4839462A4638BFEF
:10616000002609F02BF938B9012316B184F849301B
:10617000F8BD84F84A30F8BD074839462A4609F088
:106180001DF918B916B9012384F84B30F8BD00BFCA
:106190006C040020245701082D570108F8B5054666
:1061A0000F4616460024BC420BDA0848317801F04D
:1061B0001BFC28553378013333702B5D2BB1013430
:1061C000F1E73D44002305F8013CF8BD420A0020F8
:1061D0002DE9F34180460C462048002117461E4613
:1061E000099D8DF8071001F0FFFB012832D19DF8C1
:1061F00007101A484B1C8DF8073001F0F5FB9DF88D
:10620000071088F800004B1C14488DF8073001F087
:10621000EBFB9DF8071080464B1C10488DF80730AB
:1062200001F0E2FB9DF8073048EA002020800133AE
:1062300002AC04F8013D384629462246FFF7AEFF7E
:10624000304629462246FFF7A9FF089829462246EC
:10625000FFF7A4FF02B0BDE8F08100BF420A0020B2
:10626000094B10B593F84C2004463AB9012207486F
:106270004FF4165183F84C2002F06CFB2146034882
:10628000BDE8104001F059BD6C040020740C0020E2
:106290002DE9F84305460E4617460024B44203DABA
:1062A000384603F094FC70B1B44208D105F1D00037
:1062B000D5F8D81003F06BFC0020BDE8F8834FF050
:1062C000FF30BDE8F8833846D5F8008003F072FC53
:1062D00004F10809A944034649464046324603F002
:1062E00079FD0028EBDB0444D8E737B50446D0300D
:1062F00003F06DFCD8B194F8DC50A5B94FF47A7175
:10630000684603F03BFC642104F10800FFF77AFCC7
:10631000011E0BDD20466A46FFF7BAFF38B901239C
:1063200084F8DC3003E04FF0FF3000E0284603B093
:1063300030BD2DE9F74305460446084655F86C7B09
:106340000E4603F037FC294603460122384603F087
:1063500047FD0128074602D04FF0FF3033E03046BA
:1063600003F028FC4FF0050881460025B8F101082C
:1063700012D020680DF1070101224B4603F030FDD9
:10638000012809D19DF8072002F07F0307FB035580
:1063900013064FEAC717E9D4294604F16D00FFF749
:1063A000A9FC204400F16D083046276803F002FC88
:1063B000414603462A46384603F012FDA842CBD197
:1063C00094F86C00000903B0BDE8F0832DE9F043B8
:1063D00091B004468846FFF7ACFF831E06460B2BA0
:1063E0005FD8DFE803F05E065E345E5E5E5E5E5E92
:1063F0005E510EAB01930FAB029304F16C03039358
:106400000CAD64230DF118090493CDF800900DF143
:10641000320029460DF131020DABFFF7F6FB0128E2
:1064200078D1089B09950A93079B04F1E8050B9323
:10643000002755F8041C21B14846FFF739FD002814
:1064400039D10137052F05F11005F2D120E064257F
:10645000009506A809A90CAA04F16C03FFF715FC26
:10646000012854D10C9B2946009304F10800062210
:106470000023FFF78FFD011E49DD20464246FFF74E
:1064800007FF002843D10CE0002584F8DC5009E028
:1064900004F59A75284603F0E3FE98BB9DF830306A
:1064A0007BB90025D4F8D83013B12046FFF71DFF83
:1064B00085B32E462EE0284603F0D2FE0028C0D039
:1064C00020E0012B07D1BDF8343004F1080000931F
:1064D0006421042208E0022B19D1BDF8343004F104
:1064E00008000093642105220023FFF753FD0028D4
:1064F00001460CDD20464246FFF7CAFE431C054616
:10650000D0D1D6E7284609A903F096FEC6E74FF09A
:10651000FF35CEE7304611B0BDE8F083F8B5074649
:106520000E4615464FF0FF34284603F050FB30B9B5
:1065300038462946FFF74AFFB0420446F4D12046C8
:10654000F8BDF0B5044691B00F460BA861680DAEDA
:10655000154603F013FB0C223046002108F000FE24
:106560002B780D975A1ED2B2012A0AD8D4F8E0200F
:106570004FF6FF718A4214BF01320122C4F8E020B5
:10658000AA806A7802AF0092AA88019296E8070072
:1065900087E80700AA6864210592EA6804F1080008
:1065A00006920022FFF7B2FC011E02DC4FF0FF3022
:1065B00024E020460BAAFFF76BFEF8B92B78012BDD
:1065C00006D1204604210BAAFFF7A8FF042807E004
:1065D000022B13D1204607210BAAFFF79FFF0728A4
:1065E000E4D16423009308A809A90AAA04F16C0362
:1065F000FFF74BFB013818BF6FF0000011B0F0BD82
:106600001FB5044600211022684608F0A9FD204667
:10661000029408F0CBFE074C039004F10901206DB1
:106620006A46FFF78EFF013002D1606D03F0BAFBBE
:1066300004B010BD6C04002030B504469DB00D467A
:1066400001A8616803F09AFA03AB184664221D4959
:1066500008F062FD002D08BF0546A96904F1D000CD
:10666000C4F8D81003F093FA642104F108002A4614
:10667000FFF706FA011E20DD204601AAFFF708FEFB
:10668000E8B92046022101AAFFF748FF022814D1E9
:106690001CA84FF0FF3540F8705D04F16C016846AE
:1066A0006422FFF773FA0128034604D1009830B939
:1066B00084F8403103E0284601E04FF0FF301DB080
:1066C00030BD00BFF41201082DE9F04104468EB040
:1066D0000E4609A861680BAD1F468DF8172003F020
:1066E0004DFA284600210C2208F03AFD94F840317A
:1066F0000B9613B94FF0FF354EE0D4F8E0304FF66B
:10670000FF7293424FF0010214BF9B1813468DE8AD
:1067100024000DF117020292642104F10800C4F86C
:10672000E0300022FFF76BFC011EE3DD204609AAE2
:10673000FFF7AEFD054678BB2046092109AAFFF701
:10674000EDFE0928D6D14FF0FF33079304F16C0317
:1067500000936423019308A8012106AA07AB0695BC
:10676000FFF793FC012802D1079D802D14D0002251
:1067700004EB0213D3F8E480B8F1000F09D10E3214
:1067800004EB021046603946083003F053FD4546DD
:1067900002E00132052AEBD128460EB0BDE8F081B7
:1067A00038B5174C606D03F0F4FAB0B1206D0021DC
:1067B000FFF742FF054658B94FF6FF7006F016F88E
:1067C000206D04F158012A462B46FFF77DFF38BDA6
:1067D000606DBDE8384003F0E5BA04F1980003F0BD
:1067E000F6F940B1C82000F029FFBDE8384001208B
:1067F000014600F0FFBCC820BDE8384000F01EBFD5
:106800006C04002013B5104C3C2104F1980003F0F7
:10681000BEF9606D03F0D4FA48B168464FF4FA51FE
:1068200003F0ACF9206D6946FFF7D0FD05E0206D5F
:10683000D0F8D83033B1FFF758FD013002D1606D88
:1068400003F0B0FA02B010BD6C04002038B502F0BD
:10685000FDF828B125487821BDE8384003F097B904
:10686000234C606D03F0A4FA10B1FFF7CBFF01E0F9
:10687000FFF796FF237A1E4D43B1284603F0A7F990
:1068800020B1042000F094FE012822D094F84A3070
:10689000174D3BB1D5F8A00003685B68984700230B
:1068A00085F84A3094F84930114D3BB1D5F8A00035
:1068B00003689B689847002385F8493094F84B306B
:1068C00093B10C48FFF79CFE094B002283F84B2044
:1068D00038BD0948FFF794FED5F8A00003681B688F
:1068E000984700232B72D1E738BD00BF0405002074
:1068F0006C0400205A5701082457010873B5224C34
:10690000002504F1A4062B4629462A460095304668
:1069100001F0C2F930461D491D4A08F0A1FB1D4A8D
:10692000C823506E916ED26EC4F8AC00C4F8B41097
:10693000C4F8C000C4F8C81040F6B83604F1D4005A
:106940000221A4F8B230C4F8B820A4F8C630C4F8C4
:10695000CC20A4F8D23084F8B05084F8BC50A4F80D
:10696000BE6084F8C45084F8D05000F027FC29465B
:1069700004F1980003F002F92046294602B0BDE870
:10698000704003F0FBB800BF6C040020F560000805
:10699000EC060020F4120108F8B505460F46002465
:1069A000184801F0C3FF0028FADD164801F0BCFFCB
:1069B000BC42C1B205D100232B70124801F0C6F9C8
:1069C00015E00D29F7D00A29F5D0082901D07F2933
:1069D00004D1002CE4D06E1E013C02E06E1C297034
:1069E00001340848E4B201F0A5FF3546D8E7054870
:1069F00001F09CFF002803DD024801F095FFF6E757
:106A0000F8BD00BF740C002030B589B000F014FE52
:106A1000002104461C4800F0E7FF054640F2DC5028
:106A200000F00CFE19481A4901F087F9212D06D112
:106A300000F002FE40F6AC53001B984221D81348E8
:106A400001F072FFC0B20D2801D00A28EED16420F7
:106A500000F0F4FD002508AC0E490C4804F8205D58
:106A600001F06BF968462021FFF796FF9DF8003092
:106A70000121312B04480CBF0A462A4600F0C8FF0A
:106A8000E8E709B030BD00BF420A0020740C0020C6
:106A900094570108B85701082DE9F0415048A6B0B5
:106AA0004FF4165101F056FFFFF7AEFF4D4B1B7828
:106AB00013B94B4801F051FF4B4D402306AC0193F5
:106AC0000DF10D0016AB0DF10E0105F1D50200948C
:106AD000FFF77EFB4248454901F044F99DF80D302F
:106AE000012B09D1082000F041FB414B0360112329
:106AF0000371C5F8A00009E0102000F037FB072162
:106B00000646112203F058FAC5F8A060394B3A4EF8
:106B100000933268402116AB384808F015FC009409
:106B200016AB32684021364808F00EFC0C2000F00D
:106B30001DFB3449BDF80E20044603F01DF94FF447
:106B4000A2706C6500F012FB6B6D064646F8D03BF8
:106B500004460021304603F011F80023C4F8E03069
:106B600004F1E80704F59C783846103703F05EFB23
:106B70004745F9D104F59A7804AF404603F056FB37
:106B80003846002102F0FAFF97E8030000234FF493
:106B9000FA5286E8030084F8DC30C4F8E430C4F824
:106BA000F430C4F80431C4F81431C4F8243184F842
:106BB00040316260404614492C6503F03BFB0420E1
:106BC000022100F02BFC02220420104900F0D4FF27
:106BD0000F48782102F0DBFF26B0BDE8F08100BF4E
:106BE000740C0020D30C00206C040020D357010843
:106BF00070150108EA57010800000020C4040020B5
:106C000075040020410500203D6100081D61000859
:106C100004050020013101EB420291420BD0030F29
:106C2000092B94BF3033373301F8013C00230001B6
:106C300001F8023BF1E770471F4B10B51A88032A91
:106C400004D804200146188006F0ACFD4FF0006027
:106C50004FF4A04106F09CFD0124184B1848214632
:106C60001C7006F0ABFF05F057FF05F045FC214610
:106C7000402007F05BF86FF07F4005F0B7FDE7209C
:106C800005F028FE0F4B1C7005F080FC7D2007F0FE
:106C90007DF818B10C4B1C7007F08CF840F6B8303A
:106CA00005F0D6FC06F02AFA06F034FB074A00236A
:106CB0001370074A137010BD400E00201C0E0020F8
:106CC00000043000A00C00200C170020240D002030
:106CD0001A0D002038B52E4C2388042B04D805212A
:106CE0000420218006F05EFD2388062B05D8284B62
:106CF00007210420198006F055FDFFF7CDFE254B36
:106D000001221A701A781D4612B1234802F04EF87B
:106D10002B7853B12388052B05D81D4B0621042061
:106D2000198006F03FFD02F043F92B7863B11B4B4D
:106D30001B784BB91A4B1B7833B11A4B1B781BB914
:106D4000194B1B78002BE3D0184B1B78002BDFD19D
:106D5000174B1B78002BDBD1134B01221A70154BFC
:106D6000002BD5D02388072B05D8094B08210420F8
:106D7000198006F017FDFFF769FD2388082BC7D897
:106D8000034B09210420198006F00CFDC0E700BF69
:106D9000400E0020240D002025720008D90C002090
:106DA0001A0D00209E0C0020840500209F0C00205E
:106DB0000C1700204D680008F8B5524B1A6812B144
:106DC0001A68013A1A60504B504D1B783BB1504B3A
:106DD0001B78002B28D04F4B002B47D124E04E4C82
:106DE0002368264613B12368013B0FE04B4B1B7809
:106DF000D3B94B4B1B78BBB94A4B1B78A3B94A4F4D
:106E00003B782BB1E72005F0D1FD142323600BE084
:106E10002B78002B2DD1E72005F082FD434B1B780A
:106E2000002B34D0322333602B7833B1404C23789D
:106E30001BB92EE05A6801325A603E4B1A68B2F50F
:106E40007A7F0FD300221A6006F010FF3A4B4FF6FC
:106E5000FF711A888A4254D019800420BDE8F84096
:106E600006F0A0BC1A6801321A60F8BD00F0DCF927
:106E7000DAE7324B1B78002BCDD04FF6FF7005F0D0
:106E8000B5FCE72005F026FD01233B70CCE7642329
:106E9000C9E7234B1B788BB1294B47F22F52596816
:106EA0009142C7D9BFF34F8F264A274BD16801F4CF
:106EB000E0610B43D360BFF34F8FFEE7174B1B78A6
:106EC00003F0FF0533B9284605F086FE40F6B733D8
:106ED00098420DD8002005F07FFE41F657339842C6
:106EE000ABD9002005F080FE184B01221A70A4E7F0
:106EF000284605F079FE2378002B9ED101F0A0FDF5
:106F00009BE7F8BD14170020FC0D0020240D002085
:106F1000460900202972000810170020D30C002019
:106F20009F0C0020A10C0020A00C00209D0C002034
:106F3000D90C002018170020400E00209E0C0020C5
:106F40008405002000ED00E00400FA05D20C0020CA
:106F500008B5094B186006F077F8002006F0C0F875
:106F6000064805F0EDFA06F087F806F0A5F8BDE84A
:106F7000084007F045BE00BFBC020020A08601000B
:106F8000074B1B68052B08D1064B1A7A012A04D13E
:106F9000987A1B7BC01AC0B270470020704700BFB0
:106FA000440E0020840500200D4B10B51B68052BF6
:106FB00013D10C4C237A012B0FD16289A389D31AE8
:106FC000012B04D100230320237207F070FFA38953
:106FD0005A1CA2811C44A07B10BD4FF0FF3010BD95
:106FE000440E00208405002008B50C4B1B68052BBF
:106FF00012D10B4B1A6D99180132B2F5807F08BF80
:10700000002281F854001A6505F002FF20B16420C7
:10701000BDE8084005F094BA08BD00BF440E00204A
:1070200084050020F8B5234B93F85421012A3FD062
:10703000D3F85821196DB2F5807F04BF0022C3F840
:107040005821D3F858411B4A8C4203D1002382F8BF
:107050005431F8BD8CBFC4F58071C4EB0101C2F896
:107060005C11D3F85C61134D402EA2B207D94034B5
:10707000403EC5F85841C5F85C61402706E03444FD
:107080000021B7B2C5F85841C5F85C110A4801247F
:107090001044C0213A4683F8544107F083FE20464D
:1070A000394607F087FF2046BDE8F84007F0ECBE00
:1070B000F8BD00BF84050020D8050020094B10B59D
:1070C00093E8140008331B68D0180AD00649082238
:1070D000FFF7A0FD204605490422BDE81040FFF758
:1070E00099BD10BDE8F7FF1F69020020790200205A
:1070F00013B5084C002100910A460B46204600F0CB
:10710000CBFD0549054A204602B0BDE8104007F016
:10711000A7BF00BFE4060020F5600008EC060020D1
:1071200038B504460D46AC4203D254F8043B9847A8
:10713000F9E738BD08B507480749FFF7F1FF0748E9
:107140000749FFF7EDFFBDE8084006480649FFF78D
:10715000E7BF00BFB85C0108B85C0108B85C010873
:107160002C5D01082C5D01082C5D010807F0C4BFEF
:1071700007F0CABF08B5072006F0F0F9FEE70000E7
:10718000074A08B5136818441060064A904204D9AB
:10719000082006F0E3F907F091FF184608BD00BF8C
:1071A00004000020004800204FF0FF30704701200D
:1071B000704708B50C2006F0D1F9FEE7012908D088
:1071C00002D3022905D07047054B00221A70012214
:1071D00002E0034B00221970024B1A70704700BF87
:1071E000F00600201A0D0020014B1878704700BFF0
:1071F000F006002038B50D46044606F003FE28448C
:1072000006F034FE06F042FE14B1012C04D038BD65
:10721000BDE8384001F00EBCBDE8384005F010BABA
:10722000002070477047000038B5114CD4F8345234
:107230002DB1D4F83432013BC4F8343238BDD4F81F
:1072400038320C4A52F8230005F0F8FAE72005F02E
:1072500041FB6423084AC4F83432D4F83832526807
:1072600001339342C4F83832A8BFC4F8385238BD4D
:10727000F006002064130108080000207FB50220FA
:107280000121062204F04EFA041E24DB0223ADF88D
:10729000003000238DF8023035238DF803304FF491
:1072A000FA5008238DF804308DF805308DF806303B
:1072B0008DF8073001F072FD694610220546204620
:1072C00004F0C0FA0646284601F068FD204604F0A6
:1072D00059FA304601E04FF0FF3004B070BD0000B5
:1072E00010B5064C2068002805DB04F04BFA4FF07F
:1072F000FF33236010BD002010BD00BF0800002038
:10730000F0B5A7B0FFF7ECFF02200121062204F040
:1073100009FA304F002838604DDB2F4C0223A4F8C7
:107320003C32162384F83E3205A8332384F83F32DA
:1073300005F05AFF002300939DF814303BB1012B58
:1073400014D0264B01AD03F1100E2A4602E0069B35
:10735000009310E0186859682E4603C60833734539
:107360003546F7D10FCA06AD85E80F000A25009B08
:107370000BB9013D22D1009B0BB9194B0093009B27
:107380004FF4FA501A0E84F840221A0C84F8412265
:107390001A0A84F8433284F8422201F0FFFC1149B2
:1073A00004461022386804F04DFA0546204601F0E4
:1073B000F5FC28460CE04FF0FF3009E006A87E21DE
:1073C00008F012F86A4681B206A804F001FACEE786
:1073D00027B0F0BD08000020F0060020F957010892
:1073E00004E5D0362C09002004F02CBA13B5084C63
:1073F000002100910A460B46204600F04DFC05494D
:10740000054A204602B0BDE8104007F029BE00BF83
:107410003C090020F5600008EC06002014282DE946
:10742000F34104460E4677D8FF2975D000F08CFE54
:1074300020B1A4F10D039BB2022B6DD900F070FBBB
:1074400008B1012C68D901F02DFA20B1A4F1120382
:107450009BB2012B60D918236343314DEA18EF58D2
:10746000304BB2F804809F4201D1042003E02E4B40
:107470009F4203D10820012106F064FCADF804808E
:10748000062E45D8DFE806F0040F171F27313C0011
:1074900010238DF8073003238DF80630182303FBE3
:1074A0000454002333E004238DF80730182303FB32
:1074B000045401232BE048238DF80730182303FBE5
:1074C0000454022323E028238DF80730182303FBFC
:1074D000045403231BE0182303228DF8073003FB19
:1074E00004548DF80620042311E01C238DF8073086
:1074F00003238DF80630182303FB0454052306E00C
:1075000000238DF80730182303FB04540623A373CC
:10751000384601A906F0F4FA02B0BDE8F08100BFD8
:107520001000002000080140000C0140142870B534
:1075300004460E4638D81D4D182303FB00539B7B91
:107540005A1ED2B2022A2FD9062B2DD0FF2B2BD0B8
:1075500000F0FAFD28B1A4F10D039BB2022B00D874
:1075600070BD00F0DDFA10B1012C00D870BD01F043
:1075700099F928B1A4F112039BB2012B00D870BD78
:10758000182303FB04539B7B042B03D120460021CB
:10759000FFF744FF18235C432A192B5992880EB930
:1075A0005A6170BD1A6170BD70BD00BF100000202F
:1075B000142838B5044617D81E4D182303FB005372
:1075C0009B7BFF2B10D0043BDBB2012B0CD900F0CE
:1075D000BBFD20B1A4F10D039BB2022B04D900F036
:1075E0009FFA18B1012C01D8002038BD01F05AF9DA
:1075F00020B1A4F112039BB2012BF5D9182303FB90
:1076000004539B7B062B07D10A4B93F8F811FF29F3
:10761000EAD02046FFF702FF182254432544054BC9
:10762000AA7BA988185912B906F0BEFA38BD06F02F
:10763000B5FA38BD1000002005F012BE30B54FF489
:107640007A7385B01C4C009323680546034423607D
:1076500005F006FE019006F009FB05F001FE029020
:10766000029A019BD31A0393039B002B03DA019B1D
:10767000029A13440393039BAB421AD20F4B1B781D
:10768000002BE8D00E4B1B78002BE4D1039A009B13
:107690009A4203D22368B3F57A7FDCD3039B03F5C8
:1076A0007A73009301F084FC064B1B78002BF9D110
:1076B000D1E705B030BD00BFD40C0020240D002060
:1076C000D90C00209F0C002010B5029C401AE41A2F
:1076D0004443521A94FBF2F0184410BD13B5084C01
:1076E000002100910A460B46204600F0D5FA0549D4
:1076F000054A204602B0BDE8104007F0B1BC00BF0B
:1077000070090020F5600008EC06002038B5184B21
:1077100005461C8803F580631B88A4B29BB22BB975
:107720004EF6EE62A21A18BF012205E0F4B94EF639
:10773000EE629B1A5A425A4192020E4B02F10064C9
:1077400004F5804413449C420ED22268013209D1D0
:10775000204606F0B9F9042809D1A01C294606F0F4
:10776000B3F938BD0434EEE7802038BDAB2038BD16
:1077700000400008FE43000808B5084806F086F9F6
:1077800004280AD10548002106F09EF9042804D1F6
:10779000BDE80840024806F079B908BD004000087D
:1077A00000440008104B10B51C8803F580631B884B
:1077B000A4B29BB21CB10BB1AB2010BD01240B4B8A
:1077C000A40223440A4A224493420AD91A8892B254
:1077D000824204D133F8023C00200B8010BD043BF0
:1077E000F0E7012010BD00BF00400008FE43000884
:1077F00002400008F8B5444E06F008F9434D3488BD
:107800004EF6EE61A4B22B888C429BB24FF6FF720B
:1078100010D0944202D0002C73D142E00BB9304614
:107820006CE08B426DD1304606F030F904286AD105
:10783000284632E04BBB1C461646354B354A1B8862
:1078400032F814509BB2AB4208BFA6B233B29C428E
:1078500003D10134642CF0D10FE02E4F284607F1FC
:10786000C801FFF79FFF0128F3D02846B7F8C810DA
:10787000FFF74CFF0428ECD0F8BD2348002106F0A8
:1078800023F904283FD1214838E0934239D12846D2
:1078900006F0FCF8042836D13046002106F014F931
:1078A000F8BD73B3934201D1284627E016461A4B20
:1078B000184A1B8832F814509BB2AB4208BFA6B2DC
:1078C00033B29C4203D10134642CF0D10FE0114F4C
:1078D000284607F1C801FFF765FF0128F3D02846C5
:1078E000B7F8C810FFF712FF0428ECD0F8BD07481E
:1078F000002106F0E9F8042805D1034806F0C6F88F
:10790000F8BDFFF739FFF8BD00400008004400084B
:107910000640000878090020064400082DE9F843D5
:1079200006460C4606F072F830462146FFF7EEFE9A
:10793000802840D1214B22481988028889B292B20E
:1079400021B1002A36D11D46814601E005469946FF
:1079500028464EF6EE6106F0B7F804282BD13046E3
:107960002146FFF7D3FE042825D10024154F34F813
:107970000780B04503D10234C82CF7D10FE0404650
:1079800007F1C801FFF70EFF0128F4D04046B7F811
:10799000C810FFF7BBFE0428EDD0BDE8F8834846C9
:1079A00006F074F8042806D12846002106F08CF869
:1079B000BDE8F883AB20BDE8F88300BF00400008B5
:1079C000004400087809002010B50446FFF712FFB4
:1079D0000023044A22F813300133642BF9D12046E6
:1079E00010BD00BF78090020632907B507DC074BED
:1079F00033F811000DF10601FFF7D4FE08B1FF20A6
:107A000001E09DF8060003B05DF804FB7809002052
:107A100063290B4605DC034931F813001146FFF7D3
:107A20007DBF7047780900200148FFF7CDBF00BF38
:107A3000420A0020024B18785B78C01A704700BFDA
:107A4000440A0020064B5A781978914204D99918B3
:107A5000013288785A7070474FF0FF30704700BF8E
:107A6000440A0020054B5A781978914202D91344F0
:107A7000987870474FF0FF30704700BF440A0020ED
:107A800070470000014B0360704700BFD813010826
:107A900010B5034B04460360FFF76AFB204610BD98
:107AA000D8130108F8B5094B054693F8223016465D
:107AB00053B10C468F18BC4206D02B6828469B68F1
:107AC00014F8011B9847F6E73046F8BD440A002039
:107AD00010B50C4B012293F822408CB193F823404F
:107AE0001F2C02D94260002010BD93F824001C18FE
:107AF00084F82510411CC9B283F8241083F82310A0
:107B0000104610BD440A0020002242604FF47A72F1
:107B10008260014A0260704788130108704770470D
:107B2000014B93F859007047440A002073B50E4C7E
:107B3000002104F164050D4E0B4600910A462846CB
:107B400000F0AAF86C3432460949284607F088FA52
:107B50002046FFF7D9FF07492046324602B0BDE86C
:107B6000704007F07DBA00BF440A0020EC060020F8
:107B7000F5600008857A0008F0B5164618225043D3
:107B8000214B85B01A181858204B9788C31A5842B1
:107B90005841C7F346050023DCB201330DB16D082F
:107BA000FAE71B4B43F82410214606F037F8012E64
:107BB00002978DF80C5006D003D3022E06D10C2369
:107BC00002E0102300E008238DF80D30012302A805
:107BD0008DF80E3005F0C6FE092C12D80D4B042C82
:107BE0001B5D01A88DF804308CBF0E230D238DF88A
:107BF000053000238DF8063001238DF8073005F09D
:107C000093FD05B0F0BD00BF10000020000C014046
:107C1000C00A0020A813010808B5034B53F8203010
:107C200003B1984708BD00BFC00A002013B5084C37
:107C3000002100910A460B46204600F02DF8054928
:107C4000054A204602B0BDE8104007F009BA00BF5F
:107C5000000B0020F5600008EC0600202DE9F04143
:107C6000002407460E4625463B1919790A2230465C
:107C700000F0ACF82E218046304600F062F8013466
:107C80004044032C0544EFD13046F9790A2200F034
:107C90009DF82844BDE8F08130B58371034D9DF80F
:107CA0000C30056001714271C37130BDC013010811
:107CB0000548064B06490360064A002303714371D9
:107CC0008371C37107F0CCB9080B0020C013010801
:107CD000F5600008EC060020014B0360704700BF10
:107CE000D8130108F8B506460C468F180025BC428B
:107CF00007D0336830469B6814F8011B9847054449
:107D0000F5E72846F8BD000010B5034B04460360B4
:107D1000FFF72EFA204610BDD813010838B50546E6
:107D20000C46084641B107F041FB2B680246DB6870
:107D300028462146984738BD38BD08B5FFF7EEFF05
:107D400008BD08B503689B68984708BD38B50D2184
:107D50000546FFF7F6FF0A2104462846FFF7F1FF24
:107D6000204438BD38B50446FFF7D8FF0546204605
:107D7000FFF7ECFF284438BD30B500238BB08DF8F9
:107D80002430012A98BF0A220DF12304B1FBF2F33B
:107D900003FB1211CDB2092D94BF30353735EDB24A
:107DA000214604F801590BB11946EFE7FFF7B6FF7A
:107DB0000BB030BD10B522B90268C9B292689047C5
:107DC00010BDD2B2BDE81040FFF7D6BFFFF7F2BF3B
:107DD00013B5084C002100910A460B462046FFF7D8
:107DE0005BFF0549054A204602B0BDE8104007F098
:107DF00037B900BF100B0020F5600008EC0600202A
:107E0000B0F900200B46511C1ED041888B4203D391
:107E100081888B4238BF19460C4B182000FB023377
:107E20009A8912B9986806F068BA042A02D198684B
:107E300006F065BA082A02D1986806F062BA0C2AE0
:107E400002D1986806F05FBA704700BF10000020AA
:107E500037B5B0F906500446A942B0F9082004DB52
:107E60009142B4BF0846104600E02846A1886388C6
:107E700000912946FFF728FC81B2204603B0BDE8F7
:107E80003040FFF7BDBF0000B0F90020531C17D0F1
:107E90000C4B182101FB02339A8912B9986806F03D
:107EA00035BA042A02D1986806F033BA082A02D1FA
:107EB000986806F031BA0C2A02D1986806F02FBAF9
:107EC000002070471000002037B50446FFF7DCFFA4
:107ED000B4F90850B4F906306188A2880095FFF71C
:107EE000F3FBB4F9063000B2984204D0B4F908307C
:107EF000984218BF013003B030BD4FF6FF730380C6
:107F00000023C380B42303814FF4087343804FF4EC
:107F100016638380704710B50446FFF7EEFF2046D6
:107F200010BD0000B0F9003010B55A1C04460CD04A
:107F3000074A182101FB03230021986806F071F914
:107F40002046FFF7DAFF012010BD002010BD00BF62
:107F5000100000202DE9F043142989B004460D4695
:107F60001746984601D90020C8E0664E182303FB47
:107F700001639B68002BF6D000F0E6F820B1A5F174
:107F80000D039BB2022BEED9FFF7CAFD08B1012DFC
:107F9000E9D900F087FC20B1A5F112039BB2012BB7
:107FA000E1D9B4F90030013302D02046FFF7BAFF1F
:107FB000BDF940300120E380BDF944300146238102
:107FC00025806780A4F8048005F0BCFE28460421C3
:107FD000FFF724FA182303FB05639B68B3F1804F76
:107FE00002D10120014609E0474A934208BF02201E
:107FF00003D0464A934203D10420012105F0AEFE8E
:1080000044F61F63ADF808301827414B07FB0565A0
:108010001A68404B4FF00009B2FBF3F3013BA8682C
:1080200001A9ADF80430ADF80A90ADF8069005F05E
:108030009DFF6023ADF810300123ADF81230B4F984
:108040000030ADF8189007FB0363ADF816909D89DA
:10805000DFF8B08065B9986804A905F0D1FFB4F9DC
:108060000030082107FB0387B86806F009F92BE008
:10807000042D0CD1986804A906F006F8B4F9003074
:10808000082107FB0387B86806F002F91CE0082DF9
:108090000CD1986804A906F03BF8B4F900302946E1
:1080A00007FB0387B86806F0FDF80DE00C2D0BD137
:1080B000986804A906F06EF8B4F90030082107FBAF
:1080C0000387B86806F0F6F8B4F90030182505FB08
:1080D00003630121986806F0C7F8B4F90030012164
:1080E00005FB0363986806F09CF8B4F900300121A1
:1080F00005FB0366B06806F0A0F8012009B0BDE8F2
:10810000F08300BF10000020000400400008004081
:10811000B003002040420F0013B5084C002100912D
:108120000A460B462046FFF7B7FD0549054A20469B
:1081300002B0BDE8104006F093BF00BF180B00204E
:10814000F5600008EC060020014B587D704700BF29
:10815000200B00207047000013B5084C002100914F
:108160000A460B462046FFF797FD0549054A20467B
:1081700002B0BDE8104006F073BF00BF380B00200E
:10818000F5600008EC06002013B5084C00210091B2
:108190000A460B462046FFF77FFD0549054A204663
:1081A00002B0BDE8104006F05BBF00BF440B0020EA
:1081B000F5600008EC060020014B0360704700BF2B
:1081C000D813010813B5026802AB03F8011DD46887
:1081D00019460122A04702B010BD10B5B0F8962094
:1081E000B0F8943004469A4207D0B4F894305A1C40
:1081F000A4F894201C44207D10BD03681B69984797
:108200000028F2D14FF0FF3010BD10B5B0F8962025
:10821000B0F8943004469A4204D0B4F894301C4428
:10822000207D10BD03681B6998470028F5D14FF0E9
:10823000FF3010BD0023A0F89430A0F896307047AE
:1082400010B5034B04460360FEF792FF204610BDB5
:10825000D813010830B5B0F8963087B0044633B172
:10826000B0F894209A4202D10368DB69984700F085
:108270009BFB18B32069082820D0B4F896307F2BD8
:108280001CD8430906AA02EB8303012100F01F0258
:1082900091400025039553F80C2C01300A4343F814
:1082A0000C2C41F28833059304AB009303A92A46B2
:1082B0002B46049503F0F4FAA84206DCB4F89600C5
:1082C000B4F89430C01A07B030BD206906AB42093B
:1082D00003EB820252F80C2C00F01F0342FA03F366
:1082E000DB07EBD5B4F896202B46A1181431C2F168
:1082F000800203F075FB0028E0DDB4F896300BB97E
:10830000A4F894300344A4F89630D7E7F8B517469C
:10831000B0F89430B0F8962004469A420E4606D142
:1083200003681B69984710B94FF0FF3512E0B4F8A5
:108330009430B4F89650E118ED1ABD4228BF3D467E
:10834000304614312A4606F0E7FEB4F894302B4448
:10835000A4F894302846F8BD10B5044600690828F2
:1083600001D003F00FFA0823236110BD7FB5044646
:108370000D46164600F018FB002836D002200121D9
:10838000062203F0CFF9002820612BDB236820466A
:10839000DB6998470223ADF80030330A8DF80230CC
:1083A0002B794FF4FA508DF804306B798DF8036017
:1083B0008DF80530AB798DF80630EB798DF8073004
:1083C00000F0ECFC6946054610222069FFF70CF826
:1083D0000646284600F0E2FC002E05DA2368204617
:1083E000DB6A9847002000E0012004B070BD000067
:1083F0002DE9F04188B005460E46904600F0D4FACB
:10840000002718B308AC304644F8147D06F0CEFFC0
:10841000224681B2304603F0DBF9B84215DD039BFA
:1084200004A8DAB20092190EC3F30742C3F307237C
:10843000FFF732FC2B6828461C6A064B06A90693F8
:10844000059B42460793A04700E0384608B0BDE8C8
:10845000F08100BFC01301084FF47A7181600549B3
:1084600000220160082142600161A0F89420A0F878
:1084700096207047F0130108036910B5082B0446D5
:1084800001D1002010BD00F08FFA0028F9D020693A
:1084900002F06EFBD0F1010038BF002010BD70B5B6
:1084A00004460E461546FFF7E7FF30B12069314616
:1084B0002A46002303F012FB70BD4FF0FF3070BD61
:1084C00070B50446FFF7D8FF012819D0B4F89620FC
:1084D000B4F894309A4212D12069082803D002F0EF
:1084E00047FB012801D0002070BD236820461B698E
:1084F000984720B923682046DB6A9847F3E70120B4
:1085000070BD08B5FFF7B8FF003018BF012008BDE7
:1085100013B5084C002100910A460B462046FFF790
:10852000BBFB0549054A204602B0BDE8104006F0F5
:1085300097BD00BF4C0B0020F5600008EC06002042
:1085400013B5084C002100910A460B462046FFF760
:10855000A3FB0549054A204602B0BDE8104006F0DD
:108560007FBD00BF540B0020F5600008EC06002022
:1085700038B5184C94F92C305BB394F82D3043B3D4
:1085800005F040FC94F82C2094F82D5051B20029AD
:1085900095FBF1F106DD01290BDC013A84F82C2072
:1085A000002307E0013104DB013284F82C20022390
:1085B00000E0012394F82D20013A84F82D20C418FE
:1085C00005F064FC204605F031FCBDE8384005F0BC
:1085D0005DBC38BD5C0B002013B5084C0021009138
:1085E0000A460B462046FFF757FB0549054A204639
:1085F00002B0BDE8104006F033BD00BF8C0B002078
:10860000F5600008EC06002013B5084C002100912D
:108610000A460B462046FFF73FFB0549054A204620
:1086200002B0BDE8104006F01BBD00BF980B002053
:10863000F5600008EC06002013B5084C00210091FD
:108640000A460B462046FFF727FB0549054A204608
:1086500002B0BDE8104006F003BD00BFA00B002033
:10866000F5600008EC060020014B0360704700BF76
:10867000D8130108426D836DD01A00F03F00704797
:10868000426D836D9A4203D0836D1844007D70471C
:108690004FF0FF307047426D836D9A4209D0836D71
:1086A000826D03441B7D013202F03F028265184651
:1086B00070474FF0FF30704710B5034B044603601E
:1086C000FEF756FD204610BDD813010810B504462C
:1086D000D4F89C20D4F8A0309A42F9D1237C13B965
:1086E0000023237410BDD4F8A4304021186805F08D
:1086F00049FE0028F4D1F1E7D0F8A43070B5044663
:108700000E46186840F2277105F042FE28B9D4F8E9
:108710009C20D4F8A0309A4215D1D4F89C50013551
:1087200005F03F05D4F8A0309D42D4F8A43013D012
:10873000EFF31082D20742D5D4F89C10D4F8A020D1
:10874000914209D13BE0D4F8A43040F22771186877
:10875000012205F0F7FDE0E7186840F2277105F007
:1087600017FE0028DED0D4F8A4308021186805F068
:1087700009FE0028D6D0D4F8A43040F2277118683A
:10878000002205F0DFFDD4F8A4301868D4F8A0303A
:108790005A1C2344C4F8A02093F85C1005F0EAFDAD
:1087A000D4F8A03040F2277103F03F03C4F8A030A2
:1087B000D4F8A4300122186805F0C4FDB2E7D4F85B
:1087C0009C2040F22771224482F85C60C4F89C50DF
:1087D0000125186825742A4605F0B4FD284670BDA9
:1087E00010B540F225510446006805F0D1FD70B186
:1087F000206805F0C3FDE369C0B21A6C596C013200
:1088000002F03F028A4202D0196C58541A64206860
:1088100040F2277105F0BCFDB8B1A3692068196C5E
:108820005A6C914206D1BDE8104040F227710022F7
:1088300005F088BD5A6C511C5964995C05F09AFD8D
:10884000A3695A6C02F03F025A6410BDF8B54FF4A8
:108850007A7383600C4B0446002503604560C0F8C2
:10886000A41004F15C07482614308F613246C861B9
:10887000294606F075FC38462946324606F070FC5B
:1088800025742046F8BD00BF301401080148FFF7E9
:10889000A7BF00BF0C0200200148FFF7A1BF00BF27
:1088A0002C020020014B187C704700BFA80B002051
:1088B00073B50E4C002104F114050D4E0B460091CA
:1088C0000A462846FFF7E8F91C343246284609498B
:1088D00006F0C6FB20460849FFF7B8FF07492046C7
:1088E000324602B0BDE8704006F0BABBA80B0020CB
:1088F000EC060020F56000080C02002069860008E4
:1089000070474FF0FF307047014B0360704700BF66
:10891000D813010810B5034B04460360FEF728FC8A
:10892000204610BDD8130108FEF73EBB08B5FEF780
:1089300027FB08BD08B50846FEF756FB012008BD19
:10894000002242604FF47A728260014A02607047EE
:10895000581401080846FEF7FBBA704737B50D4CAE
:1089600000210D4D0B4600910A462046FFF794F971
:108970002A460A492046083406F072FB2046FFF7D3
:10898000DFFF074920462A4603B0BDE8304006F025
:1089900067BB00BF6C0C0020EC060020F5600008EF
:1089A0000989000870470000054B1B7803F0FF00A1
:1089B00023B1044B1878003018BF0120704700BF66
:1089C000DA0C00209C0C002038B5FFF7EDFF0546BF
:1089D000A8B90B4B0124187003F0E0F8094BFF20F5
:1089E0001C70094B1C7003F001FFE72003F072FFBD
:1089F000284629462246BDE8384003F09BB938BDD9
:108A0000970C0020DA0C0020A00C002008B5FFF71E
:108A1000CBFF58B1064B002001221A7001460246D6
:108A200003F088F9BDE8084003F06AB908BD00BF4B
:108A3000970C0020014B01221A707047D90C0020BE
:108A4000014B01221A707047D30C0020084B1B7891
:108A500003F0FF0053B1074B1B7833B9064B18786E
:108A6000D0F1010038BF002070470020704700BFE0
:108A7000D30C00204D0200204C0200202DE9F043D1
:108A80001446324A89B012781D4681468846109BAA
:108A9000002A58D022782AB1032B4AD8DFE803F005
:108AA000020E3939002001230093019002900390B7
:108AB0000490059049464246034636E0244B1B7815
:108AC00003F0FF06D3B9204606F070FC27464508A0
:108AD0008DF81E60AE4207F102070FD017F8023C76
:108AE00007A88DF81C3017F8013C002110228DF8E2
:108AF0001D3006F0FFFCA0550136EBE700230120F6
:108B00008DE821000293039304940593494642465D
:108B10000BE0012018211E2202238DE80F0004948F
:108B20000595032049464246002303F027F9094BE7
:108B30001870084A084B12780E2001321A70012171
:108B4000002202F09BF909B0BDE8F083DA0C0020A6
:108B50004D020020250D0020BC0C0020024B18788F
:108B6000003018BF01207047BC0C002008B5FF2062
:108B700003F0EAF918B900F0F7F8012008BD002069
:108B800008BD000037B50B4C00210B4D0B46009182
:108B90000A462046FFF780F82A462046074906F095
:108BA0005FFA074904F108002A4603B0BDE83040E7
:108BB00006F056BA840C0020EC060020F560000890
:108BC000A58900080023036018467047002303604E
:108BD0001846704700230360184670470A4BF7B5E4
:108BE000164601220C461A70054606F0DFFB0746C2
:108BF000204606F0DBFB009603463946284622460F
:108C0000FFF73CFF03B0F0BD4C02002038B503462F
:108C100048F21004A34208464CD00DDC48F2010291
:108C2000934225D048F2020293422ED0992B6CD168
:108C3000364B01229A7338BD48F28004A3420FD00C
:108C4000B3F5084F49D048F2400083425DD12F4C24
:108C500004F1100006F060FA636A0133636238BD04
:108C60002B4B01225A70294B1A7000225A7038BDC2
:108C7000264C0123A370E378002B46D1FEF7DCFCE1
:108C800000F5EA403030606038BD204CA3780BB16D
:108C9000E3789BB300250123FF20A5702572657240
:108CA000A572E572237303F0A1FDE72003F012FE25
:108CB000657338BD0A7D154B62B95A604FF47F4029
:108CC00001221A721A7303F091FDBDE83840E720C3
:108CD00003F000BE00221A7238BD002101F02DFB06
:108CE0000121044601F070FB0A4B1B689C420CD129
:108CF000064B0022DA729A725A7238BDFEF79CFC5B
:108D000000F5EA4030306060C4E738BD940C0020C4
:108D10004C020020080000201FB54FF461504FF4B2
:108D200061610A2200238DE80F00064B44F62062A1
:108D30001A60684601A902AA03AB02F019F805B04F
:108D40005DF804FBF80D00201FB50023009301938C
:108D50000293039301A8694602AA03AB01F0CEFF78
:108D600005B05DF804FB000070B500210A4C0E2030
:108D700002F0D0F8102510210E2002F0CBF82A4680
:108D80002046002106F0ECF9294623460E20002259
:108D9000BDE8704002F072B8BC0C0020024B1A68AB
:108DA00018601046704700BFF80D002030B5224C07
:108DB00085B0A06304F08EF803F0AAFF1F4B204A91
:108DC0000093204B20490193204B21480293214BD3
:108DD0000393214B02F0CAFE642003F0A9FBFFF7C6
:108DE000F3FD48F2042003F0CBF81C4B1A881D4613
:108DF000012A17D00E201021002204F1280302F0CE
:108E00000FF810280ED1637813B9FFF7A7FE80B1D1
:108E1000134802F065F8FFF797FF05B0BDE8304052
:108E2000FFF77ABFFFF7A2FE00232B8004F08EF934
:108E3000E9E7FFF705FEEBE7940C002011CE0008F0
:108E4000CD8B000825CE0008C58B000891CE000808
:108E50000D8C0008B9CE0008D58B00089E030020B9
:108E6000D00C0020F0B5194DAFB00D2043210022E9
:108E70002B4601F0D5FF432826D12F781449FE1C3C
:108E80007419204602AA02F0F1FB2B782B445B7880
:108E9000102B05D904F110000D4902AA02F0E6FBDF
:108EA000E37F1BB1AB5D1F2B03D100E0AB5D013451
:108EB00000E020230748394610F8012C1544AA7811
:108EC00000922246FFF7DAFD2FB0F0BD580E0020C9
:108ED00078140108590E002070B5304C304D002335
:108EE0009EB0FF206B7023702B70A3702372A3734E
:108EF0006372A372E372237303F078FCE72003F03C
:108F0000E9FCFFF783FD10210C2002F003F825484F
:108F100002F0B8FBA81C03F081F8012003F062F80E
:108F20006846214900F01AFDFFF790FD0646D8B1CA
:108F300094F83E3073B11A26013E06D0E72003F0C4
:108F4000EFFC322003F0F4FAF6E7FFF70FFE84F8A7
:108F50003E60E9E7E72003F0E3FCFA2003F0E8FADB
:108F6000684600F05FFDDFE7E72003F0B3FC0F4B3E
:108F70000E200121324601F053FF6B780BB1FFF751
:108F800071FFFFF721FD48F2042002F0F9FFFFF71F
:108F9000C3FE002384F83F301EB070BD940C002047
:108FA0004C02002078140108DD8B0008BC0C002066
:108FB0002DE9F341A44C04F059FE0023236494F8F6
:108FC00044304BB994F8453033B963685BB3FEF76E
:108FD00033FB6368984226D394F846309A4D53B3D6
:108FE0000023AB706B602B72AB6485F8443085F85E
:108FF00046306B72AB72EB726B7302F005FE0123AD
:109000006FF07F402B7303F0F1FBE72003F062FC6D
:10901000642003F08DFA95F83F3063B1FFF7D4FC7C
:10902000FFF75AFF07E094F84630874D1BB96B787D
:109030006BB3FFF7C9FC94F83F30834D13B1FFF7D2
:109040004BFF05E06B781BB12B7A03F0FF0643B3AF
:1090500022787D4B012A13D11A7A012A10D19B78EC
:10906000012B0DD10325794806F0A0F9013D82B20C
:109070007649012002F03CFD15F0FF05F3D1257083
:10908000237A714D6BB395F84530FBB129E0EB784D
:10909000002BCED1FEF7D0FA00F5EA403030686000
:1090A000C7E76E60FFF7B2FC694806F07FF9694FC9
:1090B0008046384606F07AF900970190791F032020
:1090C0004246334602F0B6FD6E70C1E795F84F3068
:1090D0007BB9642003F02CFA05F14C0001F08EFE00
:1090E00007E094F84F3023B15B4800213A2206F0A4
:1090F00037F894F88620544B32B95A7A002A48D16E
:109100009B7A002B45D19CE01A7AFAB193F845205E
:10911000E2B95A7A002A4CD018E02B4603F82B2FDC
:109120000E200121032201F0A9FE00264FF6FF7058
:10913000267303F05BFBE72003F0CCFBFEF7E0F8BF
:10914000B042414D55DB0123AE646B72637A3E4DF4
:10915000002B76D0AB7ABBB9FEF762F8002811D0AD
:1091600002DA4FF47F0007E0012801D13B4803E019
:10917000022803D14FF0FF1003F038FBE72003F083
:10918000A9FB01E00123AB7202B0BDE8F041FEF79C
:109190002BB8FEF7A5F800234FF47F40E372A372CB
:1091A000637203F023FBE72002B0BDE8F04103F057
:1091B00091BB5B7B002BB8D04FF47F0003F016FB14
:1091C000637B214D03F0FF02002BA6D0E72003F0C4
:1091D00081FB4FF4FA7003F0ABF9E72003F088FB52
:1091E0004FF4FA7003F0A4F96B7B013BDBB26B73B5
:1091F000E6E795F8443023BBAB6C0133022BAB643C
:1092000004BF012385F84430FEF738F800280ADA55
:10921000A36C0133022BA36403D10B4B012283F80F
:109220004420022300E003236373637B0E2084F851
:109230002B3001210A4B032201F020FE0023637230
:1092400084E702B0BDE8F081940C002051020020B8
:10925000580200205D020020E00C00200060FF00AA
:10926000BF0C002013B5084C002100910A460B46A4
:109270002046FEF711FD0549054A204602B0BDE82B
:10928000104005F0EDBE00BF1C0D0020F560000889
:10929000EC060020704708B5012004F05FF9FEE7F6
:1092A00008B5032004F05AF9FEE708B5042004F0DD
:1092B00055F9FEE708B5052004F050F9FEE77047C0
:1092C0007047704708B503F0C3FFBDE80840FDF7DD
:1092D00073BD000008B5024B0BB1AFF3008008BDB1
:1092E0000000000008B5024B0BB1FFF7D5FA08BD2E
:1092F0009988000808B5024B0BB1FFF7C7FA08BD03
:109300008D88000808B5024B0BB1FEF707FC08BDBD
:109310001D7B000808B5024B0BB1FEF700FC08BD31
:109320001F7B000808B5024B0BB1FEF713FF08BD09
:109330005581000808B5012004F054FB38B1012024
:1093400004F05EFB024B13B10020FEF765FC08BD84
:10935000197C000808B5022004F044FB38B1022053
:1093600004F04EFB024B13B10120FEF755FC08BD83
:10937000197C000808B5042004F034FB78B10420FF
:1093800004F03EFB0020064B0146188003F050FB22
:10939000BDE8084003481021012204F05CBF08BD6D
:1093A000180E0020002C014008B5082004F01AFB1C
:1093B00038B1082004F024FB024B13B10320FEF760
:1093C0002BFC08BD197C000808B5102004F00AFB2E
:1093D00038B1102004F014FB024B13B10420FEF747
:1093E0001BFC08BD197C000808B5202004F0FAFA1F
:1093F00038B1202004F004FB0E4B13B10520FEF71A
:109400000BFC402004F0EEFA38B1402004F0F8FAEA
:10941000084B13B10620FEF7FFFB802004F0E2FAB0
:1094200038B1802004F0ECFA024B13B10720FEF7AC
:10943000F3FB08BD197C000808B54FF4005004F098
:10944000D1FA40B14FF4005004F0DAFA174B13B1DF
:109450000D20FEF7E1FB4FF4804004F0C3FA40B169
:109460004FF4804004F0CCFA104B13B10E20FEF7FD
:10947000D3FB4FF4004004F0B5FA40B14FF4004084
:1094800004F0BEFA094B13B10F20FEF7C5FB4FF4F1
:10949000006004F0A7FA38B14FF4006004F0B0FAAD
:1094A000BDE8084002F0C4BF08BD00BF197C000839
:1094B00008B51048102104F036FFC8B10D4810213E
:1094C00004F03CFF002003F077FB30B90A4B1A8808
:1094D00092B20A3292B21A8008BD064810210022C8
:1094E00004F0B9FEBDE808400020012103F0A0BA55
:1094F00008BD00BF002C0140180E002008B5024B2B
:109500001B6803B1984708BD280D002008B5024B21
:109510005B6803B1984708BD280D002008B5024BD1
:109520009B6803B1984708BD280D002008B50120AD
:1095300004F0C2FC50B1012004F0CEFC044B0BB18E
:10954000FFF716F8BDE8084004F0A0BC08BD00BF56
:109550007185000808B5022004F0AEFCB0B10C4BD8
:1095600000224FF400301A7004F04AFA012004F08F
:10957000A7FB10B1012004F0ADFB04F087FC022032
:1095800004F0AAFCBDE8084004F080BC08BD00BFA0
:10959000D90C002002F0C2BE00F062B838B5144900
:1095A0000B78012B23D1134A13680BB90B7038BD0C
:1095B000114C402B206881B205D94030403B2060DF
:1095C0001360402504E09DB2034423600023136030
:1095D0000A482A460844C02105F0E4FB0120294638
:1095E00005F0E8FCBDE83840012005F04DBC38BD71
:1095F000D8060020E0060020DC060020D805002068
:1096000008B5094B01221A70084B002203201A806A
:1096100005F000FD064B024618804FF4887105489E
:10962000BDE8084005F0D6BB8C0500209005002061
:109630008E05002092050020074B1B68052B09D1E1
:10964000064B1A68511C052A196003D100221A60C2
:10965000FDF7E8BC704700BF440E0020340D002029
:1096600070B52B4D2B4C2B682B4E9BB22380228840
:1096700033881340990508D54FF6FF532B60A37824
:109680000133DBB2A370FFF7D7FF22883388134082
:109690001A0401D505F0D0FA2288338813405B05FF
:1096A00005D54FF6FF332B601C4B5B68984722882B
:1096B00033881A40900444BF4DF6FF722A60228816
:1096C0001340D90405D54EF6FF732B60002003F03C
:1096D00003FF2288338813401A050BD5104B1B78E3
:1096E00013B103F0D9FE02E0022003F0F5FE4FF2C1
:1096F000FF732B60228833881340DB0507D54FF6B4
:10970000FF632B600720BDE8704003F0E5BE70BD2D
:10971000445C0040380D002058170020C40200208F
:10972000C4030020034B9B7A13B1034B05221A603C
:10973000704700BF34170020440E0020014B042264
:109740001A607047440E0020034B1A78202A04BF89
:1097500000221A70704700BF3C0D002070470000C7
:10976000212810B508D1114B1B681B7803F07F032B
:10977000212B10D0022010BD2028FBD10B4B0C4A0E
:109780001B681B78107003F07F03212B094B18BF57
:1097900000230BB9EEE7084B044A00241268204668
:1097A000936154829847204610BD00BF5417002093
:1097B0003C0D002009980008F1970008074B1B6832
:1097C0001B7803F07F03212B06D100F0DF00022875
:1097D00014BF022000207047022070475417002059
:1097E00009B1022070470128FBD8084670470000E5
:1097F00020B9034B08221B681A8270470148704742
:1098000054170020BC02002020B9034B08221B681B
:109810001A8270470148704754170020BC0200208C
:1098200010B5FDF74BFC054B00241B689C7203F040
:109830001BFE05F005FC024B1C6010BD54170020F8
:10984000440E0020334B344A1B68D27910B50024F3
:109850005A729C72DC72204605F0CEFA20464FF414
:10986000007105F0D1FA2046102105F0DBFA204600
:10987000402105F073FB8021204605F05FFB204668
:1098800005F028FB254B204693F8341005F0A0FB8B
:10989000204605F00CFB0120214605F0B5FA012019
:1098A000C02105F04BFB0120202105F0BBFA01206F
:1098B000214605F0D0FA02204FF4C06105F0A4FA69
:1098C00002204FF4807105F039FB0220214605F09B
:1098D000C2FA0220202105F0A5FA0320214605F056
:1098E00093FA03204FF4887105F038FB03204021E0
:1098F00005F06EFB03204FF4405105F0ACFA032055
:10990000214605F08FFA204605F02AF9044B012282
:109910001A6010BD54170020E5140108BC02002095
:10992000440E0020014904F017BF00BFF4020020DC
:10993000014904F011BF00BFFC020020054B1B6869
:10994000DB78042B04D8044901EBC30104F004BF05
:1099500000207047541700200403002038B5044647
:109960000D46FEF7EDFF204625614FF41651FEF738
:10997000F1FF20460249FEF7F5F9204638BD00BF49
:109980000958010870B506460D460024284605F022
:109990000DFD844208D2295D3046FEF7CBFF012041
:1099A00002F0C6FD0134F1E770BD00002DE9F04181
:1099B00004460E46904600252046FEF7B7FF0028D5
:1099C000FADD2046FEF7B0FF4545C1B206D10023BF
:1099D000337020461249FFF7D5FF15E00D29F6D068
:1099E0000A29F4D0082901D07F2904D1002DE3D021
:1099F000771E013D02E0771C317001352046EDB243
:109A0000FEF798FF3E46D7E72046FEF78FFF002877
:109A100003DD2046FEF788FFF6E7BDE8F08100BFD2
:109A2000CF590108F8B50446FEF780FF002871DD24
:109A30002046FEF779FFC0B277286BD104F11406F7
:109A400000212122304604F1350505F089FB412231
:109A50000021284605F084FB04F17607002384F8F2
:109A6000763020462C497B70FFF78CFF204631462C
:109A70002022FFF79BFF20462849FFF783FF0122A2
:109A800020463946FFF792FF94F87630A3F1300272
:109A9000D2B2032AEFD8312B0BD120462049FFF751
:109AA00071FF20461F49FFF76DFF20461E49FFF753
:109AB00069FF94F87620B2F1300708D020461B49A0
:109AC000FFF760FF204629464022FFF76FFF204640
:109AD0001749FFF757FF23693A463046294698470A
:109AE00020461449FFF74EFF20461349FFF74AFF6F
:109AF00020461249FFF746FF20461149FFF742FF73
:109B000020461049FFF73EFF20460F49BDE8F840C8
:109B1000FFF738BFF8BD00BF3058010837580108BB
:109B2000645801089A580108C55801080B590108E2
:109B3000165901085959010879590108AC59010809
:109B4000D2590108115A0108425A010813B5084CAC
:109B5000002100910A460B462046FEF79DF8054974
:109B6000054A204602B0BDE8104005F079BA00BFB2
:109B7000400D0020F5600008EC06002038B50446D2
:109B80000D46FDF759FD84E82100204638BD38B563
:109B900004460D46FDF750FD4FF47A735D43206097
:109BA000656038BD38B504460D46FDF745FD84E8CF
:109BB000210038BD10B50446FDF73EFD2368C01AEC
:109BC0006368984234BFC0EB0300002010BD08B5A5
:109BD000FFF7F0FFD0F1010038BF002008BD000002
:109BE00013B5084C002100910A460B462046FEF7AB
:109BF00053F80549054A204602B0BDE8104005F07B
:109C00002FBA00BF480D0020F5600008EC060020C8
:109C10007FB501240646A640254B204621461C70F0
:109C200004F09CF82046214604F0A4F820460021C8
:109C300004F0A0F81F4B204A04A81A601C2200253B
:109C400000F8102D68468DF801508DF802408DF80F
:109C5000034003F069FD194B01A91A684FF4FA6338
:109C6000B2FBF3F3013B4FF08040ADF80430ADF8A8
:109C70000650ADF80860ADF80A508DF80C5004F0AD
:109C800075F94FF08040082104F02CFB2246214654
:109C90004FF0804004F0DFFA21464FF0804004F09E
:109CA0004DFB4FF08040214604F0BBFA04B070BD7C
:109CB000500D0020280D00201D9D0008B00300203D
:109CC00070B50B4C054623781646012B0AD0201D93
:109CD00000F0D3FA23782661012B06D02846FFF73F
:109CE00097FF02E04FF0FF3070BD002070BD00BF55
:109CF000500D002010B5084C002223782270012B53
:109D000009D1201D00F0CFFA28B1201D2169BDE83E
:109D1000104000F0B4BA10BD500D002008B54FF04F
:109D20008040012104F0FFFA40B14FF08040012152
:109D300004F004FBBDE80840FFF7DCBF08BD0000ED
:109D400037B50A4C002104F114050B4600910A4670
:109D50002846FDF7A1FF28460549064A05F080F987
:109D6000201D03B0BDE8304000F083BA500D002044
:109D7000F5600008EC06002038B504464160028119
:109D80009820FDF7F3F90546FEF766FB25602046AF
:109D900038BD034610B5006859680268546A1A89CC
:109DA000A04710BD08B500680368DB6A984708BD86
:109DB00008B50068FEF760FB431E5842584108BDD5
:109DC000006808B503681B6998470028D4BF0020C5
:109DD000012008BD08B500680368DB68984708BD26
:109DE000F7B506460F46684619461546FFF7C6FE04
:109DF00000246846FFF7EBFE60B9AC420AD2306837
:109E000039460268D2F828C02A1BE0470028F0DD56
:109E10000444EEE7204603B0F0BD000013B5084C43
:109E2000002100910A460B462046FDF735FF054903
:109E3000054A204602B0BDE8104005F011B900BF48
:109E40006C0D0020F5600008EC06002073B5044698
:109E50000D461646FEF75FF8A572B42300254FF4B1
:109E60000872019331464FF41663E572009520465F
:109E7000FEF770F8A07A2946FDF7D0FAA07A2946B5
:109E8000FDF754FB204602B070BD0021C172807AFC
:109E9000FDF74CBB38B5C37A0446092B04D92046DC
:109EA000BDE83840FFF7F1BFC27A124BD2B203EBE4
:109EB000820113F822304D887BB1012B18D1FEF7B7
:109EC00003F8401B294680EAE075A5EBE07505EB39
:109ED00085052046ADB2FDF7BBFFE37A2846013386
:109EE000DBB2E37204492246FFF7EAFE0028D6D12E
:109EF00038BD00BF740D00201F9F000810B5C37A45
:109F0000044603F0FF0243B9C272FFF7C3FFA07A11
:109F10000121FDF70BFB012010BD002010BDFFF754
:109F2000B9BF000073B5154C002504F128062B4677
:109F300029462A4600953046FDF7AEFE30461049C8
:109F4000104A05F08DF8104EC823324652F8040B23
:109F500025711168B26840F6B8362060E380A160D0
:109F6000E26025746682606125766383E161226226
:109F700084F82450E38402B070BD00BF740D00204B
:109F8000F5600008EC0600203A150108C068FFF7EC
:109F9000B5BF38B5041D05462046FFF718FE48B189
:109FA000E868FFF7ABFF204644F62061BDE8384083
:109FB000FFF7F8BD38BD0000F8B50A4B04460E4661
:109FC00040F8043B00211746FFF7D8FD0C20FDF7B1
:109FD000CDF8314605463A46FFF738FFE5602046A2
:109FE000F8BD00BF5015010873B5134C00252B4672
:109FF00029462A4600952046FDF74EFE20460F4989
:10A000000F4A05F02DF80F4AC82350699169D269AB
:10A0100040F6B836A0602573E38121616261257640
:10A020006683E06184F8205063846162A26284F8F0
:10A030002C50E38502B070BDA40D0020F56000082F
:10A04000EC06002048150108024B007902491A88E5
:10A0500000F054B8305401088015010813B5084CBD
:10A06000002100910A460B462046FDF715FE0549E2
:10A07000054A204602B0BDE8104004F0F1BF00BF21
:10A08000D40D0020F5600008EC06002038B5194812
:10A09000102104F048F958B3174C1648102104F069
:10A0A0004DF92388628801339BB29A4223801FD8DE
:10A0B000A388E28801339BB200259A422580A380C1
:10A0C0000FD22A460B48102104F0C5F809480C218C
:10A0D0002A4604F0F9F8207A0121BDE83840FDF75E
:10A0E0009DB9E2680348D15CBDE8384004F00BB983
:10A0F00038BD00BF00040040DC0D0020F0B5394C35
:10A10000182505FB0044A66804F10805364C89B003
:10A11000A64264D1AC880C2C61D1344C2C23E28053
:10A12000334AA38012688B69120A23829BB20025EE
:10A13000B2FBF3F3E1600421638020722580FDF718
:10A140006DF90220012103F009FE0220012103F034
:10A1500011FE2946022003F00DFE264A264B08A8D0
:10A160001A601D23012700F8203D68468DF8015034
:10A170008DF802708DF8037003F0D6FA4FF48073F7
:10A18000304601A9ADF80830ADF80450ADF80650DE
:10A19000ADF80A508DF80C5003F0E8FE6023E26839
:10A1A000ADF81030A388ADF81270ADF81850D35C3C
:10A1B000304604A9ADF8163003F0ECFF3046082114
:10A1C00004F078F8304610213A4604F044F830465E
:10A1D000102104F0B3F83046394604F022F809B0F3
:10A1E000F0BD00BF1000002000040040DC0D002086
:10A1F000B00300208DA000082C0D002013B5084CE2
:10A20000002100910A460B462046FDF745FD054911
:10A21000054A204602B0BDE8104004F021BF00BF4F
:10A22000F00D0020F5600008EC060020002202601E
:10A23000426070474160704710B543687BB1046865
:10A240005CB1806810F0010F4FEA600018BF22581F
:10A25000204418BFD358984710BD0846984710BDF2
:10A26000036823B94068003018BF012070470120FF
:10A27000704700220260426070474160704710B52D
:10A2800043687BB104685CB1806810F0010F4FEA4D
:10A29000600018BF2258204418BFD358984710BDFB
:10A2A0000846984710BD036823B94068003018BFBE
:10A2B0000120704701207047002100F004B80E4BC8
:10A2C0005B58435004310D480D4B42189A42FFF43D
:10A2D000F6AF0C4A00F003B8002342F8043B0A4BE7
:10A2E0009A42FFF4F9AF03F045F8FCF7A5FCFCF740
:10A2F00021FFFCF7EFFC70472C5D010800000020F7
:10A30000680400206804002064170020FFF7FEBFE7
:10A310000B0A017043700B0C090E8370C17004307E
:10A3200070470170090A41700230704743185A782B
:10A33000435C03EB022080B2704710B543189A7853
:10A34000DC78415C120402EB046258780A4402EBA8
:10A35000002010BD73B544790023022C01930FD067
:10A36000032C19D0012C2BD1164D2B692E4623B16D
:10A370002B6901A898470246B8B9B16801201BE0D3
:10A38000104DEB682E4623B1EB6801A898470246B2
:10A3900058B9B16802200FE00A4D6B692E464BB1E7
:10A3A0006B6901A89847024620B1A9682046BDF80C
:10A3B000043003E0B16803200022134600F03AFCA9
:10A3C00002B070BD9C0E0020072870B518D8012976
:10A3D00016D80125854001FA00F0ED43094B1A68B3
:10A3E000BFF35F8F05EA0204044353E8001F914264
:10A3F00003D143E80046002EF7D1BFF35F8FEDD1C4
:10A4000070BD00BF4C03002070B5012186B0054629
:10A41000FFF78CFF430404463AD5B0F5824F37D19D
:10A4200028460521FFF782FF05EB8000EE1D002482
:10A43000C51DAE4206D030460221FFF777FF043635
:10A440000444F6E77A4BBFF35F8FD3E85F1F2144E4
:10A45000C3E8521F002AF8D1BFF35F8F0C33BFF35C
:10A460005F8F53E8001F214443E80012002AF8D10F
:10A47000BFF35F8F3C3BD96B9A6B914240F0CA802F
:10A4800093F84020002A00F0C5809B69992031E0B4
:10A4900024F4FF4020F07F0080B2002800F0978075
:10A4A00048F210039C4228D00CD8B4F5004F40F27B
:10A4B000BC8048F202039C4215D948F204039C4236
:10A4C00011D0B2E048F280039C420CD004D848F28C
:10A4D00040039C424FD0A8E0B4F5024F03D0B4F53E
:10A4E000084F6BD0A1E0534B9A69002A00F092808C
:10A4F0009B69204600210A4667E00023EA1852794A
:10A500000DF803200133042BF8D16B7A05F10D000F
:10A510008DF80430AB7A8DF80530EB7A8DF8063083
:10A520002B7B8DF80730002300AA1A44C15C01334D
:10A53000042B1172F8D105F11100002300AA1A446E
:10A54000C15C0133042B1173F8D105F11500002310
:10A5500000AA1A44C15C0133042B1174F8D12B7981
:10A560008DF81430334B9A69002A53D09B692046EA
:10A570006946152229E0053500212846FFF7DDFE52
:10A58000042100902846FFF7D8FE082101902846B4
:10A59000FFF7D3FE0C2102902846FFF7CEFE1021D4
:10A5A00003902846FFF7C9FE224B04909A69002ABF
:10A5B00030D09B6920466946142206E01D4B9A69FB
:10A5C00042B39B692046691D0122984722E041F26F
:10A5D00003039C4205D0A4F580530E3B9BB2012B94
:10A5E0001AD86C1D20460421FFF7A7FE39301CD174
:10A5F0002A79104B00212046DA62FFF79EFE0421E3
:10A6000005462046FFF799FE393003D1284601213F
:10A61000FFF7DAFE012009E0064B1B889BB29C4243
:10A6200004D0B4F5805FF5D100E0002006B070BD25
:10A63000CC0E00209C0E002070B50E4C6688B6B281
:10A64000B6B1606805782B1F5D425D412DB1FFF703
:10A65000DBFE003018BF012000E02846064618B98E
:10A6600035B194F841301BB90023638001F084FDBB
:10A67000304670BD9C0E00202DE9F04F85B0044699
:10A680008A46914602F0ECFD00250190DFF8088330
:10A69000B8F8023046469BB2002B40F0938003F09E
:10A6A000E5FA02F0DDFD0290029A019BD31A0393B2
:10A6B000039B002B03DA019B029A13440393B54BCF
:10A6C0001B68002BE2D0039A9A42DFD3338841F211
:10A6D00007029BB2934227D841F20602934261D20D
:10A6E00040F2022293425DD00FD80C2B08D8082BE1
:10A6F00058D2002B4FD0062B88BF00235AD851E0E8
:10A700000D2B4CD040F201220BE041F202029342A9
:10A710004BD8B3F5805F45D8B3F5017F3FD940F200
:10A720000722934237D13AE041F21102934236D0E8
:10A7300014D841F20B02934234D005D841F20902F9
:10A7400093422FD031D82AE041F20F0293422CD00D
:10A7500028D841F20D02934227D01CE042F20602B3
:10A7600093421CD007D8B3F5005F14D942F204021B
:10A77000934221D813E0B3F5804F00F0F28105D861
:10A78000A3F50053083B012B09D904E044F20B0266
:10A79000934200F0E6810B2002F0E0FEE1E1FF23AE
:10A7A0002370DEE14FF0FF3304E04FF0FF3323600E
:10A7B0006360D6E12360D4E1204600213A2204F010
:10A7C000CFFCCEE1D8F804603378042B40F07D81D3
:10A7D00001213046FFF7AAFD05463046FFF714FE7B
:10A7E0000146002840F0668141F207039D4206F1D0
:10A7F000050752D841F206039D4280F0AC8040F23A
:10A8000002239D4200F0A78011D80C2D09D8082DF5
:10A8100080F0A180002D00F04D81062D00F2E8802F
:10A8200099E00D2D00F0948040F201237EE041F28A
:10A8300002039D4218D8B5F5805F00F28C80B5F513
:10A84000017F40F2858040F207239D4240F0328133
:10A850003379384604F8013B0021FFF76EFD0146CD
:10A860002046FFF755FD25E141F204039D4200F02B
:10A87000958040F2AB8000213846FFF75EFD042151
:10A8800020603846FFF759FD083444F8040C06F1FF
:10A890000D03224606F11D0175E041F211039D42B0
:10A8A00056D02BD841F20B039D4254D01CD841F214
:10A8B00009039D424FD000F2968000213846FFF7F1
:10A8C0003CFD042120603846FFF737FD0821606019
:10A8D0003846FFF732FD0C21A0603846FFF72DFD0A
:10A8E00004F10C0BE060E4E041F20F039D426DD0F7
:10A8F00037D841F20D039D4250D0DBE042F2050310
:10A900009D4200F0998007D841F212039D4235D054
:10A91000B5F5005F1CD8CDE042F209039D4208D88E
:10A9200042F208039D4213D242F206039D420FD029
:10A93000C0E044F20B039D4240F0BC80737938467E
:10A940000121A8F83030FFF7F1FCA8F83200B1E09F
:10A9500033792370AEE038460021FFF7EEFC20602B
:10A96000A8E000213846FFF7E8FCA3464BF8040BAB
:10A9700004213846FFF7E1FC60609AE03846FFF7B3
:10A98000D5FC208096E053F8040B8B4242F8040B70
:10A99000F9D18FE0F80D00209C0E002000213846F0
:10A9A000FFF7CBFC042120603846FFF7C6FC0821E6
:10A9B00060603846FFF7C1FCE36804F1080B3933E7
:10A9C000A06076D10121FFF7FFFC72E0002138463C
:10A9D000FFF7B3FC042120603846FFF7AEFC0834D3
:10A9E00044F8040C66E0337923713B68236061E02E
:10A9F00000213846FFF7A1FC042120603846FFF70C
:10AA00009CFC082160603846FFF790FC0A21A0609A
:10AA10003846FFF78BFC0C3444F8020C06F11103A6
:10AA2000224606F1350153F8040B8B4242F8040B21
:10AA3000F9D11B8813803DE073185B7963540131B1
:10AA40000429F9D106F109000023C15CE2180133A1
:10AA5000042B1171F9D106F10D000023C15CE2183D
:10AA60000133042B1172F9D106F111000023C15CEE
:10AA7000E2180133042B1173F9D106F115000023FC
:10AA8000C15CE2180133042B1174F9D106F11900ED
:10AA90000023C15CE2180133062B1175F9D106F1D0
:10AAA0001F000023C15CE2180133202B9176F9D1FD
:10AAB00000E05C46B8F800202C4B92B2954236D1AB
:10AAC00000221A8083F8412031E0B8F836309BB27A
:10AAD0006BB33046032196F802B0FFF727FC074618
